{
  "_format": "hh-sol-artifact-1",
  "contractName": "ArbitrumKeyDeriver",
  "sourceName": "contracts/lit-node/HDKeyDeriver.sol",
  "abi": [
    {
      "inputs": [
        {
          "internalType": "address",
          "name": "_resolver",
          "type": "address"
        },
        {
          "internalType": "enum ContractResolver.Env",
          "name": "_env",
          "type": "uint8"
        }
      ],
      "stateMutability": "nonpayable",
      "type": "constructor"
    },
    {
      "anonymous": false,
      "inputs": [
        {
          "indexed": true,
          "internalType": "bytes32",
          "name": "role",
          "type": "bytes32"
        },
        {
          "indexed": true,
          "internalType": "bytes32",
          "name": "previousAdminRole",
          "type": "bytes32"
        },
        {
          "indexed": true,
          "internalType": "bytes32",
          "name": "newAdminRole",
          "type": "bytes32"
        }
      ],
      "name": "RoleAdminChanged",
      "type": "event"
    },
    {
      "anonymous": false,
      "inputs": [
        {
          "indexed": true,
          "internalType": "bytes32",
          "name": "role",
          "type": "bytes32"
        },
        {
          "indexed": true,
          "internalType": "address",
          "name": "account",
          "type": "address"
        },
        {
          "indexed": true,
          "internalType": "address",
          "name": "sender",
          "type": "address"
        }
      ],
      "name": "RoleGranted",
      "type": "event"
    },
    {
      "anonymous": false,
      "inputs": [
        {
          "indexed": true,
          "internalType": "bytes32",
          "name": "role",
          "type": "bytes32"
        },
        {
          "indexed": true,
          "internalType": "address",
          "name": "account",
          "type": "address"
        },
        {
          "indexed": true,
          "internalType": "address",
          "name": "sender",
          "type": "address"
        }
      ],
      "name": "RoleRevoked",
      "type": "event"
    },
    {
      "inputs": [],
      "name": "ADMIN_ROLE",
      "outputs": [
        {
          "internalType": "bytes32",
          "name": "",
          "type": "bytes32"
        }
      ],
      "stateMutability": "view",
      "type": "function"
    },
    {
      "inputs": [],
      "name": "DEFAULT_ADMIN_ROLE",
      "outputs": [
        {
          "internalType": "bytes32",
          "name": "",
          "type": "bytes32"
        }
      ],
      "stateMutability": "view",
      "type": "function"
    },
    {
      "inputs": [],
      "name": "HD_KDF_K256",
      "outputs": [
        {
          "internalType": "bytes32",
          "name": "",
          "type": "bytes32"
        }
      ],
      "stateMutability": "view",
      "type": "function"
    },
    {
      "inputs": [],
      "name": "HD_KDF_P256",
      "outputs": [
        {
          "internalType": "bytes32",
          "name": "",
          "type": "bytes32"
        }
      ],
      "stateMutability": "view",
      "type": "function"
    },
    {
      "inputs": [
        {
          "internalType": "bytes32",
          "name": "derivedKeyId",
          "type": "bytes32"
        },
        {
          "components": [
            {
              "internalType": "bytes",
              "name": "pubkey",
              "type": "bytes"
            },
            {
              "internalType": "uint256",
              "name": "keyType",
              "type": "uint256"
            }
          ],
          "internalType": "struct IPubkeyRouter.RootKey[]",
          "name": "rootHDKeys",
          "type": "tuple[]"
        },
        {
          "internalType": "uint256",
          "name": "keyType",
          "type": "uint256"
        }
      ],
      "name": "computeHDPubKey",
      "outputs": [
        {
          "internalType": "bool",
          "name": "",
          "type": "bool"
        },
        {
          "internalType": "bytes",
          "name": "",
          "type": "bytes"
        }
      ],
      "stateMutability": "view",
      "type": "function"
    },
    {
      "inputs": [],
      "name": "contractResolver",
      "outputs": [
        {
          "internalType": "contract ContractResolver",
          "name": "",
          "type": "address"
        }
      ],
      "stateMutability": "view",
      "type": "function"
    },
    {
      "inputs": [],
      "name": "env",
      "outputs": [
        {
          "internalType": "enum ContractResolver.Env",
          "name": "",
          "type": "uint8"
        }
      ],
      "stateMutability": "view",
      "type": "function"
    },
    {
      "inputs": [
        {
          "internalType": "bytes32",
          "name": "role",
          "type": "bytes32"
        }
      ],
      "name": "getRoleAdmin",
      "outputs": [
        {
          "internalType": "bytes32",
          "name": "",
          "type": "bytes32"
        }
      ],
      "stateMutability": "view",
      "type": "function"
    },
    {
      "inputs": [
        {
          "internalType": "bytes32",
          "name": "role",
          "type": "bytes32"
        },
        {
          "internalType": "address",
          "name": "account",
          "type": "address"
        }
      ],
      "name": "grantRole",
      "outputs": [],
      "stateMutability": "nonpayable",
      "type": "function"
    },
    {
      "inputs": [
        {
          "internalType": "bytes32",
          "name": "role",
          "type": "bytes32"
        },
        {
          "internalType": "address",
          "name": "account",
          "type": "address"
        }
      ],
      "name": "hasRole",
      "outputs": [
        {
          "internalType": "bool",
          "name": "",
          "type": "bool"
        }
      ],
      "stateMutability": "view",
      "type": "function"
    },
    {
      "inputs": [
        {
          "internalType": "bytes32",
          "name": "role",
          "type": "bytes32"
        },
        {
          "internalType": "address",
          "name": "account",
          "type": "address"
        }
      ],
      "name": "renounceRole",
      "outputs": [],
      "stateMutability": "nonpayable",
      "type": "function"
    },
    {
      "inputs": [
        {
          "internalType": "bytes32",
          "name": "role",
          "type": "bytes32"
        },
        {
          "internalType": "address",
          "name": "account",
          "type": "address"
        }
      ],
      "name": "revokeRole",
      "outputs": [],
      "stateMutability": "nonpayable",
      "type": "function"
    },
    {
      "inputs": [
        {
          "internalType": "address",
          "name": "contractResolverAddress",
          "type": "address"
        }
      ],
      "name": "setContractResolver",
      "outputs": [],
      "stateMutability": "nonpayable",
      "type": "function"
    },
    {
      "inputs": [
        {
          "internalType": "bytes4",
          "name": "interfaceId",
          "type": "bytes4"
        }
      ],
      "name": "supportsInterface",
      "outputs": [
        {
          "internalType": "bool",
          "name": "",
          "type": "bool"
        }
      ],
      "stateMutability": "view",
      "type": "function"
    }
  ],
  "bytecode": "0x60806040523480156200001157600080fd5b50604051620020c9380380620020c983398181016040528101906200003791906200039e565b620000697fdf8b4c520ffe197c5343c6f5aec59570151ef9a492f2c624fd45ddde6135ec42336200011160201b60201c565b6200009b7fdf8b4c520ffe197c5343c6f5aec59570151ef9a492f2c624fd45ddde6135ec42806200012760201b60201c565b81600160006101000a81548173ffffffffffffffffffffffffffffffffffffffff021916908373ffffffffffffffffffffffffffffffffffffffff16021790555080600160146101000a81548160ff02191690836002811115620001045762000103620003e5565b5b0217905550505062000414565b6200012382826200018a60201b60201c565b5050565b60006200013a836200027b60201b60201c565b905081600080858152602001908152602001600020600101819055508181847fbd79b86ffe0ab8e8776151514217cd7cacd52c909f66475c3af44e129f0b00ff60405160405180910390a4505050565b6200019c82826200029a60201b60201c565b6200027757600160008084815260200190815260200160002060000160008373ffffffffffffffffffffffffffffffffffffffff1673ffffffffffffffffffffffffffffffffffffffff16815260200190815260200160002060006101000a81548160ff0219169083151502179055506200021c6200030460201b60201c565b73ffffffffffffffffffffffffffffffffffffffff168173ffffffffffffffffffffffffffffffffffffffff16837f2f8788117e7eff1d82e926ec794901d17c78024a50270940304540a733656f0d60405160405180910390a45b5050565b6000806000838152602001908152602001600020600101549050919050565b600080600084815260200190815260200160002060000160008373ffffffffffffffffffffffffffffffffffffffff1673ffffffffffffffffffffffffffffffffffffffff16815260200190815260200160002060009054906101000a900460ff16905092915050565b600033905090565b600080fd5b600073ffffffffffffffffffffffffffffffffffffffff82169050919050565b60006200033e8262000311565b9050919050565b620003508162000331565b81146200035c57600080fd5b50565b600081519050620003708162000345565b92915050565b600381106200038457600080fd5b50565b600081519050620003988162000376565b92915050565b60008060408385031215620003b857620003b76200030c565b5b6000620003c8858286016200035f565b9250506020620003db8582860162000387565b9150509250929050565b7f4e487b7100000000000000000000000000000000000000000000000000000000600052602160045260246000fd5b611ca580620004246000396000f3fe608060405234801561001057600080fd5b50600436106100ea5760003560e01c80639dca00321161008c578063b24ed30811610066578063b24ed30814610260578063d547741f1461027e578063f95d71b11461029a578063fe89c970146102b6576100ea565b80639dca0032146101f3578063a217fddf14610211578063a32c2b991461022f576100ea565b806336568abe116100c857806336568abe1461016b57806350d17b5e1461018757806375b238fc146101a557806391d14854146101c3576100ea565b806301ffc9a7146100ef578063248a9ca31461011f5780632f2ff15d1461014f575b600080fd5b61010960048036038101906101049190610ed5565b6102d4565b6040516101169190610f1d565b60405180910390f35b61013960048036038101906101349190610f6e565b61034e565b6040516101469190610faa565b60405180910390f35b61016960048036038101906101649190611023565b61036d565b005b61018560048036038101906101809190611023565b61038e565b005b61018f610411565b60405161019c91906110c2565b60405180910390f35b6101ad610437565b6040516101ba9190610faa565b60405180910390f35b6101dd60048036038101906101d89190611023565b61045b565b6040516101ea9190610f1d565b60405180910390f35b6101fb6104c5565b6040516102089190611154565b60405180910390f35b6102196104d8565b6040516102269190610faa565b60405180910390f35b61024960048036038101906102449190611447565b6104df565b604051610257929190611535565b60405180910390f35b6102686106d0565b6040516102759190610faa565b60405180910390f35b61029860048036038101906102939190611023565b6106f4565b005b6102b460048036038101906102af9190611565565b610715565b005b6102be610784565b6040516102cb9190610faa565b60405180910390f35b60007f7965db0b000000000000000000000000000000000000000000000000000000007bffffffffffffffffffffffffffffffffffffffffffffffffffffffff1916827bffffffffffffffffffffffffffffffffffffffffffffffffffffffff191614806103475750610346826107a7565b5b9050919050565b6000806000838152602001908152602001600020600101549050919050565b6103768261034e565b61037f81610811565b6103898383610825565b505050565b610396610905565b73ffffffffffffffffffffffffffffffffffffffff168173ffffffffffffffffffffffffffffffffffffffff1614610403576040517f08c379a00000000000000000000000000000000000000000000000000000000081526004016103fa90611615565b60405180910390fd5b61040d828261090d565b5050565b600160009054906101000a900473ffffffffffffffffffffffffffffffffffffffff1681565b7fdf8b4c520ffe197c5343c6f5aec59570151ef9a492f2c624fd45ddde6135ec4281565b600080600084815260200190815260200160002060000160008373ffffffffffffffffffffffffffffffffffffffff1673ffffffffffffffffffffffffffffffffffffffff16815260200190815260200160002060009054906101000a900460ff16905092915050565b600160149054906101000a900460ff1681565b6000801b81565b6000606060006104f08686866109ee565b905060008060f81b8260008151811061050c5761050b611635565b5b602001015160f81c60f81b7effffffffffffffffffffffffffffffffffffffffffffffffffffffffffffff191603610566577f9a91862ef15434e2658e682752e743fa4975a117807df7f0eacab66e37e804d99050610589565b7ec348ef80e66d22f4440a90bf9643a03c82260d0dcca4286cf114cc97db0c6490505b6000600160009054906101000a900473ffffffffffffffffffffffffffffffffffffffff1673ffffffffffffffffffffffffffffffffffffffff16638e8dfd1683600160149054906101000a900460ff166040518363ffffffff1660e01b81526004016105f7929190611664565b602060405180830381865afa158015610614573d6000803e3d6000fd5b505050506040513d601f19601f8201168201806040525081019061063891906116a2565b905060008173ffffffffffffffffffffffffffffffffffffffff1663ec723367856040518263ffffffff1660e01b815260040161067591906116cf565b600060405180830381865afa158015610692573d6000803e3d6000fd5b505050506040513d6000823e3d601f19601f820116820180604052508101906106bb9190611761565b90506001819550955050505050935093915050565b7f9a91862ef15434e2658e682752e743fa4975a117807df7f0eacab66e37e804d981565b6106fd8261034e565b61070681610811565b610710838361090d565b505050565b7fdf8b4c520ffe197c5343c6f5aec59570151ef9a492f2c624fd45ddde6135ec4261073f81610811565b81600160006101000a81548173ffffffffffffffffffffffffffffffffffffffff021916908373ffffffffffffffffffffffffffffffffffffffff1602179055505050565b7ec348ef80e66d22f4440a90bf9643a03c82260d0dcca4286cf114cc97db0c6481565b60007f01ffc9a7000000000000000000000000000000000000000000000000000000007bffffffffffffffffffffffffffffffffffffffffffffffffffffffff1916827bffffffffffffffffffffffffffffffffffffffffffffffffffffffff1916149050919050565b6108228161081d610905565b610b7b565b50565b61082f828261045b565b61090157600160008084815260200190815260200160002060000160008373ffffffffffffffffffffffffffffffffffffffff1673ffffffffffffffffffffffffffffffffffffffff16815260200190815260200160002060006101000a81548160ff0219169083151502179055506108a6610905565b73ffffffffffffffffffffffffffffffffffffffff168173ffffffffffffffffffffffffffffffffffffffff16837f2f8788117e7eff1d82e926ec794901d17c78024a50270940304540a733656f0d60405160405180910390a45b5050565b600033905090565b610917828261045b565b156109ea57600080600084815260200190815260200160002060000160008373ffffffffffffffffffffffffffffffffffffffff1673ffffffffffffffffffffffffffffffffffffffff16815260200190815260200160002060006101000a81548160ff02191690831515021790555061098f610905565b73ffffffffffffffffffffffffffffffffffffffff168173ffffffffffffffffffffffffffffffffffffffff16837ff6391f5c32d9c69d2a47ea670b442974b53935d1edc7fd64eb21e047a839171b60405160405180910390a45b5050565b606060008067ffffffffffffffff811115610a0c57610a0b611185565b5b6040519080825280601f01601f191660200182016040528015610a3e5781602001600182028036833780820191505090505b5090506000805b8551811015610ad75784868281518110610a6257610a61611635565b5b60200260200101516020015103610ac45782868281518110610a8757610a86611635565b5b602002602001015160000151604051602001610aa49291906117e6565b60405160208183030381529060405292508180610ac090611849565b9250505b8080610acf90611875565b915050610a45565b5060028403610ae95760019350610af7565b60038403610af657600093505b5b60006040518060600160405280602b8152602001611c45602b9139905060008560f81b90506000602060ff1660e01b90506000835160e01b905060008560e01b9050600084848d8589868d604051602001610b58979695949392919061194c565b604051602081830303815290604052905080985050505050505050509392505050565b610b85828261045b565b610bfc57610b9281610c00565b610ba08360001c6020610c2d565b604051602001610bb1929190611aa4565b6040516020818303038152906040526040517f08c379a0000000000000000000000000000000000000000000000000000000008152600401610bf39190611b17565b60405180910390fd5b5050565b6060610c268273ffffffffffffffffffffffffffffffffffffffff16601460ff16610c2d565b9050919050565b606060006002836002610c409190611b39565b610c4a9190611b7b565b67ffffffffffffffff811115610c6357610c62611185565b5b6040519080825280601f01601f191660200182016040528015610c955781602001600182028036833780820191505090505b5090507f300000000000000000000000000000000000000000000000000000000000000081600081518110610ccd57610ccc611635565b5b60200101907effffffffffffffffffffffffffffffffffffffffffffffffffffffffffffff1916908160001a9053507f780000000000000000000000000000000000000000000000000000000000000081600181518110610d3157610d30611635565b5b60200101907effffffffffffffffffffffffffffffffffffffffffffffffffffffffffffff1916908160001a90535060006001846002610d719190611b39565b610d7b9190611b7b565b90505b6001811115610e1b577f3031323334353637383961626364656600000000000000000000000000000000600f861660108110610dbd57610dbc611635565b5b1a60f81b828281518110610dd457610dd3611635565b5b60200101907effffffffffffffffffffffffffffffffffffffffffffffffffffffffffffff1916908160001a905350600485901c945080610e1490611baf565b9050610d7e565b5060008414610e5f576040517f08c379a0000000000000000000000000000000000000000000000000000000008152600401610e5690611c24565b60405180910390fd5b8091505092915050565b6000604051905090565b600080fd5b600080fd5b60007fffffffff0000000000000000000000000000000000000000000000000000000082169050919050565b610eb281610e7d565b8114610ebd57600080fd5b50565b600081359050610ecf81610ea9565b92915050565b600060208284031215610eeb57610eea610e73565b5b6000610ef984828501610ec0565b91505092915050565b60008115159050919050565b610f1781610f02565b82525050565b6000602082019050610f326000830184610f0e565b92915050565b6000819050919050565b610f4b81610f38565b8114610f5657600080fd5b50565b600081359050610f6881610f42565b92915050565b600060208284031215610f8457610f83610e73565b5b6000610f9284828501610f59565b91505092915050565b610fa481610f38565b82525050565b6000602082019050610fbf6000830184610f9b565b92915050565b600073ffffffffffffffffffffffffffffffffffffffff82169050919050565b6000610ff082610fc5565b9050919050565b61100081610fe5565b811461100b57600080fd5b50565b60008135905061101d81610ff7565b92915050565b6000806040838503121561103a57611039610e73565b5b600061104885828601610f59565b92505060206110598582860161100e565b9150509250929050565b6000819050919050565b600061108861108361107e84610fc5565b611063565b610fc5565b9050919050565b600061109a8261106d565b9050919050565b60006110ac8261108f565b9050919050565b6110bc816110a1565b82525050565b60006020820190506110d760008301846110b3565b92915050565b7f4e487b7100000000000000000000000000000000000000000000000000000000600052602160045260246000fd5b6003811061111d5761111c6110dd565b5b50565b600081905061112e8261110c565b919050565b600061113e82611120565b9050919050565b61114e81611133565b82525050565b60006020820190506111696000830184611145565b92915050565b600080fd5b6000601f19601f8301169050919050565b7f4e487b7100000000000000000000000000000000000000000000000000000000600052604160045260246000fd5b6111bd82611174565b810181811067ffffffffffffffff821117156111dc576111db611185565b5b80604052505050565b60006111ef610e69565b90506111fb82826111b4565b919050565b600067ffffffffffffffff82111561121b5761121a611185565b5b602082029050602081019050919050565b600080fd5b600080fd5b600080fd5b600080fd5b600067ffffffffffffffff82111561125b5761125a611185565b5b61126482611174565b9050602081019050919050565b82818337600083830152505050565b600061129361128e84611240565b6111e5565b9050828152602081018484840111156112af576112ae61123b565b5b6112ba848285611271565b509392505050565b600082601f8301126112d7576112d661116f565b5b81356112e7848260208601611280565b91505092915050565b6000819050919050565b611303816112f0565b811461130e57600080fd5b50565b600081359050611320816112fa565b92915050565b60006040828403121561133c5761133b611231565b5b61134660406111e5565b9050600082013567ffffffffffffffff81111561136657611365611236565b5b611372848285016112c2565b600083015250602061138684828501611311565b60208301525092915050565b60006113a56113a084611200565b6111e5565b905080838252602082019050602084028301858111156113c8576113c761122c565b5b835b8181101561140f57803567ffffffffffffffff8111156113ed576113ec61116f565b5b8086016113fa8982611326565b855260208501945050506020810190506113ca565b5050509392505050565b600082601f83011261142e5761142d61116f565b5b813561143e848260208601611392565b91505092915050565b6000806000606084860312156114605761145f610e73565b5b600061146e86828701610f59565b935050602084013567ffffffffffffffff81111561148f5761148e610e78565b5b61149b86828701611419565b92505060406114ac86828701611311565b9150509250925092565b600081519050919050565b600082825260208201905092915050565b60005b838110156114f05780820151818401526020810190506114d5565b60008484015250505050565b6000611507826114b6565b61151181856114c1565b93506115218185602086016114d2565b61152a81611174565b840191505092915050565b600060408201905061154a6000830185610f0e565b818103602083015261155c81846114fc565b90509392505050565b60006020828403121561157b5761157a610e73565b5b60006115898482850161100e565b91505092915050565b600082825260208201905092915050565b7f416363657373436f6e74726f6c3a2063616e206f6e6c792072656e6f756e636560008201527f20726f6c657320666f722073656c660000000000000000000000000000000000602082015250565b60006115ff602f83611592565b915061160a826115a3565b604082019050919050565b6000602082019050818103600083015261162e816115f2565b9050919050565b7f4e487b7100000000000000000000000000000000000000000000000000000000600052603260045260246000fd5b60006040820190506116796000830185610f9b565b6116866020830184611145565b9392505050565b60008151905061169c81610ff7565b92915050565b6000602082840312156116b8576116b7610e73565b5b60006116c68482850161168d565b91505092915050565b600060208201905081810360008301526116e981846114fc565b905092915050565b60006117046116ff84611240565b6111e5565b9050828152602081018484840111156117205761171f61123b565b5b61172b8482856114d2565b509392505050565b600082601f8301126117485761174761116f565b5b81516117588482602086016116f1565b91505092915050565b60006020828403121561177757611776610e73565b5b600082015167ffffffffffffffff81111561179557611794610e78565b5b6117a184828501611733565b91505092915050565b600081905092915050565b60006117c0826114b6565b6117ca81856117aa565b93506117da8185602086016114d2565b80840191505092915050565b60006117f282856117b5565b91506117fe82846117b5565b91508190509392505050565b7f4e487b7100000000000000000000000000000000000000000000000000000000600052601160045260246000fd5b600063ffffffff82169050919050565b600061185482611839565b915063ffffffff820361186a5761186961180a565b5b600182019050919050565b6000611880826112f0565b91507fffffffffffffffffffffffffffffffffffffffffffffffffffffffffffffffff82036118b2576118b161180a565b5b600182019050919050565b60007fff0000000000000000000000000000000000000000000000000000000000000082169050919050565b6000819050919050565b6119046118ff826118bd565b6118e9565b82525050565b6000819050919050565b61192561192082610e7d565b61190a565b82525050565b6000819050919050565b61194661194182610f38565b61192b565b82525050565b6000611958828a6118f3565b6001820191506119688289611914565b6004820191506119788288611935565b6020820191506119888287611914565b60048201915061199882866117b5565b91506119a48285611914565b6004820191506119b482846117b5565b915081905098975050505050505050565b600081905092915050565b7f416363657373436f6e74726f6c3a206163636f756e7420000000000000000000600082015250565b6000611a066017836119c5565b9150611a11826119d0565b601782019050919050565b600081519050919050565b6000611a3282611a1c565b611a3c81856119c5565b9350611a4c8185602086016114d2565b80840191505092915050565b7f206973206d697373696e6720726f6c6520000000000000000000000000000000600082015250565b6000611a8e6011836119c5565b9150611a9982611a58565b601182019050919050565b6000611aaf826119f9565b9150611abb8285611a27565b9150611ac682611a81565b9150611ad28284611a27565b91508190509392505050565b6000611ae982611a1c565b611af38185611592565b9350611b038185602086016114d2565b611b0c81611174565b840191505092915050565b60006020820190508181036000830152611b318184611ade565b905092915050565b6000611b44826112f0565b9150611b4f836112f0565b9250828202611b5d816112f0565b91508282048414831517611b7457611b7361180a565b5b5092915050565b6000611b86826112f0565b9150611b91836112f0565b9250828201905080821115611ba957611ba861180a565b5b92915050565b6000611bba826112f0565b915060008203611bcd57611bcc61180a565b5b600182039050919050565b7f537472696e67733a20686578206c656e67746820696e73756666696369656e74600082015250565b6000611c0e602083611592565b9150611c1982611bd8565b602082019050919050565b60006020820190508181036000830152611c3d81611c01565b905091905056fe4c49545f48445f4b45595f49445f4b3235365f584d443a5348412d3235365f535357555f524f5f4e554c5fa264697066735822122080aaf5eb685e9590888c49a50adae76ac294e614df2ca02e6a3951303bb332ff64736f6c63430008110033",
  "linkReferences": {},
  "deployedLinkReferences": {}
}