{
  "_format": "hh-sol-artifact-1",
  "contractName": "ContractResolver",
  "sourceName": "contracts/lit-core/ContractResolver.sol",
  "abi": [
    {
      "inputs": [
        {
          "internalType": "enum ContractResolver.Env",
          "name": "env",
          "type": "uint8"
        }
      ],
      "stateMutability": "nonpayable",
      "type": "constructor"
    },
    {
      "inputs": [],
      "name": "AdminRoleRequired",
      "type": "error"
    },
    {
      "anonymous": false,
      "inputs": [
        {
          "indexed": false,
          "internalType": "enum ContractResolver.Env",
          "name": "env",
          "type": "uint8"
        }
      ],
      "name": "AllowedEnvAdded",
      "type": "event"
    },
    {
      "anonymous": false,
      "inputs": [
        {
          "indexed": false,
          "internalType": "enum ContractResolver.Env",
          "name": "env",
          "type": "uint8"
        }
      ],
      "name": "AllowedEnvRemoved",
      "type": "event"
    },
    {
      "anonymous": false,
      "inputs": [
        {
          "indexed": true,
          "internalType": "bytes32",
          "name": "role",
          "type": "bytes32"
        },
        {
          "indexed": true,
          "internalType": "bytes32",
          "name": "previousAdminRole",
          "type": "bytes32"
        },
        {
          "indexed": true,
          "internalType": "bytes32",
          "name": "newAdminRole",
          "type": "bytes32"
        }
      ],
      "name": "RoleAdminChanged",
      "type": "event"
    },
    {
      "anonymous": false,
      "inputs": [
        {
          "indexed": true,
          "internalType": "bytes32",
          "name": "role",
          "type": "bytes32"
        },
        {
          "indexed": true,
          "internalType": "address",
          "name": "account",
          "type": "address"
        },
        {
          "indexed": true,
          "internalType": "address",
          "name": "sender",
          "type": "address"
        }
      ],
      "name": "RoleGranted",
      "type": "event"
    },
    {
      "anonymous": false,
      "inputs": [
        {
          "indexed": true,
          "internalType": "bytes32",
          "name": "role",
          "type": "bytes32"
        },
        {
          "indexed": true,
          "internalType": "address",
          "name": "account",
          "type": "address"
        },
        {
          "indexed": true,
          "internalType": "address",
          "name": "sender",
          "type": "address"
        }
      ],
      "name": "RoleRevoked",
      "type": "event"
    },
    {
      "anonymous": false,
      "inputs": [
        {
          "indexed": false,
          "internalType": "bytes32",
          "name": "typ",
          "type": "bytes32"
        },
        {
          "indexed": false,
          "internalType": "enum ContractResolver.Env",
          "name": "env",
          "type": "uint8"
        },
        {
          "indexed": false,
          "internalType": "address",
          "name": "addr",
          "type": "address"
        }
      ],
      "name": "SetContract",
      "type": "event"
    },
    {
      "inputs": [],
      "name": "ADMIN_ROLE",
      "outputs": [
        {
          "internalType": "bytes32",
          "name": "",
          "type": "bytes32"
        }
      ],
      "stateMutability": "view",
      "type": "function"
    },
    {
      "inputs": [],
      "name": "ALLOWLIST_CONTRACT",
      "outputs": [
        {
          "internalType": "bytes32",
          "name": "",
          "type": "bytes32"
        }
      ],
      "stateMutability": "view",
      "type": "function"
    },
    {
      "inputs": [],
      "name": "BACKUP_RECOVERY_CONTRACT",
      "outputs": [
        {
          "internalType": "bytes32",
          "name": "",
          "type": "bytes32"
        }
      ],
      "stateMutability": "view",
      "type": "function"
    },
    {
      "inputs": [],
      "name": "DEFAULT_ADMIN_ROLE",
      "outputs": [
        {
          "internalType": "bytes32",
          "name": "",
          "type": "bytes32"
        }
      ],
      "stateMutability": "view",
      "type": "function"
    },
    {
      "inputs": [],
      "name": "DOMAIN_WALLET_REGISTRY",
      "outputs": [
        {
          "internalType": "bytes32",
          "name": "",
          "type": "bytes32"
        }
      ],
      "stateMutability": "view",
      "type": "function"
    },
    {
      "inputs": [],
      "name": "HD_KEY_DERIVER_CONTRACT",
      "outputs": [
        {
          "internalType": "bytes32",
          "name": "",
          "type": "bytes32"
        }
      ],
      "stateMutability": "view",
      "type": "function"
    },
    {
      "inputs": [],
      "name": "LIT_TOKEN_CONTRACT",
      "outputs": [
        {
          "internalType": "bytes32",
          "name": "",
          "type": "bytes32"
        }
      ],
      "stateMutability": "view",
      "type": "function"
    },
    {
      "inputs": [],
      "name": "MULTI_SENDER_CONTRACT",
      "outputs": [
        {
          "internalType": "bytes32",
          "name": "",
          "type": "bytes32"
        }
      ],
      "stateMutability": "view",
      "type": "function"
    },
    {
      "inputs": [],
      "name": "PAYMENT_DELEGATION_CONTRACT",
      "outputs": [
        {
          "internalType": "bytes32",
          "name": "",
          "type": "bytes32"
        }
      ],
      "stateMutability": "view",
      "type": "function"
    },
    {
      "inputs": [],
      "name": "PKP_HELPER_CONTRACT",
      "outputs": [
        {
          "internalType": "bytes32",
          "name": "",
          "type": "bytes32"
        }
      ],
      "stateMutability": "view",
      "type": "function"
    },
    {
      "inputs": [],
      "name": "PKP_HELPER_V2_CONTRACT",
      "outputs": [
        {
          "internalType": "bytes32",
          "name": "",
          "type": "bytes32"
        }
      ],
      "stateMutability": "view",
      "type": "function"
    },
    {
      "inputs": [],
      "name": "PKP_NFT_CONTRACT",
      "outputs": [
        {
          "internalType": "bytes32",
          "name": "",
          "type": "bytes32"
        }
      ],
      "stateMutability": "view",
      "type": "function"
    },
    {
      "inputs": [],
      "name": "PKP_NFT_METADATA_CONTRACT",
      "outputs": [
        {
          "internalType": "bytes32",
          "name": "",
          "type": "bytes32"
        }
      ],
      "stateMutability": "view",
      "type": "function"
    },
    {
      "inputs": [],
      "name": "PKP_PERMISSIONS_CONTRACT",
      "outputs": [
        {
          "internalType": "bytes32",
          "name": "",
          "type": "bytes32"
        }
      ],
      "stateMutability": "view",
      "type": "function"
    },
    {
      "inputs": [],
      "name": "PUB_KEY_ROUTER_CONTRACT",
      "outputs": [
        {
          "internalType": "bytes32",
          "name": "",
          "type": "bytes32"
        }
      ],
      "stateMutability": "view",
      "type": "function"
    },
    {
      "inputs": [],
      "name": "RATE_LIMIT_NFT_CONTRACT",
      "outputs": [
        {
          "internalType": "bytes32",
          "name": "",
          "type": "bytes32"
        }
      ],
      "stateMutability": "view",
      "type": "function"
    },
    {
      "inputs": [],
      "name": "RELEASE_REGISTER_CONTRACT",
      "outputs": [
        {
          "internalType": "bytes32",
          "name": "",
          "type": "bytes32"
        }
      ],
      "stateMutability": "view",
      "type": "function"
    },
    {
      "inputs": [],
      "name": "STAKING_BALANCES_CONTRACT",
      "outputs": [
        {
          "internalType": "bytes32",
          "name": "",
          "type": "bytes32"
        }
      ],
      "stateMutability": "view",
      "type": "function"
    },
    {
      "inputs": [],
      "name": "STAKING_CONTRACT",
      "outputs": [
        {
          "internalType": "bytes32",
          "name": "",
          "type": "bytes32"
        }
      ],
      "stateMutability": "view",
      "type": "function"
    },
    {
      "inputs": [
        {
          "internalType": "address",
          "name": "newAdmin",
          "type": "address"
        }
      ],
      "name": "addAdmin",
      "outputs": [],
      "stateMutability": "nonpayable",
      "type": "function"
    },
    {
      "inputs": [
        {
          "internalType": "enum ContractResolver.Env",
          "name": "env",
          "type": "uint8"
        }
      ],
      "name": "addAllowedEnv",
      "outputs": [],
      "stateMutability": "nonpayable",
      "type": "function"
    },
    {
      "inputs": [
        {
          "internalType": "bytes32",
          "name": "typ",
          "type": "bytes32"
        },
        {
          "internalType": "enum ContractResolver.Env",
          "name": "env",
          "type": "uint8"
        }
      ],
      "name": "getContract",
      "outputs": [
        {
          "internalType": "address",
          "name": "",
          "type": "address"
        }
      ],
      "stateMutability": "view",
      "type": "function"
    },
    {
      "inputs": [
        {
          "internalType": "bytes32",
          "name": "role",
          "type": "bytes32"
        }
      ],
      "name": "getRoleAdmin",
      "outputs": [
        {
          "internalType": "bytes32",
          "name": "",
          "type": "bytes32"
        }
      ],
      "stateMutability": "view",
      "type": "function"
    },
    {
      "inputs": [
        {
          "internalType": "bytes32",
          "name": "role",
          "type": "bytes32"
        },
        {
          "internalType": "address",
          "name": "account",
          "type": "address"
        }
      ],
      "name": "grantRole",
      "outputs": [],
      "stateMutability": "nonpayable",
      "type": "function"
    },
    {
      "inputs": [
        {
          "internalType": "bytes32",
          "name": "role",
          "type": "bytes32"
        },
        {
          "internalType": "address",
          "name": "account",
          "type": "address"
        }
      ],
      "name": "hasRole",
      "outputs": [
        {
          "internalType": "bool",
          "name": "",
          "type": "bool"
        }
      ],
      "stateMutability": "view",
      "type": "function"
    },
    {
      "inputs": [
        {
          "internalType": "address",
          "name": "adminBeingRemoved",
          "type": "address"
        }
      ],
      "name": "removeAdmin",
      "outputs": [],
      "stateMutability": "nonpayable",
      "type": "function"
    },
    {
      "inputs": [
        {
          "internalType": "enum ContractResolver.Env",
          "name": "env",
          "type": "uint8"
        }
      ],
      "name": "removeAllowedEnv",
      "outputs": [],
      "stateMutability": "nonpayable",
      "type": "function"
    },
    {
      "inputs": [
        {
          "internalType": "bytes32",
          "name": "role",
          "type": "bytes32"
        },
        {
          "internalType": "address",
          "name": "account",
          "type": "address"
        }
      ],
      "name": "renounceRole",
      "outputs": [],
      "stateMutability": "nonpayable",
      "type": "function"
    },
    {
      "inputs": [
        {
          "internalType": "bytes32",
          "name": "role",
          "type": "bytes32"
        },
        {
          "internalType": "address",
          "name": "account",
          "type": "address"
        }
      ],
      "name": "revokeRole",
      "outputs": [],
      "stateMutability": "nonpayable",
      "type": "function"
    },
    {
      "inputs": [
        {
          "internalType": "bytes32",
          "name": "typ",
          "type": "bytes32"
        },
        {
          "internalType": "enum ContractResolver.Env",
          "name": "env",
          "type": "uint8"
        },
        {
          "internalType": "address",
          "name": "addr",
          "type": "address"
        }
      ],
      "name": "setContract",
      "outputs": [],
      "stateMutability": "nonpayable",
      "type": "function"
    },
    {
      "inputs": [
        {
          "internalType": "bytes4",
          "name": "interfaceId",
          "type": "bytes4"
        }
      ],
      "name": "supportsInterface",
      "outputs": [
        {
          "internalType": "bool",
          "name": "",
          "type": "bool"
        }
      ],
      "stateMutability": "view",
      "type": "function"
    },
    {
      "inputs": [
        {
          "internalType": "bytes32",
          "name": "",
          "type": "bytes32"
        },
        {
          "internalType": "enum ContractResolver.Env",
          "name": "",
          "type": "uint8"
        }
      ],
      "name": "typeAddresses",
      "outputs": [
        {
          "internalType": "address",
          "name": "",
          "type": "address"
        }
      ],
      "stateMutability": "view",
      "type": "function"
    }
  ],
  "bytecode": "0x60806040523480156200001157600080fd5b506040516200224f3803806200224f833981810160405281019062000037919062000358565b620000697fdf8b4c520ffe197c5343c6f5aec59570151ef9a492f2c624fd45ddde6135ec42336200013060201b60201c565b6200009b7fdf8b4c520ffe197c5343c6f5aec59570151ef9a492f2c624fd45ddde6135ec42806200014660201b60201c565b6001806000836002811115620000b657620000b56200038a565b5b6002811115620000cb57620000ca6200038a565b5b815260200190815260200160002060006101000a81548160ff0219169083151502179055507f839ad2743d4062df579edf3818f642b71ee0688a35d6bc4438ef5314cece8015816040516200012191906200040a565b60405180910390a15062000427565b620001428282620001a960201b60201c565b5050565b600062000159836200029a60201b60201c565b905081600080858152602001908152602001600020600101819055508181847fbd79b86ffe0ab8e8776151514217cd7cacd52c909f66475c3af44e129f0b00ff60405160405180910390a4505050565b620001bb8282620002b960201b60201c565b6200029657600160008084815260200190815260200160002060000160008373ffffffffffffffffffffffffffffffffffffffff1673ffffffffffffffffffffffffffffffffffffffff16815260200190815260200160002060006101000a81548160ff0219169083151502179055506200023b6200032360201b60201c565b73ffffffffffffffffffffffffffffffffffffffff168173ffffffffffffffffffffffffffffffffffffffff16837f2f8788117e7eff1d82e926ec794901d17c78024a50270940304540a733656f0d60405160405180910390a45b5050565b6000806000838152602001908152602001600020600101549050919050565b600080600084815260200190815260200160002060000160008373ffffffffffffffffffffffffffffffffffffffff1673ffffffffffffffffffffffffffffffffffffffff16815260200190815260200160002060009054906101000a900460ff16905092915050565b600033905090565b600080fd5b600381106200033e57600080fd5b50565b600081519050620003528162000330565b92915050565b6000602082840312156200037157620003706200032b565b5b6000620003818482850162000341565b91505092915050565b7f4e487b7100000000000000000000000000000000000000000000000000000000600052602160045260246000fd5b60038110620003cd57620003cc6200038a565b5b50565b6000819050620003e082620003b9565b919050565b6000620003f282620003d0565b9050919050565b6200040481620003e5565b82525050565b6000602082019050620004216000830184620003f9565b92915050565b611e1880620004376000396000f3fe608060405234801561001057600080fd5b50600436106101f05760003560e01c80637cadf69f1161010f57806391d14854116100a2578063d547741f11610071578063d547741f14610589578063da19ddfb146105a5578063df380693146105c3578063f8ae93b4146105e1576101f0565b806391d14854146104ff578063977a80701461052f578063a217fddf1461054d578063ad1c8a861461056b576101f0565b80638c1536df116100de5780638c1536df146104775780638deb3893146104955780638e8dfd16146104b15780639072f838146104e1576101f0565b80637cadf69f146103ff5780637d4a03bd1461041d5780637f90209f1461043b57806385cb119114610459576101f0565b80632f2ff15d1161018757806351ad0a801161015657806351ad0a801461038d57806370480275146103a957806374bc8139146103c557806375b238fc146103e1576101f0565b80632f2ff15d1461030757806336568abe146103235780633ebf79851461033f5780634216e73a1461036f576101f0565b8063248a9ca3116101c3578063248a9ca31461027d5780632668f305146102ad5780632c0b8bf7146102cb5780632e4885e8146102e9576101f0565b806301ffc9a7146101f557806311ee8ff71461022557806316f76bbf146102435780631785f53c14610261575b600080fd5b61020f600480360381019061020a9190611537565b6105ff565b60405161021c919061157f565b60405180910390f35b61022d610679565b60405161023a91906115b3565b60405180910390f35b61024b61069d565b60405161025891906115b3565b60405180910390f35b61027b6004803603810190610276919061162c565b6106c1565b005b61029760048036038101906102929190611685565b610787565b6040516102a491906115b3565b60405180910390f35b6102b56107a6565b6040516102c291906115b3565b60405180910390f35b6102d36107ca565b6040516102e091906115b3565b60405180910390f35b6102f16107ee565b6040516102fe91906115b3565b60405180910390f35b610321600480360381019061031c91906116b2565b610812565b005b61033d600480360381019061033891906116b2565b610833565b005b61035960048036038101906103549190611717565b6108b6565b6040516103669190611766565b60405180910390f35b6103776108f8565b60405161038491906115b3565b60405180910390f35b6103a760048036038101906103a29190611781565b61091c565b005b6103c360048036038101906103be919061162c565b610ace565b005b6103df60048036038101906103da91906117d4565b610b26565b005b6103e9610c0f565b6040516103f691906115b3565b60405180910390f35b610407610c33565b60405161041491906115b3565b60405180910390f35b610425610c57565b60405161043291906115b3565b60405180910390f35b610443610c7b565b60405161045091906115b3565b60405180910390f35b610461610c9f565b60405161046e91906115b3565b60405180910390f35b61047f610cc3565b60405161048c91906115b3565b60405180910390f35b6104af60048036038101906104aa91906117d4565b610ce7565b005b6104cb60048036038101906104c69190611717565b610dc8565b6040516104d89190611766565b60405180910390f35b6104e9610e3b565b6040516104f691906115b3565b60405180910390f35b610519600480360381019061051491906116b2565b610e5f565b604051610526919061157f565b60405180910390f35b610537610ec9565b60405161054491906115b3565b60405180910390f35b610555610eed565b60405161056291906115b3565b60405180910390f35b610573610ef4565b60405161058091906115b3565b60405180910390f35b6105a3600480360381019061059e91906116b2565b610f18565b005b6105ad610f39565b6040516105ba91906115b3565b60405180910390f35b6105cb610f5d565b6040516105d891906115b3565b60405180910390f35b6105e9610f81565b6040516105f691906115b3565b60405180910390f35b60007f7965db0b000000000000000000000000000000000000000000000000000000007bffffffffffffffffffffffffffffffffffffffffffffffffffffffff1916827bffffffffffffffffffffffffffffffffffffffffffffffffffffffff19161480610672575061067182610fa5565b5b9050919050565b7f58a0044e0ecd81025e398bf1815075d1234cbac3749614b0b33a404c2ee2babf81565b7ff14f431dadc82e7dbc5e379f71234e5735c9187e4327a7c6ac014d55d1b7727a81565b7fdf8b4c520ffe197c5343c6f5aec59570151ef9a492f2c624fd45ddde6135ec426106eb8161100f565b3373ffffffffffffffffffffffffffffffffffffffff168273ffffffffffffffffffffffffffffffffffffffff1603610759576040517f08c379a000000000000000000000000000000000000000000000000000000000815260040161075090611884565b60405180910390fd5b6107837fdf8b4c520ffe197c5343c6f5aec59570151ef9a492f2c624fd45ddde6135ec4283611023565b5050565b6000806000838152602001908152602001600020600101549050919050565b7fb1f79813bc7630a52ae948bc99781397e409d0dd3521953bf7d8d7a2db6147f781565b7fb7b4fde9944d3c13e9a78835431c33a5084d90a7f0c73def76d7886315fe87b081565b7fb931b2719aeb2a65a5035fa0a190bfdc4c8622ce8cbff7a3d1ab42531fb1a91881565b61081b82610787565b6108248161100f565b61082e8383611104565b505050565b61083b6111e4565b73ffffffffffffffffffffffffffffffffffffffff168173ffffffffffffffffffffffffffffffffffffffff16146108a8576040517f08c379a000000000000000000000000000000000000000000000000000000000815260040161089f90611916565b60405180910390fd5b6108b28282611023565b5050565b60026020528160005260406000206020528060005260406000206000915091509054906101000a900473ffffffffffffffffffffffffffffffffffffffff1681565b7f4c41ae454beb6bbbe9be50accc957a3b1536e48b835a86919af981b5244db75581565b6109467fdf8b4c520ffe197c5343c6f5aec59570151ef9a492f2c624fd45ddde6135ec4233610e5f565b61097c576040517fc890f84a00000000000000000000000000000000000000000000000000000000815260040160405180910390fd5b600115156001600084600281111561099757610996611936565b5b60028111156109a9576109a8611936565b5b815260200190815260200160002060009054906101000a900460ff16151514610a07576040517f08c379a00000000000000000000000000000000000000000000000000000000081526004016109fe906119d7565b60405180910390fd5b80600260008581526020019081526020016000206000846002811115610a3057610a2f611936565b5b6002811115610a4257610a41611936565b5b815260200190815260200160002060006101000a81548173ffffffffffffffffffffffffffffffffffffffff021916908373ffffffffffffffffffffffffffffffffffffffff1602179055507f33f014890f109229bbcf8dd47204c153a2c0ff1c572a61de220d10336530f53d838383604051610ac193929190611a3f565b60405180910390a1505050565b7fdf8b4c520ffe197c5343c6f5aec59570151ef9a492f2c624fd45ddde6135ec42610af88161100f565b610b227fdf8b4c520ffe197c5343c6f5aec59570151ef9a492f2c624fd45ddde6135ec4283611104565b5050565b610b507fdf8b4c520ffe197c5343c6f5aec59570151ef9a492f2c624fd45ddde6135ec4233610e5f565b610b86576040517fc890f84a00000000000000000000000000000000000000000000000000000000815260040160405180910390fd5b6001806000836002811115610b9e57610b9d611936565b5b6002811115610bb057610baf611936565b5b815260200190815260200160002060006101000a81548160ff0219169083151502179055507f839ad2743d4062df579edf3818f642b71ee0688a35d6bc4438ef5314cece801581604051610c049190611a76565b60405180910390a150565b7fdf8b4c520ffe197c5343c6f5aec59570151ef9a492f2c624fd45ddde6135ec4281565b7f74845de37cfabd357633214b47fa91ccd19b05b7c5a08ac22c187f811fb62bca81565b7f9f35ef3e0c2652a8bb8747d92f407fcd39a7768dacc7f16581c7a71f103e556281565b7fc6674f98ba35c01c130e08195dd26c70466037473a068c5aaa470a783d99c16c81565b7fae79a935737012d066e7183032692e521ffe1ade2beda267e23e02b1d6e9118781565b7faa06d108dbd7bf976b16b7bf5adb29d2d0ef2c385ca8b9d833cc802f33942d7281565b610d117fdf8b4c520ffe197c5343c6f5aec59570151ef9a492f2c624fd45ddde6135ec4233610e5f565b610d47576040517fc890f84a00000000000000000000000000000000000000000000000000000000815260040160405180910390fd5b60016000826002811115610d5e57610d5d611936565b5b6002811115610d7057610d6f611936565b5b815260200190815260200160002060006101000a81549060ff02191690557f3f178f17dae6caf8ca09c4857502baf7744e8597de42d6596476fe9e06b8ad4781604051610dbd9190611a76565b60405180910390a150565b6000600260008481526020019081526020016000206000836002811115610df257610df1611936565b5b6002811115610e0457610e03611936565b5b815260200190815260200160002060009054906101000a900473ffffffffffffffffffffffffffffffffffffffff16905092915050565b7f54953c23068b8fc4c0736301b50f10027d6b469327de1fd42841a5072b1bcebe81565b600080600084815260200190815260200160002060000160008373ffffffffffffffffffffffffffffffffffffffff1673ffffffffffffffffffffffffffffffffffffffff16815260200190815260200160002060009054906101000a900460ff16905092915050565b7f27d764ea2a4a3865434bbf4a391110149644be31448f3479fd15b4438875576581565b6000801b81565b7f3a68dbfd8bbb64015c42bc131c388dea7965e28c1004d09b39f59500c3a763ec81565b610f2182610787565b610f2a8161100f565b610f348383611023565b505050565b7f080909c18c958ce5a2d36481697824e477319323d03154ceba3b78f28a61887b81565b7fb4bf999b68d8085dbbf7a0ec2f5a2d660873935bdf1ed08eb421ac6dcbc0036281565b7fdd5b9b8a5e8e01f2962ed7e983d58fe32e1f66aa88dd7ab30770fa9b77da724381565b60007f01ffc9a7000000000000000000000000000000000000000000000000000000007bffffffffffffffffffffffffffffffffffffffffffffffffffffffff1916827bffffffffffffffffffffffffffffffffffffffffffffffffffffffff1916149050919050565b6110208161101b6111e4565b6111ec565b50565b61102d8282610e5f565b1561110057600080600084815260200190815260200160002060000160008373ffffffffffffffffffffffffffffffffffffffff1673ffffffffffffffffffffffffffffffffffffffff16815260200190815260200160002060006101000a81548160ff0219169083151502179055506110a56111e4565b73ffffffffffffffffffffffffffffffffffffffff168173ffffffffffffffffffffffffffffffffffffffff16837ff6391f5c32d9c69d2a47ea670b442974b53935d1edc7fd64eb21e047a839171b60405160405180910390a45b5050565b61110e8282610e5f565b6111e057600160008084815260200190815260200160002060000160008373ffffffffffffffffffffffffffffffffffffffff1673ffffffffffffffffffffffffffffffffffffffff16815260200190815260200160002060006101000a81548160ff0219169083151502179055506111856111e4565b73ffffffffffffffffffffffffffffffffffffffff168173ffffffffffffffffffffffffffffffffffffffff16837f2f8788117e7eff1d82e926ec794901d17c78024a50270940304540a733656f0d60405160405180910390a45b5050565b600033905090565b6111f68282610e5f565b61126d5761120381611271565b6112118360001c602061129e565b604051602001611222929190611b9a565b6040516020818303038152906040526040517f08c379a00000000000000000000000000000000000000000000000000000000081526004016112649190611c1e565b60405180910390fd5b5050565b60606112978273ffffffffffffffffffffffffffffffffffffffff16601460ff1661129e565b9050919050565b6060600060028360026112b19190611c79565b6112bb9190611cbb565b67ffffffffffffffff8111156112d4576112d3611cef565b5b6040519080825280601f01601f1916602001820160405280156113065781602001600182028036833780820191505090505b5090507f30000000000000000000000000000000000000000000000000000000000000008160008151811061133e5761133d611d1e565b5b60200101907effffffffffffffffffffffffffffffffffffffffffffffffffffffffffffff1916908160001a9053507f7800000000000000000000000000000000000000000000000000000000000000816001815181106113a2576113a1611d1e565b5b60200101907effffffffffffffffffffffffffffffffffffffffffffffffffffffffffffff1916908160001a905350600060018460026113e29190611c79565b6113ec9190611cbb565b90505b600181111561148c577f3031323334353637383961626364656600000000000000000000000000000000600f86166010811061142e5761142d611d1e565b5b1a60f81b82828151811061144557611444611d1e565b5b60200101907effffffffffffffffffffffffffffffffffffffffffffffffffffffffffffff1916908160001a905350600485901c94508061148590611d4d565b90506113ef565b50600084146114d0576040517f08c379a00000000000000000000000000000000000000000000000000000000081526004016114c790611dc2565b60405180910390fd5b8091505092915050565b600080fd5b60007fffffffff0000000000000000000000000000000000000000000000000000000082169050919050565b611514816114df565b811461151f57600080fd5b50565b6000813590506115318161150b565b92915050565b60006020828403121561154d5761154c6114da565b5b600061155b84828501611522565b91505092915050565b60008115159050919050565b61157981611564565b82525050565b60006020820190506115946000830184611570565b92915050565b6000819050919050565b6115ad8161159a565b82525050565b60006020820190506115c860008301846115a4565b92915050565b600073ffffffffffffffffffffffffffffffffffffffff82169050919050565b60006115f9826115ce565b9050919050565b611609816115ee565b811461161457600080fd5b50565b60008135905061162681611600565b92915050565b600060208284031215611642576116416114da565b5b600061165084828501611617565b91505092915050565b6116628161159a565b811461166d57600080fd5b50565b60008135905061167f81611659565b92915050565b60006020828403121561169b5761169a6114da565b5b60006116a984828501611670565b91505092915050565b600080604083850312156116c9576116c86114da565b5b60006116d785828601611670565b92505060206116e885828601611617565b9150509250929050565b600381106116ff57600080fd5b50565b600081359050611711816116f2565b92915050565b6000806040838503121561172e5761172d6114da565b5b600061173c85828601611670565b925050602061174d85828601611702565b9150509250929050565b611760816115ee565b82525050565b600060208201905061177b6000830184611757565b92915050565b60008060006060848603121561179a576117996114da565b5b60006117a886828701611670565b93505060206117b986828701611702565b92505060406117ca86828701611617565b9150509250925092565b6000602082840312156117ea576117e96114da565b5b60006117f884828501611702565b91505092915050565b600082825260208201905092915050565b7f43616e6e6f742072656d6f76652073656c662061732061646d696e2e2020486160008201527f766520746865206e65772061646d696e20646f2069742e000000000000000000602082015250565b600061186e603783611801565b915061187982611812565b604082019050919050565b6000602082019050818103600083015261189d81611861565b9050919050565b7f416363657373436f6e74726f6c3a2063616e206f6e6c792072656e6f756e636560008201527f20726f6c657320666f722073656c660000000000000000000000000000000000602082015250565b6000611900602f83611801565b915061190b826118a4565b604082019050919050565b6000602082019050818103600083015261192f816118f3565b9050919050565b7f4e487b7100000000000000000000000000000000000000000000000000000000600052602160045260246000fd5b7f5468652070726f766964656420456e76206973206e6f742076616c696420666f60008201527f72207468697320636f6e74726163740000000000000000000000000000000000602082015250565b60006119c1602f83611801565b91506119cc82611965565b604082019050919050565b600060208201905081810360008301526119f0816119b4565b9050919050565b60038110611a0857611a07611936565b5b50565b6000819050611a19826119f7565b919050565b6000611a2982611a0b565b9050919050565b611a3981611a1e565b82525050565b6000606082019050611a5460008301866115a4565b611a616020830185611a30565b611a6e6040830184611757565b949350505050565b6000602082019050611a8b6000830184611a30565b92915050565b600081905092915050565b7f416363657373436f6e74726f6c3a206163636f756e7420000000000000000000600082015250565b6000611ad2601783611a91565b9150611add82611a9c565b601782019050919050565b600081519050919050565b60005b83811015611b11578082015181840152602081019050611af6565b60008484015250505050565b6000611b2882611ae8565b611b328185611a91565b9350611b42818560208601611af3565b80840191505092915050565b7f206973206d697373696e6720726f6c6520000000000000000000000000000000600082015250565b6000611b84601183611a91565b9150611b8f82611b4e565b601182019050919050565b6000611ba582611ac5565b9150611bb18285611b1d565b9150611bbc82611b77565b9150611bc88284611b1d565b91508190509392505050565b6000601f19601f8301169050919050565b6000611bf082611ae8565b611bfa8185611801565b9350611c0a818560208601611af3565b611c1381611bd4565b840191505092915050565b60006020820190508181036000830152611c388184611be5565b905092915050565b6000819050919050565b7f4e487b7100000000000000000000000000000000000000000000000000000000600052601160045260246000fd5b6000611c8482611c40565b9150611c8f83611c40565b9250828202611c9d81611c40565b91508282048414831517611cb457611cb3611c4a565b5b5092915050565b6000611cc682611c40565b9150611cd183611c40565b9250828201905080821115611ce957611ce8611c4a565b5b92915050565b7f4e487b7100000000000000000000000000000000000000000000000000000000600052604160045260246000fd5b7f4e487b7100000000000000000000000000000000000000000000000000000000600052603260045260246000fd5b6000611d5882611c40565b915060008203611d6b57611d6a611c4a565b5b600182039050919050565b7f537472696e67733a20686578206c656e67746820696e73756666696369656e74600082015250565b6000611dac602083611801565b9150611db782611d76565b602082019050919050565b60006020820190508181036000830152611ddb81611d9f565b905091905056fea26469706673582212208fa8acb4cbc329ffbf5d9194be1cac9f8fca896af65a4a3d86aa1e2ba0c2496464736f6c63430008110033",
  "linkReferences": {},
  "deployedLinkReferences": {}
}