{
  "_format": "hh-sol-artifact-1",
  "contractName": "ContractResolver",
  "sourceName": "contracts/lit-core/ContractResolver.sol",
  "abi": [
    {
      "inputs": [
        {
          "internalType": "enum ContractResolver.Env",
          "name": "env",
          "type": "uint8"
        }
      ],
      "stateMutability": "nonpayable",
      "type": "constructor"
    },
    {
      "inputs": [],
      "name": "AdminRoleRequired",
      "type": "error"
    },
    {
      "anonymous": false,
      "inputs": [
        {
          "indexed": false,
          "internalType": "enum ContractResolver.Env",
          "name": "env",
          "type": "uint8"
        }
      ],
      "name": "AllowedEnvAdded",
      "type": "event"
    },
    {
      "anonymous": false,
      "inputs": [
        {
          "indexed": false,
          "internalType": "enum ContractResolver.Env",
          "name": "env",
          "type": "uint8"
        }
      ],
      "name": "AllowedEnvRemoved",
      "type": "event"
    },
    {
      "anonymous": false,
      "inputs": [
        {
          "indexed": true,
          "internalType": "bytes32",
          "name": "role",
          "type": "bytes32"
        },
        {
          "indexed": true,
          "internalType": "bytes32",
          "name": "previousAdminRole",
          "type": "bytes32"
        },
        {
          "indexed": true,
          "internalType": "bytes32",
          "name": "newAdminRole",
          "type": "bytes32"
        }
      ],
      "name": "RoleAdminChanged",
      "type": "event"
    },
    {
      "anonymous": false,
      "inputs": [
        {
          "indexed": true,
          "internalType": "bytes32",
          "name": "role",
          "type": "bytes32"
        },
        {
          "indexed": true,
          "internalType": "address",
          "name": "account",
          "type": "address"
        },
        {
          "indexed": true,
          "internalType": "address",
          "name": "sender",
          "type": "address"
        }
      ],
      "name": "RoleGranted",
      "type": "event"
    },
    {
      "anonymous": false,
      "inputs": [
        {
          "indexed": true,
          "internalType": "bytes32",
          "name": "role",
          "type": "bytes32"
        },
        {
          "indexed": true,
          "internalType": "address",
          "name": "account",
          "type": "address"
        },
        {
          "indexed": true,
          "internalType": "address",
          "name": "sender",
          "type": "address"
        }
      ],
      "name": "RoleRevoked",
      "type": "event"
    },
    {
      "anonymous": false,
      "inputs": [
        {
          "indexed": false,
          "internalType": "bytes32",
          "name": "typ",
          "type": "bytes32"
        },
        {
          "indexed": false,
          "internalType": "enum ContractResolver.Env",
          "name": "env",
          "type": "uint8"
        },
        {
          "indexed": false,
          "internalType": "address",
          "name": "addr",
          "type": "address"
        }
      ],
      "name": "SetContract",
      "type": "event"
    },
    {
      "inputs": [],
      "name": "ADMIN_ROLE",
      "outputs": [
        {
          "internalType": "bytes32",
          "name": "",
          "type": "bytes32"
        }
      ],
      "stateMutability": "view",
      "type": "function"
    },
    {
      "inputs": [],
      "name": "ALLOWLIST_CONTRACT",
      "outputs": [
        {
          "internalType": "bytes32",
          "name": "",
          "type": "bytes32"
        }
      ],
      "stateMutability": "view",
      "type": "function"
    },
    {
      "inputs": [],
      "name": "BACKUP_RECOVERY_CONTRACT",
      "outputs": [
        {
          "internalType": "bytes32",
          "name": "",
          "type": "bytes32"
        }
      ],
      "stateMutability": "view",
      "type": "function"
    },
    {
      "inputs": [],
      "name": "CLONE_NET_CONTRACT",
      "outputs": [
        {
          "internalType": "bytes32",
          "name": "",
          "type": "bytes32"
        }
      ],
      "stateMutability": "view",
      "type": "function"
    },
    {
      "inputs": [],
      "name": "DEFAULT_ADMIN_ROLE",
      "outputs": [
        {
          "internalType": "bytes32",
          "name": "",
          "type": "bytes32"
        }
      ],
      "stateMutability": "view",
      "type": "function"
    },
    {
      "inputs": [],
      "name": "DOMAIN_WALLET_REGISTRY",
      "outputs": [
        {
          "internalType": "bytes32",
          "name": "",
          "type": "bytes32"
        }
      ],
      "stateMutability": "view",
      "type": "function"
    },
    {
      "inputs": [],
      "name": "HD_KEY_DERIVER_CONTRACT",
      "outputs": [
        {
          "internalType": "bytes32",
          "name": "",
          "type": "bytes32"
        }
      ],
      "stateMutability": "view",
      "type": "function"
    },
    {
      "inputs": [],
      "name": "HOST_COMMANDS_CONTRACT",
      "outputs": [
        {
          "internalType": "bytes32",
          "name": "",
          "type": "bytes32"
        }
      ],
      "stateMutability": "view",
      "type": "function"
    },
    {
      "inputs": [],
      "name": "LIT_TOKEN_CONTRACT",
      "outputs": [
        {
          "internalType": "bytes32",
          "name": "",
          "type": "bytes32"
        }
      ],
      "stateMutability": "view",
      "type": "function"
    },
    {
      "inputs": [],
      "name": "MULTI_SENDER_CONTRACT",
      "outputs": [
        {
          "internalType": "bytes32",
          "name": "",
          "type": "bytes32"
        }
      ],
      "stateMutability": "view",
      "type": "function"
    },
    {
      "inputs": [],
      "name": "PAYMENT_DELEGATION_CONTRACT",
      "outputs": [
        {
          "internalType": "bytes32",
          "name": "",
          "type": "bytes32"
        }
      ],
      "stateMutability": "view",
      "type": "function"
    },
    {
      "inputs": [],
      "name": "PKP_HELPER_CONTRACT",
      "outputs": [
        {
          "internalType": "bytes32",
          "name": "",
          "type": "bytes32"
        }
      ],
      "stateMutability": "view",
      "type": "function"
    },
    {
      "inputs": [],
      "name": "PKP_HELPER_V2_CONTRACT",
      "outputs": [
        {
          "internalType": "bytes32",
          "name": "",
          "type": "bytes32"
        }
      ],
      "stateMutability": "view",
      "type": "function"
    },
    {
      "inputs": [],
      "name": "PKP_NFT_CONTRACT",
      "outputs": [
        {
          "internalType": "bytes32",
          "name": "",
          "type": "bytes32"
        }
      ],
      "stateMutability": "view",
      "type": "function"
    },
    {
      "inputs": [],
      "name": "PKP_NFT_METADATA_CONTRACT",
      "outputs": [
        {
          "internalType": "bytes32",
          "name": "",
          "type": "bytes32"
        }
      ],
      "stateMutability": "view",
      "type": "function"
    },
    {
      "inputs": [],
      "name": "PKP_PERMISSIONS_CONTRACT",
      "outputs": [
        {
          "internalType": "bytes32",
          "name": "",
          "type": "bytes32"
        }
      ],
      "stateMutability": "view",
      "type": "function"
    },
    {
      "inputs": [],
      "name": "PUB_KEY_ROUTER_CONTRACT",
      "outputs": [
        {
          "internalType": "bytes32",
          "name": "",
          "type": "bytes32"
        }
      ],
      "stateMutability": "view",
      "type": "function"
    },
    {
      "inputs": [],
      "name": "RATE_LIMIT_NFT_CONTRACT",
      "outputs": [
        {
          "internalType": "bytes32",
          "name": "",
          "type": "bytes32"
        }
      ],
      "stateMutability": "view",
      "type": "function"
    },
    {
      "inputs": [],
      "name": "RELEASE_REGISTER_CONTRACT",
      "outputs": [
        {
          "internalType": "bytes32",
          "name": "",
          "type": "bytes32"
        }
      ],
      "stateMutability": "view",
      "type": "function"
    },
    {
      "inputs": [],
      "name": "STAKING_BALANCES_CONTRACT",
      "outputs": [
        {
          "internalType": "bytes32",
          "name": "",
          "type": "bytes32"
        }
      ],
      "stateMutability": "view",
      "type": "function"
    },
    {
      "inputs": [],
      "name": "STAKING_CONTRACT",
      "outputs": [
        {
          "internalType": "bytes32",
          "name": "",
          "type": "bytes32"
        }
      ],
      "stateMutability": "view",
      "type": "function"
    },
    {
      "inputs": [
        {
          "internalType": "address",
          "name": "newAdmin",
          "type": "address"
        }
      ],
      "name": "addAdmin",
      "outputs": [],
      "stateMutability": "nonpayable",
      "type": "function"
    },
    {
      "inputs": [
        {
          "internalType": "enum ContractResolver.Env",
          "name": "env",
          "type": "uint8"
        }
      ],
      "name": "addAllowedEnv",
      "outputs": [],
      "stateMutability": "nonpayable",
      "type": "function"
    },
    {
      "inputs": [
        {
          "internalType": "bytes32",
          "name": "typ",
          "type": "bytes32"
        },
        {
          "internalType": "enum ContractResolver.Env",
          "name": "env",
          "type": "uint8"
        }
      ],
      "name": "getContract",
      "outputs": [
        {
          "internalType": "address",
          "name": "",
          "type": "address"
        }
      ],
      "stateMutability": "view",
      "type": "function"
    },
    {
      "inputs": [
        {
          "internalType": "bytes32",
          "name": "role",
          "type": "bytes32"
        }
      ],
      "name": "getRoleAdmin",
      "outputs": [
        {
          "internalType": "bytes32",
          "name": "",
          "type": "bytes32"
        }
      ],
      "stateMutability": "view",
      "type": "function"
    },
    {
      "inputs": [
        {
          "internalType": "bytes32",
          "name": "role",
          "type": "bytes32"
        },
        {
          "internalType": "address",
          "name": "account",
          "type": "address"
        }
      ],
      "name": "grantRole",
      "outputs": [],
      "stateMutability": "nonpayable",
      "type": "function"
    },
    {
      "inputs": [
        {
          "internalType": "bytes32",
          "name": "role",
          "type": "bytes32"
        },
        {
          "internalType": "address",
          "name": "account",
          "type": "address"
        }
      ],
      "name": "hasRole",
      "outputs": [
        {
          "internalType": "bool",
          "name": "",
          "type": "bool"
        }
      ],
      "stateMutability": "view",
      "type": "function"
    },
    {
      "inputs": [
        {
          "internalType": "address",
          "name": "adminBeingRemoved",
          "type": "address"
        }
      ],
      "name": "removeAdmin",
      "outputs": [],
      "stateMutability": "nonpayable",
      "type": "function"
    },
    {
      "inputs": [
        {
          "internalType": "enum ContractResolver.Env",
          "name": "env",
          "type": "uint8"
        }
      ],
      "name": "removeAllowedEnv",
      "outputs": [],
      "stateMutability": "nonpayable",
      "type": "function"
    },
    {
      "inputs": [
        {
          "internalType": "bytes32",
          "name": "role",
          "type": "bytes32"
        },
        {
          "internalType": "address",
          "name": "account",
          "type": "address"
        }
      ],
      "name": "renounceRole",
      "outputs": [],
      "stateMutability": "nonpayable",
      "type": "function"
    },
    {
      "inputs": [
        {
          "internalType": "bytes32",
          "name": "role",
          "type": "bytes32"
        },
        {
          "internalType": "address",
          "name": "account",
          "type": "address"
        }
      ],
      "name": "revokeRole",
      "outputs": [],
      "stateMutability": "nonpayable",
      "type": "function"
    },
    {
      "inputs": [
        {
          "internalType": "bytes32",
          "name": "typ",
          "type": "bytes32"
        },
        {
          "internalType": "enum ContractResolver.Env",
          "name": "env",
          "type": "uint8"
        },
        {
          "internalType": "address",
          "name": "addr",
          "type": "address"
        }
      ],
      "name": "setContract",
      "outputs": [],
      "stateMutability": "nonpayable",
      "type": "function"
    },
    {
      "inputs": [
        {
          "internalType": "bytes4",
          "name": "interfaceId",
          "type": "bytes4"
        }
      ],
      "name": "supportsInterface",
      "outputs": [
        {
          "internalType": "bool",
          "name": "",
          "type": "bool"
        }
      ],
      "stateMutability": "view",
      "type": "function"
    },
    {
      "inputs": [
        {
          "internalType": "bytes32",
          "name": "",
          "type": "bytes32"
        },
        {
          "internalType": "enum ContractResolver.Env",
          "name": "",
          "type": "uint8"
        }
      ],
      "name": "typeAddresses",
      "outputs": [
        {
          "internalType": "address",
          "name": "",
          "type": "address"
        }
      ],
      "stateMutability": "view",
      "type": "function"
    }
  ],
  "bytecode": "0x60806040523480156200001157600080fd5b50604051620022e9380380620022e9833981810160405281019062000037919062000358565b620000697fdf8b4c520ffe197c5343c6f5aec59570151ef9a492f2c624fd45ddde6135ec42336200013060201b60201c565b6200009b7fdf8b4c520ffe197c5343c6f5aec59570151ef9a492f2c624fd45ddde6135ec42806200014660201b60201c565b6001806000836002811115620000b657620000b56200038a565b5b6002811115620000cb57620000ca6200038a565b5b815260200190815260200160002060006101000a81548160ff0219169083151502179055507f839ad2743d4062df579edf3818f642b71ee0688a35d6bc4438ef5314cece8015816040516200012191906200040a565b60405180910390a15062000427565b620001428282620001a960201b60201c565b5050565b600062000159836200029a60201b60201c565b905081600080858152602001908152602001600020600101819055508181847fbd79b86ffe0ab8e8776151514217cd7cacd52c909f66475c3af44e129f0b00ff60405160405180910390a4505050565b620001bb8282620002b960201b60201c565b6200029657600160008084815260200190815260200160002060000160008373ffffffffffffffffffffffffffffffffffffffff1673ffffffffffffffffffffffffffffffffffffffff16815260200190815260200160002060006101000a81548160ff0219169083151502179055506200023b6200032360201b60201c565b73ffffffffffffffffffffffffffffffffffffffff168173ffffffffffffffffffffffffffffffffffffffff16837f2f8788117e7eff1d82e926ec794901d17c78024a50270940304540a733656f0d60405160405180910390a45b5050565b6000806000838152602001908152602001600020600101549050919050565b600080600084815260200190815260200160002060000160008373ffffffffffffffffffffffffffffffffffffffff1673ffffffffffffffffffffffffffffffffffffffff16815260200190815260200160002060009054906101000a900460ff16905092915050565b600033905090565b600080fd5b600381106200033e57600080fd5b50565b600081519050620003528162000330565b92915050565b6000602082840312156200037157620003706200032b565b5b6000620003818482850162000341565b91505092915050565b7f4e487b7100000000000000000000000000000000000000000000000000000000600052602160045260246000fd5b60038110620003cd57620003cc6200038a565b5b50565b6000819050620003e082620003b9565b919050565b6000620003f282620003d0565b9050919050565b6200040481620003e5565b82525050565b6000602082019050620004216000830184620003f9565b92915050565b611eb280620004376000396000f3fe608060405234801561001057600080fd5b50600436106102065760003560e01c806375b238fc1161011a5780639072f838116100ad578063ad1c8a861161007c578063ad1c8a86146105bd578063d547741f146105db578063da19ddfb146105f7578063df38069314610615578063f8ae93b41461063357610206565b80639072f8381461053357806391d1485414610551578063977a807014610581578063a217fddf1461059f57610206565b806385cb1191116100e957806385cb1191146104ab5780638c1536df146104c95780638deb3893146104e75780638e8dfd161461050357610206565b806375b238fc146104335780637cadf69f146104515780637d4a03bd1461046f5780637f90209f1461048d57610206565b80632e4885e81161019d5780634216e73a1161016c5780634216e73a146103a357806351ad0a80146103c15780635af27f79146103dd57806370480275146103fb57806374bc81391461041757610206565b80632e4885e81461031d5780632f2ff15d1461033b57806336568abe146103575780633ebf79851461037357610206565b8063193b983d116101d9578063193b983d14610293578063248a9ca3146102b15780632668f305146102e15780632c0b8bf7146102ff57610206565b806301ffc9a71461020b57806311ee8ff71461023b57806316f76bbf146102595780631785f53c14610277575b600080fd5b610225600480360381019061022091906115d1565b610651565b6040516102329190611619565b60405180910390f35b6102436106cb565b604051610250919061164d565b60405180910390f35b6102616106ef565b60405161026e919061164d565b60405180910390f35b610291600480360381019061028c91906116c6565b610713565b005b61029b6107d9565b6040516102a8919061164d565b60405180910390f35b6102cb60048036038101906102c6919061171f565b6107fd565b6040516102d8919061164d565b60405180910390f35b6102e961081c565b6040516102f6919061164d565b60405180910390f35b610307610840565b604051610314919061164d565b60405180910390f35b610325610864565b604051610332919061164d565b60405180910390f35b6103556004803603810190610350919061174c565b610888565b005b610371600480360381019061036c919061174c565b6108a9565b005b61038d600480360381019061038891906117b1565b61092c565b60405161039a9190611800565b60405180910390f35b6103ab61096e565b6040516103b8919061164d565b60405180910390f35b6103db60048036038101906103d6919061181b565b610992565b005b6103e5610b44565b6040516103f2919061164d565b60405180910390f35b610415600480360381019061041091906116c6565b610b68565b005b610431600480360381019061042c919061186e565b610bc0565b005b61043b610ca9565b604051610448919061164d565b60405180910390f35b610459610ccd565b604051610466919061164d565b60405180910390f35b610477610cf1565b604051610484919061164d565b60405180910390f35b610495610d15565b6040516104a2919061164d565b60405180910390f35b6104b3610d39565b6040516104c0919061164d565b60405180910390f35b6104d1610d5d565b6040516104de919061164d565b60405180910390f35b61050160048036038101906104fc919061186e565b610d81565b005b61051d600480360381019061051891906117b1565b610e62565b60405161052a9190611800565b60405180910390f35b61053b610ed5565b604051610548919061164d565b60405180910390f35b61056b6004803603810190610566919061174c565b610ef9565b6040516105789190611619565b60405180910390f35b610589610f63565b604051610596919061164d565b60405180910390f35b6105a7610f87565b6040516105b4919061164d565b60405180910390f35b6105c5610f8e565b6040516105d2919061164d565b60405180910390f35b6105f560048036038101906105f0919061174c565b610fb2565b005b6105ff610fd3565b60405161060c919061164d565b60405180910390f35b61061d610ff7565b60405161062a919061164d565b60405180910390f35b61063b61101b565b604051610648919061164d565b60405180910390f35b60007f7965db0b000000000000000000000000000000000000000000000000000000007bffffffffffffffffffffffffffffffffffffffffffffffffffffffff1916827bffffffffffffffffffffffffffffffffffffffffffffffffffffffff191614806106c457506106c38261103f565b5b9050919050565b7f58a0044e0ecd81025e398bf1815075d1234cbac3749614b0b33a404c2ee2babf81565b7ff14f431dadc82e7dbc5e379f71234e5735c9187e4327a7c6ac014d55d1b7727a81565b7fdf8b4c520ffe197c5343c6f5aec59570151ef9a492f2c624fd45ddde6135ec4261073d816110a9565b3373ffffffffffffffffffffffffffffffffffffffff168273ffffffffffffffffffffffffffffffffffffffff16036107ab576040517f08c379a00000000000000000000000000000000000000000000000000000000081526004016107a29061191e565b60405180910390fd5b6107d57fdf8b4c520ffe197c5343c6f5aec59570151ef9a492f2c624fd45ddde6135ec42836110bd565b5050565b7f74eb03cf63075004abbf0673b796de723c9eb4e7ca32a80585790e134bb99f8c81565b6000806000838152602001908152602001600020600101549050919050565b7fb1f79813bc7630a52ae948bc99781397e409d0dd3521953bf7d8d7a2db6147f781565b7fb7b4fde9944d3c13e9a78835431c33a5084d90a7f0c73def76d7886315fe87b081565b7fb931b2719aeb2a65a5035fa0a190bfdc4c8622ce8cbff7a3d1ab42531fb1a91881565b610891826107fd565b61089a816110a9565b6108a4838361119e565b505050565b6108b161127e565b73ffffffffffffffffffffffffffffffffffffffff168173ffffffffffffffffffffffffffffffffffffffff161461091e576040517f08c379a0000000000000000000000000000000000000000000000000000000008152600401610915906119b0565b60405180910390fd5b61092882826110bd565b5050565b60026020528160005260406000206020528060005260406000206000915091509054906101000a900473ffffffffffffffffffffffffffffffffffffffff1681565b7f4c41ae454beb6bbbe9be50accc957a3b1536e48b835a86919af981b5244db75581565b6109bc7fdf8b4c520ffe197c5343c6f5aec59570151ef9a492f2c624fd45ddde6135ec4233610ef9565b6109f2576040517fc890f84a00000000000000000000000000000000000000000000000000000000815260040160405180910390fd5b6001151560016000846002811115610a0d57610a0c6119d0565b5b6002811115610a1f57610a1e6119d0565b5b815260200190815260200160002060009054906101000a900460ff16151514610a7d576040517f08c379a0000000000000000000000000000000000000000000000000000000008152600401610a7490611a71565b60405180910390fd5b80600260008581526020019081526020016000206000846002811115610aa657610aa56119d0565b5b6002811115610ab857610ab76119d0565b5b815260200190815260200160002060006101000a81548173ffffffffffffffffffffffffffffffffffffffff021916908373ffffffffffffffffffffffffffffffffffffffff1602179055507f33f014890f109229bbcf8dd47204c153a2c0ff1c572a61de220d10336530f53d838383604051610b3793929190611ad9565b60405180910390a1505050565b7fa2c73732de657ad0f36e0ddbb2710f4b13e8dde46421386bb92d1e179dae4d4d81565b7fdf8b4c520ffe197c5343c6f5aec59570151ef9a492f2c624fd45ddde6135ec42610b92816110a9565b610bbc7fdf8b4c520ffe197c5343c6f5aec59570151ef9a492f2c624fd45ddde6135ec428361119e565b5050565b610bea7fdf8b4c520ffe197c5343c6f5aec59570151ef9a492f2c624fd45ddde6135ec4233610ef9565b610c20576040517fc890f84a00000000000000000000000000000000000000000000000000000000815260040160405180910390fd5b6001806000836002811115610c3857610c376119d0565b5b6002811115610c4a57610c496119d0565b5b815260200190815260200160002060006101000a81548160ff0219169083151502179055507f839ad2743d4062df579edf3818f642b71ee0688a35d6bc4438ef5314cece801581604051610c9e9190611b10565b60405180910390a150565b7fdf8b4c520ffe197c5343c6f5aec59570151ef9a492f2c624fd45ddde6135ec4281565b7f74845de37cfabd357633214b47fa91ccd19b05b7c5a08ac22c187f811fb62bca81565b7f9f35ef3e0c2652a8bb8747d92f407fcd39a7768dacc7f16581c7a71f103e556281565b7fc6674f98ba35c01c130e08195dd26c70466037473a068c5aaa470a783d99c16c81565b7fae79a935737012d066e7183032692e521ffe1ade2beda267e23e02b1d6e9118781565b7faa06d108dbd7bf976b16b7bf5adb29d2d0ef2c385ca8b9d833cc802f33942d7281565b610dab7fdf8b4c520ffe197c5343c6f5aec59570151ef9a492f2c624fd45ddde6135ec4233610ef9565b610de1576040517fc890f84a00000000000000000000000000000000000000000000000000000000815260040160405180910390fd5b60016000826002811115610df857610df76119d0565b5b6002811115610e0a57610e096119d0565b5b815260200190815260200160002060006101000a81549060ff02191690557f3f178f17dae6caf8ca09c4857502baf7744e8597de42d6596476fe9e06b8ad4781604051610e579190611b10565b60405180910390a150565b6000600260008481526020019081526020016000206000836002811115610e8c57610e8b6119d0565b5b6002811115610e9e57610e9d6119d0565b5b815260200190815260200160002060009054906101000a900473ffffffffffffffffffffffffffffffffffffffff16905092915050565b7f54953c23068b8fc4c0736301b50f10027d6b469327de1fd42841a5072b1bcebe81565b600080600084815260200190815260200160002060000160008373ffffffffffffffffffffffffffffffffffffffff1673ffffffffffffffffffffffffffffffffffffffff16815260200190815260200160002060009054906101000a900460ff16905092915050565b7f27d764ea2a4a3865434bbf4a391110149644be31448f3479fd15b4438875576581565b6000801b81565b7f3a68dbfd8bbb64015c42bc131c388dea7965e28c1004d09b39f59500c3a763ec81565b610fbb826107fd565b610fc4816110a9565b610fce83836110bd565b505050565b7f080909c18c958ce5a2d36481697824e477319323d03154ceba3b78f28a61887b81565b7fb4bf999b68d8085dbbf7a0ec2f5a2d660873935bdf1ed08eb421ac6dcbc0036281565b7fdd5b9b8a5e8e01f2962ed7e983d58fe32e1f66aa88dd7ab30770fa9b77da724381565b60007f01ffc9a7000000000000000000000000000000000000000000000000000000007bffffffffffffffffffffffffffffffffffffffffffffffffffffffff1916827bffffffffffffffffffffffffffffffffffffffffffffffffffffffff1916149050919050565b6110ba816110b561127e565b611286565b50565b6110c78282610ef9565b1561119a57600080600084815260200190815260200160002060000160008373ffffffffffffffffffffffffffffffffffffffff1673ffffffffffffffffffffffffffffffffffffffff16815260200190815260200160002060006101000a81548160ff02191690831515021790555061113f61127e565b73ffffffffffffffffffffffffffffffffffffffff168173ffffffffffffffffffffffffffffffffffffffff16837ff6391f5c32d9c69d2a47ea670b442974b53935d1edc7fd64eb21e047a839171b60405160405180910390a45b5050565b6111a88282610ef9565b61127a57600160008084815260200190815260200160002060000160008373ffffffffffffffffffffffffffffffffffffffff1673ffffffffffffffffffffffffffffffffffffffff16815260200190815260200160002060006101000a81548160ff02191690831515021790555061121f61127e565b73ffffffffffffffffffffffffffffffffffffffff168173ffffffffffffffffffffffffffffffffffffffff16837f2f8788117e7eff1d82e926ec794901d17c78024a50270940304540a733656f0d60405160405180910390a45b5050565b600033905090565b6112908282610ef9565b6113075761129d8161130b565b6112ab8360001c6020611338565b6040516020016112bc929190611c34565b6040516020818303038152906040526040517f08c379a00000000000000000000000000000000000000000000000000000000081526004016112fe9190611cb8565b60405180910390fd5b5050565b60606113318273ffffffffffffffffffffffffffffffffffffffff16601460ff16611338565b9050919050565b60606000600283600261134b9190611d13565b6113559190611d55565b67ffffffffffffffff81111561136e5761136d611d89565b5b6040519080825280601f01601f1916602001820160405280156113a05781602001600182028036833780820191505090505b5090507f3000000000000000000000000000000000000000000000000000000000000000816000815181106113d8576113d7611db8565b5b60200101907effffffffffffffffffffffffffffffffffffffffffffffffffffffffffffff1916908160001a9053507f78000000000000000000000000000000000000000000000000000000000000008160018151811061143c5761143b611db8565b5b60200101907effffffffffffffffffffffffffffffffffffffffffffffffffffffffffffff1916908160001a9053506000600184600261147c9190611d13565b6114869190611d55565b90505b6001811115611526577f3031323334353637383961626364656600000000000000000000000000000000600f8616601081106114c8576114c7611db8565b5b1a60f81b8282815181106114df576114de611db8565b5b60200101907effffffffffffffffffffffffffffffffffffffffffffffffffffffffffffff1916908160001a905350600485901c94508061151f90611de7565b9050611489565b506000841461156a576040517f08c379a000000000000000000000000000000000000000000000000000000000815260040161156190611e5c565b60405180910390fd5b8091505092915050565b600080fd5b60007fffffffff0000000000000000000000000000000000000000000000000000000082169050919050565b6115ae81611579565b81146115b957600080fd5b50565b6000813590506115cb816115a5565b92915050565b6000602082840312156115e7576115e6611574565b5b60006115f5848285016115bc565b91505092915050565b60008115159050919050565b611613816115fe565b82525050565b600060208201905061162e600083018461160a565b92915050565b6000819050919050565b61164781611634565b82525050565b6000602082019050611662600083018461163e565b92915050565b600073ffffffffffffffffffffffffffffffffffffffff82169050919050565b600061169382611668565b9050919050565b6116a381611688565b81146116ae57600080fd5b50565b6000813590506116c08161169a565b92915050565b6000602082840312156116dc576116db611574565b5b60006116ea848285016116b1565b91505092915050565b6116fc81611634565b811461170757600080fd5b50565b600081359050611719816116f3565b92915050565b60006020828403121561173557611734611574565b5b60006117438482850161170a565b91505092915050565b6000806040838503121561176357611762611574565b5b60006117718582860161170a565b9250506020611782858286016116b1565b9150509250929050565b6003811061179957600080fd5b50565b6000813590506117ab8161178c565b92915050565b600080604083850312156117c8576117c7611574565b5b60006117d68582860161170a565b92505060206117e78582860161179c565b9150509250929050565b6117fa81611688565b82525050565b600060208201905061181560008301846117f1565b92915050565b60008060006060848603121561183457611833611574565b5b60006118428682870161170a565b93505060206118538682870161179c565b9250506040611864868287016116b1565b9150509250925092565b60006020828403121561188457611883611574565b5b60006118928482850161179c565b91505092915050565b600082825260208201905092915050565b7f43616e6e6f742072656d6f76652073656c662061732061646d696e2e2020486160008201527f766520746865206e65772061646d696e20646f2069742e000000000000000000602082015250565b600061190860378361189b565b9150611913826118ac565b604082019050919050565b60006020820190508181036000830152611937816118fb565b9050919050565b7f416363657373436f6e74726f6c3a2063616e206f6e6c792072656e6f756e636560008201527f20726f6c657320666f722073656c660000000000000000000000000000000000602082015250565b600061199a602f8361189b565b91506119a58261193e565b604082019050919050565b600060208201905081810360008301526119c98161198d565b9050919050565b7f4e487b7100000000000000000000000000000000000000000000000000000000600052602160045260246000fd5b7f5468652070726f766964656420456e76206973206e6f742076616c696420666f60008201527f72207468697320636f6e74726163740000000000000000000000000000000000602082015250565b6000611a5b602f8361189b565b9150611a66826119ff565b604082019050919050565b60006020820190508181036000830152611a8a81611a4e565b9050919050565b60038110611aa257611aa16119d0565b5b50565b6000819050611ab382611a91565b919050565b6000611ac382611aa5565b9050919050565b611ad381611ab8565b82525050565b6000606082019050611aee600083018661163e565b611afb6020830185611aca565b611b0860408301846117f1565b949350505050565b6000602082019050611b256000830184611aca565b92915050565b600081905092915050565b7f416363657373436f6e74726f6c3a206163636f756e7420000000000000000000600082015250565b6000611b6c601783611b2b565b9150611b7782611b36565b601782019050919050565b600081519050919050565b60005b83811015611bab578082015181840152602081019050611b90565b60008484015250505050565b6000611bc282611b82565b611bcc8185611b2b565b9350611bdc818560208601611b8d565b80840191505092915050565b7f206973206d697373696e6720726f6c6520000000000000000000000000000000600082015250565b6000611c1e601183611b2b565b9150611c2982611be8565b601182019050919050565b6000611c3f82611b5f565b9150611c4b8285611bb7565b9150611c5682611c11565b9150611c628284611bb7565b91508190509392505050565b6000601f19601f8301169050919050565b6000611c8a82611b82565b611c94818561189b565b9350611ca4818560208601611b8d565b611cad81611c6e565b840191505092915050565b60006020820190508181036000830152611cd28184611c7f565b905092915050565b6000819050919050565b7f4e487b7100000000000000000000000000000000000000000000000000000000600052601160045260246000fd5b6000611d1e82611cda565b9150611d2983611cda565b9250828202611d3781611cda565b91508282048414831517611d4e57611d4d611ce4565b5b5092915050565b6000611d6082611cda565b9150611d6b83611cda565b9250828201905080821115611d8357611d82611ce4565b5b92915050565b7f4e487b7100000000000000000000000000000000000000000000000000000000600052604160045260246000fd5b7f4e487b7100000000000000000000000000000000000000000000000000000000600052603260045260246000fd5b6000611df282611cda565b915060008203611e0557611e04611ce4565b5b600182039050919050565b7f537472696e67733a20686578206c656e67746820696e73756666696369656e74600082015250565b6000611e4660208361189b565b9150611e5182611e10565b602082019050919050565b60006020820190508181036000830152611e7581611e39565b905091905056fea2646970667358221220c02d535c42140cbbee2e86ccaaee3a09de0700542d52ed525cfcf8fb2b53857464736f6c63430008110033",
  "linkReferences": {},
  "deployedLinkReferences": {}
}