{
  "_format": "hh-sol-artifact-1",
  "contractName": "DevKeyDeriver",
  "sourceName": "contracts/lit-node/HDKeyDeriver.sol",
  "abi": [
    {
      "inputs": [],
      "stateMutability": "nonpayable",
      "type": "constructor"
    },
    {
      "inputs": [
        {
          "internalType": "bytes32",
          "name": "derivedKeyId",
          "type": "bytes32"
        },
        {
          "components": [
            {
              "internalType": "bytes",
              "name": "pubkey",
              "type": "bytes"
            },
            {
              "internalType": "uint256",
              "name": "keyType",
              "type": "uint256"
            }
          ],
          "internalType": "struct IPubkeyRouter.RootKey[]",
          "name": "rootHDKeys",
          "type": "tuple[]"
        },
        {
          "internalType": "uint256",
          "name": "keyType",
          "type": "uint256"
        }
      ],
      "name": "computeHDPubKey",
      "outputs": [
        {
          "internalType": "bool",
          "name": "",
          "type": "bool"
        },
        {
          "internalType": "bytes",
          "name": "",
          "type": "bytes"
        }
      ],
      "stateMutability": "view",
      "type": "function"
    }
  ],
  "bytecode": "0x608060405234801561001057600080fd5b50610564806100206000396000f3fe608060405234801561001057600080fd5b506004361061002b5760003560e01c8063a32c2b9914610030575b600080fd5b61004a600480360381019061004591906103b4565b610061565b6040516100589291906104bd565b60405180910390f35b6000606060006040518060800160405280604181526020016104ee6041913990506001819250925050935093915050565b6000604051905090565b600080fd5b600080fd5b6000819050919050565b6100b9816100a6565b81146100c457600080fd5b50565b6000813590506100d6816100b0565b92915050565b600080fd5b6000601f19601f8301169050919050565b7f4e487b7100000000000000000000000000000000000000000000000000000000600052604160045260246000fd5b61012a826100e1565b810181811067ffffffffffffffff82111715610149576101486100f2565b5b80604052505050565b600061015c610092565b90506101688282610121565b919050565b600067ffffffffffffffff821115610188576101876100f2565b5b602082029050602081019050919050565b600080fd5b600080fd5b600080fd5b600080fd5b600067ffffffffffffffff8211156101c8576101c76100f2565b5b6101d1826100e1565b9050602081019050919050565b82818337600083830152505050565b60006102006101fb846101ad565b610152565b90508281526020810184848401111561021c5761021b6101a8565b5b6102278482856101de565b509392505050565b600082601f830112610244576102436100dc565b5b81356102548482602086016101ed565b91505092915050565b6000819050919050565b6102708161025d565b811461027b57600080fd5b50565b60008135905061028d81610267565b92915050565b6000604082840312156102a9576102a861019e565b5b6102b36040610152565b9050600082013567ffffffffffffffff8111156102d3576102d26101a3565b5b6102df8482850161022f565b60008301525060206102f38482850161027e565b60208301525092915050565b600061031261030d8461016d565b610152565b9050808382526020820190506020840283018581111561033557610334610199565b5b835b8181101561037c57803567ffffffffffffffff81111561035a576103596100dc565b5b8086016103678982610293565b85526020850194505050602081019050610337565b5050509392505050565b600082601f83011261039b5761039a6100dc565b5b81356103ab8482602086016102ff565b91505092915050565b6000806000606084860312156103cd576103cc61009c565b5b60006103db868287016100c7565b935050602084013567ffffffffffffffff8111156103fc576103fb6100a1565b5b61040886828701610386565b92505060406104198682870161027e565b9150509250925092565b60008115159050919050565b61043881610423565b82525050565b600081519050919050565b600082825260208201905092915050565b60005b8381101561047857808201518184015260208101905061045d565b60008484015250505050565b600061048f8261043e565b6104998185610449565b93506104a981856020860161045a565b6104b2816100e1565b840191505092915050565b60006040820190506104d2600083018561042f565b81810360208301526104e48184610484565b9050939250505056fe047c3647345020536e8aaccac7f73c5248bf3609677997fb615c290cc58e8ac1dcad1fa1d4f6eedf516f023dee11fbc06310434c5a7ee40f5f8c49e255b1d1bfb6a26469706673582212204f724b54d1f1725644da5468816d4513af9d8ce0febcca5fcbe48b794cf0bc9a64736f6c63430008110033",
  "linkReferences": {},
  "deployedLinkReferences": {}
}