{
  "_format": "hh-sol-artifact-1",
  "contractName": "DomainWalletOracle",
  "sourceName": "contracts/domain-wallets/DomainWalletOracle.sol",
  "abi": [
    {
      "inputs": [
        {
          "internalType": "address",
          "name": "_contractResolver",
          "type": "address"
        },
        {
          "internalType": "enum ContractResolver.Env",
          "name": "_env",
          "type": "uint8"
        }
      ],
      "stateMutability": "nonpayable",
      "type": "constructor"
    },
    {
      "inputs": [
        {
          "internalType": "bytes",
          "name": "uri",
          "type": "bytes"
        },
        {
          "internalType": "uint256",
          "name": "pkpTokenId",
          "type": "uint256"
        }
      ],
      "name": "DomainAlreadyRegistered",
      "type": "error"
    },
    {
      "inputs": [
        {
          "internalType": "address",
          "name": "registryAddress",
          "type": "address"
        },
        {
          "internalType": "address",
          "name": "account",
          "type": "address"
        }
      ],
      "name": "NonRegistryCaller",
      "type": "error"
    },
    {
      "anonymous": false,
      "inputs": [
        {
          "indexed": false,
          "internalType": "bytes",
          "name": "subDomain",
          "type": "bytes"
        },
        {
          "indexed": false,
          "internalType": "uint256",
          "name": "tokenId",
          "type": "uint256"
        },
        {
          "indexed": false,
          "internalType": "uint256",
          "name": "ttl",
          "type": "uint256"
        }
      ],
      "name": "Expired",
      "type": "event"
    },
    {
      "anonymous": false,
      "inputs": [
        {
          "indexed": false,
          "internalType": "uint64",
          "name": "id",
          "type": "uint64"
        },
        {
          "indexed": false,
          "internalType": "bytes",
          "name": "subDomain",
          "type": "bytes"
        },
        {
          "indexed": false,
          "internalType": "uint256",
          "name": "ttl",
          "type": "uint256"
        },
        {
          "indexed": false,
          "internalType": "uint256",
          "name": "tokenId",
          "type": "uint256"
        }
      ],
      "name": "Registered",
      "type": "event"
    },
    {
      "anonymous": false,
      "inputs": [
        {
          "indexed": false,
          "internalType": "uint256",
          "name": "tokenId",
          "type": "uint256"
        },
        {
          "indexed": false,
          "internalType": "bytes",
          "name": "subDomain",
          "type": "bytes"
        }
      ],
      "name": "Removed",
      "type": "event"
    },
    {
      "anonymous": false,
      "inputs": [
        {
          "indexed": false,
          "internalType": "uint256",
          "name": "tokenId",
          "type": "uint256"
        },
        {
          "indexed": false,
          "internalType": "bytes",
          "name": "subDomain",
          "type": "bytes"
        }
      ],
      "name": "Revoked",
      "type": "event"
    },
    {
      "anonymous": false,
      "inputs": [
        {
          "indexed": true,
          "internalType": "bytes32",
          "name": "role",
          "type": "bytes32"
        },
        {
          "indexed": true,
          "internalType": "bytes32",
          "name": "previousAdminRole",
          "type": "bytes32"
        },
        {
          "indexed": true,
          "internalType": "bytes32",
          "name": "newAdminRole",
          "type": "bytes32"
        }
      ],
      "name": "RoleAdminChanged",
      "type": "event"
    },
    {
      "anonymous": false,
      "inputs": [
        {
          "indexed": true,
          "internalType": "bytes32",
          "name": "role",
          "type": "bytes32"
        },
        {
          "indexed": true,
          "internalType": "address",
          "name": "account",
          "type": "address"
        },
        {
          "indexed": true,
          "internalType": "address",
          "name": "sender",
          "type": "address"
        }
      ],
      "name": "RoleGranted",
      "type": "event"
    },
    {
      "anonymous": false,
      "inputs": [
        {
          "indexed": true,
          "internalType": "bytes32",
          "name": "role",
          "type": "bytes32"
        },
        {
          "indexed": true,
          "internalType": "address",
          "name": "account",
          "type": "address"
        },
        {
          "indexed": true,
          "internalType": "address",
          "name": "sender",
          "type": "address"
        }
      ],
      "name": "RoleRevoked",
      "type": "event"
    },
    {
      "inputs": [],
      "name": "ADMIN_ROLE",
      "outputs": [
        {
          "internalType": "bytes32",
          "name": "",
          "type": "bytes32"
        }
      ],
      "stateMutability": "view",
      "type": "function"
    },
    {
      "inputs": [],
      "name": "DEFAULT_ADMIN_ROLE",
      "outputs": [
        {
          "internalType": "bytes32",
          "name": "",
          "type": "bytes32"
        }
      ],
      "stateMutability": "view",
      "type": "function"
    },
    {
      "inputs": [
        {
          "internalType": "address",
          "name": "newAdmin",
          "type": "address"
        }
      ],
      "name": "addAdmin",
      "outputs": [],
      "stateMutability": "nonpayable",
      "type": "function"
    },
    {
      "inputs": [
        {
          "internalType": "bytes",
          "name": "uri",
          "type": "bytes"
        }
      ],
      "name": "checkRegistration",
      "outputs": [],
      "stateMutability": "view",
      "type": "function"
    },
    {
      "inputs": [],
      "name": "contractResolver",
      "outputs": [
        {
          "internalType": "contract ContractResolver",
          "name": "",
          "type": "address"
        }
      ],
      "stateMutability": "view",
      "type": "function"
    },
    {
      "inputs": [],
      "name": "env",
      "outputs": [
        {
          "internalType": "enum ContractResolver.Env",
          "name": "",
          "type": "uint8"
        }
      ],
      "stateMutability": "view",
      "type": "function"
    },
    {
      "inputs": [
        {
          "internalType": "uint256",
          "name": "pkpTokenId",
          "type": "uint256"
        }
      ],
      "name": "getDomainIdByTokenId",
      "outputs": [
        {
          "internalType": "uint64",
          "name": "",
          "type": "uint64"
        }
      ],
      "stateMutability": "view",
      "type": "function"
    },
    {
      "inputs": [
        {
          "internalType": "bytes",
          "name": "uri",
          "type": "bytes"
        }
      ],
      "name": "getDomainTokenIdByUri",
      "outputs": [
        {
          "internalType": "uint256",
          "name": "",
          "type": "uint256"
        }
      ],
      "stateMutability": "view",
      "type": "function"
    },
    {
      "inputs": [
        {
          "internalType": "uint256",
          "name": "pkpTokenId",
          "type": "uint256"
        }
      ],
      "name": "getDomainUri",
      "outputs": [
        {
          "internalType": "bytes",
          "name": "",
          "type": "bytes"
        }
      ],
      "stateMutability": "view",
      "type": "function"
    },
    {
      "inputs": [
        {
          "internalType": "uint256",
          "name": "pkpTokenId",
          "type": "uint256"
        }
      ],
      "name": "getExpiration",
      "outputs": [
        {
          "internalType": "uint256",
          "name": "",
          "type": "uint256"
        }
      ],
      "stateMutability": "view",
      "type": "function"
    },
    {
      "inputs": [
        {
          "internalType": "uint64",
          "name": "id",
          "type": "uint64"
        }
      ],
      "name": "getPkpTokenId",
      "outputs": [
        {
          "internalType": "uint256",
          "name": "",
          "type": "uint256"
        }
      ],
      "stateMutability": "view",
      "type": "function"
    },
    {
      "inputs": [
        {
          "internalType": "uint256",
          "name": "pkpTokenId",
          "type": "uint256"
        }
      ],
      "name": "getRecord",
      "outputs": [
        {
          "internalType": "bytes",
          "name": "",
          "type": "bytes"
        }
      ],
      "stateMutability": "view",
      "type": "function"
    },
    {
      "inputs": [
        {
          "internalType": "bytes32",
          "name": "role",
          "type": "bytes32"
        }
      ],
      "name": "getRoleAdmin",
      "outputs": [
        {
          "internalType": "bytes32",
          "name": "",
          "type": "bytes32"
        }
      ],
      "stateMutability": "view",
      "type": "function"
    },
    {
      "inputs": [
        {
          "internalType": "bytes32",
          "name": "role",
          "type": "bytes32"
        },
        {
          "internalType": "address",
          "name": "account",
          "type": "address"
        }
      ],
      "name": "grantRole",
      "outputs": [],
      "stateMutability": "nonpayable",
      "type": "function"
    },
    {
      "inputs": [
        {
          "internalType": "uint256",
          "name": "pkpTokenId",
          "type": "uint256"
        }
      ],
      "name": "hasExpired",
      "outputs": [
        {
          "internalType": "bool",
          "name": "",
          "type": "bool"
        }
      ],
      "stateMutability": "nonpayable",
      "type": "function"
    },
    {
      "inputs": [
        {
          "internalType": "uint256",
          "name": "pkpTokenId",
          "type": "uint256"
        }
      ],
      "name": "hasOwner",
      "outputs": [
        {
          "internalType": "bool",
          "name": "",
          "type": "bool"
        }
      ],
      "stateMutability": "view",
      "type": "function"
    },
    {
      "inputs": [
        {
          "internalType": "bytes32",
          "name": "role",
          "type": "bytes32"
        },
        {
          "internalType": "address",
          "name": "account",
          "type": "address"
        }
      ],
      "name": "hasRole",
      "outputs": [
        {
          "internalType": "bool",
          "name": "",
          "type": "bool"
        }
      ],
      "stateMutability": "view",
      "type": "function"
    },
    {
      "inputs": [
        {
          "internalType": "uint256",
          "name": "pkpTokenId",
          "type": "uint256"
        }
      ],
      "name": "isOwner",
      "outputs": [
        {
          "internalType": "bool",
          "name": "",
          "type": "bool"
        }
      ],
      "stateMutability": "view",
      "type": "function"
    },
    {
      "inputs": [
        {
          "internalType": "uint256",
          "name": "pkpTokenId",
          "type": "uint256"
        }
      ],
      "name": "isRouted",
      "outputs": [
        {
          "internalType": "bool",
          "name": "",
          "type": "bool"
        }
      ],
      "stateMutability": "view",
      "type": "function"
    },
    {
      "inputs": [
        {
          "internalType": "bytes",
          "name": "userId",
          "type": "bytes"
        },
        {
          "internalType": "bytes",
          "name": "uri",
          "type": "bytes"
        },
        {
          "internalType": "uint256",
          "name": "pkpTokenId",
          "type": "uint256"
        },
        {
          "internalType": "uint256",
          "name": "ttl",
          "type": "uint256"
        }
      ],
      "name": "registerDomain",
      "outputs": [],
      "stateMutability": "nonpayable",
      "type": "function"
    },
    {
      "inputs": [
        {
          "internalType": "uint64",
          "name": "id",
          "type": "uint64"
        },
        {
          "internalType": "uint256",
          "name": "pkpTokenId",
          "type": "uint256"
        }
      ],
      "name": "registerPKP",
      "outputs": [
        {
          "internalType": "bool",
          "name": "",
          "type": "bool"
        }
      ],
      "stateMutability": "nonpayable",
      "type": "function"
    },
    {
      "inputs": [
        {
          "internalType": "address",
          "name": "adminBeingRemoved",
          "type": "address"
        }
      ],
      "name": "removeAdmin",
      "outputs": [],
      "stateMutability": "nonpayable",
      "type": "function"
    },
    {
      "inputs": [
        {
          "internalType": "uint256",
          "name": "pkpTokenId",
          "type": "uint256"
        }
      ],
      "name": "removeDomain",
      "outputs": [
        {
          "internalType": "bool",
          "name": "",
          "type": "bool"
        }
      ],
      "stateMutability": "nonpayable",
      "type": "function"
    },
    {
      "inputs": [
        {
          "internalType": "bytes32",
          "name": "role",
          "type": "bytes32"
        },
        {
          "internalType": "address",
          "name": "account",
          "type": "address"
        }
      ],
      "name": "renounceRole",
      "outputs": [],
      "stateMutability": "nonpayable",
      "type": "function"
    },
    {
      "inputs": [
        {
          "internalType": "uint256",
          "name": "pkpTokenId",
          "type": "uint256"
        }
      ],
      "name": "revokeDomain",
      "outputs": [
        {
          "internalType": "bool",
          "name": "",
          "type": "bool"
        }
      ],
      "stateMutability": "nonpayable",
      "type": "function"
    },
    {
      "inputs": [
        {
          "internalType": "bytes32",
          "name": "role",
          "type": "bytes32"
        },
        {
          "internalType": "address",
          "name": "account",
          "type": "address"
        }
      ],
      "name": "revokeRole",
      "outputs": [],
      "stateMutability": "nonpayable",
      "type": "function"
    },
    {
      "inputs": [
        {
          "internalType": "bytes4",
          "name": "interfaceId",
          "type": "bytes4"
        }
      ],
      "name": "supportsInterface",
      "outputs": [
        {
          "internalType": "bool",
          "name": "",
          "type": "bool"
        }
      ],
      "stateMutability": "view",
      "type": "function"
    },
    {
      "inputs": [
        {
          "internalType": "uint256",
          "name": "pkpTokenId",
          "type": "uint256"
        },
        {
          "internalType": "bytes",
          "name": "record",
          "type": "bytes"
        }
      ],
      "name": "updateDomainRecord",
      "outputs": [
        {
          "internalType": "bool",
          "name": "",
          "type": "bool"
        }
      ],
      "stateMutability": "nonpayable",
      "type": "function"
    }
  ],
  "bytecode": "0x6080604052600060045560006005556000600660006101000a81548167ffffffffffffffff021916908367ffffffffffffffff1602179055503480156200004557600080fd5b5060405162003c8938038062003c8983398181016040528101906200006b919062000308565b81600660086101000a81548173ffffffffffffffffffffffffffffffffffffffff021916908373ffffffffffffffffffffffffffffffffffffffff160217905550806006601c6101000a81548160ff02191690836002811115620000d457620000d36200034f565b5b02179055506200010b7fdf8b4c520ffe197c5343c6f5aec59570151ef9a492f2c624fd45ddde6135ec42336200011360201b60201c565b50506200037e565b6200012582826200020460201b60201c565b6200020057600160008084815260200190815260200160002060000160008373ffffffffffffffffffffffffffffffffffffffff1673ffffffffffffffffffffffffffffffffffffffff16815260200190815260200160002060006101000a81548160ff021916908315150217905550620001a56200026e60201b60201c565b73ffffffffffffffffffffffffffffffffffffffff168173ffffffffffffffffffffffffffffffffffffffff16837f2f8788117e7eff1d82e926ec794901d17c78024a50270940304540a733656f0d60405160405180910390a45b5050565b600080600084815260200190815260200160002060000160008373ffffffffffffffffffffffffffffffffffffffff1673ffffffffffffffffffffffffffffffffffffffff16815260200190815260200160002060009054906101000a900460ff16905092915050565b600033905090565b600080fd5b600073ffffffffffffffffffffffffffffffffffffffff82169050919050565b6000620002a8826200027b565b9050919050565b620002ba816200029b565b8114620002c657600080fd5b50565b600081519050620002da81620002af565b92915050565b60038110620002ee57600080fd5b50565b6000815190506200030281620002e0565b92915050565b6000806040838503121562000322576200032162000276565b5b60006200033285828601620002c9565b92505060206200034585828601620002f1565b9150509250929050565b7f4e487b7100000000000000000000000000000000000000000000000000000000600052602160045260246000fd5b6138fb806200038e6000396000f3fe608060405234801561001057600080fd5b50600436106101c45760003560e01c80636f50cd97116100f9578063a05b775f11610097578063c9b2874911610071578063c9b2874914610589578063d547741f146105b9578063d964a375146105d5578063f48d60ca14610605576101c4565b8063a05b775f1461050b578063a217fddf1461053b578063a2f4210414610559576101c4565b8063880bc4e6116100d3578063880bc4e61461047157806391d14854146104a15780639a2056f4146104d15780639dca0032146104ed576101c4565b80636f50cd9714610407578063704802751461043757806375b238fc14610453576101c4565b806327bd069e1161016657806339c7639c1161014057806339c7639c1461035957806349fcbc541461038957806350d17b5e146103b95780636a3000c4146103d7576101c4565b806327bd069e146103055780632f2ff15d1461032157806336568abe1461033d576101c4565b806306985fb1116101a257806306985fb11461025957806315d46474146102895780631785f53c146102b9578063248a9ca3146102d5576101c4565b806301c6d035146101c957806301ffc9a7146101f957806303e9e60914610229575b600080fd5b6101e360048036038101906101de91906123a7565b610635565b6040516101f091906123ef565b60405180910390f35b610213600480360381019061020e9190612462565b610662565b60405161022091906123ef565b60405180910390f35b610243600480360381019061023e91906123a7565b6106dc565b604051610250919061251f565b60405180910390f35b610273600480360381019061026e9190612676565b610784565b60405161028091906123ef565b60405180910390f35b6102a3600480360381019061029e91906123a7565b610919565b6040516102b091906123ef565b60405180910390f35b6102d360048036038101906102ce9190612730565b610cda565b005b6102ef60048036038101906102ea9190612793565b610da0565b6040516102fc91906127cf565b60405180910390f35b61031f600480360381019061031a91906127ea565b610dbf565b005b61033b60048036038101906103369190612833565b610e45565b005b61035760048036038101906103529190612833565b610e66565b005b610373600480360381019061036e91906123a7565b610ee9565b60405161038091906123ef565b60405180910390f35b6103a3600480360381019061039e91906123a7565b610f16565b6040516103b091906123ef565b60405180910390f35b6103c1611036565b6040516103ce91906128d2565b60405180910390f35b6103f160048036038101906103ec91906123a7565b61105c565b6040516103fe919061251f565b60405180910390f35b610421600480360381019061041c91906127ea565b611104565b60405161042e91906128fc565b60405180910390f35b610451600480360381019061044c9190612730565b61112c565b005b61045b611184565b60405161046891906127cf565b60405180910390f35b61048b600480360381019061048691906123a7565b6111a8565b604051610498919061293a565b60405180910390f35b6104bb60048036038101906104b69190612833565b6111dc565b6040516104c891906123ef565b60405180910390f35b6104eb60048036038101906104e69190612955565b611246565b005b6104f561171b565b6040516105029190612a6b565b60405180910390f35b610525600480360381019061052091906123a7565b61172e565b60405161053291906128fc565b60405180910390f35b61054361174e565b60405161055091906127cf565b60405180910390f35b610573600480360381019061056e9190612ab2565b611755565b60405161058091906128fc565b60405180910390f35b6105a3600480360381019061059e9190612adf565b61179f565b6040516105b091906123ef565b60405180910390f35b6105d360048036038101906105ce9190612833565b6118dc565b005b6105ef60048036038101906105ea91906123a7565b6118fd565b6040516105fc91906123ef565b60405180910390f35b61061f600480360381019061061a91906123a7565b611c5a565b60405161062c91906123ef565b60405180910390f35b60006002600083815260200190815260200160002060050160019054906101000a900460ff169050919050565b60007f7965db0b000000000000000000000000000000000000000000000000000000007bffffffffffffffffffffffffffffffffffffffffffffffffffffffff1916827bffffffffffffffffffffffffffffffffffffffffffffffffffffffff191614806106d557506106d482611c87565b5b9050919050565b60606002600083815260200190815260200160002060060180546106ff90612b4e565b80601f016020809104026020016040519081016040528092919081815260200182805461072b90612b4e565b80156107785780601f1061074d57610100808354040283529160200191610778565b820191906000526020600020905b81548152906001019060200180831161075b57829003601f168201915b50505050509050919050565b600061078e611cf1565b73ffffffffffffffffffffffffffffffffffffffff163373ffffffffffffffffffffffffffffffffffffffff16141580156107f057506107ee7fdf8b4c520ffe197c5343c6f5aec59570151ef9a492f2c624fd45ddde6135ec42336111dc565b155b1561083b576107fd611cf1565b336040517f3274939c000000000000000000000000000000000000000000000000000000008152600401610832929190612b8e565b60405180910390fd5b600015156002600085815260200190815260200160002060050160009054906101000a900460ff161515036108735760009050610913565b816002600085815260200190815260200160002060060190816108969190612d59565b5060026000848152602001908152602001600020600601600160006002600087815260200190815260200160002060010160009054906101000a900467ffffffffffffffff1667ffffffffffffffff1667ffffffffffffffff168152602001908152602001600020600601908161090d9190612e56565b50600190505b92915050565b6000610923611cf1565b73ffffffffffffffffffffffffffffffffffffffff163373ffffffffffffffffffffffffffffffffffffffff161415801561098557506109837fdf8b4c520ffe197c5343c6f5aec59570151ef9a492f2c624fd45ddde6135ec42336111dc565b155b156109d057610992611cf1565b336040517f3274939c0000000000000000000000000000000000000000000000000000000081526004016109c7929190612b8e565b60405180910390fd5b600015156002600084815260200190815260200160002060050160009054906101000a900460ff16151503610a085760009050610cd5565b60006002600084815260200190815260200160002060010160009054906101000a900467ffffffffffffffff1690506002600084815260200190815260200160002060008082016000610a5b9190612300565b6001820160006101000a81549067ffffffffffffffff02191690556002820160009055600382016000610a8e9190612300565b60048201600090556005820160006101000a81549060ff02191690556005820160016101000a81549060ff0219169055600682016000610ace9190612300565b50506003600160008367ffffffffffffffff1667ffffffffffffffff168152602001908152602001600020600301604051610b099190612fcc565b9081526020016040518091039020600090556000600160008367ffffffffffffffff1667ffffffffffffffff16815260200190815260200160002060050160016101000a81548160ff0219169083151502179055506000600160008367ffffffffffffffff1667ffffffffffffffff16815260200190815260200160002060050160006101000a81548160ff0219169083151502179055506000600160008367ffffffffffffffff1667ffffffffffffffff168152602001908152602001600020600201819055506040518060400160405280600181526020016000815250600160008367ffffffffffffffff1667ffffffffffffffff1681526020019081526020016000206000019081610c1e9190612fee565b506040518060400160405280600181526020016000815250600160008367ffffffffffffffff1667ffffffffffffffff1681526020019081526020016000206006019081610c6c9190612fee565b507fd4a95e28367a3ce6694042b01d34e7ba0198bcdaca1ffb38eaec9898c748b0ad81600160008467ffffffffffffffff1667ffffffffffffffff168152602001908152602001600020600001604051610cc7929190613175565b60405180910390a160019150505b919050565b7fdf8b4c520ffe197c5343c6f5aec59570151ef9a492f2c624fd45ddde6135ec42610d0481611e35565b3373ffffffffffffffffffffffffffffffffffffffff168273ffffffffffffffffffffffffffffffffffffffff1603610d72576040517f08c379a0000000000000000000000000000000000000000000000000000000008152600401610d6990613228565b60405180910390fd5b610d9c7fdf8b4c520ffe197c5343c6f5aec59570151ef9a492f2c624fd45ddde6135ec4283611e49565b5050565b6000806000838152602001908152602001600020600101549050919050565b6000600382604051610dd19190613279565b90815260200160405180910390205414610e425780600382604051610df69190613279565b9081526020016040518091039020546040517f3bcbf6c4000000000000000000000000000000000000000000000000000000008152600401610e39929190613290565b60405180910390fd5b50565b610e4e82610da0565b610e5781611e35565b610e618383611e49565b505050565b610e6e611f29565b73ffffffffffffffffffffffffffffffffffffffff168173ffffffffffffffffffffffffffffffffffffffff1614610edb576040517f08c379a0000000000000000000000000000000000000000000000000000000008152600401610ed290613332565b60405180910390fd5b610ee58282611f31565b5050565b60006002600083815260200190815260200160002060050160019054906101000a900460ff169050919050565b600080600260008481526020019081526020016000206004015490506000600260008581526020019081526020016000206003018054610f5590612b4e565b80601f0160208091040260200160405190810160405280929190818152602001828054610f8190612b4e565b8015610fce5780601f10610fa357610100808354040283529160200191610fce565b820191906000526020600020905b815481529060010190602001808311610fb157829003601f168201915b50505050509050600042831090508015611029577fb2363f688f7b32557c64bff90081959f0bb6c24f09ca465424c5afc5854dc58d82868560405161101593929190613352565b60405180910390a160019350505050611031565b600093505050505b919050565b600660089054906101000a900473ffffffffffffffffffffffffffffffffffffffff1681565b606060026000838152602001908152602001600020600301805461107f90612b4e565b80601f01602080910402602001604051908101604052809291908181526020018280546110ab90612b4e565b80156110f85780601f106110cd576101008083540402835291602001916110f8565b820191906000526020600020905b8154815290600101906020018083116110db57829003601f168201915b50505050509050919050565b60006003826040516111169190613279565b9081526020016040518091039020549050919050565b7fdf8b4c520ffe197c5343c6f5aec59570151ef9a492f2c624fd45ddde6135ec4261115681611e35565b6111807fdf8b4c520ffe197c5343c6f5aec59570151ef9a492f2c624fd45ddde6135ec4283611e49565b5050565b7fdf8b4c520ffe197c5343c6f5aec59570151ef9a492f2c624fd45ddde6135ec4281565b60006002600083815260200190815260200160002060010160009054906101000a900467ffffffffffffffff169050919050565b600080600084815260200190815260200160002060000160008373ffffffffffffffffffffffffffffffffffffffff1673ffffffffffffffffffffffffffffffffffffffff16815260200190815260200160002060009054906101000a900460ff16905092915050565b61124e611cf1565b73ffffffffffffffffffffffffffffffffffffffff163373ffffffffffffffffffffffffffffffffffffffff16141580156112b057506112ae7fdf8b4c520ffe197c5343c6f5aec59570151ef9a492f2c624fd45ddde6135ec42336111dc565b155b156112fb576112bd611cf1565b336040517f3274939c0000000000000000000000000000000000000000000000000000000081526004016112f2929190612b8e565b60405180910390fd5b600060038460405161130d9190613279565b9081526020016040518091039020541461137e57826003846040516113329190613279565b9081526020016040518091039020546040517f3bcbf6c4000000000000000000000000000000000000000000000000000000008152600401611375929190613290565b60405180910390fd5b6001600660009054906101000a900467ffffffffffffffff166113a191906133bf565b600660006101000a81548167ffffffffffffffff021916908367ffffffffffffffff1602179055506000600660009054906101000a900467ffffffffffffffff16905084600160008367ffffffffffffffff1667ffffffffffffffff168152602001908152602001600020600001908161141b9190612d59565b5082600160008367ffffffffffffffff1667ffffffffffffffff1681526020019081526020016000206002018190555083600160008367ffffffffffffffff1667ffffffffffffffff16815260200190815260200160002060030190816114829190612d59565b5081600160008367ffffffffffffffff1667ffffffffffffffff1681526020019081526020016000206004018190555060018060008367ffffffffffffffff1667ffffffffffffffff16815260200190815260200160002060050160016101000a81548160ff02191690831515021790555060018060008367ffffffffffffffff1667ffffffffffffffff16815260200190815260200160002060050160006101000a81548160ff02191690831515021790555080600160008367ffffffffffffffff1667ffffffffffffffff16815260200190815260200160002060010160006101000a81548167ffffffffffffffff021916908367ffffffffffffffff160217905550600160008267ffffffffffffffff1667ffffffffffffffff16815260200190815260200160002060026000858152602001908152602001600020600082018160000190816115d59190613411565b506001820160009054906101000a900467ffffffffffffffff168160010160006101000a81548167ffffffffffffffff021916908367ffffffffffffffff16021790555060028201548160020155600382018160030190816116379190613411565b50600482015481600401556005820160009054906101000a900460ff168160050160006101000a81548160ff0219169083151502179055506005820160019054906101000a900460ff168160050160016101000a81548160ff021916908315150217905550600682018160060190816116b09190613411565b50905050826003856040516116c59190613279565b9081526020016040518091039020819055507fc276b207558b882d6e0e49fc3e221e9fd140cced79dd16fae88e0de97f4a2f0d8186848660405161170c94939291906134f9565b60405180910390a15050505050565b6006601c9054906101000a900460ff1681565b600060026000838152602001908152602001600020600401549050919050565b6000801b81565b600060026000600160008567ffffffffffffffff1667ffffffffffffffff168152602001908152602001600020600201548152602001908152602001600020600201549050919050565b60006117a9611cf1565b73ffffffffffffffffffffffffffffffffffffffff163373ffffffffffffffffffffffffffffffffffffffff161415801561180b57506118097fdf8b4c520ffe197c5343c6f5aec59570151ef9a492f2c624fd45ddde6135ec42336111dc565b155b1561185657611818611cf1565b336040517f3274939c00000000000000000000000000000000000000000000000000000000815260040161184d929190612b8e565b60405180910390fd5b60001515600160008567ffffffffffffffff1667ffffffffffffffff16815260200190815260200160002060050160009054906101000a900460ff161515036118a257600090506118d6565b81600160008567ffffffffffffffff1667ffffffffffffffff16815260200190815260200160002060020181905550600190505b92915050565b6118e582610da0565b6118ee81611e35565b6118f88383611f31565b505050565b6000611907611cf1565b73ffffffffffffffffffffffffffffffffffffffff163373ffffffffffffffffffffffffffffffffffffffff161415801561196957506119677fdf8b4c520ffe197c5343c6f5aec59570151ef9a492f2c624fd45ddde6135ec42336111dc565b155b156119b457611976611cf1565b336040517f3274939c0000000000000000000000000000000000000000000000000000000081526004016119ab929190612b8e565b60405180910390fd5b600015156002600084815260200190815260200160002060050160019054906101000a900460ff161515036119ec5760009050611c55565b60006002600084815260200190815260200160002060050160016101000a81548160ff021916908315150217905550600060026000848152602001908152602001600020600201819055506040518060400160405280600181526020016000815250600260008481526020019081526020016000206000019081611a709190612fee565b506040518060400160405280600181526020016000815250600260008481526020019081526020016000206006019081611aaa9190612fee565b5060026000838152602001908152602001600020600160006002600086815260200190815260200160002060010160009054906101000a900467ffffffffffffffff1667ffffffffffffffff1667ffffffffffffffff16815260200190815260200160002060008201816000019081611b239190613411565b506001820160009054906101000a900467ffffffffffffffff168160010160006101000a81548167ffffffffffffffff021916908367ffffffffffffffff1602179055506002820154816002015560038201816003019081611b859190613411565b50600482015481600401556005820160009054906101000a900460ff168160050160006101000a81548160ff0219169083151502179055506005820160019054906101000a900460ff168160050160016101000a81548160ff02191690831515021790555060068201816006019081611bfe9190613411565b509050507fae179513beb9b19a22a2c82f794dfd4d379cbbd2e7e95c744a1ea89ad20032f78260026000858152602001908152602001600020600301604051611c48929190613545565b60405180910390a1600190505b919050565b60006002600083815260200190815260200160002060050160019054906101000a900460ff169050919050565b60007f01ffc9a7000000000000000000000000000000000000000000000000000000007bffffffffffffffffffffffffffffffffffffffffffffffffffffffff1916827bffffffffffffffffffffffffffffffffffffffffffffffffffffffff1916149050919050565b6000600660089054906101000a900473ffffffffffffffffffffffffffffffffffffffff1673ffffffffffffffffffffffffffffffffffffffff16638e8dfd16600660089054906101000a900473ffffffffffffffffffffffffffffffffffffffff1673ffffffffffffffffffffffffffffffffffffffff16634216e73a6040518163ffffffff1660e01b8152600401602060405180830381865afa158015611d9e573d6000803e3d6000fd5b505050506040513d601f19601f82011682018060405250810190611dc2919061358a565b6006601c9054906101000a900460ff166040518363ffffffff1660e01b8152600401611def9291906135b7565b602060405180830381865afa158015611e0c573d6000803e3d6000fd5b505050506040513d601f19601f82011682018060405250810190611e3091906135f5565b905090565b611e4681611e41611f29565b612012565b50565b611e5382826111dc565b611f2557600160008084815260200190815260200160002060000160008373ffffffffffffffffffffffffffffffffffffffff1673ffffffffffffffffffffffffffffffffffffffff16815260200190815260200160002060006101000a81548160ff021916908315150217905550611eca611f29565b73ffffffffffffffffffffffffffffffffffffffff168173ffffffffffffffffffffffffffffffffffffffff16837f2f8788117e7eff1d82e926ec794901d17c78024a50270940304540a733656f0d60405160405180910390a45b5050565b600033905090565b611f3b82826111dc565b1561200e57600080600084815260200190815260200160002060000160008373ffffffffffffffffffffffffffffffffffffffff1673ffffffffffffffffffffffffffffffffffffffff16815260200190815260200160002060006101000a81548160ff021916908315150217905550611fb3611f29565b73ffffffffffffffffffffffffffffffffffffffff168173ffffffffffffffffffffffffffffffffffffffff16837ff6391f5c32d9c69d2a47ea670b442974b53935d1edc7fd64eb21e047a839171b60405160405180910390a45b5050565b61201c82826111dc565b6120935761202981612097565b6120378360001c60206120c4565b6040516020016120489291906136f6565b6040516020818303038152906040526040517f08c379a000000000000000000000000000000000000000000000000000000000815260040161208a9190613769565b60405180910390fd5b5050565b60606120bd8273ffffffffffffffffffffffffffffffffffffffff16601460ff166120c4565b9050919050565b6060600060028360026120d7919061378b565b6120e191906137cd565b67ffffffffffffffff8111156120fa576120f961254b565b5b6040519080825280601f01601f19166020018201604052801561212c5781602001600182028036833780820191505090505b5090507f30000000000000000000000000000000000000000000000000000000000000008160008151811061216457612163613801565b5b60200101907effffffffffffffffffffffffffffffffffffffffffffffffffffffffffffff1916908160001a9053507f7800000000000000000000000000000000000000000000000000000000000000816001815181106121c8576121c7613801565b5b60200101907effffffffffffffffffffffffffffffffffffffffffffffffffffffffffffff1916908160001a90535060006001846002612208919061378b565b61221291906137cd565b90505b60018111156122b2577f3031323334353637383961626364656600000000000000000000000000000000600f86166010811061225457612253613801565b5b1a60f81b82828151811061226b5761226a613801565b5b60200101907effffffffffffffffffffffffffffffffffffffffffffffffffffffffffffff1916908160001a905350600485901c9450806122ab90613830565b9050612215565b50600084146122f6576040517f08c379a00000000000000000000000000000000000000000000000000000000081526004016122ed906138a5565b60405180910390fd5b8091505092915050565b50805461230c90612b4e565b6000825580601f1061231e575061233d565b601f01602090049060005260206000209081019061233c9190612340565b5b50565b5b80821115612359576000816000905550600101612341565b5090565b6000604051905090565b600080fd5b600080fd5b6000819050919050565b61238481612371565b811461238f57600080fd5b50565b6000813590506123a18161237b565b92915050565b6000602082840312156123bd576123bc612367565b5b60006123cb84828501612392565b91505092915050565b60008115159050919050565b6123e9816123d4565b82525050565b600060208201905061240460008301846123e0565b92915050565b60007fffffffff0000000000000000000000000000000000000000000000000000000082169050919050565b61243f8161240a565b811461244a57600080fd5b50565b60008135905061245c81612436565b92915050565b60006020828403121561247857612477612367565b5b60006124868482850161244d565b91505092915050565b600081519050919050565b600082825260208201905092915050565b60005b838110156124c95780820151818401526020810190506124ae565b60008484015250505050565b6000601f19601f8301169050919050565b60006124f18261248f565b6124fb818561249a565b935061250b8185602086016124ab565b612514816124d5565b840191505092915050565b6000602082019050818103600083015261253981846124e6565b905092915050565b600080fd5b600080fd5b7f4e487b7100000000000000000000000000000000000000000000000000000000600052604160045260246000fd5b612583826124d5565b810181811067ffffffffffffffff821117156125a2576125a161254b565b5b80604052505050565b60006125b561235d565b90506125c1828261257a565b919050565b600067ffffffffffffffff8211156125e1576125e061254b565b5b6125ea826124d5565b9050602081019050919050565b82818337600083830152505050565b6000612619612614846125c6565b6125ab565b90508281526020810184848401111561263557612634612546565b5b6126408482856125f7565b509392505050565b600082601f83011261265d5761265c612541565b5b813561266d848260208601612606565b91505092915050565b6000806040838503121561268d5761268c612367565b5b600061269b85828601612392565b925050602083013567ffffffffffffffff8111156126bc576126bb61236c565b5b6126c885828601612648565b9150509250929050565b600073ffffffffffffffffffffffffffffffffffffffff82169050919050565b60006126fd826126d2565b9050919050565b61270d816126f2565b811461271857600080fd5b50565b60008135905061272a81612704565b92915050565b60006020828403121561274657612745612367565b5b60006127548482850161271b565b91505092915050565b6000819050919050565b6127708161275d565b811461277b57600080fd5b50565b60008135905061278d81612767565b92915050565b6000602082840312156127a9576127a8612367565b5b60006127b78482850161277e565b91505092915050565b6127c98161275d565b82525050565b60006020820190506127e460008301846127c0565b92915050565b600060208284031215612800576127ff612367565b5b600082013567ffffffffffffffff81111561281e5761281d61236c565b5b61282a84828501612648565b91505092915050565b6000806040838503121561284a57612849612367565b5b60006128588582860161277e565b92505060206128698582860161271b565b9150509250929050565b6000819050919050565b600061289861289361288e846126d2565b612873565b6126d2565b9050919050565b60006128aa8261287d565b9050919050565b60006128bc8261289f565b9050919050565b6128cc816128b1565b82525050565b60006020820190506128e760008301846128c3565b92915050565b6128f681612371565b82525050565b600060208201905061291160008301846128ed565b92915050565b600067ffffffffffffffff82169050919050565b61293481612917565b82525050565b600060208201905061294f600083018461292b565b92915050565b6000806000806080858703121561296f5761296e612367565b5b600085013567ffffffffffffffff81111561298d5761298c61236c565b5b61299987828801612648565b945050602085013567ffffffffffffffff8111156129ba576129b961236c565b5b6129c687828801612648565b93505060406129d787828801612392565b92505060606129e887828801612392565b91505092959194509250565b7f4e487b7100000000000000000000000000000000000000000000000000000000600052602160045260246000fd5b60038110612a3457612a336129f4565b5b50565b6000819050612a4582612a23565b919050565b6000612a5582612a37565b9050919050565b612a6581612a4a565b82525050565b6000602082019050612a806000830184612a5c565b92915050565b612a8f81612917565b8114612a9a57600080fd5b50565b600081359050612aac81612a86565b92915050565b600060208284031215612ac857612ac7612367565b5b6000612ad684828501612a9d565b91505092915050565b60008060408385031215612af657612af5612367565b5b6000612b0485828601612a9d565b9250506020612b1585828601612392565b9150509250929050565b7f4e487b7100000000000000000000000000000000000000000000000000000000600052602260045260246000fd5b60006002820490506001821680612b6657607f821691505b602082108103612b7957612b78612b1f565b5b50919050565b612b88816126f2565b82525050565b6000604082019050612ba36000830185612b7f565b612bb06020830184612b7f565b9392505050565b60008190508160005260206000209050919050565b60006020601f8301049050919050565b600082821b905092915050565b600060088302612c197fffffffffffffffffffffffffffffffffffffffffffffffffffffffffffffffff82612bdc565b612c238683612bdc565b95508019841693508086168417925050509392505050565b6000612c56612c51612c4c84612371565b612873565b612371565b9050919050565b6000819050919050565b612c7083612c3b565b612c84612c7c82612c5d565b848454612be9565b825550505050565b600090565b612c99612c8c565b612ca4818484612c67565b505050565b5b81811015612cc857612cbd600082612c91565b600181019050612caa565b5050565b601f821115612d0d57612cde81612bb7565b612ce784612bcc565b81016020851015612cf6578190505b612d0a612d0285612bcc565b830182612ca9565b50505b505050565b600082821c905092915050565b6000612d3060001984600802612d12565b1980831691505092915050565b6000612d498383612d1f565b9150826002028217905092915050565b612d628261248f565b67ffffffffffffffff811115612d7b57612d7a61254b565b5b612d858254612b4e565b612d90828285612ccc565b600060209050601f831160018114612dc35760008415612db1578287015190505b612dbb8582612d3d565b865550612e23565b601f198416612dd186612bb7565b60005b82811015612df957848901518255600182019150602085019450602081019050612dd4565b86831015612e165784890151612e12601f891682612d1f565b8355505b6001600288020188555050505b505050505050565b600081549050612e3a81612b4e565b9050919050565b60008190508160005260206000209050919050565b818103612e64575050612f3c565b612e6d82612e2b565b67ffffffffffffffff811115612e8657612e8561254b565b5b612e908254612b4e565b612e9b828285612ccc565b6000601f831160018114612eca5760008415612eb8578287015490505b612ec28582612d3d565b865550612f35565b601f198416612ed887612e41565b9650612ee386612bb7565b60005b82811015612f0b57848901548255600182019150600185019450602081019050612ee6565b86831015612f285784890154612f24601f891682612d1f565b8355505b6001600288020188555050505b5050505050505b565b600081905092915050565b60008154612f5681612b4e565b612f608186612f3e565b94506001821660008114612f7b5760018114612f9057612fc3565b60ff1983168652811515820286019350612fc3565b612f9985612bb7565b60005b83811015612fbb57815481890152600182019150602081019050612f9c565b838801955050505b50505092915050565b6000612fd88284612f49565b915081905092915050565b600081519050919050565b612ff782612fe3565b67ffffffffffffffff8111156130105761300f61254b565b5b61301a8254612b4e565b613025828285612ccc565b600060209050601f8311600181146130585760008415613046578287015190505b6130508582612d3d565b8655506130b8565b601f19841661306686612bb7565b60005b8281101561308e57848901518255600182019150602085019450602081019050613069565b868310156130ab57848901516130a7601f891682612d1f565b8355505b6001600288020188555050505b505050505050565b60006130db6130d66130d184612917565b612873565b612371565b9050919050565b6130eb816130c0565b82525050565b600081546130fe81612b4e565b613108818661249a565b9450600182166000811461312357600181146131395761316c565b60ff19831686528115156020028601935061316c565b61314285612bb7565b60005b8381101561316457815481890152600182019150602081019050613145565b808801955050505b50505092915050565b600060408201905061318a60008301856130e2565b818103602083015261319c81846130f1565b90509392505050565b600082825260208201905092915050565b7f43616e6e6f742072656d6f76652073656c662061732061646d696e2e2020486160008201527f766520746865206e65772061646d696e20646f2069742e000000000000000000602082015250565b60006132126037836131a5565b915061321d826131b6565b604082019050919050565b6000602082019050818103600083015261324181613205565b9050919050565b60006132538261248f565b61325d8185612f3e565b935061326d8185602086016124ab565b80840191505092915050565b60006132858284613248565b915081905092915050565b600060408201905081810360008301526132aa81856124e6565b90506132b960208301846128ed565b9392505050565b7f416363657373436f6e74726f6c3a2063616e206f6e6c792072656e6f756e636560008201527f20726f6c657320666f722073656c660000000000000000000000000000000000602082015250565b600061331c602f836131a5565b9150613327826132c0565b604082019050919050565b6000602082019050818103600083015261334b8161330f565b9050919050565b6000606082019050818103600083015261336c81866124e6565b905061337b60208301856128ed565b61338860408301846128ed565b949350505050565b7f4e487b7100000000000000000000000000000000000000000000000000000000600052601160045260246000fd5b60006133ca82612917565b91506133d583612917565b9250828201905067ffffffffffffffff8111156133f5576133f4613390565b5b92915050565b60008154905061340a81612b4e565b9050919050565b81810361341f5750506134f7565b613428826133fb565b67ffffffffffffffff8111156134415761344061254b565b5b61344b8254612b4e565b613456828285612ccc565b6000601f8311600181146134855760008415613473578287015490505b61347d8582612d3d565b8655506134f0565b601f19841661349387612bb7565b965061349e86612bb7565b60005b828110156134c6578489015482556001820191506001850194506020810190506134a1565b868310156134e357848901546134df601f891682612d1f565b8355505b6001600288020188555050505b5050505050505b565b600060808201905061350e600083018761292b565b818103602083015261352081866124e6565b905061352f60408301856128ed565b61353c60608301846128ed565b95945050505050565b600060408201905061355a60008301856128ed565b818103602083015261356c81846130f1565b90509392505050565b60008151905061358481612767565b92915050565b6000602082840312156135a05761359f612367565b5b60006135ae84828501613575565b91505092915050565b60006040820190506135cc60008301856127c0565b6135d96020830184612a5c565b9392505050565b6000815190506135ef81612704565b92915050565b60006020828403121561360b5761360a612367565b5b6000613619848285016135e0565b91505092915050565b600081905092915050565b7f416363657373436f6e74726f6c3a206163636f756e7420000000000000000000600082015250565b6000613663601783613622565b915061366e8261362d565b601782019050919050565b600061368482612fe3565b61368e8185613622565b935061369e8185602086016124ab565b80840191505092915050565b7f206973206d697373696e6720726f6c6520000000000000000000000000000000600082015250565b60006136e0601183613622565b91506136eb826136aa565b601182019050919050565b600061370182613656565b915061370d8285613679565b9150613718826136d3565b91506137248284613679565b91508190509392505050565b600061373b82612fe3565b61374581856131a5565b93506137558185602086016124ab565b61375e816124d5565b840191505092915050565b600060208201905081810360008301526137838184613730565b905092915050565b600061379682612371565b91506137a183612371565b92508282026137af81612371565b915082820484148315176137c6576137c5613390565b5b5092915050565b60006137d882612371565b91506137e383612371565b92508282019050808211156137fb576137fa613390565b5b92915050565b7f4e487b7100000000000000000000000000000000000000000000000000000000600052603260045260246000fd5b600061383b82612371565b91506000820361384e5761384d613390565b5b600182039050919050565b7f537472696e67733a20686578206c656e67746820696e73756666696369656e74600082015250565b600061388f6020836131a5565b915061389a82613859565b602082019050919050565b600060208201905081810360008301526138be81613882565b905091905056fea26469706673582212203370ee082d8d9e68c30a8d895f2a4974556aedd9b401a9576f4c26d132a7c96864736f6c63430008110033",
  "linkReferences": {},
  "deployedLinkReferences": {}
}