{
  "_format": "hh-sol-artifact-1",
  "contractName": "DomainWalletRegistry",
  "sourceName": "contracts/domain-wallets/DomainWalletRegistry.sol",
  "abi": [
    {
      "inputs": [
        {
          "internalType": "address",
          "name": "_resolver",
          "type": "address"
        },
        {
          "internalType": "enum ContractResolver.Env",
          "name": "_env",
          "type": "uint8"
        }
      ],
      "stateMutability": "nonpayable",
      "type": "constructor"
    },
    {
      "inputs": [
        {
          "internalType": "uint256",
          "name": "metadataCount",
          "type": "uint256"
        },
        {
          "internalType": "uint256",
          "name": "validMetadataCount",
          "type": "uint256"
        }
      ],
      "name": "InvalidNftMetadataCollectionLength",
      "type": "error"
    },
    {
      "inputs": [
        {
          "internalType": "address",
          "name": "adminAddress",
          "type": "address"
        },
        {
          "internalType": "address",
          "name": "account",
          "type": "address"
        }
      ],
      "name": "NonAdminCaller",
      "type": "error"
    },
    {
      "anonymous": false,
      "inputs": [
        {
          "indexed": true,
          "internalType": "bytes32",
          "name": "role",
          "type": "bytes32"
        },
        {
          "indexed": true,
          "internalType": "bytes32",
          "name": "previousAdminRole",
          "type": "bytes32"
        },
        {
          "indexed": true,
          "internalType": "bytes32",
          "name": "newAdminRole",
          "type": "bytes32"
        }
      ],
      "name": "RoleAdminChanged",
      "type": "event"
    },
    {
      "anonymous": false,
      "inputs": [
        {
          "indexed": true,
          "internalType": "bytes32",
          "name": "role",
          "type": "bytes32"
        },
        {
          "indexed": true,
          "internalType": "address",
          "name": "account",
          "type": "address"
        },
        {
          "indexed": true,
          "internalType": "address",
          "name": "sender",
          "type": "address"
        }
      ],
      "name": "RoleGranted",
      "type": "event"
    },
    {
      "anonymous": false,
      "inputs": [
        {
          "indexed": true,
          "internalType": "bytes32",
          "name": "role",
          "type": "bytes32"
        },
        {
          "indexed": true,
          "internalType": "address",
          "name": "account",
          "type": "address"
        },
        {
          "indexed": true,
          "internalType": "address",
          "name": "sender",
          "type": "address"
        }
      ],
      "name": "RoleRevoked",
      "type": "event"
    },
    {
      "inputs": [],
      "name": "ADMIN_ROLE",
      "outputs": [
        {
          "internalType": "bytes32",
          "name": "",
          "type": "bytes32"
        }
      ],
      "stateMutability": "view",
      "type": "function"
    },
    {
      "inputs": [],
      "name": "DEFAULT_ADMIN_ROLE",
      "outputs": [
        {
          "internalType": "bytes32",
          "name": "",
          "type": "bytes32"
        }
      ],
      "stateMutability": "view",
      "type": "function"
    },
    {
      "inputs": [
        {
          "internalType": "address",
          "name": "newAdmin",
          "type": "address"
        }
      ],
      "name": "addAdmin",
      "outputs": [],
      "stateMutability": "nonpayable",
      "type": "function"
    },
    {
      "inputs": [],
      "name": "contractResolver",
      "outputs": [
        {
          "internalType": "contract ContractResolver",
          "name": "",
          "type": "address"
        }
      ],
      "stateMutability": "view",
      "type": "function"
    },
    {
      "inputs": [],
      "name": "env",
      "outputs": [
        {
          "internalType": "enum ContractResolver.Env",
          "name": "",
          "type": "uint8"
        }
      ],
      "stateMutability": "view",
      "type": "function"
    },
    {
      "inputs": [
        {
          "internalType": "uint256",
          "name": "pkpTokenId",
          "type": "uint256"
        }
      ],
      "name": "getDomainIdByTokenId",
      "outputs": [
        {
          "internalType": "uint64",
          "name": "",
          "type": "uint64"
        }
      ],
      "stateMutability": "view",
      "type": "function"
    },
    {
      "inputs": [
        {
          "internalType": "bytes",
          "name": "uri",
          "type": "bytes"
        }
      ],
      "name": "getDomainTokenIdByUri",
      "outputs": [
        {
          "internalType": "uint256",
          "name": "",
          "type": "uint256"
        }
      ],
      "stateMutability": "view",
      "type": "function"
    },
    {
      "inputs": [
        {
          "internalType": "uint256",
          "name": "pkpTokenId",
          "type": "uint256"
        }
      ],
      "name": "getDomainUri",
      "outputs": [
        {
          "internalType": "bytes",
          "name": "",
          "type": "bytes"
        }
      ],
      "stateMutability": "view",
      "type": "function"
    },
    {
      "inputs": [
        {
          "internalType": "uint256",
          "name": "pkpTokenId",
          "type": "uint256"
        }
      ],
      "name": "getExpiration",
      "outputs": [
        {
          "internalType": "uint256",
          "name": "",
          "type": "uint256"
        }
      ],
      "stateMutability": "view",
      "type": "function"
    },
    {
      "inputs": [
        {
          "internalType": "uint64",
          "name": "id",
          "type": "uint64"
        }
      ],
      "name": "getPkpTokenId",
      "outputs": [
        {
          "internalType": "uint256",
          "name": "",
          "type": "uint256"
        }
      ],
      "stateMutability": "view",
      "type": "function"
    },
    {
      "inputs": [
        {
          "internalType": "bytes32",
          "name": "role",
          "type": "bytes32"
        }
      ],
      "name": "getRoleAdmin",
      "outputs": [
        {
          "internalType": "bytes32",
          "name": "",
          "type": "bytes32"
        }
      ],
      "stateMutability": "view",
      "type": "function"
    },
    {
      "inputs": [
        {
          "internalType": "bytes32",
          "name": "role",
          "type": "bytes32"
        },
        {
          "internalType": "address",
          "name": "account",
          "type": "address"
        }
      ],
      "name": "grantRole",
      "outputs": [],
      "stateMutability": "nonpayable",
      "type": "function"
    },
    {
      "inputs": [
        {
          "internalType": "uint256",
          "name": "pkpTokenId",
          "type": "uint256"
        }
      ],
      "name": "hasExpired",
      "outputs": [
        {
          "internalType": "bool",
          "name": "",
          "type": "bool"
        }
      ],
      "stateMutability": "nonpayable",
      "type": "function"
    },
    {
      "inputs": [
        {
          "internalType": "uint256",
          "name": "pkpTokenId",
          "type": "uint256"
        }
      ],
      "name": "hasOwner",
      "outputs": [
        {
          "internalType": "bool",
          "name": "",
          "type": "bool"
        }
      ],
      "stateMutability": "view",
      "type": "function"
    },
    {
      "inputs": [
        {
          "internalType": "bytes32",
          "name": "role",
          "type": "bytes32"
        },
        {
          "internalType": "address",
          "name": "account",
          "type": "address"
        }
      ],
      "name": "hasRole",
      "outputs": [
        {
          "internalType": "bool",
          "name": "",
          "type": "bool"
        }
      ],
      "stateMutability": "view",
      "type": "function"
    },
    {
      "inputs": [
        {
          "internalType": "uint256",
          "name": "pkpTokenId",
          "type": "uint256"
        }
      ],
      "name": "isOwner",
      "outputs": [
        {
          "internalType": "bool",
          "name": "",
          "type": "bool"
        }
      ],
      "stateMutability": "view",
      "type": "function"
    },
    {
      "inputs": [
        {
          "internalType": "uint256",
          "name": "pkpTokenId",
          "type": "uint256"
        }
      ],
      "name": "isRouted",
      "outputs": [
        {
          "internalType": "bool",
          "name": "",
          "type": "bool"
        }
      ],
      "stateMutability": "view",
      "type": "function"
    },
    {
      "inputs": [
        {
          "internalType": "bytes",
          "name": "userId",
          "type": "bytes"
        },
        {
          "internalType": "bytes",
          "name": "uri",
          "type": "bytes"
        },
        {
          "internalType": "uint256",
          "name": "ttl",
          "type": "uint256"
        },
        {
          "internalType": "uint256",
          "name": "pkpTokenId",
          "type": "uint256"
        },
        {
          "internalType": "string[]",
          "name": "nftMetadata",
          "type": "string[]"
        }
      ],
      "name": "registerDomain",
      "outputs": [
        {
          "internalType": "uint256",
          "name": "",
          "type": "uint256"
        }
      ],
      "stateMutability": "nonpayable",
      "type": "function"
    },
    {
      "inputs": [
        {
          "internalType": "bytes",
          "name": "userId",
          "type": "bytes"
        },
        {
          "internalType": "bytes",
          "name": "uri",
          "type": "bytes"
        },
        {
          "internalType": "uint256",
          "name": "ttl",
          "type": "uint256"
        },
        {
          "internalType": "uint256[]",
          "name": "permittedAuthMethodTypes",
          "type": "uint256[]"
        },
        {
          "internalType": "bytes[]",
          "name": "permittedAuthMethodIds",
          "type": "bytes[]"
        },
        {
          "internalType": "bytes[]",
          "name": "permittedAuthMethodPubkeys",
          "type": "bytes[]"
        },
        {
          "internalType": "uint256[][]",
          "name": "permittedAuthMethodScopes",
          "type": "uint256[][]"
        },
        {
          "internalType": "string[]",
          "name": "nftMetadata",
          "type": "string[]"
        }
      ],
      "name": "registerDomainAndMintNext",
      "outputs": [
        {
          "internalType": "uint256",
          "name": "",
          "type": "uint256"
        }
      ],
      "stateMutability": "payable",
      "type": "function"
    },
    {
      "inputs": [
        {
          "internalType": "uint64",
          "name": "id",
          "type": "uint64"
        },
        {
          "internalType": "uint256",
          "name": "pkpTokenId",
          "type": "uint256"
        }
      ],
      "name": "registerPKP",
      "outputs": [
        {
          "internalType": "bool",
          "name": "",
          "type": "bool"
        }
      ],
      "stateMutability": "nonpayable",
      "type": "function"
    },
    {
      "inputs": [
        {
          "internalType": "address",
          "name": "adminBeingRemoved",
          "type": "address"
        }
      ],
      "name": "removeAdmin",
      "outputs": [],
      "stateMutability": "nonpayable",
      "type": "function"
    },
    {
      "inputs": [
        {
          "internalType": "uint256",
          "name": "pkpTokenId",
          "type": "uint256"
        }
      ],
      "name": "removeDomain",
      "outputs": [
        {
          "internalType": "bool",
          "name": "",
          "type": "bool"
        }
      ],
      "stateMutability": "nonpayable",
      "type": "function"
    },
    {
      "inputs": [
        {
          "internalType": "bytes32",
          "name": "role",
          "type": "bytes32"
        },
        {
          "internalType": "address",
          "name": "account",
          "type": "address"
        }
      ],
      "name": "renounceRole",
      "outputs": [],
      "stateMutability": "nonpayable",
      "type": "function"
    },
    {
      "inputs": [
        {
          "internalType": "uint256",
          "name": "pkpTokenId",
          "type": "uint256"
        }
      ],
      "name": "revokeDomain",
      "outputs": [
        {
          "internalType": "bool",
          "name": "",
          "type": "bool"
        }
      ],
      "stateMutability": "nonpayable",
      "type": "function"
    },
    {
      "inputs": [
        {
          "internalType": "bytes32",
          "name": "role",
          "type": "bytes32"
        },
        {
          "internalType": "address",
          "name": "account",
          "type": "address"
        }
      ],
      "name": "revokeRole",
      "outputs": [],
      "stateMutability": "nonpayable",
      "type": "function"
    },
    {
      "inputs": [
        {
          "internalType": "uint256",
          "name": "pkpTokenId",
          "type": "uint256"
        },
        {
          "internalType": "string[]",
          "name": "nftMetadata",
          "type": "string[]"
        }
      ],
      "name": "setPKPMetadata",
      "outputs": [],
      "stateMutability": "nonpayable",
      "type": "function"
    },
    {
      "inputs": [
        {
          "internalType": "bytes4",
          "name": "interfaceId",
          "type": "bytes4"
        }
      ],
      "name": "supportsInterface",
      "outputs": [
        {
          "internalType": "bool",
          "name": "",
          "type": "bool"
        }
      ],
      "stateMutability": "view",
      "type": "function"
    }
  ],
  "bytecode": "0x60806040523480156200001157600080fd5b50604051620040fb380380620040fb8339818101604052810190620000379190620003eb565b33600260006101000a81548173ffffffffffffffffffffffffffffffffffffffff021916908373ffffffffffffffffffffffffffffffffffffffff16021790555081600160006101000a81548173ffffffffffffffffffffffffffffffffffffffff021916908373ffffffffffffffffffffffffffffffffffffffff16021790555080600160146101000a81548160ff02191690836002811115620000e157620000e062000432565b5b02179055506200013a7fdf8b4c520ffe197c5343c6f5aec59570151ef9a492f2c624fd45ddde6135ec42600260009054906101000a900473ffffffffffffffffffffffffffffffffffffffff166200017460201b60201c565b6200016c7fdf8b4c520ffe197c5343c6f5aec59570151ef9a492f2c624fd45ddde6135ec42806200026560201b60201c565b505062000461565b620001868282620002c860201b60201c565b6200026157600160008084815260200190815260200160002060000160008373ffffffffffffffffffffffffffffffffffffffff1673ffffffffffffffffffffffffffffffffffffffff16815260200190815260200160002060006101000a81548160ff021916908315150217905550620002066200033260201b60201c565b73ffffffffffffffffffffffffffffffffffffffff168173ffffffffffffffffffffffffffffffffffffffff16837f2f8788117e7eff1d82e926ec794901d17c78024a50270940304540a733656f0d60405160405180910390a45b5050565b600062000278836200033a60201b60201c565b905081600080858152602001908152602001600020600101819055508181847fbd79b86ffe0ab8e8776151514217cd7cacd52c909f66475c3af44e129f0b00ff60405160405180910390a4505050565b600080600084815260200190815260200160002060000160008373ffffffffffffffffffffffffffffffffffffffff1673ffffffffffffffffffffffffffffffffffffffff16815260200190815260200160002060009054906101000a900460ff16905092915050565b600033905090565b6000806000838152602001908152602001600020600101549050919050565b600080fd5b600073ffffffffffffffffffffffffffffffffffffffff82169050919050565b60006200038b826200035e565b9050919050565b6200039d816200037e565b8114620003a957600080fd5b50565b600081519050620003bd8162000392565b92915050565b60038110620003d157600080fd5b50565b600081519050620003e581620003c3565b92915050565b6000806040838503121562000405576200040462000359565b5b60006200041585828601620003ac565b92505060206200042885828601620003d4565b9150509250929050565b7f4e487b7100000000000000000000000000000000000000000000000000000000600052602160045260246000fd5b613c8a80620004716000396000f3fe60806040526004361061019c5760003560e01c80636f50cd97116100ec578063a217fddf1161008a578063c9b2874911610064578063c9b2874914610663578063d547741f146106a0578063d964a375146106c9578063f48d60ca146107065761019c565b8063a217fddf146105d2578063a2f42104146105fd578063b6e7f4d21461063a5761019c565b8063880bc4e6116100c6578063880bc4e6146104f057806391d148541461052d5780639dca00321461056a578063a05b775f146105955761019c565b80636f50cd971461045f578063704802751461049c57806375b238fc146104c55761019c565b806336568abe1161015957806350d17b5e1161013357806350d17b5e1461038a5780635530adf8146103b55780635b045724146103e55780636a3000c4146104225761019c565b806336568abe146102e757806339c7639c1461031057806349fcbc541461034d5761019c565b806301c6d035146101a157806301ffc9a7146101de57806315d464741461021b5780631785f53c14610258578063248a9ca3146102815780632f2ff15d146102be575b600080fd5b3480156101ad57600080fd5b506101c860048036038101906101c39190612229565b610743565b6040516101d59190612271565b60405180910390f35b3480156101ea57600080fd5b50610205600480360381019061020091906122e4565b6107d2565b6040516102129190612271565b60405180910390f35b34801561022757600080fd5b50610242600480360381019061023d9190612229565b61084c565b60405161024f9190612271565b60405180910390f35b34801561026457600080fd5b5061027f600480360381019061027a919061236f565b6109e5565b005b34801561028d57600080fd5b506102a860048036038101906102a391906123d2565b610aab565b6040516102b5919061240e565b60405180910390f35b3480156102ca57600080fd5b506102e560048036038101906102e09190612429565b610aca565b005b3480156102f357600080fd5b5061030e60048036038101906103099190612429565b610aeb565b005b34801561031c57600080fd5b5061033760048036038101906103329190612229565b610b6e565b6040516103449190612271565b60405180910390f35b34801561035957600080fd5b50610374600480360381019061036f9190612229565b610bfd565b6040516103819190612271565b60405180910390f35b34801561039657600080fd5b5061039f610d1e565b6040516103ac91906124c8565b60405180910390f35b6103cf60048036038101906103ca9190612a35565b610d44565b6040516103dc9190612bbe565b60405180910390f35b3480156103f157600080fd5b5061040c60048036038101906104079190612bd9565b610fb4565b6040516104199190612bbe565b60405180910390f35b34801561042e57600080fd5b5061044960048036038101906104449190612229565b6111d7565b6040516104569190612d27565b60405180910390f35b34801561046b57600080fd5b5061048660048036038101906104819190612d49565b61126c565b6040516104939190612bbe565b60405180910390f35b3480156104a857600080fd5b506104c360048036038101906104be919061236f565b6112fb565b005b3480156104d157600080fd5b506104da611353565b6040516104e7919061240e565b60405180910390f35b3480156104fc57600080fd5b5061051760048036038101906105129190612229565b611377565b6040516105249190612db5565b60405180910390f35b34801561053957600080fd5b50610554600480360381019061054f9190612429565b611406565b6040516105619190612271565b60405180910390f35b34801561057657600080fd5b5061057f611470565b60405161058c9190612e47565b60405180910390f35b3480156105a157600080fd5b506105bc60048036038101906105b79190612229565b611483565b6040516105c99190612bbe565b60405180910390f35b3480156105de57600080fd5b506105e7611512565b6040516105f4919061240e565b60405180910390f35b34801561060957600080fd5b50610624600480360381019061061f9190612e8e565b611519565b6040516106319190612bbe565b60405180910390f35b34801561064657600080fd5b50610661600480360381019061065c9190612ebb565b6115a8565b005b34801561066f57600080fd5b5061068a60048036038101906106859190612f17565b6116b5565b6040516106979190612271565b60405180910390f35b3480156106ac57600080fd5b506106c760048036038101906106c29190612429565b6117d9565b005b3480156106d557600080fd5b506106f060048036038101906106eb9190612229565b6117fa565b6040516106fd9190612271565b60405180910390f35b34801561071257600080fd5b5061072d60048036038101906107289190612229565b611993565b60405161073a9190612271565b60405180910390f35b60008061074e611a22565b90508073ffffffffffffffffffffffffffffffffffffffff166301c6d035846040518263ffffffff1660e01b81526004016107899190612bbe565b602060405180830381865afa1580156107a6573d6000803e3d6000fd5b505050506040513d601f19601f820116820180604052508101906107ca9190612f83565b915050919050565b60007f7965db0b000000000000000000000000000000000000000000000000000000007bffffffffffffffffffffffffffffffffffffffffffffffffffffffff1916827bffffffffffffffffffffffffffffffffffffffffffffffffffffffff19161480610845575061084482611b66565b5b9050919050565b60006108787fdf8b4c520ffe197c5343c6f5aec59570151ef9a492f2c624fd45ddde6135ec4233611406565b6108dd57600260009054906101000a900473ffffffffffffffffffffffffffffffffffffffff16336040517f34a542320000000000000000000000000000000000000000000000000000000081526004016108d4929190612fbf565b60405180910390fd5b60006108e7611a22565b905060006108f3611bd0565b90508073ffffffffffffffffffffffffffffffffffffffff16632b553551856040518263ffffffff1660e01b815260040161092e9190612bbe565b600060405180830381600087803b15801561094857600080fd5b505af115801561095c573d6000803e3d6000fd5b505050508173ffffffffffffffffffffffffffffffffffffffff166315d46474856040518263ffffffff1660e01b81526004016109999190612bbe565b6020604051808303816000875af11580156109b8573d6000803e3d6000fd5b505050506040513d601f19601f820116820180604052508101906109dc9190612f83565b92505050919050565b7fdf8b4c520ffe197c5343c6f5aec59570151ef9a492f2c624fd45ddde6135ec42610a0f81611d14565b3373ffffffffffffffffffffffffffffffffffffffff168273ffffffffffffffffffffffffffffffffffffffff1603610a7d576040517f08c379a0000000000000000000000000000000000000000000000000000000008152600401610a749061306b565b60405180910390fd5b610aa77fdf8b4c520ffe197c5343c6f5aec59570151ef9a492f2c624fd45ddde6135ec4283611d28565b5050565b6000806000838152602001908152602001600020600101549050919050565b610ad382610aab565b610adc81611d14565b610ae68383611d28565b505050565b610af3611e08565b73ffffffffffffffffffffffffffffffffffffffff168173ffffffffffffffffffffffffffffffffffffffff1614610b60576040517f08c379a0000000000000000000000000000000000000000000000000000000008152600401610b57906130fd565b60405180910390fd5b610b6a8282611e10565b5050565b600080610b79611a22565b90508073ffffffffffffffffffffffffffffffffffffffff166339c7639c846040518263ffffffff1660e01b8152600401610bb49190612bbe565b602060405180830381865afa158015610bd1573d6000803e3d6000fd5b505050506040513d601f19601f82011682018060405250810190610bf59190612f83565b915050919050565b6000610c297fdf8b4c520ffe197c5343c6f5aec59570151ef9a492f2c624fd45ddde6135ec4233611406565b610c8e57600260009054906101000a900473ffffffffffffffffffffffffffffffffffffffff16336040517f34a54232000000000000000000000000000000000000000000000000000000008152600401610c85929190612fbf565b60405180910390fd5b6000610c98611a22565b90508073ffffffffffffffffffffffffffffffffffffffff166349fcbc54846040518263ffffffff1660e01b8152600401610cd39190612bbe565b6020604051808303816000875af1158015610cf2573d6000803e3d6000fd5b505050506040513d601f19601f82011682018060405250810190610d169190612f83565b915050919050565b600160009054906101000a900473ffffffffffffffffffffffffffffffffffffffff1681565b6000610d707fdf8b4c520ffe197c5343c6f5aec59570151ef9a492f2c624fd45ddde6135ec4233611406565b610dd557600260009054906101000a900473ffffffffffffffffffffffffffffffffffffffff16336040517f34a54232000000000000000000000000000000000000000000000000000000008152600401610dcc929190612fbf565b60405180910390fd5b6000610ddf611a22565b90506000610deb611bd0565b90508173ffffffffffffffffffffffffffffffffffffffff166327bd069e8b6040518263ffffffff1660e01b8152600401610e269190612d27565b60006040518083038186803b158015610e3e57600080fd5b505afa158015610e52573d6000803e3d6000fd5b505050506002845114610ea057835160026040517f216aeb3f000000000000000000000000000000000000000000000000000000008152600401610e97929190613158565b60405180910390fd5b60008173ffffffffffffffffffffffffffffffffffffffff1663ffc833253460028c8c8c8c8c6001806040518a63ffffffff1660e01b8152600401610eec989796959493929190613593565b60206040518083038185885af1158015610f0a573d6000803e3d6000fd5b50505050506040513d601f19601f82011682018060405250810190610f2f9190613649565b90508273ffffffffffffffffffffffffffffffffffffffff16639a2056f48d8d848e6040518563ffffffff1660e01b8152600401610f709493929190613676565b600060405180830381600087803b158015610f8a57600080fd5b505af1158015610f9e573d6000803e3d6000fd5b5050505080935050505098975050505050505050565b6000610fe07fdf8b4c520ffe197c5343c6f5aec59570151ef9a492f2c624fd45ddde6135ec4233611406565b61104557600260009054906101000a900473ffffffffffffffffffffffffffffffffffffffff16336040517f34a5423200000000000000000000000000000000000000000000000000000000815260040161103c929190612fbf565b60405180910390fd5b6002825114611089576040517f08c379a000000000000000000000000000000000000000000000000000000000815260040161108090613761565b60405180910390fd5b60028251146110d357815160026040517f216aeb3f0000000000000000000000000000000000000000000000000000000081526004016110ca929190613158565b60405180910390fd5b60006110dd611a22565b905060006110e9611bd0565b90508173ffffffffffffffffffffffffffffffffffffffff16639a2056f48989888a6040518563ffffffff1660e01b815260040161112a9493929190613676565b600060405180830381600087803b15801561114457600080fd5b505af1158015611158573d6000803e3d6000fd5b505050508073ffffffffffffffffffffffffffffffffffffffff1663782e2ea586866040518363ffffffff1660e01b8152600401611197929190613781565b600060405180830381600087803b1580156111b157600080fd5b505af11580156111c5573d6000803e3d6000fd5b50505050849250505095945050505050565b606060006111e3611a22565b90508073ffffffffffffffffffffffffffffffffffffffff16636a3000c4846040518263ffffffff1660e01b815260040161121e9190612bbe565b600060405180830381865afa15801561123b573d6000803e3d6000fd5b505050506040513d6000823e3d601f19601f820116820180604052508101906112649190613821565b915050919050565b600080611277611a22565b90508073ffffffffffffffffffffffffffffffffffffffff16636f50cd97846040518263ffffffff1660e01b81526004016112b29190612d27565b602060405180830381865afa1580156112cf573d6000803e3d6000fd5b505050506040513d601f19601f820116820180604052508101906112f39190613649565b915050919050565b7fdf8b4c520ffe197c5343c6f5aec59570151ef9a492f2c624fd45ddde6135ec4261132581611d14565b61134f7fdf8b4c520ffe197c5343c6f5aec59570151ef9a492f2c624fd45ddde6135ec4283611d28565b5050565b7fdf8b4c520ffe197c5343c6f5aec59570151ef9a492f2c624fd45ddde6135ec4281565b600080611382611a22565b90508073ffffffffffffffffffffffffffffffffffffffff1663880bc4e6846040518263ffffffff1660e01b81526004016113bd9190612bbe565b602060405180830381865afa1580156113da573d6000803e3d6000fd5b505050506040513d601f19601f820116820180604052508101906113fe919061387f565b915050919050565b600080600084815260200190815260200160002060000160008373ffffffffffffffffffffffffffffffffffffffff1673ffffffffffffffffffffffffffffffffffffffff16815260200190815260200160002060009054906101000a900460ff16905092915050565b600160149054906101000a900460ff1681565b60008061148e611a22565b90508073ffffffffffffffffffffffffffffffffffffffff1663a05b775f846040518263ffffffff1660e01b81526004016114c99190612bbe565b602060405180830381865afa1580156114e6573d6000803e3d6000fd5b505050506040513d601f19601f8201168201806040525081019061150a9190613649565b915050919050565b6000801b81565b600080611524611a22565b90508073ffffffffffffffffffffffffffffffffffffffff1663a2f42104846040518263ffffffff1660e01b815260040161155f9190612db5565b602060405180830381865afa15801561157c573d6000803e3d6000fd5b505050506040513d601f19601f820116820180604052508101906115a09190613649565b915050919050565b6115d27fdf8b4c520ffe197c5343c6f5aec59570151ef9a492f2c624fd45ddde6135ec4233611406565b61163757600260009054906101000a900473ffffffffffffffffffffffffffffffffffffffff16336040517f34a5423200000000000000000000000000000000000000000000000000000000815260040161162e929190612fbf565b60405180910390fd5b6000611641611bd0565b90508073ffffffffffffffffffffffffffffffffffffffff1663782e2ea584846040518363ffffffff1660e01b815260040161167e929190613781565b600060405180830381600087803b15801561169857600080fd5b505af11580156116ac573d6000803e3d6000fd5b50505050505050565b60006116e17fdf8b4c520ffe197c5343c6f5aec59570151ef9a492f2c624fd45ddde6135ec4233611406565b61174657600260009054906101000a900473ffffffffffffffffffffffffffffffffffffffff16336040517f34a5423200000000000000000000000000000000000000000000000000000000815260040161173d929190612fbf565b60405180910390fd5b6000611750611a22565b90508073ffffffffffffffffffffffffffffffffffffffff1663c9b2874985856040518363ffffffff1660e01b815260040161178d9291906138ac565b6020604051808303816000875af11580156117ac573d6000803e3d6000fd5b505050506040513d601f19601f820116820180604052508101906117d09190612f83565b91505092915050565b6117e282610aab565b6117eb81611d14565b6117f58383611e10565b505050565b60006118267fdf8b4c520ffe197c5343c6f5aec59570151ef9a492f2c624fd45ddde6135ec4233611406565b61188b57600260009054906101000a900473ffffffffffffffffffffffffffffffffffffffff16336040517f34a54232000000000000000000000000000000000000000000000000000000008152600401611882929190612fbf565b60405180910390fd5b6000611895611a22565b905060006118a1611bd0565b90508073ffffffffffffffffffffffffffffffffffffffff16632b553551856040518263ffffffff1660e01b81526004016118dc9190612bbe565b600060405180830381600087803b1580156118f657600080fd5b505af115801561190a573d6000803e3d6000fd5b505050508173ffffffffffffffffffffffffffffffffffffffff1663d964a375856040518263ffffffff1660e01b81526004016119479190612bbe565b6020604051808303816000875af1158015611966573d6000803e3d6000fd5b505050506040513d601f19601f8201168201806040525081019061198a9190612f83565b92505050919050565b60008061199e611a22565b90508073ffffffffffffffffffffffffffffffffffffffff1663f48d60ca846040518263ffffffff1660e01b81526004016119d99190612bbe565b602060405180830381865afa1580156119f6573d6000803e3d6000fd5b505050506040513d601f19601f82011682018060405250810190611a1a9190612f83565b915050919050565b6000600160009054906101000a900473ffffffffffffffffffffffffffffffffffffffff1673ffffffffffffffffffffffffffffffffffffffff16638e8dfd16600160009054906101000a900473ffffffffffffffffffffffffffffffffffffffff1673ffffffffffffffffffffffffffffffffffffffff166372823fa76040518163ffffffff1660e01b8152600401602060405180830381865afa158015611acf573d6000803e3d6000fd5b505050506040513d601f19601f82011682018060405250810190611af391906138ea565b600160149054906101000a900460ff166040518363ffffffff1660e01b8152600401611b20929190613917565b602060405180830381865afa158015611b3d573d6000803e3d6000fd5b505050506040513d601f19601f82011682018060405250810190611b619190613955565b905090565b60007f01ffc9a7000000000000000000000000000000000000000000000000000000007bffffffffffffffffffffffffffffffffffffffffffffffffffffffff1916827bffffffffffffffffffffffffffffffffffffffffffffffffffffffff1916149050919050565b6000600160009054906101000a900473ffffffffffffffffffffffffffffffffffffffff1673ffffffffffffffffffffffffffffffffffffffff16638e8dfd16600160009054906101000a900473ffffffffffffffffffffffffffffffffffffffff1673ffffffffffffffffffffffffffffffffffffffff1663977a80706040518163ffffffff1660e01b8152600401602060405180830381865afa158015611c7d573d6000803e3d6000fd5b505050506040513d601f19601f82011682018060405250810190611ca191906138ea565b600160149054906101000a900460ff166040518363ffffffff1660e01b8152600401611cce929190613917565b602060405180830381865afa158015611ceb573d6000803e3d6000fd5b505050506040513d601f19601f82011682018060405250810190611d0f9190613955565b905090565b611d2581611d20611e08565b611ef1565b50565b611d328282611406565b611e0457600160008084815260200190815260200160002060000160008373ffffffffffffffffffffffffffffffffffffffff1673ffffffffffffffffffffffffffffffffffffffff16815260200190815260200160002060006101000a81548160ff021916908315150217905550611da9611e08565b73ffffffffffffffffffffffffffffffffffffffff168173ffffffffffffffffffffffffffffffffffffffff16837f2f8788117e7eff1d82e926ec794901d17c78024a50270940304540a733656f0d60405160405180910390a45b5050565b600033905090565b611e1a8282611406565b15611eed57600080600084815260200190815260200160002060000160008373ffffffffffffffffffffffffffffffffffffffff1673ffffffffffffffffffffffffffffffffffffffff16815260200190815260200160002060006101000a81548160ff021916908315150217905550611e92611e08565b73ffffffffffffffffffffffffffffffffffffffff168173ffffffffffffffffffffffffffffffffffffffff16837ff6391f5c32d9c69d2a47ea670b442974b53935d1edc7fd64eb21e047a839171b60405160405180910390a45b5050565b611efb8282611406565b611f7257611f0881611f76565b611f168360001c6020611fa3565b604051602001611f27929190613a56565b6040516020818303038152906040526040517f08c379a0000000000000000000000000000000000000000000000000000000008152600401611f699190613ac9565b60405180910390fd5b5050565b6060611f9c8273ffffffffffffffffffffffffffffffffffffffff16601460ff16611fa3565b9050919050565b606060006002836002611fb69190613b1a565b611fc09190613b5c565b67ffffffffffffffff811115611fd957611fd86124fe565b5b6040519080825280601f01601f19166020018201604052801561200b5781602001600182028036833780820191505090505b5090507f30000000000000000000000000000000000000000000000000000000000000008160008151811061204357612042613b90565b5b60200101907effffffffffffffffffffffffffffffffffffffffffffffffffffffffffffff1916908160001a9053507f7800000000000000000000000000000000000000000000000000000000000000816001815181106120a7576120a6613b90565b5b60200101907effffffffffffffffffffffffffffffffffffffffffffffffffffffffffffff1916908160001a905350600060018460026120e79190613b1a565b6120f19190613b5c565b90505b6001811115612191577f3031323334353637383961626364656600000000000000000000000000000000600f86166010811061213357612132613b90565b5b1a60f81b82828151811061214a57612149613b90565b5b60200101907effffffffffffffffffffffffffffffffffffffffffffffffffffffffffffff1916908160001a905350600485901c94508061218a90613bbf565b90506120f4565b50600084146121d5576040517f08c379a00000000000000000000000000000000000000000000000000000000081526004016121cc90613c34565b60405180910390fd5b8091505092915050565b6000604051905090565b600080fd5b600080fd5b6000819050919050565b612206816121f3565b811461221157600080fd5b50565b600081359050612223816121fd565b92915050565b60006020828403121561223f5761223e6121e9565b5b600061224d84828501612214565b91505092915050565b60008115159050919050565b61226b81612256565b82525050565b60006020820190506122866000830184612262565b92915050565b60007fffffffff0000000000000000000000000000000000000000000000000000000082169050919050565b6122c18161228c565b81146122cc57600080fd5b50565b6000813590506122de816122b8565b92915050565b6000602082840312156122fa576122f96121e9565b5b6000612308848285016122cf565b91505092915050565b600073ffffffffffffffffffffffffffffffffffffffff82169050919050565b600061233c82612311565b9050919050565b61234c81612331565b811461235757600080fd5b50565b60008135905061236981612343565b92915050565b600060208284031215612385576123846121e9565b5b60006123938482850161235a565b91505092915050565b6000819050919050565b6123af8161239c565b81146123ba57600080fd5b50565b6000813590506123cc816123a6565b92915050565b6000602082840312156123e8576123e76121e9565b5b60006123f6848285016123bd565b91505092915050565b6124088161239c565b82525050565b600060208201905061242360008301846123ff565b92915050565b600080604083850312156124405761243f6121e9565b5b600061244e858286016123bd565b925050602061245f8582860161235a565b9150509250929050565b6000819050919050565b600061248e61248961248484612311565b612469565b612311565b9050919050565b60006124a082612473565b9050919050565b60006124b282612495565b9050919050565b6124c2816124a7565b82525050565b60006020820190506124dd60008301846124b9565b92915050565b600080fd5b600080fd5b6000601f19601f8301169050919050565b7f4e487b7100000000000000000000000000000000000000000000000000000000600052604160045260246000fd5b612536826124ed565b810181811067ffffffffffffffff82111715612555576125546124fe565b5b80604052505050565b60006125686121df565b9050612574828261252d565b919050565b600067ffffffffffffffff821115612594576125936124fe565b5b61259d826124ed565b9050602081019050919050565b82818337600083830152505050565b60006125cc6125c784612579565b61255e565b9050828152602081018484840111156125e8576125e76124e8565b5b6125f38482856125aa565b509392505050565b600082601f8301126126105761260f6124e3565b5b81356126208482602086016125b9565b91505092915050565b600067ffffffffffffffff821115612644576126436124fe565b5b602082029050602081019050919050565b600080fd5b600061266d61266884612629565b61255e565b905080838252602082019050602084028301858111156126905761268f612655565b5b835b818110156126b957806126a58882612214565b845260208401935050602081019050612692565b5050509392505050565b600082601f8301126126d8576126d76124e3565b5b81356126e884826020860161265a565b91505092915050565b600067ffffffffffffffff82111561270c5761270b6124fe565b5b602082029050602081019050919050565b600061273061272b846126f1565b61255e565b9050808382526020820190506020840283018581111561275357612752612655565b5b835b8181101561279a57803567ffffffffffffffff811115612778576127776124e3565b5b80860161278589826125fb565b85526020850194505050602081019050612755565b5050509392505050565b600082601f8301126127b9576127b86124e3565b5b81356127c984826020860161271d565b91505092915050565b600067ffffffffffffffff8211156127ed576127ec6124fe565b5b602082029050602081019050919050565b600061281161280c846127d2565b61255e565b9050808382526020820190506020840283018581111561283457612833612655565b5b835b8181101561287b57803567ffffffffffffffff811115612859576128586124e3565b5b80860161286689826126c3565b85526020850194505050602081019050612836565b5050509392505050565b600082601f83011261289a576128996124e3565b5b81356128aa8482602086016127fe565b91505092915050565b600067ffffffffffffffff8211156128ce576128cd6124fe565b5b602082029050602081019050919050565b600067ffffffffffffffff8211156128fa576128f96124fe565b5b612903826124ed565b9050602081019050919050565b600061292361291e846128df565b61255e565b90508281526020810184848401111561293f5761293e6124e8565b5b61294a8482856125aa565b509392505050565b600082601f830112612967576129666124e3565b5b8135612977848260208601612910565b91505092915050565b600061299361298e846128b3565b61255e565b905080838252602082019050602084028301858111156129b6576129b5612655565b5b835b818110156129fd57803567ffffffffffffffff8111156129db576129da6124e3565b5b8086016129e88982612952565b855260208501945050506020810190506129b8565b5050509392505050565b600082601f830112612a1c57612a1b6124e3565b5b8135612a2c848260208601612980565b91505092915050565b600080600080600080600080610100898b031215612a5657612a556121e9565b5b600089013567ffffffffffffffff811115612a7457612a736121ee565b5b612a808b828c016125fb565b985050602089013567ffffffffffffffff811115612aa157612aa06121ee565b5b612aad8b828c016125fb565b9750506040612abe8b828c01612214565b965050606089013567ffffffffffffffff811115612adf57612ade6121ee565b5b612aeb8b828c016126c3565b955050608089013567ffffffffffffffff811115612b0c57612b0b6121ee565b5b612b188b828c016127a4565b94505060a089013567ffffffffffffffff811115612b3957612b386121ee565b5b612b458b828c016127a4565b93505060c089013567ffffffffffffffff811115612b6657612b656121ee565b5b612b728b828c01612885565b92505060e089013567ffffffffffffffff811115612b9357612b926121ee565b5b612b9f8b828c01612a07565b9150509295985092959890939650565b612bb8816121f3565b82525050565b6000602082019050612bd36000830184612baf565b92915050565b600080600080600060a08688031215612bf557612bf46121e9565b5b600086013567ffffffffffffffff811115612c1357612c126121ee565b5b612c1f888289016125fb565b955050602086013567ffffffffffffffff811115612c4057612c3f6121ee565b5b612c4c888289016125fb565b9450506040612c5d88828901612214565b9350506060612c6e88828901612214565b925050608086013567ffffffffffffffff811115612c8f57612c8e6121ee565b5b612c9b88828901612a07565b9150509295509295909350565b600081519050919050565b600082825260208201905092915050565b60005b83811015612ce2578082015181840152602081019050612cc7565b60008484015250505050565b6000612cf982612ca8565b612d038185612cb3565b9350612d13818560208601612cc4565b612d1c816124ed565b840191505092915050565b60006020820190508181036000830152612d418184612cee565b905092915050565b600060208284031215612d5f57612d5e6121e9565b5b600082013567ffffffffffffffff811115612d7d57612d7c6121ee565b5b612d89848285016125fb565b91505092915050565b600067ffffffffffffffff82169050919050565b612daf81612d92565b82525050565b6000602082019050612dca6000830184612da6565b92915050565b7f4e487b7100000000000000000000000000000000000000000000000000000000600052602160045260246000fd5b60038110612e1057612e0f612dd0565b5b50565b6000819050612e2182612dff565b919050565b6000612e3182612e13565b9050919050565b612e4181612e26565b82525050565b6000602082019050612e5c6000830184612e38565b92915050565b612e6b81612d92565b8114612e7657600080fd5b50565b600081359050612e8881612e62565b92915050565b600060208284031215612ea457612ea36121e9565b5b6000612eb284828501612e79565b91505092915050565b60008060408385031215612ed257612ed16121e9565b5b6000612ee085828601612214565b925050602083013567ffffffffffffffff811115612f0157612f006121ee565b5b612f0d85828601612a07565b9150509250929050565b60008060408385031215612f2e57612f2d6121e9565b5b6000612f3c85828601612e79565b9250506020612f4d85828601612214565b9150509250929050565b612f6081612256565b8114612f6b57600080fd5b50565b600081519050612f7d81612f57565b92915050565b600060208284031215612f9957612f986121e9565b5b6000612fa784828501612f6e565b91505092915050565b612fb981612331565b82525050565b6000604082019050612fd46000830185612fb0565b612fe16020830184612fb0565b9392505050565b600082825260208201905092915050565b7f43616e6e6f742072656d6f76652073656c662061732061646d696e2e2020486160008201527f766520746865206e65772061646d696e20646f2069742e000000000000000000602082015250565b6000613055603783612fe8565b915061306082612ff9565b604082019050919050565b6000602082019050818103600083015261308481613048565b9050919050565b7f416363657373436f6e74726f6c3a2063616e206f6e6c792072656e6f756e636560008201527f20726f6c657320666f722073656c660000000000000000000000000000000000602082015250565b60006130e7602f83612fe8565b91506130f28261308b565b604082019050919050565b60006020820190508181036000830152613116816130da565b9050919050565b6000819050919050565b600061314261313d6131388461311d565b612469565b6121f3565b9050919050565b61315281613127565b82525050565b600060408201905061316d6000830185612baf565b61317a6020830184613149565b9392505050565b600081519050919050565b600082825260208201905092915050565b6000819050602082019050919050565b6131b6816121f3565b82525050565b60006131c883836131ad565b60208301905092915050565b6000602082019050919050565b60006131ec82613181565b6131f6818561318c565b93506132018361319d565b8060005b8381101561323257815161321988826131bc565b9750613224836131d4565b925050600181019050613205565b5085935050505092915050565b600081519050919050565b600082825260208201905092915050565b6000819050602082019050919050565b600082825260208201905092915050565b600061328782612ca8565b613291818561326b565b93506132a1818560208601612cc4565b6132aa816124ed565b840191505092915050565b60006132c1838361327c565b905092915050565b6000602082019050919050565b60006132e18261323f565b6132eb818561324a565b9350836020820285016132fd8561325b565b8060005b85811015613339578484038952815161331a85826132b5565b9450613325836132c9565b925060208a01995050600181019050613301565b50829750879550505050505092915050565b600081519050919050565b600082825260208201905092915050565b6000819050602082019050919050565b600082825260208201905092915050565b600061339382613181565b61339d8185613377565b93506133a88361319d565b8060005b838110156133d95781516133c088826131bc565b97506133cb836131d4565b9250506001810190506133ac565b5085935050505092915050565b60006133f28383613388565b905092915050565b6000602082019050919050565b60006134128261334b565b61341c8185613356565b93508360208202850161342e85613367565b8060005b8581101561346a578484038952815161344b85826133e6565b9450613456836133fa565b925060208a01995050600181019050613432565b50829750879550505050505092915050565b600081519050919050565b600082825260208201905092915050565b6000819050602082019050919050565b600081519050919050565b600082825260208201905092915050565b60006134cf826134a8565b6134d981856134b3565b93506134e9818560208601612cc4565b6134f2816124ed565b840191505092915050565b600061350983836134c4565b905092915050565b6000602082019050919050565b60006135298261347c565b6135338185613487565b93508360208202850161354585613498565b8060005b85811015613581578484038952815161356285826134fd565b945061356d83613511565b925060208a01995050600181019050613549565b50829750879550505050505092915050565b6000610100820190506135a9600083018b613149565b81810360208301526135bb818a6131e1565b905081810360408301526135cf81896132d6565b905081810360608301526135e381886132d6565b905081810360808301526135f78187613407565b905081810360a083015261360b818661351e565b905061361a60c0830185612262565b61362760e0830184612262565b9998505050505050505050565b600081519050613643816121fd565b92915050565b60006020828403121561365f5761365e6121e9565b5b600061366d84828501613634565b91505092915050565b600060808201905081810360008301526136908187612cee565b905081810360208301526136a48186612cee565b90506136b36040830185612baf565b6136c06060830184612baf565b95945050505050565b7f446f6d61696e57616c6c657452656769737472793a206d65746164617461206e60008201527f616d6520616e642075726c206d7573742062652073657420696e206d6574616460208201527f6174610000000000000000000000000000000000000000000000000000000000604082015250565b600061374b604383612fe8565b9150613756826136c9565b606082019050919050565b6000602082019050818103600083015261377a8161373e565b9050919050565b60006040820190506137966000830185612baf565b81810360208301526137a8818461351e565b90509392505050565b60006137c46137bf84612579565b61255e565b9050828152602081018484840111156137e0576137df6124e8565b5b6137eb848285612cc4565b509392505050565b600082601f830112613808576138076124e3565b5b81516138188482602086016137b1565b91505092915050565b600060208284031215613837576138366121e9565b5b600082015167ffffffffffffffff811115613855576138546121ee565b5b613861848285016137f3565b91505092915050565b60008151905061387981612e62565b92915050565b600060208284031215613895576138946121e9565b5b60006138a38482850161386a565b91505092915050565b60006040820190506138c16000830185612da6565b6138ce6020830184612baf565b9392505050565b6000815190506138e4816123a6565b92915050565b600060208284031215613900576138ff6121e9565b5b600061390e848285016138d5565b91505092915050565b600060408201905061392c60008301856123ff565b6139396020830184612e38565b9392505050565b60008151905061394f81612343565b92915050565b60006020828403121561396b5761396a6121e9565b5b600061397984828501613940565b91505092915050565b600081905092915050565b7f416363657373436f6e74726f6c3a206163636f756e7420000000000000000000600082015250565b60006139c3601783613982565b91506139ce8261398d565b601782019050919050565b60006139e4826134a8565b6139ee8185613982565b93506139fe818560208601612cc4565b80840191505092915050565b7f206973206d697373696e6720726f6c6520000000000000000000000000000000600082015250565b6000613a40601183613982565b9150613a4b82613a0a565b601182019050919050565b6000613a61826139b6565b9150613a6d82856139d9565b9150613a7882613a33565b9150613a8482846139d9565b91508190509392505050565b6000613a9b826134a8565b613aa58185612fe8565b9350613ab5818560208601612cc4565b613abe816124ed565b840191505092915050565b60006020820190508181036000830152613ae38184613a90565b905092915050565b7f4e487b7100000000000000000000000000000000000000000000000000000000600052601160045260246000fd5b6000613b25826121f3565b9150613b30836121f3565b9250828202613b3e816121f3565b91508282048414831517613b5557613b54613aeb565b5b5092915050565b6000613b67826121f3565b9150613b72836121f3565b9250828201905080821115613b8a57613b89613aeb565b5b92915050565b7f4e487b7100000000000000000000000000000000000000000000000000000000600052603260045260246000fd5b6000613bca826121f3565b915060008203613bdd57613bdc613aeb565b5b600182039050919050565b7f537472696e67733a20686578206c656e67746820696e73756666696369656e74600082015250565b6000613c1e602083612fe8565b9150613c2982613be8565b602082019050919050565b60006020820190508181036000830152613c4d81613c11565b905091905056fea264697066735822122065bcd615507b4bb45345ed604c0e2e43d4f8d1c847d4e6546b3c868de4b9e09764736f6c63430008110033",
  "linkReferences": {},
  "deployedLinkReferences": {}
}