{
  "_format": "hh-sol-artifact-1",
  "contractName": "KeyDeriver",
  "sourceName": "contracts/lit-node/HDKeyDeriver.sol",
  "abi": [
    {
      "inputs": [],
      "stateMutability": "nonpayable",
      "type": "constructor"
    },
    {
      "inputs": [],
      "name": "HD_KDF",
      "outputs": [
        {
          "internalType": "address",
          "name": "",
          "type": "address"
        }
      ],
      "stateMutability": "view",
      "type": "function"
    },
    {
      "inputs": [
        {
          "internalType": "bytes32",
          "name": "derivedKeyId",
          "type": "bytes32"
        },
        {
          "components": [
            {
              "internalType": "bytes",
              "name": "pubkey",
              "type": "bytes"
            },
            {
              "internalType": "uint256",
              "name": "keyType",
              "type": "uint256"
            }
          ],
          "internalType": "struct IPubkeyRouter.RootKey[]",
          "name": "rootHDKeys",
          "type": "tuple[]"
        },
        {
          "internalType": "uint256",
          "name": "keyType",
          "type": "uint256"
        }
      ],
      "name": "computeHDPubKey",
      "outputs": [
        {
          "internalType": "bool",
          "name": "",
          "type": "bool"
        },
        {
          "internalType": "bytes",
          "name": "",
          "type": "bytes"
        }
      ],
      "stateMutability": "view",
      "type": "function"
    }
  ],
  "bytecode": "0x608060405234801561001057600080fd5b50610a53806100206000396000f3fe608060405234801561001057600080fd5b50600436106100365760003560e01c806362e4c4641461003b578063a32c2b9914610059575b600080fd5b61004361008a565b60405161005091906102ef565b60405180910390f35b610073600480360381019061006e919061062c565b61008f565b604051610081929190610735565b60405180910390f35b60f581565b6000606060006100a0868686610121565b905060008060f573ffffffffffffffffffffffffffffffffffffffff16836040516100cb91906107a1565b600060405180830381855afa9150503d8060008114610106576040519150601f19603f3d011682016040523d82523d6000602084013e61010b565b606091505b5091509150818194509450505050935093915050565b606060008067ffffffffffffffff81111561013f5761013e61036a565b5b6040519080825280601f01601f1916602001820160405280156101715781602001600182028036833780820191505090505b5090506000805b855181101561020a5784868281518110610195576101946107b8565b5b602002602001015160200151036101f757828682815181106101ba576101b96107b8565b5b6020026020010151600001516040516020016101d79291906107e7565b604051602081830303815290604052925081806101f39061084a565b9250505b808061020290610876565b915050610178565b506002840361021c576001935061022a565b6003840361022957600093505b5b60006040518060600160405280602b81526020016109f3602b9139905060008560f81b90506000602060ff1660e01b90506000835160e01b905060008560e01b9050600084848d8589868d60405160200161028b9796959493929190610979565b604051602081830303815290604052905080985050505050505050509392505050565b600073ffffffffffffffffffffffffffffffffffffffff82169050919050565b60006102d9826102ae565b9050919050565b6102e9816102ce565b82525050565b600060208201905061030460008301846102e0565b92915050565b6000604051905090565b600080fd5b600080fd5b6000819050919050565b6103318161031e565b811461033c57600080fd5b50565b60008135905061034e81610328565b92915050565b600080fd5b6000601f19601f8301169050919050565b7f4e487b7100000000000000000000000000000000000000000000000000000000600052604160045260246000fd5b6103a282610359565b810181811067ffffffffffffffff821117156103c1576103c061036a565b5b80604052505050565b60006103d461030a565b90506103e08282610399565b919050565b600067ffffffffffffffff821115610400576103ff61036a565b5b602082029050602081019050919050565b600080fd5b600080fd5b600080fd5b600080fd5b600067ffffffffffffffff8211156104405761043f61036a565b5b61044982610359565b9050602081019050919050565b82818337600083830152505050565b600061047861047384610425565b6103ca565b90508281526020810184848401111561049457610493610420565b5b61049f848285610456565b509392505050565b600082601f8301126104bc576104bb610354565b5b81356104cc848260208601610465565b91505092915050565b6000819050919050565b6104e8816104d5565b81146104f357600080fd5b50565b600081359050610505816104df565b92915050565b60006040828403121561052157610520610416565b5b61052b60406103ca565b9050600082013567ffffffffffffffff81111561054b5761054a61041b565b5b610557848285016104a7565b600083015250602061056b848285016104f6565b60208301525092915050565b600061058a610585846103e5565b6103ca565b905080838252602082019050602084028301858111156105ad576105ac610411565b5b835b818110156105f457803567ffffffffffffffff8111156105d2576105d1610354565b5b8086016105df898261050b565b855260208501945050506020810190506105af565b5050509392505050565b600082601f83011261061357610612610354565b5b8135610623848260208601610577565b91505092915050565b60008060006060848603121561064557610644610314565b5b60006106538682870161033f565b935050602084013567ffffffffffffffff81111561067457610673610319565b5b610680868287016105fe565b9250506040610691868287016104f6565b9150509250925092565b60008115159050919050565b6106b08161069b565b82525050565b600081519050919050565b600082825260208201905092915050565b60005b838110156106f05780820151818401526020810190506106d5565b60008484015250505050565b6000610707826106b6565b61071181856106c1565b93506107218185602086016106d2565b61072a81610359565b840191505092915050565b600060408201905061074a60008301856106a7565b818103602083015261075c81846106fc565b90509392505050565b600081905092915050565b600061077b826106b6565b6107858185610765565b93506107958185602086016106d2565b80840191505092915050565b60006107ad8284610770565b915081905092915050565b7f4e487b7100000000000000000000000000000000000000000000000000000000600052603260045260246000fd5b60006107f38285610770565b91506107ff8284610770565b91508190509392505050565b7f4e487b7100000000000000000000000000000000000000000000000000000000600052601160045260246000fd5b600063ffffffff82169050919050565b60006108558261083a565b915063ffffffff820361086b5761086a61080b565b5b600182019050919050565b6000610881826104d5565b91507fffffffffffffffffffffffffffffffffffffffffffffffffffffffffffffffff82036108b3576108b261080b565b5b600182019050919050565b60007fff0000000000000000000000000000000000000000000000000000000000000082169050919050565b6000819050919050565b610905610900826108be565b6108ea565b82525050565b60007fffffffff0000000000000000000000000000000000000000000000000000000082169050919050565b6000819050919050565b61095261094d8261090b565b610937565b82525050565b6000819050919050565b61097361096e8261031e565b610958565b82525050565b6000610985828a6108f4565b6001820191506109958289610941565b6004820191506109a58288610962565b6020820191506109b58287610941565b6004820191506109c58286610770565b91506109d18285610941565b6004820191506109e18284610770565b91508190509897505050505050505056fe4c49545f48445f4b45595f49445f4b3235365f584d443a5348412d3235365f535357555f524f5f4e554c5fa2646970667358221220258aefa0f3080afa1d34e42e478274203f35e94ccf1fee228bf1117511bb647164736f6c63430008110033",
  "linkReferences": {},
  "deployedLinkReferences": {}
}