{
  "_format": "hh-sol-artifact-1",
  "contractName": "LITToken",
  "sourceName": "contracts/lit-node/LITToken.sol",
  "abi": [
    {
      "inputs": [
        {
          "internalType": "uint256",
          "name": "cap",
          "type": "uint256"
        }
      ],
      "stateMutability": "nonpayable",
      "type": "constructor"
    },
    {
      "inputs": [],
      "name": "InvalidShortString",
      "type": "error"
    },
    {
      "inputs": [
        {
          "internalType": "string",
          "name": "str",
          "type": "string"
        }
      ],
      "name": "StringTooLong",
      "type": "error"
    },
    {
      "anonymous": false,
      "inputs": [
        {
          "indexed": true,
          "internalType": "address",
          "name": "owner",
          "type": "address"
        },
        {
          "indexed": true,
          "internalType": "address",
          "name": "spender",
          "type": "address"
        },
        {
          "indexed": false,
          "internalType": "uint256",
          "name": "value",
          "type": "uint256"
        }
      ],
      "name": "Approval",
      "type": "event"
    },
    {
      "anonymous": false,
      "inputs": [
        {
          "indexed": true,
          "internalType": "address",
          "name": "delegator",
          "type": "address"
        },
        {
          "indexed": true,
          "internalType": "address",
          "name": "fromDelegate",
          "type": "address"
        },
        {
          "indexed": true,
          "internalType": "address",
          "name": "toDelegate",
          "type": "address"
        }
      ],
      "name": "DelegateChanged",
      "type": "event"
    },
    {
      "anonymous": false,
      "inputs": [
        {
          "indexed": true,
          "internalType": "address",
          "name": "delegate",
          "type": "address"
        },
        {
          "indexed": false,
          "internalType": "uint256",
          "name": "previousBalance",
          "type": "uint256"
        },
        {
          "indexed": false,
          "internalType": "uint256",
          "name": "newBalance",
          "type": "uint256"
        }
      ],
      "name": "DelegateVotesChanged",
      "type": "event"
    },
    {
      "anonymous": false,
      "inputs": [],
      "name": "EIP712DomainChanged",
      "type": "event"
    },
    {
      "anonymous": false,
      "inputs": [
        {
          "indexed": false,
          "internalType": "address",
          "name": "account",
          "type": "address"
        }
      ],
      "name": "Paused",
      "type": "event"
    },
    {
      "anonymous": false,
      "inputs": [
        {
          "indexed": true,
          "internalType": "bytes32",
          "name": "role",
          "type": "bytes32"
        },
        {
          "indexed": true,
          "internalType": "bytes32",
          "name": "previousAdminRole",
          "type": "bytes32"
        },
        {
          "indexed": true,
          "internalType": "bytes32",
          "name": "newAdminRole",
          "type": "bytes32"
        }
      ],
      "name": "RoleAdminChanged",
      "type": "event"
    },
    {
      "anonymous": false,
      "inputs": [
        {
          "indexed": true,
          "internalType": "bytes32",
          "name": "role",
          "type": "bytes32"
        },
        {
          "indexed": true,
          "internalType": "address",
          "name": "account",
          "type": "address"
        },
        {
          "indexed": true,
          "internalType": "address",
          "name": "sender",
          "type": "address"
        }
      ],
      "name": "RoleGranted",
      "type": "event"
    },
    {
      "anonymous": false,
      "inputs": [
        {
          "indexed": true,
          "internalType": "bytes32",
          "name": "role",
          "type": "bytes32"
        },
        {
          "indexed": true,
          "internalType": "address",
          "name": "account",
          "type": "address"
        },
        {
          "indexed": true,
          "internalType": "address",
          "name": "sender",
          "type": "address"
        }
      ],
      "name": "RoleRevoked",
      "type": "event"
    },
    {
      "anonymous": false,
      "inputs": [
        {
          "indexed": true,
          "internalType": "address",
          "name": "from",
          "type": "address"
        },
        {
          "indexed": true,
          "internalType": "address",
          "name": "to",
          "type": "address"
        },
        {
          "indexed": false,
          "internalType": "uint256",
          "name": "value",
          "type": "uint256"
        }
      ],
      "name": "Transfer",
      "type": "event"
    },
    {
      "anonymous": false,
      "inputs": [
        {
          "indexed": false,
          "internalType": "address",
          "name": "account",
          "type": "address"
        }
      ],
      "name": "Unpaused",
      "type": "event"
    },
    {
      "inputs": [],
      "name": "ADMIN_ROLE",
      "outputs": [
        {
          "internalType": "bytes32",
          "name": "",
          "type": "bytes32"
        }
      ],
      "stateMutability": "view",
      "type": "function"
    },
    {
      "inputs": [],
      "name": "CLOCK_MODE",
      "outputs": [
        {
          "internalType": "string",
          "name": "",
          "type": "string"
        }
      ],
      "stateMutability": "view",
      "type": "function"
    },
    {
      "inputs": [],
      "name": "DEFAULT_ADMIN_ROLE",
      "outputs": [
        {
          "internalType": "bytes32",
          "name": "",
          "type": "bytes32"
        }
      ],
      "stateMutability": "view",
      "type": "function"
    },
    {
      "inputs": [],
      "name": "DOMAIN_SEPARATOR",
      "outputs": [
        {
          "internalType": "bytes32",
          "name": "",
          "type": "bytes32"
        }
      ],
      "stateMutability": "view",
      "type": "function"
    },
    {
      "inputs": [],
      "name": "MINTER_ROLE",
      "outputs": [
        {
          "internalType": "bytes32",
          "name": "",
          "type": "bytes32"
        }
      ],
      "stateMutability": "view",
      "type": "function"
    },
    {
      "inputs": [],
      "name": "PAUSER_ROLE",
      "outputs": [
        {
          "internalType": "bytes32",
          "name": "",
          "type": "bytes32"
        }
      ],
      "stateMutability": "view",
      "type": "function"
    },
    {
      "inputs": [
        {
          "internalType": "address",
          "name": "owner",
          "type": "address"
        },
        {
          "internalType": "address",
          "name": "spender",
          "type": "address"
        }
      ],
      "name": "allowance",
      "outputs": [
        {
          "internalType": "uint256",
          "name": "",
          "type": "uint256"
        }
      ],
      "stateMutability": "view",
      "type": "function"
    },
    {
      "inputs": [
        {
          "internalType": "address",
          "name": "spender",
          "type": "address"
        },
        {
          "internalType": "uint256",
          "name": "amount",
          "type": "uint256"
        }
      ],
      "name": "approve",
      "outputs": [
        {
          "internalType": "bool",
          "name": "",
          "type": "bool"
        }
      ],
      "stateMutability": "nonpayable",
      "type": "function"
    },
    {
      "inputs": [
        {
          "internalType": "address",
          "name": "account",
          "type": "address"
        }
      ],
      "name": "balanceOf",
      "outputs": [
        {
          "internalType": "uint256",
          "name": "",
          "type": "uint256"
        }
      ],
      "stateMutability": "view",
      "type": "function"
    },
    {
      "inputs": [
        {
          "internalType": "uint256",
          "name": "amount",
          "type": "uint256"
        }
      ],
      "name": "burn",
      "outputs": [],
      "stateMutability": "nonpayable",
      "type": "function"
    },
    {
      "inputs": [
        {
          "internalType": "address",
          "name": "account",
          "type": "address"
        },
        {
          "internalType": "uint256",
          "name": "amount",
          "type": "uint256"
        }
      ],
      "name": "burnFrom",
      "outputs": [],
      "stateMutability": "nonpayable",
      "type": "function"
    },
    {
      "inputs": [],
      "name": "cap",
      "outputs": [
        {
          "internalType": "uint256",
          "name": "",
          "type": "uint256"
        }
      ],
      "stateMutability": "view",
      "type": "function"
    },
    {
      "inputs": [
        {
          "internalType": "address",
          "name": "account",
          "type": "address"
        },
        {
          "internalType": "uint32",
          "name": "pos",
          "type": "uint32"
        }
      ],
      "name": "checkpoints",
      "outputs": [
        {
          "components": [
            {
              "internalType": "uint32",
              "name": "fromBlock",
              "type": "uint32"
            },
            {
              "internalType": "uint224",
              "name": "votes",
              "type": "uint224"
            }
          ],
          "internalType": "struct ERC20Votes.Checkpoint",
          "name": "",
          "type": "tuple"
        }
      ],
      "stateMutability": "view",
      "type": "function"
    },
    {
      "inputs": [],
      "name": "clock",
      "outputs": [
        {
          "internalType": "uint48",
          "name": "",
          "type": "uint48"
        }
      ],
      "stateMutability": "view",
      "type": "function"
    },
    {
      "inputs": [],
      "name": "decimals",
      "outputs": [
        {
          "internalType": "uint8",
          "name": "",
          "type": "uint8"
        }
      ],
      "stateMutability": "view",
      "type": "function"
    },
    {
      "inputs": [
        {
          "internalType": "address",
          "name": "spender",
          "type": "address"
        },
        {
          "internalType": "uint256",
          "name": "subtractedValue",
          "type": "uint256"
        }
      ],
      "name": "decreaseAllowance",
      "outputs": [
        {
          "internalType": "bool",
          "name": "",
          "type": "bool"
        }
      ],
      "stateMutability": "nonpayable",
      "type": "function"
    },
    {
      "inputs": [
        {
          "internalType": "address",
          "name": "delegatee",
          "type": "address"
        }
      ],
      "name": "delegate",
      "outputs": [],
      "stateMutability": "nonpayable",
      "type": "function"
    },
    {
      "inputs": [
        {
          "internalType": "address",
          "name": "delegatee",
          "type": "address"
        },
        {
          "internalType": "uint256",
          "name": "nonce",
          "type": "uint256"
        },
        {
          "internalType": "uint256",
          "name": "expiry",
          "type": "uint256"
        },
        {
          "internalType": "uint8",
          "name": "v",
          "type": "uint8"
        },
        {
          "internalType": "bytes32",
          "name": "r",
          "type": "bytes32"
        },
        {
          "internalType": "bytes32",
          "name": "s",
          "type": "bytes32"
        }
      ],
      "name": "delegateBySig",
      "outputs": [],
      "stateMutability": "nonpayable",
      "type": "function"
    },
    {
      "inputs": [
        {
          "internalType": "address",
          "name": "account",
          "type": "address"
        }
      ],
      "name": "delegates",
      "outputs": [
        {
          "internalType": "address",
          "name": "",
          "type": "address"
        }
      ],
      "stateMutability": "view",
      "type": "function"
    },
    {
      "inputs": [],
      "name": "eip712Domain",
      "outputs": [
        {
          "internalType": "bytes1",
          "name": "fields",
          "type": "bytes1"
        },
        {
          "internalType": "string",
          "name": "name",
          "type": "string"
        },
        {
          "internalType": "string",
          "name": "version",
          "type": "string"
        },
        {
          "internalType": "uint256",
          "name": "chainId",
          "type": "uint256"
        },
        {
          "internalType": "address",
          "name": "verifyingContract",
          "type": "address"
        },
        {
          "internalType": "bytes32",
          "name": "salt",
          "type": "bytes32"
        },
        {
          "internalType": "uint256[]",
          "name": "extensions",
          "type": "uint256[]"
        }
      ],
      "stateMutability": "view",
      "type": "function"
    },
    {
      "inputs": [
        {
          "internalType": "uint256",
          "name": "timepoint",
          "type": "uint256"
        }
      ],
      "name": "getPastTotalSupply",
      "outputs": [
        {
          "internalType": "uint256",
          "name": "",
          "type": "uint256"
        }
      ],
      "stateMutability": "view",
      "type": "function"
    },
    {
      "inputs": [
        {
          "internalType": "address",
          "name": "account",
          "type": "address"
        },
        {
          "internalType": "uint256",
          "name": "timepoint",
          "type": "uint256"
        }
      ],
      "name": "getPastVotes",
      "outputs": [
        {
          "internalType": "uint256",
          "name": "",
          "type": "uint256"
        }
      ],
      "stateMutability": "view",
      "type": "function"
    },
    {
      "inputs": [
        {
          "internalType": "bytes32",
          "name": "role",
          "type": "bytes32"
        }
      ],
      "name": "getRoleAdmin",
      "outputs": [
        {
          "internalType": "bytes32",
          "name": "",
          "type": "bytes32"
        }
      ],
      "stateMutability": "view",
      "type": "function"
    },
    {
      "inputs": [
        {
          "internalType": "address",
          "name": "account",
          "type": "address"
        }
      ],
      "name": "getVotes",
      "outputs": [
        {
          "internalType": "uint256",
          "name": "",
          "type": "uint256"
        }
      ],
      "stateMutability": "view",
      "type": "function"
    },
    {
      "inputs": [
        {
          "internalType": "bytes32",
          "name": "role",
          "type": "bytes32"
        },
        {
          "internalType": "address",
          "name": "account",
          "type": "address"
        }
      ],
      "name": "grantRole",
      "outputs": [],
      "stateMutability": "nonpayable",
      "type": "function"
    },
    {
      "inputs": [
        {
          "internalType": "bytes32",
          "name": "role",
          "type": "bytes32"
        },
        {
          "internalType": "address",
          "name": "account",
          "type": "address"
        }
      ],
      "name": "hasRole",
      "outputs": [
        {
          "internalType": "bool",
          "name": "",
          "type": "bool"
        }
      ],
      "stateMutability": "view",
      "type": "function"
    },
    {
      "inputs": [
        {
          "internalType": "address",
          "name": "spender",
          "type": "address"
        },
        {
          "internalType": "uint256",
          "name": "addedValue",
          "type": "uint256"
        }
      ],
      "name": "increaseAllowance",
      "outputs": [
        {
          "internalType": "bool",
          "name": "",
          "type": "bool"
        }
      ],
      "stateMutability": "nonpayable",
      "type": "function"
    },
    {
      "inputs": [
        {
          "internalType": "address",
          "name": "_recipient",
          "type": "address"
        },
        {
          "internalType": "uint256",
          "name": "_amount",
          "type": "uint256"
        }
      ],
      "name": "mint",
      "outputs": [],
      "stateMutability": "nonpayable",
      "type": "function"
    },
    {
      "inputs": [],
      "name": "name",
      "outputs": [
        {
          "internalType": "string",
          "name": "",
          "type": "string"
        }
      ],
      "stateMutability": "view",
      "type": "function"
    },
    {
      "inputs": [
        {
          "internalType": "address",
          "name": "owner",
          "type": "address"
        }
      ],
      "name": "nonces",
      "outputs": [
        {
          "internalType": "uint256",
          "name": "",
          "type": "uint256"
        }
      ],
      "stateMutability": "view",
      "type": "function"
    },
    {
      "inputs": [
        {
          "internalType": "address",
          "name": "account",
          "type": "address"
        }
      ],
      "name": "numCheckpoints",
      "outputs": [
        {
          "internalType": "uint32",
          "name": "",
          "type": "uint32"
        }
      ],
      "stateMutability": "view",
      "type": "function"
    },
    {
      "inputs": [],
      "name": "pause",
      "outputs": [],
      "stateMutability": "nonpayable",
      "type": "function"
    },
    {
      "inputs": [],
      "name": "paused",
      "outputs": [
        {
          "internalType": "bool",
          "name": "",
          "type": "bool"
        }
      ],
      "stateMutability": "view",
      "type": "function"
    },
    {
      "inputs": [
        {
          "internalType": "address",
          "name": "owner",
          "type": "address"
        },
        {
          "internalType": "address",
          "name": "spender",
          "type": "address"
        },
        {
          "internalType": "uint256",
          "name": "value",
          "type": "uint256"
        },
        {
          "internalType": "uint256",
          "name": "deadline",
          "type": "uint256"
        },
        {
          "internalType": "uint8",
          "name": "v",
          "type": "uint8"
        },
        {
          "internalType": "bytes32",
          "name": "r",
          "type": "bytes32"
        },
        {
          "internalType": "bytes32",
          "name": "s",
          "type": "bytes32"
        }
      ],
      "name": "permit",
      "outputs": [],
      "stateMutability": "nonpayable",
      "type": "function"
    },
    {
      "inputs": [
        {
          "internalType": "bytes32",
          "name": "role",
          "type": "bytes32"
        },
        {
          "internalType": "address",
          "name": "account",
          "type": "address"
        }
      ],
      "name": "renounceRole",
      "outputs": [],
      "stateMutability": "nonpayable",
      "type": "function"
    },
    {
      "inputs": [
        {
          "internalType": "bytes32",
          "name": "role",
          "type": "bytes32"
        },
        {
          "internalType": "address",
          "name": "account",
          "type": "address"
        }
      ],
      "name": "revokeRole",
      "outputs": [],
      "stateMutability": "nonpayable",
      "type": "function"
    },
    {
      "inputs": [
        {
          "internalType": "bytes4",
          "name": "interfaceId",
          "type": "bytes4"
        }
      ],
      "name": "supportsInterface",
      "outputs": [
        {
          "internalType": "bool",
          "name": "",
          "type": "bool"
        }
      ],
      "stateMutability": "view",
      "type": "function"
    },
    {
      "inputs": [],
      "name": "symbol",
      "outputs": [
        {
          "internalType": "string",
          "name": "",
          "type": "string"
        }
      ],
      "stateMutability": "view",
      "type": "function"
    },
    {
      "inputs": [],
      "name": "totalSupply",
      "outputs": [
        {
          "internalType": "uint256",
          "name": "",
          "type": "uint256"
        }
      ],
      "stateMutability": "view",
      "type": "function"
    },
    {
      "inputs": [
        {
          "internalType": "address",
          "name": "to",
          "type": "address"
        },
        {
          "internalType": "uint256",
          "name": "amount",
          "type": "uint256"
        }
      ],
      "name": "transfer",
      "outputs": [
        {
          "internalType": "bool",
          "name": "",
          "type": "bool"
        }
      ],
      "stateMutability": "nonpayable",
      "type": "function"
    },
    {
      "inputs": [
        {
          "internalType": "address",
          "name": "from",
          "type": "address"
        },
        {
          "internalType": "address",
          "name": "to",
          "type": "address"
        },
        {
          "internalType": "uint256",
          "name": "amount",
          "type": "uint256"
        }
      ],
      "name": "transferFrom",
      "outputs": [
        {
          "internalType": "bool",
          "name": "",
          "type": "bool"
        }
      ],
      "stateMutability": "nonpayable",
      "type": "function"
    },
    {
      "inputs": [],
      "name": "unpause",
      "outputs": [],
      "stateMutability": "nonpayable",
      "type": "function"
    }
  ],
  "bytecode": "0x6101806040523480156200001257600080fd5b506040516200689e3803806200689e83398181016040528101906200003891906200073e565b6040518060400160405280600c81526020017f4c69742050726f746f636f6c0000000000000000000000000000000000000000815250806040518060400160405280600181526020017f3100000000000000000000000000000000000000000000000000000000000000815250836040518060400160405280600e81526020017f4c6974205465737420546f6b656e0000000000000000000000000000000000008152506040518060400160405280600781526020017f746573744c4954000000000000000000000000000000000000000000000000008152508160049081620001239190620009e0565b508060059081620001359190620009e0565b505050600081116200017e576040517f08c379a0000000000000000000000000000000000000000000000000000000008152600401620001759062000b28565b60405180910390fd5b8060808181525050506000600660006101000a81548160ff021916908315150217905550620001bd600783620003d160201b620017c61790919060201c565b6101408181525050620001e0600882620003d160201b620017c61790919060201c565b610160818152505081805190602001206101008181525050808051906020012061012081815250504660c08181525050620002206200042e60201b60201c565b60a081815250503073ffffffffffffffffffffffffffffffffffffffff1660e08173ffffffffffffffffffffffffffffffffffffffff1681525050505050620002907fdf8b4c520ffe197c5343c6f5aec59570151ef9a492f2c624fd45ddde6135ec42336200048c60201b60201c565b620002c27ff0887ba65ee2024ea881d91b74c2450ef19e1557f03bed3ea9f16b037cbe2dc9336200048c60201b60201c565b620002f47f65d7a28e3265b37a6474929f336521b332c1681b933f6cb9f3376673440d862a336200048c60201b60201c565b620003467ff0887ba65ee2024ea881d91b74c2450ef19e1557f03bed3ea9f16b037cbe2dc97fdf8b4c520ffe197c5343c6f5aec59570151ef9a492f2c624fd45ddde6135ec42620004a260201b60201c565b620003787fdf8b4c520ffe197c5343c6f5aec59570151ef9a492f2c624fd45ddde6135ec4280620004a260201b60201c565b620003ca7f65d7a28e3265b37a6474929f336521b332c1681b933f6cb9f3376673440d862a7fdf8b4c520ffe197c5343c6f5aec59570151ef9a492f2c624fd45ddde6135ec42620004a260201b60201c565b5062000d5c565b6000602083511015620003f757620003ef836200050560201b60201c565b905062000428565b826200040e836200057260201b6200180a1760201c565b60000190816200041f9190620009e0565b5060ff60001b90505b92915050565b60007f8b73c3c69bb8fe3d512ecc4cf759cc79239f7b179b0ffacaa9a75d522b39400f610100516101205146306040516020016200047195949392919062000bbb565b60405160208183030381529060405280519060200120905090565b6200049e82826200057c60201b60201c565b5050565b6000620004b5836200066d60201b60201c565b905081600080858152602001908152602001600020600101819055508181847fbd79b86ffe0ab8e8776151514217cd7cacd52c909f66475c3af44e129f0b00ff60405160405180910390a4505050565b600080829050601f815111156200055557826040517f305a27a90000000000000000000000000000000000000000000000000000000081526004016200054c919062000c96565b60405180910390fd5b805181620005639062000cec565b60001c1760001b915050919050565b6000819050919050565b6200058e82826200068c60201b60201c565b6200066957600160008084815260200190815260200160002060000160008373ffffffffffffffffffffffffffffffffffffffff1673ffffffffffffffffffffffffffffffffffffffff16815260200190815260200160002060006101000a81548160ff0219169083151502179055506200060e620006f660201b60201c565b73ffffffffffffffffffffffffffffffffffffffff168173ffffffffffffffffffffffffffffffffffffffff16837f2f8788117e7eff1d82e926ec794901d17c78024a50270940304540a733656f0d60405160405180910390a45b5050565b6000806000838152602001908152602001600020600101549050919050565b600080600084815260200190815260200160002060000160008373ffffffffffffffffffffffffffffffffffffffff1673ffffffffffffffffffffffffffffffffffffffff16815260200190815260200160002060009054906101000a900460ff16905092915050565b600033905090565b600080fd5b6000819050919050565b620007188162000703565b81146200072457600080fd5b50565b60008151905062000738816200070d565b92915050565b600060208284031215620007575762000756620006fe565b5b6000620007678482850162000727565b91505092915050565b600081519050919050565b7f4e487b7100000000000000000000000000000000000000000000000000000000600052604160045260246000fd5b7f4e487b7100000000000000000000000000000000000000000000000000000000600052602260045260246000fd5b60006002820490506001821680620007f257607f821691505b602082108103620008085762000807620007aa565b5b50919050565b60008190508160005260206000209050919050565b60006020601f8301049050919050565b600082821b905092915050565b600060088302620008727fffffffffffffffffffffffffffffffffffffffffffffffffffffffffffffffff8262000833565b6200087e868362000833565b95508019841693508086168417925050509392505050565b6000819050919050565b6000620008c1620008bb620008b58462000703565b62000896565b62000703565b9050919050565b6000819050919050565b620008dd83620008a0565b620008f5620008ec82620008c8565b84845462000840565b825550505050565b600090565b6200090c620008fd565b62000919818484620008d2565b505050565b5b8181101562000941576200093560008262000902565b6001810190506200091f565b5050565b601f82111562000990576200095a816200080e565b620009658462000823565b8101602085101562000975578190505b6200098d620009848562000823565b8301826200091e565b50505b505050565b600082821c905092915050565b6000620009b56000198460080262000995565b1980831691505092915050565b6000620009d08383620009a2565b9150826002028217905092915050565b620009eb8262000770565b67ffffffffffffffff81111562000a075762000a066200077b565b5b62000a138254620007d9565b62000a2082828562000945565b600060209050601f83116001811462000a58576000841562000a43578287015190505b62000a4f8582620009c2565b86555062000abf565b601f19841662000a68866200080e565b60005b8281101562000a925784890151825560018201915060208501945060208101905062000a6b565b8683101562000ab2578489015162000aae601f891682620009a2565b8355505b6001600288020188555050505b505050505050565b600082825260208201905092915050565b7f45524332304361707065643a2063617020697320300000000000000000000000600082015250565b600062000b1060158362000ac7565b915062000b1d8262000ad8565b602082019050919050565b6000602082019050818103600083015262000b438162000b01565b9050919050565b6000819050919050565b62000b5f8162000b4a565b82525050565b62000b708162000703565b82525050565b600073ffffffffffffffffffffffffffffffffffffffff82169050919050565b600062000ba38262000b76565b9050919050565b62000bb58162000b96565b82525050565b600060a08201905062000bd2600083018862000b54565b62000be1602083018762000b54565b62000bf0604083018662000b54565b62000bff606083018562000b65565b62000c0e608083018462000baa565b9695505050505050565b60005b8381101562000c3857808201518184015260208101905062000c1b565b60008484015250505050565b6000601f19601f8301169050919050565b600062000c628262000770565b62000c6e818562000ac7565b935062000c8081856020860162000c18565b62000c8b8162000c44565b840191505092915050565b6000602082019050818103600083015262000cb2818462000c55565b905092915050565b600081519050919050565b6000819050602082019050919050565b600062000ce3825162000b4a565b80915050919050565b600062000cf98262000cba565b8262000d058462000cc5565b905062000d128162000cd5565b9250602082101562000d555762000d507fffffffffffffffffffffffffffffffffffffffffffffffffffffffffffffffff8360200360080262000833565b831692505b5050919050565b60805160a05160c05160e05161010051610120516101405161016051615adc62000dc26000396000610fab01526000610f77015260006126800152600061265f01526000611e4c01526000611ea201526000611ecb01526000610a020152615adc6000f3fe608060405234801561001057600080fd5b506004361061025e5760003560e01c806370a08231116101465780639ab24eb0116100c3578063d505accf11610087578063d505accf14610779578063d539139314610795578063d547741f146107b3578063dd62ed3e146107cf578063e63ab1e9146107ff578063f1127ed81461081d5761025e565b80639ab24eb0146106af578063a217fddf146106df578063a457c2d7146106fd578063a9059cbb1461072d578063c3cda5201461075d5761025e565b806384b0196e1161010a57806384b0196e146105ef5780638e539e8c1461061357806391d148541461064357806391ddadf41461067357806395d89b41146106915761025e565b806370a082311461054b57806375b238fc1461057b57806379cc6790146105995780637ecebe00146105b55780638456cb59146105e55761025e565b806336568abe116101df57806342966c68116101a357806342966c68146104775780634bf5d7e914610493578063587cde1e146104b15780635c19a95c146104e15780635c975abb146104fd5780636fcfff451461051b5761025e565b806336568abe146103d557806339509351146103f15780633a46b1a8146104215780633f4ba83a1461045157806340c10f191461045b5761025e565b8063248a9ca311610226578063248a9ca31461032f5780632f2ff15d1461035f578063313ce5671461037b578063355274ea146103995780633644e515146103b75761025e565b806301ffc9a71461026357806306fdde0314610293578063095ea7b3146102b157806318160ddd146102e157806323b872dd146102ff575b600080fd5b61027d60048036038101906102789190613a4f565b61084d565b60405161028a9190613a97565b60405180910390f35b61029b6108c7565b6040516102a89190613b42565b60405180910390f35b6102cb60048036038101906102c69190613bf8565b610959565b6040516102d89190613a97565b60405180910390f35b6102e961097c565b6040516102f69190613c47565b60405180910390f35b61031960048036038101906103149190613c62565b610986565b6040516103269190613a97565b60405180910390f35b61034960048036038101906103449190613ceb565b6109b5565b6040516103569190613d27565b60405180910390f35b61037960048036038101906103749190613d42565b6109d4565b005b6103836109f5565b6040516103909190613d9e565b60405180910390f35b6103a16109fe565b6040516103ae9190613c47565b60405180910390f35b6103bf610a26565b6040516103cc9190613d27565b60405180910390f35b6103ef60048036038101906103ea9190613d42565b610a35565b005b61040b60048036038101906104069190613bf8565b610ab8565b6040516104189190613a97565b60405180910390f35b61043b60048036038101906104369190613bf8565b610aef565b6040516104489190613c47565b60405180910390f35b610459610b92565b005b61047560048036038101906104709190613bf8565b610c0c565b005b610491600480360381019061048c9190613db9565b610c83565b005b61049b610c97565b6040516104a89190613b42565b60405180910390f35b6104cb60048036038101906104c69190613de6565b610d25565b6040516104d89190613e22565b60405180910390f35b6104fb60048036038101906104f69190613de6565b610d8e565b005b610505610da2565b6040516105129190613a97565b60405180910390f35b61053560048036038101906105309190613de6565b610db9565b6040516105429190613e5c565b60405180910390f35b61056560048036038101906105609190613de6565b610e0d565b6040516105729190613c47565b60405180910390f35b610583610e56565b6040516105909190613d27565b60405180910390f35b6105b360048036038101906105ae9190613bf8565b610e7a565b005b6105cf60048036038101906105ca9190613de6565b610e9a565b6040516105dc9190613c47565b60405180910390f35b6105ed610eea565b005b6105f7610f64565b60405161060a9796959493929190613f70565b60405180910390f35b61062d60048036038101906106289190613db9565b611066565b60405161063a9190613c47565b60405180910390f35b61065d60048036038101906106589190613d42565b6110cb565b60405161066a9190613a97565b60405180910390f35b61067b611135565b6040516106889190614015565b60405180910390f35b610699611145565b6040516106a69190613b42565b60405180910390f35b6106c960048036038101906106c49190613de6565b6111d7565b6040516106d69190613c47565b60405180910390f35b6106e76112df565b6040516106f49190613d27565b60405180910390f35b61071760048036038101906107129190613bf8565b6112e6565b6040516107249190613a97565b60405180910390f35b61074760048036038101906107429190613bf8565b61135d565b6040516107549190613a97565b60405180910390f35b6107776004803603810190610772919061405c565b611380565b005b610793600480360381019061078e91906140e9565b611484565b005b61079d6115c6565b6040516107aa9190613d27565b60405180910390f35b6107cd60048036038101906107c89190613d42565b6115ea565b005b6107e960048036038101906107e4919061418b565b61160b565b6040516107f69190613c47565b60405180910390f35b610807611692565b6040516108149190613d27565b60405180910390f35b610837600480360381019061083291906141f7565b6116b6565b60405161084491906142ac565b60405180910390f35b60007f7965db0b000000000000000000000000000000000000000000000000000000007bffffffffffffffffffffffffffffffffffffffffffffffffffffffff1916827bffffffffffffffffffffffffffffffffffffffffffffffffffffffff191614806108c057506108bf82611814565b5b9050919050565b6060600480546108d6906142f6565b80601f0160208091040260200160405190810160405280929190818152602001828054610902906142f6565b801561094f5780601f106109245761010080835404028352916020019161094f565b820191906000526020600020905b81548152906001019060200180831161093257829003601f168201915b5050505050905090565b60008061096461187e565b9050610971818585611886565b600191505092915050565b6000600354905090565b60008061099161187e565b905061099e858285611a4f565b6109a9858585611adb565b60019150509392505050565b6000806000838152602001908152602001600020600101549050919050565b6109dd826109b5565b6109e681611d54565b6109f08383611d68565b505050565b60006012905090565b60007f0000000000000000000000000000000000000000000000000000000000000000905090565b6000610a30611e48565b905090565b610a3d61187e565b73ffffffffffffffffffffffffffffffffffffffff168173ffffffffffffffffffffffffffffffffffffffff1614610aaa576040517f08c379a0000000000000000000000000000000000000000000000000000000008152600401610aa190614399565b60405180910390fd5b610ab48282611eff565b5050565b600080610ac361187e565b9050610ae4818585610ad5858961160b565b610adf91906143e8565b611886565b600191505092915050565b6000610af9611135565b65ffffffffffff168210610b42576040517f08c379a0000000000000000000000000000000000000000000000000000000008152600401610b3990614468565b60405180910390fd5b610b8a600c60008573ffffffffffffffffffffffffffffffffffffffff1673ffffffffffffffffffffffffffffffffffffffff16815260200190815260200160002083611fe0565b905092915050565b610bc37f65d7a28e3265b37a6474929f336521b332c1681b933f6cb9f3376673440d862a610bbe61187e565b6110cb565b610c02576040517f08c379a0000000000000000000000000000000000000000000000000000000008152600401610bf9906144fa565b60405180910390fd5b610c0a612128565b565b610c367ff0887ba65ee2024ea881d91b74c2450ef19e1557f03bed3ea9f16b037cbe2dc9336110cb565b610c75576040517f08c379a0000000000000000000000000000000000000000000000000000000008152600401610c6c90614566565b60405180910390fd5b610c7f828261218b565b5050565b610c94610c8e61187e565b82612199565b50565b606043610ca2611135565b65ffffffffffff1614610cea576040517f08c379a0000000000000000000000000000000000000000000000000000000008152600401610ce1906145d2565b60405180910390fd5b6040518060400160405280601d81526020017f6d6f64653d626c6f636b6e756d6265722666726f6d3d64656661756c74000000815250905090565b6000600b60008373ffffffffffffffffffffffffffffffffffffffff1673ffffffffffffffffffffffffffffffffffffffff16815260200190815260200160002060009054906101000a900473ffffffffffffffffffffffffffffffffffffffff169050919050565b610d9f610d9961187e565b826121a7565b50565b6000600660009054906101000a900460ff16905090565b6000610e06600c60008473ffffffffffffffffffffffffffffffffffffffff1673ffffffffffffffffffffffffffffffffffffffff168152602001908152602001600020805490506122c1565b9050919050565b6000600160008373ffffffffffffffffffffffffffffffffffffffff1673ffffffffffffffffffffffffffffffffffffffff168152602001908152602001600020549050919050565b7fdf8b4c520ffe197c5343c6f5aec59570151ef9a492f2c624fd45ddde6135ec4281565b610e8c82610e8661187e565b83611a4f565b610e968282612199565b5050565b6000610ee3600960008473ffffffffffffffffffffffffffffffffffffffff1673ffffffffffffffffffffffffffffffffffffffff168152602001908152602001600020612314565b9050919050565b610f1b7f65d7a28e3265b37a6474929f336521b332c1681b933f6cb9f3376673440d862a610f1661187e565b6110cb565b610f5a576040517f08c379a0000000000000000000000000000000000000000000000000000000008152600401610f5190614664565b60405180910390fd5b610f62612322565b565b600060608060008060006060610fa460077f000000000000000000000000000000000000000000000000000000000000000061238590919063ffffffff16565b610fd860087f000000000000000000000000000000000000000000000000000000000000000061238590919063ffffffff16565b46306000801b600067ffffffffffffffff811115610ff957610ff8614684565b5b6040519080825280602002602001820160405280156110275781602001602082028036833780820191505090505b507f0f00000000000000000000000000000000000000000000000000000000000000959493929190965096509650965096509650965090919293949596565b6000611070611135565b65ffffffffffff1682106110b9576040517f08c379a00000000000000000000000000000000000000000000000000000000081526004016110b090614468565b60405180910390fd5b6110c4600d83611fe0565b9050919050565b600080600084815260200190815260200160002060000160008373ffffffffffffffffffffffffffffffffffffffff1673ffffffffffffffffffffffffffffffffffffffff16815260200190815260200160002060009054906101000a900460ff16905092915050565b600061114043612435565b905090565b606060058054611154906142f6565b80601f0160208091040260200160405190810160405280929190818152602001828054611180906142f6565b80156111cd5780601f106111a2576101008083540402835291602001916111cd565b820191906000526020600020905b8154815290600101906020018083116111b057829003601f168201915b5050505050905090565b600080600c60008473ffffffffffffffffffffffffffffffffffffffff1673ffffffffffffffffffffffffffffffffffffffff168152602001908152602001600020805490509050600081146112b657600c60008473ffffffffffffffffffffffffffffffffffffffff1673ffffffffffffffffffffffffffffffffffffffff168152602001908152602001600020600182038154811061127b5761127a6146b3565b5b9060005260206000200160000160049054906101000a90047bffffffffffffffffffffffffffffffffffffffffffffffffffffffff166112b9565b60005b7bffffffffffffffffffffffffffffffffffffffffffffffffffffffff16915050919050565b6000801b81565b6000806112f161187e565b905060006112ff828661160b565b905083811015611344576040517f08c379a000000000000000000000000000000000000000000000000000000000815260040161133b90614754565b60405180910390fd5b6113518286868403611886565b60019250505092915050565b60008061136861187e565b9050611375818585611adb565b600191505092915050565b834211156113c3576040517f08c379a00000000000000000000000000000000000000000000000000000000081526004016113ba906147c0565b60405180910390fd5b600061142561141d7fe48329057bfd03d55e49b547132e39cffd9c1820ad7b9d4c5307691425d15adf89898960405160200161140294939291906147e0565b6040516020818303038152906040528051906020012061248a565b8585856124a4565b9050611430816124cf565b8614611471576040517f08c379a000000000000000000000000000000000000000000000000000000000815260040161146890614871565b60405180910390fd5b61147b81886121a7565b50505050505050565b834211156114c7576040517f08c379a00000000000000000000000000000000000000000000000000000000081526004016114be906148dd565b60405180910390fd5b60007f6e71edae12b1b97f4d1f60370fef10105fa2faae0126114a169c64845d6126c98888886114f68c6124cf565b8960405160200161150c969594939291906148fd565b604051602081830303815290604052805190602001209050600061152f8261248a565b9050600061153f828787876124a4565b90508973ffffffffffffffffffffffffffffffffffffffff168173ffffffffffffffffffffffffffffffffffffffff16146115af576040517f08c379a00000000000000000000000000000000000000000000000000000000081526004016115a6906149aa565b60405180910390fd5b6115ba8a8a8a611886565b50505050505050505050565b7ff0887ba65ee2024ea881d91b74c2450ef19e1557f03bed3ea9f16b037cbe2dc981565b6115f3826109b5565b6115fc81611d54565b6116068383611eff565b505050565b6000600260008473ffffffffffffffffffffffffffffffffffffffff1673ffffffffffffffffffffffffffffffffffffffff16815260200190815260200160002060008373ffffffffffffffffffffffffffffffffffffffff1673ffffffffffffffffffffffffffffffffffffffff16815260200190815260200160002054905092915050565b7f65d7a28e3265b37a6474929f336521b332c1681b933f6cb9f3376673440d862a81565b6116be6139b4565b600c60008473ffffffffffffffffffffffffffffffffffffffff1673ffffffffffffffffffffffffffffffffffffffff1681526020019081526020016000208263ffffffff1681548110611715576117146146b3565b5b906000526020600020016040518060400160405290816000820160009054906101000a900463ffffffff1663ffffffff1663ffffffff1681526020016000820160049054906101000a90047bffffffffffffffffffffffffffffffffffffffffffffffffffffffff167bffffffffffffffffffffffffffffffffffffffffffffffffffffffff167bffffffffffffffffffffffffffffffffffffffffffffffffffffffff1681525050905092915050565b60006020835110156117e2576117db8361252d565b9050611804565b826117ec8361180a565b60000190816117fb9190614b76565b5060ff60001b90505b92915050565b6000819050919050565b60007f01ffc9a7000000000000000000000000000000000000000000000000000000007bffffffffffffffffffffffffffffffffffffffffffffffffffffffff1916827bffffffffffffffffffffffffffffffffffffffffffffffffffffffff1916149050919050565b600033905090565b600073ffffffffffffffffffffffffffffffffffffffff168373ffffffffffffffffffffffffffffffffffffffff16036118f5576040517f08c379a00000000000000000000000000000000000000000000000000000000081526004016118ec90614cba565b60405180910390fd5b600073ffffffffffffffffffffffffffffffffffffffff168273ffffffffffffffffffffffffffffffffffffffff1603611964576040517f08c379a000000000000000000000000000000000000000000000000000000000815260040161195b90614d4c565b60405180910390fd5b80600260008573ffffffffffffffffffffffffffffffffffffffff1673ffffffffffffffffffffffffffffffffffffffff16815260200190815260200160002060008473ffffffffffffffffffffffffffffffffffffffff1673ffffffffffffffffffffffffffffffffffffffff168152602001908152602001600020819055508173ffffffffffffffffffffffffffffffffffffffff168373ffffffffffffffffffffffffffffffffffffffff167f8c5be1e5ebec7d5bd14f71427d1e84f3dd0314c0f7b2291e5b200ac8c7c3b92583604051611a429190613c47565b60405180910390a3505050565b6000611a5b848461160b565b90507fffffffffffffffffffffffffffffffffffffffffffffffffffffffffffffffff8114611ad55781811015611ac7576040517f08c379a0000000000000000000000000000000000000000000000000000000008152600401611abe90614db8565b60405180910390fd5b611ad48484848403611886565b5b50505050565b600073ffffffffffffffffffffffffffffffffffffffff168373ffffffffffffffffffffffffffffffffffffffff1603611b4a576040517f08c379a0000000000000000000000000000000000000000000000000000000008152600401611b4190614e4a565b60405180910390fd5b600073ffffffffffffffffffffffffffffffffffffffff168273ffffffffffffffffffffffffffffffffffffffff1603611bb9576040517f08c379a0000000000000000000000000000000000000000000000000000000008152600401611bb090614edc565b60405180910390fd5b611bc4838383612595565b6000600160008573ffffffffffffffffffffffffffffffffffffffff1673ffffffffffffffffffffffffffffffffffffffff16815260200190815260200160002054905081811015611c4b576040517f08c379a0000000000000000000000000000000000000000000000000000000008152600401611c4290614f6e565b60405180910390fd5b818103600160008673ffffffffffffffffffffffffffffffffffffffff1673ffffffffffffffffffffffffffffffffffffffff1681526020019081526020016000208190555081600160008573ffffffffffffffffffffffffffffffffffffffff1673ffffffffffffffffffffffffffffffffffffffff168152602001908152602001600020600082825401925050819055508273ffffffffffffffffffffffffffffffffffffffff168473ffffffffffffffffffffffffffffffffffffffff167fddf252ad1be2c89b69c2b068fc378daa952ba7f163c4a11628f55a4df523b3ef84604051611d3b9190613c47565b60405180910390a3611d4e8484846125a5565b50505050565b611d6581611d6061187e565b6125b5565b50565b611d7282826110cb565b611e4457600160008084815260200190815260200160002060000160008373ffffffffffffffffffffffffffffffffffffffff1673ffffffffffffffffffffffffffffffffffffffff16815260200190815260200160002060006101000a81548160ff021916908315150217905550611de961187e565b73ffffffffffffffffffffffffffffffffffffffff168173ffffffffffffffffffffffffffffffffffffffff16837f2f8788117e7eff1d82e926ec794901d17c78024a50270940304540a733656f0d60405160405180910390a45b5050565b60007f000000000000000000000000000000000000000000000000000000000000000073ffffffffffffffffffffffffffffffffffffffff163073ffffffffffffffffffffffffffffffffffffffff16148015611ec457507f000000000000000000000000000000000000000000000000000000000000000046145b15611ef1577f00000000000000000000000000000000000000000000000000000000000000009050611efc565b611ef961263a565b90505b90565b611f0982826110cb565b15611fdc57600080600084815260200190815260200160002060000160008373ffffffffffffffffffffffffffffffffffffffff1673ffffffffffffffffffffffffffffffffffffffff16815260200190815260200160002060006101000a81548160ff021916908315150217905550611f8161187e565b73ffffffffffffffffffffffffffffffffffffffff168173ffffffffffffffffffffffffffffffffffffffff16837ff6391f5c32d9c69d2a47ea670b442974b53935d1edc7fd64eb21e047a839171b60405160405180910390a45b5050565b600080838054905090506000808290506005831115612056576000612004846126d0565b8461200f9190614f8e565b90508561201c88836127c9565b60000160009054906101000a900463ffffffff1663ffffffff16111561204457809150612054565b60018161205191906143e8565b92505b505b5b808210156120b657600061206b83836127de565b90508561207888836127c9565b60000160009054906101000a900463ffffffff1663ffffffff1611156120a0578091506120b0565b6001816120ad91906143e8565b92505b50612057565b600081146120fc576120cb86600183036127c9565b60000160049054906101000a90047bffffffffffffffffffffffffffffffffffffffffffffffffffffffff166120ff565b60005b7bffffffffffffffffffffffffffffffffffffffffffffffffffffffff16935050505092915050565b612130612804565b6000600660006101000a81548160ff0219169083151502179055507f5db9ee0a495bf2e6ff9c91a7834c1ba4fdd244a5e8aa4e537bd38aeae4b073aa61217461187e565b6040516121819190613e22565b60405180910390a1565b612195828261284d565b5050565b6121a382826128da565b5050565b60006121b283610d25565b905060006121bf84610e0d565b905082600b60008673ffffffffffffffffffffffffffffffffffffffff1673ffffffffffffffffffffffffffffffffffffffff16815260200190815260200160002060006101000a81548173ffffffffffffffffffffffffffffffffffffffff021916908373ffffffffffffffffffffffffffffffffffffffff1602179055508273ffffffffffffffffffffffffffffffffffffffff168273ffffffffffffffffffffffffffffffffffffffff168573ffffffffffffffffffffffffffffffffffffffff167f3134e8a2e6d97e929a7e54011ea5485d7d196dd5f0ba4d4ef95803e8e3fc257f60405160405180910390a46122bb8284836128f8565b50505050565b600063ffffffff801682111561230c576040517f08c379a000000000000000000000000000000000000000000000000000000000815260040161230390615034565b60405180910390fd5b819050919050565b600081600001549050919050565b61232a612af1565b6001600660006101000a81548160ff0219169083151502179055507f62e78cea01bee320cd4e420270b5ea74000d11b0c9f74754ebdbfc544b05a25861236e61187e565b60405161237b9190613e22565b60405180910390a1565b606060ff60001b83146123a25761239b83612b3b565b905061242f565b8180546123ae906142f6565b80601f01602080910402602001604051908101604052809291908181526020018280546123da906142f6565b80156124275780601f106123fc57610100808354040283529160200191612427565b820191906000526020600020905b81548152906001019060200180831161240a57829003601f168201915b505050505090505b92915050565b600065ffffffffffff8016821115612482576040517f08c379a0000000000000000000000000000000000000000000000000000000008152600401612479906150c6565b60405180910390fd5b819050919050565b600061249d612497611e48565b83612baf565b9050919050565b60008060006124b587878787612bf0565b915091506124c281612cd2565b8192505050949350505050565b600080600960008473ffffffffffffffffffffffffffffffffffffffff1673ffffffffffffffffffffffffffffffffffffffff168152602001908152602001600020905061251c81612314565b915061252781612e38565b50919050565b600080829050601f8151111561257a57826040517f305a27a90000000000000000000000000000000000000000000000000000000081526004016125719190613b42565b60405180910390fd5b80518161258690615116565b60001c1760001b915050919050565b6125a0838383612e4e565b505050565b6125b0838383612ea6565b505050565b6125bf82826110cb565b612636576125cc81612ed1565b6125da8360001c6020612efe565b6040516020016125eb929190615251565b6040516020818303038152906040526040517f08c379a000000000000000000000000000000000000000000000000000000000815260040161262d9190613b42565b60405180910390fd5b5050565b60007f8b73c3c69bb8fe3d512ecc4cf759cc79239f7b179b0ffacaa9a75d522b39400f7f00000000000000000000000000000000000000000000000000000000000000007f000000000000000000000000000000000000000000000000000000000000000046306040516020016126b595949392919061528b565b60405160208183030381529060405280519060200120905090565b60008082036126e257600090506127c4565b600060016126ef8461313a565b901c6001901b90506001818481612709576127086152de565b5b048201901c90506001818481612722576127216152de565b5b048201901c9050600181848161273b5761273a6152de565b5b048201901c90506001818481612754576127536152de565b5b048201901c9050600181848161276d5761276c6152de565b5b048201901c90506001818481612786576127856152de565b5b048201901c9050600181848161279f5761279e6152de565b5b048201901c90506127c0818285816127ba576127b96152de565b5b0461321b565b9150505b919050565b60008260005281602060002001905092915050565b600060028284186127ef919061530d565b8284166127fc91906143e8565b905092915050565b61280c610da2565b61284b576040517f08c379a00000000000000000000000000000000000000000000000000000000081526004016128429061538a565b60405180910390fd5b565b6128578282613234565b61285f61329e565b7bffffffffffffffffffffffffffffffffffffffffffffffffffffffff1661288561097c565b11156128c6576040517f08c379a00000000000000000000000000000000000000000000000000000000081526004016128bd9061541c565b60405180910390fd5b6128d4600d6132c2836132d8565b50505050565b6128e482826135b3565b6128f2600d613782836132d8565b50505050565b8173ffffffffffffffffffffffffffffffffffffffff168373ffffffffffffffffffffffffffffffffffffffff16141580156129345750600081115b15612aec57600073ffffffffffffffffffffffffffffffffffffffff168373ffffffffffffffffffffffffffffffffffffffff1614612a12576000806129bb600c60008773ffffffffffffffffffffffffffffffffffffffff1673ffffffffffffffffffffffffffffffffffffffff168152602001908152602001600020613782856132d8565b915091508473ffffffffffffffffffffffffffffffffffffffff167fdec2bacdd2f05b59de34da9b523dff8be42e5e38e818c82fdb0bae774387a7248383604051612a0792919061543c565b60405180910390a250505b600073ffffffffffffffffffffffffffffffffffffffff168273ffffffffffffffffffffffffffffffffffffffff1614612aeb57600080612a94600c60008673ffffffffffffffffffffffffffffffffffffffff1673ffffffffffffffffffffffffffffffffffffffff1681526020019081526020016000206132c2856132d8565b915091508373ffffffffffffffffffffffffffffffffffffffff167fdec2bacdd2f05b59de34da9b523dff8be42e5e38e818c82fdb0bae774387a7248383604051612ae092919061543c565b60405180910390a250505b5b505050565b612af9610da2565b15612b39576040517f08c379a0000000000000000000000000000000000000000000000000000000008152600401612b30906154b1565b60405180910390fd5b565b60606000612b4883613798565b90506000602067ffffffffffffffff811115612b6757612b66614684565b5b6040519080825280601f01601f191660200182016040528015612b995781602001600182028036833780820191505090505b5090508181528360208201528092505050919050565b60006040517f190100000000000000000000000000000000000000000000000000000000000081528360028201528260228201526042812091505092915050565b6000807f7fffffffffffffffffffffffffffffff5d576e7357a4501ddfe92f46681b20a08360001c1115612c2b576000600391509150612cc9565b600060018787878760405160008152602001604052604051612c5094939291906154d1565b6020604051602081039080840390855afa158015612c72573d6000803e3d6000fd5b505050602060405103519050600073ffffffffffffffffffffffffffffffffffffffff168173ffffffffffffffffffffffffffffffffffffffff1603612cc057600060019250925050612cc9565b80600092509250505b94509492505050565b60006004811115612ce657612ce5615516565b5b816004811115612cf957612cf8615516565b5b0315612e355760016004811115612d1357612d12615516565b5b816004811115612d2657612d25615516565b5b03612d66576040517f08c379a0000000000000000000000000000000000000000000000000000000008152600401612d5d90615591565b60405180910390fd5b60026004811115612d7a57612d79615516565b5b816004811115612d8d57612d8c615516565b5b03612dcd576040517f08c379a0000000000000000000000000000000000000000000000000000000008152600401612dc4906155fd565b60405180910390fd5b60036004811115612de157612de0615516565b5b816004811115612df457612df3615516565b5b03612e34576040517f08c379a0000000000000000000000000000000000000000000000000000000008152600401612e2b9061568f565b60405180910390fd5b5b50565b6001816000016000828254019250508190555050565b612e598383836137e8565b612e61610da2565b15612ea1576040517f08c379a0000000000000000000000000000000000000000000000000000000008152600401612e9890615721565b60405180910390fd5b505050565b612eb18383836137ed565b612ecc612ebd84610d25565b612ec684610d25565b836128f8565b505050565b6060612ef78273ffffffffffffffffffffffffffffffffffffffff16601460ff16612efe565b9050919050565b606060006002836002612f119190615741565b612f1b91906143e8565b67ffffffffffffffff811115612f3457612f33614684565b5b6040519080825280601f01601f191660200182016040528015612f665781602001600182028036833780820191505090505b5090507f300000000000000000000000000000000000000000000000000000000000000081600081518110612f9e57612f9d6146b3565b5b60200101907effffffffffffffffffffffffffffffffffffffffffffffffffffffffffffff1916908160001a9053507f780000000000000000000000000000000000000000000000000000000000000081600181518110613002576130016146b3565b5b60200101907effffffffffffffffffffffffffffffffffffffffffffffffffffffffffffff1916908160001a905350600060018460026130429190615741565b61304c91906143e8565b90505b60018111156130ec577f3031323334353637383961626364656600000000000000000000000000000000600f86166010811061308e5761308d6146b3565b5b1a60f81b8282815181106130a5576130a46146b3565b5b60200101907effffffffffffffffffffffffffffffffffffffffffffffffffffffffffffff1916908160001a905350600485901c9450806130e590615783565b905061304f565b5060008414613130576040517f08c379a0000000000000000000000000000000000000000000000000000000008152600401613127906157f8565b60405180910390fd5b8091505092915050565b600080600090506000608084901c111561315c57608083901c92506080810190505b6000604084901c111561317757604083901c92506040810190505b6000602084901c111561319257602083901c92506020810190505b6000601084901c11156131ad57601083901c92506010810190505b6000600884901c11156131c857600883901c92506008810190505b6000600484901c11156131e357600483901c92506004810190505b6000600284901c11156131fe57600283901c92506002810190505b6000600184901c1115613212576001810190505b80915050919050565b600081831061322a578161322c565b825b905092915050565b61323c6109fe565b8161324561097c565b61324f91906143e8565b1115613290576040517f08c379a000000000000000000000000000000000000000000000000000000000815260040161328790615864565b60405180910390fd5b61329a82826137f2565b5050565b60007bffffffffffffffffffffffffffffffffffffffffffffffffffffffff905090565b600081836132d091906143e8565b905092915050565b600080600085805490509050600080821461339e576132fa87600184036127c9565b6040518060400160405290816000820160009054906101000a900463ffffffff1663ffffffff1663ffffffff1681526020016000820160049054906101000a90047bffffffffffffffffffffffffffffffffffffffffffffffffffffffff167bffffffffffffffffffffffffffffffffffffffffffffffffffffffff167bffffffffffffffffffffffffffffffffffffffffffffffffffffffff16815250506133da565b6040518060400160405280600063ffffffff16815260200160007bffffffffffffffffffffffffffffffffffffffffffffffffffffffff168152505b905080602001517bffffffffffffffffffffffffffffffffffffffffffffffffffffffff16935061340f84868863ffffffff16565b92506000821180156134395750613424611135565b65ffffffffffff16816000015163ffffffff16145b156134aa5761344783613949565b61345488600185036127c9565b60000160046101000a8154817bffffffffffffffffffffffffffffffffffffffffffffffffffffffff02191690837bffffffffffffffffffffffffffffffffffffffffffffffffffffffff1602179055506135a9565b8660405180604001604052806134ce6134c1611135565b65ffffffffffff166122c1565b63ffffffff1681526020016134e286613949565b7bffffffffffffffffffffffffffffffffffffffffffffffffffffffff168152509080600181540180825580915050600190039060005260206000200160009091909190915060008201518160000160006101000a81548163ffffffff021916908363ffffffff16021790555060208201518160000160046101000a8154817bffffffffffffffffffffffffffffffffffffffffffffffffffffffff02191690837bffffffffffffffffffffffffffffffffffffffffffffffffffffffff16021790555050505b5050935093915050565b600073ffffffffffffffffffffffffffffffffffffffff168273ffffffffffffffffffffffffffffffffffffffff1603613622576040517f08c379a0000000000000000000000000000000000000000000000000000000008152600401613619906158f6565b60405180910390fd5b61362e82600083612595565b6000600160008473ffffffffffffffffffffffffffffffffffffffff1673ffffffffffffffffffffffffffffffffffffffff168152602001908152602001600020549050818110156136b5576040517f08c379a00000000000000000000000000000000000000000000000000000000081526004016136ac90615988565b60405180910390fd5b818103600160008573ffffffffffffffffffffffffffffffffffffffff1673ffffffffffffffffffffffffffffffffffffffff1681526020019081526020016000208190555081600360008282540392505081905550600073ffffffffffffffffffffffffffffffffffffffff168373ffffffffffffffffffffffffffffffffffffffff167fddf252ad1be2c89b69c2b068fc378daa952ba7f163c4a11628f55a4df523b3ef846040516137699190613c47565b60405180910390a361377d836000846125a5565b505050565b600081836137909190614f8e565b905092915050565b60008060ff8360001c169050601f8111156137df576040517fb3512b0c00000000000000000000000000000000000000000000000000000000815260040160405180910390fd5b80915050919050565b505050565b505050565b600073ffffffffffffffffffffffffffffffffffffffff168273ffffffffffffffffffffffffffffffffffffffff1603613861576040517f08c379a0000000000000000000000000000000000000000000000000000000008152600401613858906159f4565b60405180910390fd5b61386d60008383612595565b806003600082825461387f91906143e8565b9250508190555080600160008473ffffffffffffffffffffffffffffffffffffffff1673ffffffffffffffffffffffffffffffffffffffff168152602001908152602001600020600082825401925050819055508173ffffffffffffffffffffffffffffffffffffffff16600073ffffffffffffffffffffffffffffffffffffffff167fddf252ad1be2c89b69c2b068fc378daa952ba7f163c4a11628f55a4df523b3ef836040516139319190613c47565b60405180910390a3613945600083836125a5565b5050565b60007bffffffffffffffffffffffffffffffffffffffffffffffffffffffff80168211156139ac576040517f08c379a00000000000000000000000000000000000000000000000000000000081526004016139a390615a86565b60405180910390fd5b819050919050565b6040518060400160405280600063ffffffff16815260200160007bffffffffffffffffffffffffffffffffffffffffffffffffffffffff1681525090565b600080fd5b60007fffffffff0000000000000000000000000000000000000000000000000000000082169050919050565b613a2c816139f7565b8114613a3757600080fd5b50565b600081359050613a4981613a23565b92915050565b600060208284031215613a6557613a646139f2565b5b6000613a7384828501613a3a565b91505092915050565b60008115159050919050565b613a9181613a7c565b82525050565b6000602082019050613aac6000830184613a88565b92915050565b600081519050919050565b600082825260208201905092915050565b60005b83811015613aec578082015181840152602081019050613ad1565b60008484015250505050565b6000601f19601f8301169050919050565b6000613b1482613ab2565b613b1e8185613abd565b9350613b2e818560208601613ace565b613b3781613af8565b840191505092915050565b60006020820190508181036000830152613b5c8184613b09565b905092915050565b600073ffffffffffffffffffffffffffffffffffffffff82169050919050565b6000613b8f82613b64565b9050919050565b613b9f81613b84565b8114613baa57600080fd5b50565b600081359050613bbc81613b96565b92915050565b6000819050919050565b613bd581613bc2565b8114613be057600080fd5b50565b600081359050613bf281613bcc565b92915050565b60008060408385031215613c0f57613c0e6139f2565b5b6000613c1d85828601613bad565b9250506020613c2e85828601613be3565b9150509250929050565b613c4181613bc2565b82525050565b6000602082019050613c5c6000830184613c38565b92915050565b600080600060608486031215613c7b57613c7a6139f2565b5b6000613c8986828701613bad565b9350506020613c9a86828701613bad565b9250506040613cab86828701613be3565b9150509250925092565b6000819050919050565b613cc881613cb5565b8114613cd357600080fd5b50565b600081359050613ce581613cbf565b92915050565b600060208284031215613d0157613d006139f2565b5b6000613d0f84828501613cd6565b91505092915050565b613d2181613cb5565b82525050565b6000602082019050613d3c6000830184613d18565b92915050565b60008060408385031215613d5957613d586139f2565b5b6000613d6785828601613cd6565b9250506020613d7885828601613bad565b9150509250929050565b600060ff82169050919050565b613d9881613d82565b82525050565b6000602082019050613db36000830184613d8f565b92915050565b600060208284031215613dcf57613dce6139f2565b5b6000613ddd84828501613be3565b91505092915050565b600060208284031215613dfc57613dfb6139f2565b5b6000613e0a84828501613bad565b91505092915050565b613e1c81613b84565b82525050565b6000602082019050613e376000830184613e13565b92915050565b600063ffffffff82169050919050565b613e5681613e3d565b82525050565b6000602082019050613e716000830184613e4d565b92915050565b60007fff0000000000000000000000000000000000000000000000000000000000000082169050919050565b613eac81613e77565b82525050565b600081519050919050565b600082825260208201905092915050565b6000819050602082019050919050565b613ee781613bc2565b82525050565b6000613ef98383613ede565b60208301905092915050565b6000602082019050919050565b6000613f1d82613eb2565b613f278185613ebd565b9350613f3283613ece565b8060005b83811015613f63578151613f4a8882613eed565b9750613f5583613f05565b925050600181019050613f36565b5085935050505092915050565b600060e082019050613f85600083018a613ea3565b8181036020830152613f978189613b09565b90508181036040830152613fab8188613b09565b9050613fba6060830187613c38565b613fc76080830186613e13565b613fd460a0830185613d18565b81810360c0830152613fe68184613f12565b905098975050505050505050565b600065ffffffffffff82169050919050565b61400f81613ff4565b82525050565b600060208201905061402a6000830184614006565b92915050565b61403981613d82565b811461404457600080fd5b50565b60008135905061405681614030565b92915050565b60008060008060008060c08789031215614079576140786139f2565b5b600061408789828a01613bad565b965050602061409889828a01613be3565b95505060406140a989828a01613be3565b94505060606140ba89828a01614047565b93505060806140cb89828a01613cd6565b92505060a06140dc89828a01613cd6565b9150509295509295509295565b600080600080600080600060e0888a031215614108576141076139f2565b5b60006141168a828b01613bad565b97505060206141278a828b01613bad565b96505060406141388a828b01613be3565b95505060606141498a828b01613be3565b945050608061415a8a828b01614047565b93505060a061416b8a828b01613cd6565b92505060c061417c8a828b01613cd6565b91505092959891949750929550565b600080604083850312156141a2576141a16139f2565b5b60006141b085828601613bad565b92505060206141c185828601613bad565b9150509250929050565b6141d481613e3d565b81146141df57600080fd5b50565b6000813590506141f1816141cb565b92915050565b6000806040838503121561420e5761420d6139f2565b5b600061421c85828601613bad565b925050602061422d858286016141e2565b9150509250929050565b61424081613e3d565b82525050565b60007bffffffffffffffffffffffffffffffffffffffffffffffffffffffff82169050919050565b61427781614246565b82525050565b6040820160008201516142936000850182614237565b5060208201516142a6602085018261426e565b50505050565b60006040820190506142c1600083018461427d565b92915050565b7f4e487b7100000000000000000000000000000000000000000000000000000000600052602260045260246000fd5b6000600282049050600182168061430e57607f821691505b602082108103614321576143206142c7565b5b50919050565b7f416363657373436f6e74726f6c3a2063616e206f6e6c792072656e6f756e636560008201527f20726f6c657320666f722073656c660000000000000000000000000000000000602082015250565b6000614383602f83613abd565b915061438e82614327565b604082019050919050565b600060208201905081810360008301526143b281614376565b9050919050565b7f4e487b7100000000000000000000000000000000000000000000000000000000600052601160045260246000fd5b60006143f382613bc2565b91506143fe83613bc2565b9250828201905080821115614416576144156143b9565b5b92915050565b7f4552433230566f7465733a20667574757265206c6f6f6b757000000000000000600082015250565b6000614452601983613abd565b915061445d8261441c565b602082019050919050565b6000602082019050818103600083015261448181614445565b9050919050565b7f45524332305072657365744d696e7465725061757365723a206d75737420686160008201527f76652070617573657220726f6c6520746f20756e706175736500000000000000602082015250565b60006144e4603983613abd565b91506144ef82614488565b604082019050919050565b60006020820190508181036000830152614513816144d7565b9050919050565b7f4c4954546f6b656e3a206f6e6c79206d696e7465720000000000000000000000600082015250565b6000614550601583613abd565b915061455b8261451a565b602082019050919050565b6000602082019050818103600083015261457f81614543565b9050919050565b7f4552433230566f7465733a2062726f6b656e20636c6f636b206d6f6465000000600082015250565b60006145bc601d83613abd565b91506145c782614586565b602082019050919050565b600060208201905081810360008301526145eb816145af565b9050919050565b7f45524332305072657365744d696e7465725061757365723a206d75737420686160008201527f76652070617573657220726f6c6520746f207061757365000000000000000000602082015250565b600061464e603783613abd565b9150614659826145f2565b604082019050919050565b6000602082019050818103600083015261467d81614641565b9050919050565b7f4e487b7100000000000000000000000000000000000000000000000000000000600052604160045260246000fd5b7f4e487b7100000000000000000000000000000000000000000000000000000000600052603260045260246000fd5b7f45524332303a2064656372656173656420616c6c6f77616e63652062656c6f7760008201527f207a65726f000000000000000000000000000000000000000000000000000000602082015250565b600061473e602583613abd565b9150614749826146e2565b604082019050919050565b6000602082019050818103600083015261476d81614731565b9050919050565b7f4552433230566f7465733a207369676e61747572652065787069726564000000600082015250565b60006147aa601d83613abd565b91506147b582614774565b602082019050919050565b600060208201905081810360008301526147d98161479d565b9050919050565b60006080820190506147f56000830187613d18565b6148026020830186613e13565b61480f6040830185613c38565b61481c6060830184613c38565b95945050505050565b7f4552433230566f7465733a20696e76616c6964206e6f6e636500000000000000600082015250565b600061485b601983613abd565b915061486682614825565b602082019050919050565b6000602082019050818103600083015261488a8161484e565b9050919050565b7f45524332305065726d69743a206578706972656420646561646c696e65000000600082015250565b60006148c7601d83613abd565b91506148d282614891565b602082019050919050565b600060208201905081810360008301526148f6816148ba565b9050919050565b600060c0820190506149126000830189613d18565b61491f6020830188613e13565b61492c6040830187613e13565b6149396060830186613c38565b6149466080830185613c38565b61495360a0830184613c38565b979650505050505050565b7f45524332305065726d69743a20696e76616c6964207369676e61747572650000600082015250565b6000614994601e83613abd565b915061499f8261495e565b602082019050919050565b600060208201905081810360008301526149c381614987565b9050919050565b60008190508160005260206000209050919050565b60006020601f8301049050919050565b600082821b905092915050565b600060088302614a2c7fffffffffffffffffffffffffffffffffffffffffffffffffffffffffffffffff826149ef565b614a3686836149ef565b95508019841693508086168417925050509392505050565b6000819050919050565b6000614a73614a6e614a6984613bc2565b614a4e565b613bc2565b9050919050565b6000819050919050565b614a8d83614a58565b614aa1614a9982614a7a565b8484546149fc565b825550505050565b600090565b614ab6614aa9565b614ac1818484614a84565b505050565b5b81811015614ae557614ada600082614aae565b600181019050614ac7565b5050565b601f821115614b2a57614afb816149ca565b614b04846149df565b81016020851015614b13578190505b614b27614b1f856149df565b830182614ac6565b50505b505050565b600082821c905092915050565b6000614b4d60001984600802614b2f565b1980831691505092915050565b6000614b668383614b3c565b9150826002028217905092915050565b614b7f82613ab2565b67ffffffffffffffff811115614b9857614b97614684565b5b614ba282546142f6565b614bad828285614ae9565b600060209050601f831160018114614be05760008415614bce578287015190505b614bd88582614b5a565b865550614c40565b601f198416614bee866149ca565b60005b82811015614c1657848901518255600182019150602085019450602081019050614bf1565b86831015614c335784890151614c2f601f891682614b3c565b8355505b6001600288020188555050505b505050505050565b7f45524332303a20617070726f76652066726f6d20746865207a65726f2061646460008201527f7265737300000000000000000000000000000000000000000000000000000000602082015250565b6000614ca4602483613abd565b9150614caf82614c48565b604082019050919050565b60006020820190508181036000830152614cd381614c97565b9050919050565b7f45524332303a20617070726f766520746f20746865207a65726f20616464726560008201527f7373000000000000000000000000000000000000000000000000000000000000602082015250565b6000614d36602283613abd565b9150614d4182614cda565b604082019050919050565b60006020820190508181036000830152614d6581614d29565b9050919050565b7f45524332303a20696e73756666696369656e7420616c6c6f77616e6365000000600082015250565b6000614da2601d83613abd565b9150614dad82614d6c565b602082019050919050565b60006020820190508181036000830152614dd181614d95565b9050919050565b7f45524332303a207472616e736665722066726f6d20746865207a65726f20616460008201527f6472657373000000000000000000000000000000000000000000000000000000602082015250565b6000614e34602583613abd565b9150614e3f82614dd8565b604082019050919050565b60006020820190508181036000830152614e6381614e27565b9050919050565b7f45524332303a207472616e7366657220746f20746865207a65726f206164647260008201527f6573730000000000000000000000000000000000000000000000000000000000602082015250565b6000614ec6602383613abd565b9150614ed182614e6a565b604082019050919050565b60006020820190508181036000830152614ef581614eb9565b9050919050565b7f45524332303a207472616e7366657220616d6f756e742065786365656473206260008201527f616c616e63650000000000000000000000000000000000000000000000000000602082015250565b6000614f58602683613abd565b9150614f6382614efc565b604082019050919050565b60006020820190508181036000830152614f8781614f4b565b9050919050565b6000614f9982613bc2565b9150614fa483613bc2565b9250828203905081811115614fbc57614fbb6143b9565b5b92915050565b7f53616665436173743a2076616c756520646f65736e27742066697420696e203360008201527f3220626974730000000000000000000000000000000000000000000000000000602082015250565b600061501e602683613abd565b915061502982614fc2565b604082019050919050565b6000602082019050818103600083015261504d81615011565b9050919050565b7f53616665436173743a2076616c756520646f65736e27742066697420696e203460008201527f3820626974730000000000000000000000000000000000000000000000000000602082015250565b60006150b0602683613abd565b91506150bb82615054565b604082019050919050565b600060208201905081810360008301526150df816150a3565b9050919050565b600081519050919050565b6000819050602082019050919050565b600061510d8251613cb5565b80915050919050565b6000615121826150e6565b8261512b846150f1565b905061513681615101565b92506020821015615176576151717fffffffffffffffffffffffffffffffffffffffffffffffffffffffffffffffff836020036008026149ef565b831692505b5050919050565b600081905092915050565b7f416363657373436f6e74726f6c3a206163636f756e7420000000000000000000600082015250565b60006151be60178361517d565b91506151c982615188565b601782019050919050565b60006151df82613ab2565b6151e9818561517d565b93506151f9818560208601613ace565b80840191505092915050565b7f206973206d697373696e6720726f6c6520000000000000000000000000000000600082015250565b600061523b60118361517d565b915061524682615205565b601182019050919050565b600061525c826151b1565b915061526882856151d4565b91506152738261522e565b915061527f82846151d4565b91508190509392505050565b600060a0820190506152a06000830188613d18565b6152ad6020830187613d18565b6152ba6040830186613d18565b6152c76060830185613c38565b6152d46080830184613e13565b9695505050505050565b7f4e487b7100000000000000000000000000000000000000000000000000000000600052601260045260246000fd5b600061531882613bc2565b915061532383613bc2565b925082615333576153326152de565b5b828204905092915050565b7f5061757361626c653a206e6f7420706175736564000000000000000000000000600082015250565b6000615374601483613abd565b915061537f8261533e565b602082019050919050565b600060208201905081810360008301526153a381615367565b9050919050565b7f4552433230566f7465733a20746f74616c20737570706c79207269736b73206f60008201527f766572666c6f77696e6720766f74657300000000000000000000000000000000602082015250565b6000615406603083613abd565b9150615411826153aa565b604082019050919050565b60006020820190508181036000830152615435816153f9565b9050919050565b60006040820190506154516000830185613c38565b61545e6020830184613c38565b9392505050565b7f5061757361626c653a2070617573656400000000000000000000000000000000600082015250565b600061549b601083613abd565b91506154a682615465565b602082019050919050565b600060208201905081810360008301526154ca8161548e565b9050919050565b60006080820190506154e66000830187613d18565b6154f36020830186613d8f565b6155006040830185613d18565b61550d6060830184613d18565b95945050505050565b7f4e487b7100000000000000000000000000000000000000000000000000000000600052602160045260246000fd5b7f45434453413a20696e76616c6964207369676e61747572650000000000000000600082015250565b600061557b601883613abd565b915061558682615545565b602082019050919050565b600060208201905081810360008301526155aa8161556e565b9050919050565b7f45434453413a20696e76616c6964207369676e6174757265206c656e67746800600082015250565b60006155e7601f83613abd565b91506155f2826155b1565b602082019050919050565b60006020820190508181036000830152615616816155da565b9050919050565b7f45434453413a20696e76616c6964207369676e6174757265202773272076616c60008201527f7565000000000000000000000000000000000000000000000000000000000000602082015250565b6000615679602283613abd565b91506156848261561d565b604082019050919050565b600060208201905081810360008301526156a88161566c565b9050919050565b7f45524332305061757361626c653a20746f6b656e207472616e7366657220776860008201527f696c652070617573656400000000000000000000000000000000000000000000602082015250565b600061570b602a83613abd565b9150615716826156af565b604082019050919050565b6000602082019050818103600083015261573a816156fe565b9050919050565b600061574c82613bc2565b915061575783613bc2565b925082820261576581613bc2565b9150828204841483151761577c5761577b6143b9565b5b5092915050565b600061578e82613bc2565b9150600082036157a1576157a06143b9565b5b600182039050919050565b7f537472696e67733a20686578206c656e67746820696e73756666696369656e74600082015250565b60006157e2602083613abd565b91506157ed826157ac565b602082019050919050565b60006020820190508181036000830152615811816157d5565b9050919050565b7f45524332304361707065643a2063617020657863656564656400000000000000600082015250565b600061584e601983613abd565b915061585982615818565b602082019050919050565b6000602082019050818103600083015261587d81615841565b9050919050565b7f45524332303a206275726e2066726f6d20746865207a65726f2061646472657360008201527f7300000000000000000000000000000000000000000000000000000000000000602082015250565b60006158e0602183613abd565b91506158eb82615884565b604082019050919050565b6000602082019050818103600083015261590f816158d3565b9050919050565b7f45524332303a206275726e20616d6f756e7420657863656564732062616c616e60008201527f6365000000000000000000000000000000000000000000000000000000000000602082015250565b6000615972602283613abd565b915061597d82615916565b604082019050919050565b600060208201905081810360008301526159a181615965565b9050919050565b7f45524332303a206d696e7420746f20746865207a65726f206164647265737300600082015250565b60006159de601f83613abd565b91506159e9826159a8565b602082019050919050565b60006020820190508181036000830152615a0d816159d1565b9050919050565b7f53616665436173743a2076616c756520646f65736e27742066697420696e203260008201527f3234206269747300000000000000000000000000000000000000000000000000602082015250565b6000615a70602783613abd565b9150615a7b82615a14565b604082019050919050565b60006020820190508181036000830152615a9f81615a63565b905091905056fea2646970667358221220230fc725134abd206277f9be1b0f9565542eb7267ee8e5f346c40477040bb53564736f6c63430008110033",
  "linkReferences": {},
  "deployedLinkReferences": {}
}