{
  "_format": "hh-sol-artifact-1",
  "contractName": "PKPHelper",
  "sourceName": "contracts/lit-node/PKPHelper.sol",
  "abi": [
    {
      "inputs": [
        {
          "internalType": "address",
          "name": "_resolver",
          "type": "address"
        },
        {
          "internalType": "enum ContractResolver.Env",
          "name": "_env",
          "type": "uint8"
        }
      ],
      "stateMutability": "nonpayable",
      "type": "constructor"
    },
    {
      "anonymous": false,
      "inputs": [
        {
          "indexed": false,
          "internalType": "address",
          "name": "newResolverAddress",
          "type": "address"
        }
      ],
      "name": "ContractResolverAddressSet",
      "type": "event"
    },
    {
      "anonymous": false,
      "inputs": [
        {
          "indexed": true,
          "internalType": "address",
          "name": "previousOwner",
          "type": "address"
        },
        {
          "indexed": true,
          "internalType": "address",
          "name": "newOwner",
          "type": "address"
        }
      ],
      "name": "OwnershipTransferred",
      "type": "event"
    },
    {
      "anonymous": false,
      "inputs": [
        {
          "indexed": true,
          "internalType": "bytes32",
          "name": "role",
          "type": "bytes32"
        },
        {
          "indexed": true,
          "internalType": "bytes32",
          "name": "previousAdminRole",
          "type": "bytes32"
        },
        {
          "indexed": true,
          "internalType": "bytes32",
          "name": "newAdminRole",
          "type": "bytes32"
        }
      ],
      "name": "RoleAdminChanged",
      "type": "event"
    },
    {
      "anonymous": false,
      "inputs": [
        {
          "indexed": true,
          "internalType": "bytes32",
          "name": "role",
          "type": "bytes32"
        },
        {
          "indexed": true,
          "internalType": "address",
          "name": "account",
          "type": "address"
        },
        {
          "indexed": true,
          "internalType": "address",
          "name": "sender",
          "type": "address"
        }
      ],
      "name": "RoleGranted",
      "type": "event"
    },
    {
      "anonymous": false,
      "inputs": [
        {
          "indexed": true,
          "internalType": "bytes32",
          "name": "role",
          "type": "bytes32"
        },
        {
          "indexed": true,
          "internalType": "address",
          "name": "account",
          "type": "address"
        },
        {
          "indexed": true,
          "internalType": "address",
          "name": "sender",
          "type": "address"
        }
      ],
      "name": "RoleRevoked",
      "type": "event"
    },
    {
      "inputs": [],
      "name": "DEFAULT_ADMIN_ROLE",
      "outputs": [
        {
          "internalType": "bytes32",
          "name": "",
          "type": "bytes32"
        }
      ],
      "stateMutability": "view",
      "type": "function"
    },
    {
      "inputs": [
        {
          "components": [
            {
              "internalType": "uint256",
              "name": "keyType",
              "type": "uint256"
            },
            {
              "internalType": "bytes32",
              "name": "derivedKeyId",
              "type": "bytes32"
            },
            {
              "components": [
                {
                  "internalType": "bytes32",
                  "name": "r",
                  "type": "bytes32"
                },
                {
                  "internalType": "bytes32",
                  "name": "s",
                  "type": "bytes32"
                },
                {
                  "internalType": "uint8",
                  "name": "v",
                  "type": "uint8"
                }
              ],
              "internalType": "struct IPubkeyRouter.Signature[]",
              "name": "signatures",
              "type": "tuple[]"
            }
          ],
          "internalType": "struct LibPKPNFTStorage.ClaimMaterial",
          "name": "claimMaterial",
          "type": "tuple"
        },
        {
          "components": [
            {
              "internalType": "uint256",
              "name": "keyType",
              "type": "uint256"
            },
            {
              "internalType": "bytes[]",
              "name": "permittedIpfsCIDs",
              "type": "bytes[]"
            },
            {
              "internalType": "uint256[][]",
              "name": "permittedIpfsCIDScopes",
              "type": "uint256[][]"
            },
            {
              "internalType": "address[]",
              "name": "permittedAddresses",
              "type": "address[]"
            },
            {
              "internalType": "uint256[][]",
              "name": "permittedAddressScopes",
              "type": "uint256[][]"
            },
            {
              "internalType": "uint256[]",
              "name": "permittedAuthMethodTypes",
              "type": "uint256[]"
            },
            {
              "internalType": "bytes[]",
              "name": "permittedAuthMethodIds",
              "type": "bytes[]"
            },
            {
              "internalType": "bytes[]",
              "name": "permittedAuthMethodPubkeys",
              "type": "bytes[]"
            },
            {
              "internalType": "uint256[][]",
              "name": "permittedAuthMethodScopes",
              "type": "uint256[][]"
            },
            {
              "internalType": "bool",
              "name": "addPkpEthAddressAsPermittedAddress",
              "type": "bool"
            },
            {
              "internalType": "bool",
              "name": "sendPkpToItself",
              "type": "bool"
            }
          ],
          "internalType": "struct PKPHelper.AuthMethodData",
          "name": "authMethodData",
          "type": "tuple"
        }
      ],
      "name": "claimAndMintNextAndAddAuthMethods",
      "outputs": [
        {
          "internalType": "uint256",
          "name": "",
          "type": "uint256"
        }
      ],
      "stateMutability": "payable",
      "type": "function"
    },
    {
      "inputs": [
        {
          "components": [
            {
              "internalType": "uint256",
              "name": "keyType",
              "type": "uint256"
            },
            {
              "internalType": "bytes32",
              "name": "derivedKeyId",
              "type": "bytes32"
            },
            {
              "components": [
                {
                  "internalType": "bytes32",
                  "name": "r",
                  "type": "bytes32"
                },
                {
                  "internalType": "bytes32",
                  "name": "s",
                  "type": "bytes32"
                },
                {
                  "internalType": "uint8",
                  "name": "v",
                  "type": "uint8"
                }
              ],
              "internalType": "struct IPubkeyRouter.Signature[]",
              "name": "signatures",
              "type": "tuple[]"
            }
          ],
          "internalType": "struct LibPKPNFTStorage.ClaimMaterial",
          "name": "claimMaterial",
          "type": "tuple"
        },
        {
          "components": [
            {
              "internalType": "uint256",
              "name": "keyType",
              "type": "uint256"
            },
            {
              "internalType": "bytes[]",
              "name": "permittedIpfsCIDs",
              "type": "bytes[]"
            },
            {
              "internalType": "uint256[][]",
              "name": "permittedIpfsCIDScopes",
              "type": "uint256[][]"
            },
            {
              "internalType": "address[]",
              "name": "permittedAddresses",
              "type": "address[]"
            },
            {
              "internalType": "uint256[][]",
              "name": "permittedAddressScopes",
              "type": "uint256[][]"
            },
            {
              "internalType": "uint256[]",
              "name": "permittedAuthMethodTypes",
              "type": "uint256[]"
            },
            {
              "internalType": "bytes[]",
              "name": "permittedAuthMethodIds",
              "type": "bytes[]"
            },
            {
              "internalType": "bytes[]",
              "name": "permittedAuthMethodPubkeys",
              "type": "bytes[]"
            },
            {
              "internalType": "uint256[][]",
              "name": "permittedAuthMethodScopes",
              "type": "uint256[][]"
            },
            {
              "internalType": "bool",
              "name": "addPkpEthAddressAsPermittedAddress",
              "type": "bool"
            },
            {
              "internalType": "bool",
              "name": "sendPkpToItself",
              "type": "bool"
            }
          ],
          "internalType": "struct PKPHelper.AuthMethodData",
          "name": "authMethodData",
          "type": "tuple"
        }
      ],
      "name": "claimAndMintNextAndAddAuthMethodsWithTypes",
      "outputs": [
        {
          "internalType": "uint256",
          "name": "",
          "type": "uint256"
        }
      ],
      "stateMutability": "payable",
      "type": "function"
    },
    {
      "inputs": [],
      "name": "contractResolver",
      "outputs": [
        {
          "internalType": "contract ContractResolver",
          "name": "",
          "type": "address"
        }
      ],
      "stateMutability": "view",
      "type": "function"
    },
    {
      "inputs": [],
      "name": "env",
      "outputs": [
        {
          "internalType": "enum ContractResolver.Env",
          "name": "",
          "type": "uint8"
        }
      ],
      "stateMutability": "view",
      "type": "function"
    },
    {
      "inputs": [],
      "name": "getDomainWalletRegistry",
      "outputs": [
        {
          "internalType": "address",
          "name": "",
          "type": "address"
        }
      ],
      "stateMutability": "view",
      "type": "function"
    },
    {
      "inputs": [],
      "name": "getPKPNftMetdataAddress",
      "outputs": [
        {
          "internalType": "address",
          "name": "",
          "type": "address"
        }
      ],
      "stateMutability": "view",
      "type": "function"
    },
    {
      "inputs": [],
      "name": "getPkpNftAddress",
      "outputs": [
        {
          "internalType": "address",
          "name": "",
          "type": "address"
        }
      ],
      "stateMutability": "view",
      "type": "function"
    },
    {
      "inputs": [],
      "name": "getPkpPermissionsAddress",
      "outputs": [
        {
          "internalType": "address",
          "name": "",
          "type": "address"
        }
      ],
      "stateMutability": "view",
      "type": "function"
    },
    {
      "inputs": [
        {
          "internalType": "bytes32",
          "name": "role",
          "type": "bytes32"
        }
      ],
      "name": "getRoleAdmin",
      "outputs": [
        {
          "internalType": "bytes32",
          "name": "",
          "type": "bytes32"
        }
      ],
      "stateMutability": "view",
      "type": "function"
    },
    {
      "inputs": [
        {
          "internalType": "bytes32",
          "name": "role",
          "type": "bytes32"
        },
        {
          "internalType": "address",
          "name": "account",
          "type": "address"
        }
      ],
      "name": "grantRole",
      "outputs": [],
      "stateMutability": "nonpayable",
      "type": "function"
    },
    {
      "inputs": [
        {
          "internalType": "bytes32",
          "name": "role",
          "type": "bytes32"
        },
        {
          "internalType": "address",
          "name": "account",
          "type": "address"
        }
      ],
      "name": "hasRole",
      "outputs": [
        {
          "internalType": "bool",
          "name": "",
          "type": "bool"
        }
      ],
      "stateMutability": "view",
      "type": "function"
    },
    {
      "inputs": [
        {
          "internalType": "uint256",
          "name": "keyType",
          "type": "uint256"
        },
        {
          "internalType": "uint256[]",
          "name": "permittedAuthMethodTypes",
          "type": "uint256[]"
        },
        {
          "internalType": "bytes[]",
          "name": "permittedAuthMethodIds",
          "type": "bytes[]"
        },
        {
          "internalType": "bytes[]",
          "name": "permittedAuthMethodPubkeys",
          "type": "bytes[]"
        },
        {
          "internalType": "uint256[][]",
          "name": "permittedAuthMethodScopes",
          "type": "uint256[][]"
        },
        {
          "internalType": "bool",
          "name": "addPkpEthAddressAsPermittedAddress",
          "type": "bool"
        },
        {
          "internalType": "bool",
          "name": "sendPkpToItself",
          "type": "bool"
        }
      ],
      "name": "mintNextAndAddAuthMethods",
      "outputs": [
        {
          "internalType": "uint256",
          "name": "",
          "type": "uint256"
        }
      ],
      "stateMutability": "payable",
      "type": "function"
    },
    {
      "inputs": [
        {
          "internalType": "uint256",
          "name": "keyType",
          "type": "uint256"
        },
        {
          "internalType": "bytes[]",
          "name": "permittedIpfsCIDs",
          "type": "bytes[]"
        },
        {
          "internalType": "uint256[][]",
          "name": "permittedIpfsCIDScopes",
          "type": "uint256[][]"
        },
        {
          "internalType": "address[]",
          "name": "permittedAddresses",
          "type": "address[]"
        },
        {
          "internalType": "uint256[][]",
          "name": "permittedAddressScopes",
          "type": "uint256[][]"
        },
        {
          "internalType": "uint256[]",
          "name": "permittedAuthMethodTypes",
          "type": "uint256[]"
        },
        {
          "internalType": "bytes[]",
          "name": "permittedAuthMethodIds",
          "type": "bytes[]"
        },
        {
          "internalType": "bytes[]",
          "name": "permittedAuthMethodPubkeys",
          "type": "bytes[]"
        },
        {
          "internalType": "uint256[][]",
          "name": "permittedAuthMethodScopes",
          "type": "uint256[][]"
        },
        {
          "internalType": "bool",
          "name": "addPkpEthAddressAsPermittedAddress",
          "type": "bool"
        },
        {
          "internalType": "bool",
          "name": "sendPkpToItself",
          "type": "bool"
        }
      ],
      "name": "mintNextAndAddAuthMethodsWithTypes",
      "outputs": [
        {
          "internalType": "uint256",
          "name": "",
          "type": "uint256"
        }
      ],
      "stateMutability": "payable",
      "type": "function"
    },
    {
      "inputs": [
        {
          "internalType": "uint256",
          "name": "keyType",
          "type": "uint256"
        },
        {
          "internalType": "uint256[]",
          "name": "permittedAuthMethodTypes",
          "type": "uint256[]"
        },
        {
          "internalType": "bytes[]",
          "name": "permittedAuthMethodIds",
          "type": "bytes[]"
        },
        {
          "internalType": "bytes[]",
          "name": "permittedAuthMethodPubkeys",
          "type": "bytes[]"
        },
        {
          "internalType": "uint256[][]",
          "name": "permittedAuthMethodScopes",
          "type": "uint256[][]"
        },
        {
          "internalType": "string[]",
          "name": "nftMetadata",
          "type": "string[]"
        },
        {
          "internalType": "bool",
          "name": "addPkpEthAddressAsPermittedAddress",
          "type": "bool"
        },
        {
          "internalType": "bool",
          "name": "sendPkpToItself",
          "type": "bool"
        }
      ],
      "name": "mintNextAndAddDomainWalletMetadata",
      "outputs": [
        {
          "internalType": "uint256",
          "name": "",
          "type": "uint256"
        }
      ],
      "stateMutability": "payable",
      "type": "function"
    },
    {
      "inputs": [
        {
          "internalType": "address",
          "name": "",
          "type": "address"
        },
        {
          "internalType": "address",
          "name": "",
          "type": "address"
        },
        {
          "internalType": "uint256",
          "name": "",
          "type": "uint256"
        },
        {
          "internalType": "bytes",
          "name": "",
          "type": "bytes"
        }
      ],
      "name": "onERC721Received",
      "outputs": [
        {
          "internalType": "bytes4",
          "name": "",
          "type": "bytes4"
        }
      ],
      "stateMutability": "view",
      "type": "function"
    },
    {
      "inputs": [],
      "name": "owner",
      "outputs": [
        {
          "internalType": "address",
          "name": "",
          "type": "address"
        }
      ],
      "stateMutability": "view",
      "type": "function"
    },
    {
      "inputs": [
        {
          "internalType": "uint256",
          "name": "tokenId",
          "type": "uint256"
        }
      ],
      "name": "removePkpMetadata",
      "outputs": [],
      "stateMutability": "nonpayable",
      "type": "function"
    },
    {
      "inputs": [],
      "name": "renounceOwnership",
      "outputs": [],
      "stateMutability": "nonpayable",
      "type": "function"
    },
    {
      "inputs": [
        {
          "internalType": "bytes32",
          "name": "role",
          "type": "bytes32"
        },
        {
          "internalType": "address",
          "name": "account",
          "type": "address"
        }
      ],
      "name": "renounceRole",
      "outputs": [],
      "stateMutability": "nonpayable",
      "type": "function"
    },
    {
      "inputs": [
        {
          "internalType": "bytes32",
          "name": "role",
          "type": "bytes32"
        },
        {
          "internalType": "address",
          "name": "account",
          "type": "address"
        }
      ],
      "name": "revokeRole",
      "outputs": [],
      "stateMutability": "nonpayable",
      "type": "function"
    },
    {
      "inputs": [
        {
          "internalType": "address",
          "name": "newResolverAddress",
          "type": "address"
        }
      ],
      "name": "setContractResolver",
      "outputs": [],
      "stateMutability": "nonpayable",
      "type": "function"
    },
    {
      "inputs": [
        {
          "internalType": "uint256",
          "name": "tokenId",
          "type": "uint256"
        },
        {
          "internalType": "string[]",
          "name": "nftMetadata",
          "type": "string[]"
        }
      ],
      "name": "setPkpMetadata",
      "outputs": [],
      "stateMutability": "nonpayable",
      "type": "function"
    },
    {
      "inputs": [
        {
          "internalType": "bytes4",
          "name": "interfaceId",
          "type": "bytes4"
        }
      ],
      "name": "supportsInterface",
      "outputs": [
        {
          "internalType": "bool",
          "name": "",
          "type": "bool"
        }
      ],
      "stateMutability": "view",
      "type": "function"
    },
    {
      "inputs": [
        {
          "internalType": "address",
          "name": "newOwner",
          "type": "address"
        }
      ],
      "name": "transferOwnership",
      "outputs": [],
      "stateMutability": "nonpayable",
      "type": "function"
    }
  ],
  "bytecode": "0x60806040523480156200001157600080fd5b506040516200581a3803806200581a83398181016040528101906200003791906200022b565b620000576200004b620000cd60201b60201c565b620000d560201b60201c565b81600260006101000a81548173ffffffffffffffffffffffffffffffffffffffff021916908373ffffffffffffffffffffffffffffffffffffffff16021790555080600260146101000a81548160ff02191690836002811115620000c057620000bf62000272565b5b02179055505050620002a1565b600033905090565b60008060009054906101000a900473ffffffffffffffffffffffffffffffffffffffff169050816000806101000a81548173ffffffffffffffffffffffffffffffffffffffff021916908373ffffffffffffffffffffffffffffffffffffffff1602179055508173ffffffffffffffffffffffffffffffffffffffff168173ffffffffffffffffffffffffffffffffffffffff167f8be0079c531659141344cd1fd0a4f28419497f9722a3daafe3b4186f6b6457e060405160405180910390a35050565b600080fd5b600073ffffffffffffffffffffffffffffffffffffffff82169050919050565b6000620001cb826200019e565b9050919050565b620001dd81620001be565b8114620001e957600080fd5b50565b600081519050620001fd81620001d2565b92915050565b600381106200021157600080fd5b50565b600081519050620002258162000203565b92915050565b6000806040838503121562000245576200024462000199565b5b60006200025585828601620001ec565b9250506020620002688582860162000214565b9150509250929050565b7f4e487b7100000000000000000000000000000000000000000000000000000000600052602160045260246000fd5b61556980620002b16000396000f3fe6080604052600436106101665760003560e01c8063715018a6116100d15780639fba176b1161008a578063d547741f11610064578063d547741f14610532578063f2fde38b1461055b578063f95d71b114610584578063ffc83325146105ad57610166565b80639fba176b146104ac578063a217fddf146104dc578063caead0c71461050757610166565b8063715018a6146103ae57806373cc4111146103c5578063782e2ea5146103f05780638da5cb5b1461041957806391d14854146104445780639dca00321461048157610166565b80632b553551116101235780632b553551146102b25780632f2ff15d146102db5780633276558c1461030457806336568abe1461032f5780635043026c1461035857806350d17b5e1461038357610166565b806301ffc9a71461016b57806313af411b146101a8578063150b7a02146101d85780631f71cb3114610215578063202f724f14610245578063248a9ca314610275575b600080fd5b34801561017757600080fd5b50610192600480360381019061018d91906132d0565b6105dd565b60405161019f9190613318565b60405180910390f35b6101c260048036038101906101bd9190613c92565b610657565b6040516101cf9190613d19565b60405180910390f35b3480156101e457600080fd5b506101ff60048036038101906101fa9190613d8f565b610e13565b60405161020c9190613e26565b60405180910390f35b61022f600480360381019061022a9190613e41565b610e9d565b60405161023c9190613d19565b60405180910390f35b61025f600480360381019061025a9190613c92565b61159b565b60405161026c9190613d19565b60405180910390f35b34801561028157600080fd5b5061029c60048036038101906102979190614015565b6115af565b6040516102a99190614051565b60405180910390f35b3480156102be57600080fd5b506102d960048036038101906102d4919061406c565b6115cf565b005b3480156102e757600080fd5b5061030260048036038101906102fd9190614099565b61185f565b005b34801561031057600080fd5b50610319611880565b60405161032691906140e8565b60405180910390f35b34801561033b57600080fd5b5061035660048036038101906103519190614099565b6119c4565b005b34801561036457600080fd5b5061036d611a47565b60405161037a91906140e8565b60405180910390f35b34801561038f57600080fd5b50610398611b8b565b6040516103a59190614162565b60405180910390f35b3480156103ba57600080fd5b506103c3611bb1565b005b3480156103d157600080fd5b506103da611bc5565b6040516103e791906140e8565b60405180910390f35b3480156103fc57600080fd5b50610417600480360381019061041291906142ff565b611d09565b005b34801561042557600080fd5b5061042e611fdf565b60405161043b91906140e8565b60405180910390f35b34801561045057600080fd5b5061046b60048036038101906104669190614099565b612008565b6040516104789190613318565b60405180910390f35b34801561048d57600080fd5b50610496612073565b6040516104a391906143d2565b60405180910390f35b6104c660048036038101906104c191906143ed565b612086565b6040516104d39190613d19565b60405180910390f35b3480156104e857600080fd5b506104f16121db565b6040516104fe9190614051565b60405180910390f35b34801561051357600080fd5b5061051c6121e2565b60405161052991906140e8565b60405180910390f35b34801561053e57600080fd5b5061055960048036038101906105549190614099565b612326565b005b34801561056757600080fd5b50610582600480360381019061057d91906144ff565b612347565b005b34801561059057600080fd5b506105ab60048036038101906105a691906144ff565b6123ca565b005b6105c760048036038101906105c2919061452c565b61244d565b6040516105d49190613d19565b60405180910390f35b60007f7965db0b000000000000000000000000000000000000000000000000000000007bffffffffffffffffffffffffffffffffffffffffffffffffffffffff1916827bffffffffffffffffffffffffffffffffffffffffffffffffffffffff19161480610650575061064f82612bec565b5b9050919050565b600081600001518360000151146106a3576040517f08c379a000000000000000000000000000000000000000000000000000000000815260040161069a906146f1565b60405180910390fd5b60006106ad6121e2565b73ffffffffffffffffffffffffffffffffffffffff1663c70384b8348660000151876020015188604001516040518563ffffffff1660e01b81526004016106f693929190614820565b60206040518083038185885af1158015610714573d6000803e3d6000fd5b50505050506040513d601f19601f820116820180604052508101906107399190614873565b905082604001515183602001515114610787576040517f08c379a000000000000000000000000000000000000000000000000000000000815260040161077e90614912565b60405180910390fd5b826080015151836060015151146107d3576040517f08c379a00000000000000000000000000000000000000000000000000000000081526004016107ca906149a4565b60405180910390fd5b8260c00151518360a00151511461081f576040517f08c379a000000000000000000000000000000000000000000000000000000000815260040161081690614a36565b60405180910390fd5b8260e00151518360a00151511461086b576040517f08c379a000000000000000000000000000000000000000000000000000000000815260040161086290614ac8565b60405180910390fd5b826101000151518360a0015151146108b8576040517f08c379a00000000000000000000000000000000000000000000000000000000081526004016108af90614b5a565b60405180910390fd5b60008360200151511461099c5760005b83602001515181101561099a576108dd611880565b73ffffffffffffffffffffffffffffffffffffffff16638a43157883866020015184815181106109105761090f614b7a565b5b60200260200101518760400151858151811061092f5761092e614b7a565b5b60200260200101516040518463ffffffff1660e01b815260040161095593929190614ce6565b600060405180830381600087803b15801561096f57600080fd5b505af1158015610983573d6000803e3d6000fd5b50505050808061099290614d5a565b9150506108c8565b505b600083606001515114610a805760005b836060015151811015610a7e576109c1611880565b73ffffffffffffffffffffffffffffffffffffffff16631663c12183866060015184815181106109f4576109f3614b7a565b5b602002602001015187608001518581518110610a1357610a12614b7a565b5b60200260200101516040518463ffffffff1660e01b8152600401610a3993929190614da2565b600060405180830381600087803b158015610a5357600080fd5b505af1158015610a67573d6000803e3d6000fd5b505050508080610a7690614d5a565b9150506109ac565b505b60008360a001515114610bbb5760005b8360a0015151811015610bb957610aa5611880565b73ffffffffffffffffffffffffffffffffffffffff16639dd4349b8360405180606001604052808860a001518681518110610ae357610ae2614b7a565b5b602002602001015181526020018860c001518681518110610b0757610b06614b7a565b5b602002602001015181526020018860e001518681518110610b2b57610b2a614b7a565b5b60200260200101518152508761010001518581518110610b4e57610b4d614b7a565b5b60200260200101516040518463ffffffff1660e01b8152600401610b7493929190614e81565b600060405180830381600087803b158015610b8e57600080fd5b505af1158015610ba2573d6000803e3d6000fd5b505050508080610bb190614d5a565b915050610a90565b505b6000610bc5611880565b73ffffffffffffffffffffffffffffffffffffffff1663bd4986a0836040518263ffffffff1660e01b8152600401610bfd9190613d19565b602060405180830381865afa158015610c1a573d6000803e3d6000fd5b505050506040513d601f19601f82011682018060405250810190610c3e9190614edb565b905083610120015115610d0b57610c53611880565b73ffffffffffffffffffffffffffffffffffffffff16631663c1218383600067ffffffffffffffff811115610c8b57610c8a613349565b5b604051908082528060200260200182016040528015610cb95781602001602082028036833780820191505090505b506040518463ffffffff1660e01b8152600401610cd893929190614da2565b600060405180830381600087803b158015610cf257600080fd5b505af1158015610d06573d6000803e3d6000fd5b505050505b83610140015115610d9157610d1e6121e2565b73ffffffffffffffffffffffffffffffffffffffff166342842e0e3083856040518463ffffffff1660e01b8152600401610d5a93929190614f08565b600060405180830381600087803b158015610d7457600080fd5b505af1158015610d88573d6000803e3d6000fd5b50505050610e08565b610d996121e2565b73ffffffffffffffffffffffffffffffffffffffff166342842e0e3033856040518463ffffffff1660e01b8152600401610dd593929190614f08565b600060405180830381600087803b158015610def57600080fd5b505af1158015610e03573d6000803e3d6000fd5b505050505b819250505092915050565b6000610e1d6121e2565b73ffffffffffffffffffffffffffffffffffffffff163373ffffffffffffffffffffffffffffffffffffffff1614610e8a576040517f08c379a0000000000000000000000000000000000000000000000000000000008152600401610e8190614fb1565b60405180910390fd5b63150b7a0260e01b905095945050505050565b600080610ea86121e2565b73ffffffffffffffffffffffffffffffffffffffff16635d228b16348f6040518363ffffffff1660e01b8152600401610ee19190613d19565b60206040518083038185885af1158015610eff573d6000803e3d6000fd5b50505050506040513d601f19601f82011682018060405250810190610f249190614873565b90508a518c5114610f6a576040517f08c379a0000000000000000000000000000000000000000000000000000000008152600401610f6190614912565b60405180910390fd5b88518a5114610fae576040517f08c379a0000000000000000000000000000000000000000000000000000000008152600401610fa5906149a4565b60405180910390fd5b8651885114610ff2576040517f08c379a0000000000000000000000000000000000000000000000000000000008152600401610fe990614a36565b60405180910390fd5b8551885114611036576040517f08c379a000000000000000000000000000000000000000000000000000000000815260040161102d90614ac8565b60405180910390fd5b845188511461107a576040517f08c379a000000000000000000000000000000000000000000000000000000000815260040161107190614b5a565b60405180910390fd5b60008c511461114e5760005b8c5181101561114c57611097611880565b73ffffffffffffffffffffffffffffffffffffffff16638a431578838f84815181106110c6576110c5614b7a565b5b60200260200101518f85815181106110e1576110e0614b7a565b5b60200260200101516040518463ffffffff1660e01b815260040161110793929190614ce6565b600060405180830381600087803b15801561112157600080fd5b505af1158015611135573d6000803e3d6000fd5b50505050808061114490614d5a565b915050611086565b505b60008a51146112225760005b8a518110156112205761116b611880565b73ffffffffffffffffffffffffffffffffffffffff16631663c121838d848151811061119a57611199614b7a565b5b60200260200101518d85815181106111b5576111b4614b7a565b5b60200260200101516040518463ffffffff1660e01b81526004016111db93929190614da2565b600060405180830381600087803b1580156111f557600080fd5b505af1158015611209573d6000803e3d6000fd5b50505050808061121890614d5a565b91505061115a565b505b60008851146113445760005b88518110156113425761123f611880565b73ffffffffffffffffffffffffffffffffffffffff16639dd4349b8360405180606001604052808d868151811061127957611278614b7a565b5b602002602001015181526020018c868151811061129957611298614b7a565b5b602002602001015181526020018b86815181106112b9576112b8614b7a565b5b60200260200101518152508985815181106112d7576112d6614b7a565b5b60200260200101516040518463ffffffff1660e01b81526004016112fd93929190614e81565b600060405180830381600087803b15801561131757600080fd5b505af115801561132b573d6000803e3d6000fd5b50505050808061133a90614d5a565b91505061122e565b505b600061134e611880565b73ffffffffffffffffffffffffffffffffffffffff1663bd4986a0836040518263ffffffff1660e01b81526004016113869190613d19565b602060405180830381865afa1580156113a3573d6000803e3d6000fd5b505050506040513d601f19601f820116820180604052508101906113c79190614edb565b9050841561148f576113d7611880565b73ffffffffffffffffffffffffffffffffffffffff16631663c1218383600067ffffffffffffffff81111561140f5761140e613349565b5b60405190808252806020026020018201604052801561143d5781602001602082028036833780820191505090505b506040518463ffffffff1660e01b815260040161145c93929190614da2565b600060405180830381600087803b15801561147657600080fd5b505af115801561148a573d6000803e3d6000fd5b505050505b83156115105761149d6121e2565b73ffffffffffffffffffffffffffffffffffffffff166342842e0e3083856040518463ffffffff1660e01b81526004016114d993929190614f08565b600060405180830381600087803b1580156114f357600080fd5b505af1158015611507573d6000803e3d6000fd5b50505050611587565b6115186121e2565b73ffffffffffffffffffffffffffffffffffffffff166342842e0e3033856040518463ffffffff1660e01b815260040161155493929190614f08565b600060405180830381600087803b15801561156e57600080fd5b505af1158015611582573d6000803e3d6000fd5b505050505b81925050509b9a5050505050505050505050565b60006115a78383610657565b905092915050565b600060016000838152602001908152602001600020600101549050919050565b600260009054906101000a900473ffffffffffffffffffffffffffffffffffffffff1673ffffffffffffffffffffffffffffffffffffffff16638e8dfd16600260009054906101000a900473ffffffffffffffffffffffffffffffffffffffff1673ffffffffffffffffffffffffffffffffffffffff16634216e73a6040518163ffffffff1660e01b8152600401602060405180830381865afa15801561167a573d6000803e3d6000fd5b505050506040513d601f19601f8201168201806040525081019061169e9190614fe6565b600260149054906101000a900460ff166040518363ffffffff1660e01b81526004016116cb929190615013565b602060405180830381865afa1580156116e8573d6000803e3d6000fd5b505050506040513d601f19601f8201168201806040525081019061170c9190614edb565b73ffffffffffffffffffffffffffffffffffffffff163373ffffffffffffffffffffffffffffffffffffffff1614611779576040517f08c379a0000000000000000000000000000000000000000000000000000000008152600401611770906150d4565b60405180910390fd5b6000611783611a47565b90508073ffffffffffffffffffffffffffffffffffffffff1663b63a7677836040518263ffffffff1660e01b81526004016117be9190613d19565b600060405180830381600087803b1580156117d857600080fd5b505af11580156117ec573d6000803e3d6000fd5b505050508073ffffffffffffffffffffffffffffffffffffffff1663519a218e836040518263ffffffff1660e01b81526004016118299190613d19565b600060405180830381600087803b15801561184357600080fd5b505af1158015611857573d6000803e3d6000fd5b505050505050565b611868826115af565b61187181612c56565b61187b8383612c6a565b505050565b6000600260009054906101000a900473ffffffffffffffffffffffffffffffffffffffff1673ffffffffffffffffffffffffffffffffffffffff16638e8dfd16600260009054906101000a900473ffffffffffffffffffffffffffffffffffffffff1673ffffffffffffffffffffffffffffffffffffffff16639072f8386040518163ffffffff1660e01b8152600401602060405180830381865afa15801561192d573d6000803e3d6000fd5b505050506040513d601f19601f820116820180604052508101906119519190614fe6565b600260149054906101000a900460ff166040518363ffffffff1660e01b815260040161197e929190615013565b602060405180830381865afa15801561199b573d6000803e3d6000fd5b505050506040513d601f19601f820116820180604052508101906119bf9190614edb565b905090565b6119cc612d4a565b73ffffffffffffffffffffffffffffffffffffffff168173ffffffffffffffffffffffffffffffffffffffff1614611a39576040517f08c379a0000000000000000000000000000000000000000000000000000000008152600401611a3090615166565b60405180910390fd5b611a438282612d52565b5050565b6000600260009054906101000a900473ffffffffffffffffffffffffffffffffffffffff1673ffffffffffffffffffffffffffffffffffffffff16638e8dfd16600260009054906101000a900473ffffffffffffffffffffffffffffffffffffffff1673ffffffffffffffffffffffffffffffffffffffff166316f76bbf6040518163ffffffff1660e01b8152600401602060405180830381865afa158015611af4573d6000803e3d6000fd5b505050506040513d601f19601f82011682018060405250810190611b189190614fe6565b600260149054906101000a900460ff166040518363ffffffff1660e01b8152600401611b45929190615013565b602060405180830381865afa158015611b62573d6000803e3d6000fd5b505050506040513d601f19601f82011682018060405250810190611b869190614edb565b905090565b600260009054906101000a900473ffffffffffffffffffffffffffffffffffffffff1681565b611bb9612e34565b611bc36000612eb2565b565b6000600260009054906101000a900473ffffffffffffffffffffffffffffffffffffffff1673ffffffffffffffffffffffffffffffffffffffff16638e8dfd16600260009054906101000a900473ffffffffffffffffffffffffffffffffffffffff1673ffffffffffffffffffffffffffffffffffffffff16634216e73a6040518163ffffffff1660e01b8152600401602060405180830381865afa158015611c72573d6000803e3d6000fd5b505050506040513d601f19601f82011682018060405250810190611c969190614fe6565b600260149054906101000a900460ff166040518363ffffffff1660e01b8152600401611cc3929190615013565b602060405180830381865afa158015611ce0573d6000803e3d6000fd5b505050506040513d601f19601f82011682018060405250810190611d049190614edb565b905090565b600260009054906101000a900473ffffffffffffffffffffffffffffffffffffffff1673ffffffffffffffffffffffffffffffffffffffff16638e8dfd16600260009054906101000a900473ffffffffffffffffffffffffffffffffffffffff1673ffffffffffffffffffffffffffffffffffffffff16634216e73a6040518163ffffffff1660e01b8152600401602060405180830381865afa158015611db4573d6000803e3d6000fd5b505050506040513d601f19601f82011682018060405250810190611dd89190614fe6565b600260149054906101000a900460ff166040518363ffffffff1660e01b8152600401611e05929190615013565b602060405180830381865afa158015611e22573d6000803e3d6000fd5b505050506040513d601f19601f82011682018060405250810190611e469190614edb565b73ffffffffffffffffffffffffffffffffffffffff163373ffffffffffffffffffffffffffffffffffffffff1614611eb3576040517f08c379a0000000000000000000000000000000000000000000000000000000008152600401611eaa906150d4565b60405180910390fd5b6000611ebd611a47565b9050600082511115611fda578073ffffffffffffffffffffffffffffffffffffffff1663855eec228484600081518110611efa57611ef9614b7a565b5b60200260200101516040518363ffffffff1660e01b8152600401611f1f9291906151ca565b600060405180830381600087803b158015611f3957600080fd5b505af1158015611f4d573d6000803e3d6000fd5b505050508073ffffffffffffffffffffffffffffffffffffffff16639000fee18484600181518110611f8257611f81614b7a565b5b60200260200101516040518363ffffffff1660e01b8152600401611fa79291906151ca565b600060405180830381600087803b158015611fc157600080fd5b505af1158015611fd5573d6000803e3d6000fd5b505050505b505050565b60008060009054906101000a900473ffffffffffffffffffffffffffffffffffffffff16905090565b60006001600084815260200190815260200160002060000160008373ffffffffffffffffffffffffffffffffffffffff1673ffffffffffffffffffffffffffffffffffffffff16815260200190815260200160002060009054906101000a900460ff16905092915050565b600260149054906101000a900460ff1681565b60006121ce88600067ffffffffffffffff8111156120a7576120a6613349565b5b6040519080825280602002602001820160405280156120da57816020015b60608152602001906001900390816120c55790505b50600067ffffffffffffffff8111156120f6576120f5613349565b5b60405190808252806020026020018201604052801561212957816020015b60608152602001906001900390816121145790505b50600067ffffffffffffffff81111561214557612144613349565b5b6040519080825280602002602001820160405280156121735781602001602082028036833780820191505090505b50600067ffffffffffffffff81111561218f5761218e613349565b5b6040519080825280602002602001820160405280156121c257816020015b60608152602001906001900390816121ad5790505b508c8c8c8c8c8c610e9d565b9050979650505050505050565b6000801b81565b6000600260009054906101000a900473ffffffffffffffffffffffffffffffffffffffff1673ffffffffffffffffffffffffffffffffffffffff16638e8dfd16600260009054906101000a900473ffffffffffffffffffffffffffffffffffffffff1673ffffffffffffffffffffffffffffffffffffffff16632c0b8bf76040518163ffffffff1660e01b8152600401602060405180830381865afa15801561228f573d6000803e3d6000fd5b505050506040513d601f19601f820116820180604052508101906122b39190614fe6565b600260149054906101000a900460ff166040518363ffffffff1660e01b81526004016122e0929190615013565b602060405180830381865afa1580156122fd573d6000803e3d6000fd5b505050506040513d601f19601f820116820180604052508101906123219190614edb565b905090565b61232f826115af565b61233881612c56565b6123428383612d52565b505050565b61234f612e34565b600073ffffffffffffffffffffffffffffffffffffffff168173ffffffffffffffffffffffffffffffffffffffff16036123be576040517f08c379a00000000000000000000000000000000000000000000000000000000081526004016123b59061526c565b60405180910390fd5b6123c781612eb2565b50565b6123d2612e34565b80600260006101000a81548173ffffffffffffffffffffffffffffffffffffffff021916908373ffffffffffffffffffffffffffffffffffffffff1602179055507f2760073c7cd8cac531d7f643becbfbb74d8b8156443eacf879622532dbbb3cd58160405161244291906140e8565b60405180910390a150565b6000600260009054906101000a900473ffffffffffffffffffffffffffffffffffffffff1673ffffffffffffffffffffffffffffffffffffffff16638e8dfd16600260009054906101000a900473ffffffffffffffffffffffffffffffffffffffff1673ffffffffffffffffffffffffffffffffffffffff16634216e73a6040518163ffffffff1660e01b8152600401602060405180830381865afa1580156124fa573d6000803e3d6000fd5b505050506040513d601f19601f8201168201806040525081019061251e9190614fe6565b600260149054906101000a900460ff166040518363ffffffff1660e01b815260040161254b929190615013565b602060405180830381865afa158015612568573d6000803e3d6000fd5b505050506040513d601f19601f8201168201806040525081019061258c9190614edb565b73ffffffffffffffffffffffffffffffffffffffff163373ffffffffffffffffffffffffffffffffffffffff16146125f9576040517f08c379a00000000000000000000000000000000000000000000000000000000081526004016125f0906150d4565b60405180910390fd5b60006126036121e2565b73ffffffffffffffffffffffffffffffffffffffff16635d228b16348c6040518363ffffffff1660e01b815260040161263c9190613d19565b60206040518083038185885af115801561265a573d6000803e3d6000fd5b50505050506040513d601f19601f8201168201806040525081019061267f9190614873565b905087518951146126c5576040517f08c379a00000000000000000000000000000000000000000000000000000000081526004016126bc90614a36565b60405180910390fd5b8651895114612709576040517f08c379a000000000000000000000000000000000000000000000000000000000815260040161270090614ac8565b60405180910390fd5b855189511461274d576040517f08c379a000000000000000000000000000000000000000000000000000000000815260040161274490614b5a565b60405180910390fd5b600089511461286f5760005b895181101561286d5761276a611880565b73ffffffffffffffffffffffffffffffffffffffff16639dd4349b8360405180606001604052808e86815181106127a4576127a3614b7a565b5b602002602001015181526020018d86815181106127c4576127c3614b7a565b5b602002602001015181526020018c86815181106127e4576127e3614b7a565b5b60200260200101518152508a858151811061280257612801614b7a565b5b60200260200101516040518463ffffffff1660e01b815260040161282893929190614e81565b600060405180830381600087803b15801561284257600080fd5b505af1158015612856573d6000803e3d6000fd5b50505050808061286590614d5a565b915050612759565b505b6000612879611880565b73ffffffffffffffffffffffffffffffffffffffff1663bd4986a0836040518263ffffffff1660e01b81526004016128b19190613d19565b602060405180830381865afa1580156128ce573d6000803e3d6000fd5b505050506040513d601f19601f820116820180604052508101906128f29190614edb565b905084156129ba57612902611880565b73ffffffffffffffffffffffffffffffffffffffff16631663c1218383600067ffffffffffffffff81111561293a57612939613349565b5b6040519080825280602002602001820160405280156129685781602001602082028036833780820191505090505b506040518463ffffffff1660e01b815260040161298793929190614da2565b600060405180830381600087803b1580156129a157600080fd5b505af11580156129b5573d6000803e3d6000fd5b505050505b8315612a3b576129c86121e2565b73ffffffffffffffffffffffffffffffffffffffff166342842e0e3083856040518463ffffffff1660e01b8152600401612a0493929190614f08565b600060405180830381600087803b158015612a1e57600080fd5b505af1158015612a32573d6000803e3d6000fd5b50505050612ab2565b612a436121e2565b73ffffffffffffffffffffffffffffffffffffffff166342842e0e3033856040518463ffffffff1660e01b8152600401612a7f93929190614f08565b600060405180830381600087803b158015612a9957600080fd5b505af1158015612aad573d6000803e3d6000fd5b505050505b600086511115612bdb57612ac4611a47565b73ffffffffffffffffffffffffffffffffffffffff1663855eec228388600081518110612af457612af3614b7a565b5b60200260200101516040518363ffffffff1660e01b8152600401612b199291906151ca565b600060405180830381600087803b158015612b3357600080fd5b505af1158015612b47573d6000803e3d6000fd5b50505050612b53611a47565b73ffffffffffffffffffffffffffffffffffffffff16639000fee18388600181518110612b8357612b82614b7a565b5b60200260200101516040518363ffffffff1660e01b8152600401612ba89291906151ca565b600060405180830381600087803b158015612bc257600080fd5b505af1158015612bd6573d6000803e3d6000fd5b505050505b819250505098975050505050505050565b60007f01ffc9a7000000000000000000000000000000000000000000000000000000007bffffffffffffffffffffffffffffffffffffffffffffffffffffffff1916827bffffffffffffffffffffffffffffffffffffffffffffffffffffffff1916149050919050565b612c6781612c62612d4a565b612f76565b50565b612c748282612008565b612d4657600180600084815260200190815260200160002060000160008373ffffffffffffffffffffffffffffffffffffffff1673ffffffffffffffffffffffffffffffffffffffff16815260200190815260200160002060006101000a81548160ff021916908315150217905550612ceb612d4a565b73ffffffffffffffffffffffffffffffffffffffff168173ffffffffffffffffffffffffffffffffffffffff16837f2f8788117e7eff1d82e926ec794901d17c78024a50270940304540a733656f0d60405160405180910390a45b5050565b600033905090565b612d5c8282612008565b15612e305760006001600084815260200190815260200160002060000160008373ffffffffffffffffffffffffffffffffffffffff1673ffffffffffffffffffffffffffffffffffffffff16815260200190815260200160002060006101000a81548160ff021916908315150217905550612dd5612d4a565b73ffffffffffffffffffffffffffffffffffffffff168173ffffffffffffffffffffffffffffffffffffffff16837ff6391f5c32d9c69d2a47ea670b442974b53935d1edc7fd64eb21e047a839171b60405160405180910390a45b5050565b612e3c612d4a565b73ffffffffffffffffffffffffffffffffffffffff16612e5a611fdf565b73ffffffffffffffffffffffffffffffffffffffff1614612eb0576040517f08c379a0000000000000000000000000000000000000000000000000000000008152600401612ea7906152d8565b60405180910390fd5b565b60008060009054906101000a900473ffffffffffffffffffffffffffffffffffffffff169050816000806101000a81548173ffffffffffffffffffffffffffffffffffffffff021916908373ffffffffffffffffffffffffffffffffffffffff1602179055508173ffffffffffffffffffffffffffffffffffffffff168173ffffffffffffffffffffffffffffffffffffffff167f8be0079c531659141344cd1fd0a4f28419497f9722a3daafe3b4186f6b6457e060405160405180910390a35050565b612f808282612008565b612ff757612f8d81612ffb565b612f9b8360001c6020613028565b604051602001612fac9291906153cc565b6040516020818303038152906040526040517f08c379a0000000000000000000000000000000000000000000000000000000008152600401612fee9190615406565b60405180910390fd5b5050565b60606130218273ffffffffffffffffffffffffffffffffffffffff16601460ff16613028565b9050919050565b60606000600283600261303b9190615428565b613045919061546a565b67ffffffffffffffff81111561305e5761305d613349565b5b6040519080825280601f01601f1916602001820160405280156130905781602001600182028036833780820191505090505b5090507f3000000000000000000000000000000000000000000000000000000000000000816000815181106130c8576130c7614b7a565b5b60200101907effffffffffffffffffffffffffffffffffffffffffffffffffffffffffffff1916908160001a9053507f78000000000000000000000000000000000000000000000000000000000000008160018151811061312c5761312b614b7a565b5b60200101907effffffffffffffffffffffffffffffffffffffffffffffffffffffffffffff1916908160001a9053506000600184600261316c9190615428565b613176919061546a565b90505b6001811115613216577f3031323334353637383961626364656600000000000000000000000000000000600f8616601081106131b8576131b7614b7a565b5b1a60f81b8282815181106131cf576131ce614b7a565b5b60200101907effffffffffffffffffffffffffffffffffffffffffffffffffffffffffffff1916908160001a905350600485901c94508061320f9061549e565b9050613179565b506000841461325a576040517f08c379a000000000000000000000000000000000000000000000000000000000815260040161325190615513565b60405180910390fd5b8091505092915050565b6000604051905090565b600080fd5b600080fd5b60007fffffffff0000000000000000000000000000000000000000000000000000000082169050919050565b6132ad81613278565b81146132b857600080fd5b50565b6000813590506132ca816132a4565b92915050565b6000602082840312156132e6576132e561326e565b5b60006132f4848285016132bb565b91505092915050565b60008115159050919050565b613312816132fd565b82525050565b600060208201905061332d6000830184613309565b92915050565b600080fd5b6000601f19601f8301169050919050565b7f4e487b7100000000000000000000000000000000000000000000000000000000600052604160045260246000fd5b61338182613338565b810181811067ffffffffffffffff821117156133a05761339f613349565b5b80604052505050565b60006133b3613264565b90506133bf8282613378565b919050565b600080fd5b6000819050919050565b6133dc816133c9565b81146133e757600080fd5b50565b6000813590506133f9816133d3565b92915050565b6000819050919050565b613412816133ff565b811461341d57600080fd5b50565b60008135905061342f81613409565b92915050565b600080fd5b600067ffffffffffffffff82111561345557613454613349565b5b602082029050602081019050919050565b600080fd5b600060ff82169050919050565b6134818161346b565b811461348c57600080fd5b50565b60008135905061349e81613478565b92915050565b6000606082840312156134ba576134b9613333565b5b6134c460606133a9565b905060006134d484828501613420565b60008301525060206134e884828501613420565b60208301525060406134fc8482850161348f565b60408301525092915050565b600061351b6135168461343a565b6133a9565b9050808382526020820190506060840283018581111561353e5761353d613466565b5b835b81811015613567578061355388826134a4565b845260208401935050606081019050613540565b5050509392505050565b600082601f83011261358657613585613435565b5b8135613596848260208601613508565b91505092915050565b6000606082840312156135b5576135b4613333565b5b6135bf60606133a9565b905060006135cf848285016133ea565b60008301525060206135e384828501613420565b602083015250604082013567ffffffffffffffff811115613607576136066133c4565b5b61361384828501613571565b60408301525092915050565b600067ffffffffffffffff82111561363a57613639613349565b5b602082029050602081019050919050565b600080fd5b600067ffffffffffffffff82111561366b5761366a613349565b5b61367482613338565b9050602081019050919050565b82818337600083830152505050565b60006136a361369e84613650565b6133a9565b9050828152602081018484840111156136bf576136be61364b565b5b6136ca848285613681565b509392505050565b600082601f8301126136e7576136e6613435565b5b81356136f7848260208601613690565b91505092915050565b600061371361370e8461361f565b6133a9565b9050808382526020820190506020840283018581111561373657613735613466565b5b835b8181101561377d57803567ffffffffffffffff81111561375b5761375a613435565b5b80860161376889826136d2565b85526020850194505050602081019050613738565b5050509392505050565b600082601f83011261379c5761379b613435565b5b81356137ac848260208601613700565b91505092915050565b600067ffffffffffffffff8211156137d0576137cf613349565b5b602082029050602081019050919050565b600067ffffffffffffffff8211156137fc576137fb613349565b5b602082029050602081019050919050565b600061382061381b846137e1565b6133a9565b9050808382526020820190506020840283018581111561384357613842613466565b5b835b8181101561386c578061385888826133ea565b845260208401935050602081019050613845565b5050509392505050565b600082601f83011261388b5761388a613435565b5b813561389b84826020860161380d565b91505092915050565b60006138b76138b2846137b5565b6133a9565b905080838252602082019050602084028301858111156138da576138d9613466565b5b835b8181101561392157803567ffffffffffffffff8111156138ff576138fe613435565b5b80860161390c8982613876565b855260208501945050506020810190506138dc565b5050509392505050565b600082601f8301126139405761393f613435565b5b81356139508482602086016138a4565b91505092915050565b600067ffffffffffffffff82111561397457613973613349565b5b602082029050602081019050919050565b600073ffffffffffffffffffffffffffffffffffffffff82169050919050565b60006139b082613985565b9050919050565b6139c0816139a5565b81146139cb57600080fd5b50565b6000813590506139dd816139b7565b92915050565b60006139f66139f184613959565b6133a9565b90508083825260208201905060208402830185811115613a1957613a18613466565b5b835b81811015613a425780613a2e88826139ce565b845260208401935050602081019050613a1b565b5050509392505050565b600082601f830112613a6157613a60613435565b5b8135613a718482602086016139e3565b91505092915050565b613a83816132fd565b8114613a8e57600080fd5b50565b600081359050613aa081613a7a565b92915050565b60006101608284031215613abd57613abc613333565b5b613ac86101606133a9565b90506000613ad8848285016133ea565b600083015250602082013567ffffffffffffffff811115613afc57613afb6133c4565b5b613b0884828501613787565b602083015250604082013567ffffffffffffffff811115613b2c57613b2b6133c4565b5b613b388482850161392b565b604083015250606082013567ffffffffffffffff811115613b5c57613b5b6133c4565b5b613b6884828501613a4c565b606083015250608082013567ffffffffffffffff811115613b8c57613b8b6133c4565b5b613b988482850161392b565b60808301525060a082013567ffffffffffffffff811115613bbc57613bbb6133c4565b5b613bc884828501613876565b60a08301525060c082013567ffffffffffffffff811115613bec57613beb6133c4565b5b613bf884828501613787565b60c08301525060e082013567ffffffffffffffff811115613c1c57613c1b6133c4565b5b613c2884828501613787565b60e08301525061010082013567ffffffffffffffff811115613c4d57613c4c6133c4565b5b613c598482850161392b565b61010083015250610120613c6f84828501613a91565b61012083015250610140613c8584828501613a91565b6101408301525092915050565b60008060408385031215613ca957613ca861326e565b5b600083013567ffffffffffffffff811115613cc757613cc6613273565b5b613cd38582860161359f565b925050602083013567ffffffffffffffff811115613cf457613cf3613273565b5b613d0085828601613aa6565b9150509250929050565b613d13816133c9565b82525050565b6000602082019050613d2e6000830184613d0a565b92915050565b600080fd5b60008083601f840112613d4f57613d4e613435565b5b8235905067ffffffffffffffff811115613d6c57613d6b613d34565b5b602083019150836001820283011115613d8857613d87613466565b5b9250929050565b600080600080600060808688031215613dab57613daa61326e565b5b6000613db9888289016139ce565b9550506020613dca888289016139ce565b9450506040613ddb888289016133ea565b935050606086013567ffffffffffffffff811115613dfc57613dfb613273565b5b613e0888828901613d39565b92509250509295509295909350565b613e2081613278565b82525050565b6000602082019050613e3b6000830184613e17565b92915050565b60008060008060008060008060008060006101608c8e031215613e6757613e6661326e565b5b6000613e758e828f016133ea565b9b505060208c013567ffffffffffffffff811115613e9657613e95613273565b5b613ea28e828f01613787565b9a505060408c013567ffffffffffffffff811115613ec357613ec2613273565b5b613ecf8e828f0161392b565b99505060608c013567ffffffffffffffff811115613ef057613eef613273565b5b613efc8e828f01613a4c565b98505060808c013567ffffffffffffffff811115613f1d57613f1c613273565b5b613f298e828f0161392b565b97505060a08c013567ffffffffffffffff811115613f4a57613f49613273565b5b613f568e828f01613876565b96505060c08c013567ffffffffffffffff811115613f7757613f76613273565b5b613f838e828f01613787565b95505060e08c013567ffffffffffffffff811115613fa457613fa3613273565b5b613fb08e828f01613787565b9450506101008c013567ffffffffffffffff811115613fd257613fd1613273565b5b613fde8e828f0161392b565b935050610120613ff08e828f01613a91565b9250506101406140028e828f01613a91565b9150509295989b509295989b9093969950565b60006020828403121561402b5761402a61326e565b5b600061403984828501613420565b91505092915050565b61404b816133ff565b82525050565b60006020820190506140666000830184614042565b92915050565b6000602082840312156140825761408161326e565b5b6000614090848285016133ea565b91505092915050565b600080604083850312156140b0576140af61326e565b5b60006140be85828601613420565b92505060206140cf858286016139ce565b9150509250929050565b6140e2816139a5565b82525050565b60006020820190506140fd60008301846140d9565b92915050565b6000819050919050565b600061412861412361411e84613985565b614103565b613985565b9050919050565b600061413a8261410d565b9050919050565b600061414c8261412f565b9050919050565b61415c81614141565b82525050565b60006020820190506141776000830184614153565b92915050565b600067ffffffffffffffff82111561419857614197613349565b5b602082029050602081019050919050565b600067ffffffffffffffff8211156141c4576141c3613349565b5b6141cd82613338565b9050602081019050919050565b60006141ed6141e8846141a9565b6133a9565b9050828152602081018484840111156142095761420861364b565b5b614214848285613681565b509392505050565b600082601f83011261423157614230613435565b5b81356142418482602086016141da565b91505092915050565b600061425d6142588461417d565b6133a9565b905080838252602082019050602084028301858111156142805761427f613466565b5b835b818110156142c757803567ffffffffffffffff8111156142a5576142a4613435565b5b8086016142b2898261421c565b85526020850194505050602081019050614282565b5050509392505050565b600082601f8301126142e6576142e5613435565b5b81356142f684826020860161424a565b91505092915050565b600080604083850312156143165761431561326e565b5b6000614324858286016133ea565b925050602083013567ffffffffffffffff81111561434557614344613273565b5b614351858286016142d1565b9150509250929050565b7f4e487b7100000000000000000000000000000000000000000000000000000000600052602160045260246000fd5b6003811061439b5761439a61435b565b5b50565b60008190506143ac8261438a565b919050565b60006143bc8261439e565b9050919050565b6143cc816143b1565b82525050565b60006020820190506143e760008301846143c3565b92915050565b600080600080600080600060e0888a03121561440c5761440b61326e565b5b600061441a8a828b016133ea565b975050602088013567ffffffffffffffff81111561443b5761443a613273565b5b6144478a828b01613876565b965050604088013567ffffffffffffffff81111561446857614467613273565b5b6144748a828b01613787565b955050606088013567ffffffffffffffff81111561449557614494613273565b5b6144a18a828b01613787565b945050608088013567ffffffffffffffff8111156144c2576144c1613273565b5b6144ce8a828b0161392b565b93505060a06144df8a828b01613a91565b92505060c06144f08a828b01613a91565b91505092959891949750929550565b6000602082840312156145155761451461326e565b5b6000614523848285016139ce565b91505092915050565b600080600080600080600080610100898b03121561454d5761454c61326e565b5b600061455b8b828c016133ea565b985050602089013567ffffffffffffffff81111561457c5761457b613273565b5b6145888b828c01613876565b975050604089013567ffffffffffffffff8111156145a9576145a8613273565b5b6145b58b828c01613787565b965050606089013567ffffffffffffffff8111156145d6576145d5613273565b5b6145e28b828c01613787565b955050608089013567ffffffffffffffff81111561460357614602613273565b5b61460f8b828c0161392b565b94505060a089013567ffffffffffffffff8111156146305761462f613273565b5b61463c8b828c016142d1565b93505060c061464d8b828c01613a91565b92505060e061465e8b828c01613a91565b9150509295985092959890939650565b600082825260208201905092915050565b7f504b5048656c7065723a20436c61696d206b65792074797065206d757374206d60008201527f617463682041757468204d6574686f642064617461206b657920747970650000602082015250565b60006146db603e8361466e565b91506146e68261467f565b604082019050919050565b6000602082019050818103600083015261470a816146ce565b9050919050565b600081519050919050565b600082825260208201905092915050565b6000819050602082019050919050565b614746816133ff565b82525050565b6147558161346b565b82525050565b606082016000820151614771600085018261473d565b506020820151614784602085018261473d565b506040820151614797604085018261474c565b50505050565b60006147a9838361475b565b60608301905092915050565b6000602082019050919050565b60006147cd82614711565b6147d7818561471c565b93506147e28361472d565b8060005b838110156148135781516147fa888261479d565b9750614805836147b5565b9250506001810190506147e6565b5085935050505092915050565b60006060820190506148356000830186613d0a565b6148426020830185614042565b818103604083015261485481846147c2565b9050949350505050565b60008151905061486d816133d3565b92915050565b6000602082840312156148895761488861326e565b5b60006148978482850161485e565b91505092915050565b7f504b5048656c7065723a20697066732063696420616e642073636f706520617260008201527f726179206c656e67746873206d757374206d6174636800000000000000000000602082015250565b60006148fc60368361466e565b9150614907826148a0565b604082019050919050565b6000602082019050818103600083015261492b816148ef565b9050919050565b7f504b5048656c7065723a206164647265737320616e642073636f70652061727260008201527f6179206c656e67746873206d757374206d617463680000000000000000000000602082015250565b600061498e60358361466e565b915061499982614932565b604082019050919050565b600060208201905081810360008301526149bd81614981565b9050919050565b7f504b5048656c7065723a2061757468206d6574686f64207479706520616e642060008201527f6964206172726179206c656e67746873206d757374206d617463680000000000602082015250565b6000614a20603b8361466e565b9150614a2b826149c4565b604082019050919050565b60006020820190508181036000830152614a4f81614a13565b9050919050565b7f504b5048656c7065723a2061757468206d6574686f64207479706520616e642060008201527f7075626b6579206172726179206c656e67746873206d757374206d6174636800602082015250565b6000614ab2603f8361466e565b9150614abd82614a56565b604082019050919050565b60006020820190508181036000830152614ae181614aa5565b9050919050565b7f504b5048656c7065723a2061757468206d6574686f64207479706520616e642060008201527f73636f706573206172726179206c656e67746873206d757374206d6174636800602082015250565b6000614b44603f8361466e565b9150614b4f82614ae8565b604082019050919050565b60006020820190508181036000830152614b7381614b37565b9050919050565b7f4e487b7100000000000000000000000000000000000000000000000000000000600052603260045260246000fd5b600081519050919050565b600082825260208201905092915050565b60005b83811015614be3578082015181840152602081019050614bc8565b60008484015250505050565b6000614bfa82614ba9565b614c048185614bb4565b9350614c14818560208601614bc5565b614c1d81613338565b840191505092915050565b600081519050919050565b600082825260208201905092915050565b6000819050602082019050919050565b614c5d816133c9565b82525050565b6000614c6f8383614c54565b60208301905092915050565b6000602082019050919050565b6000614c9382614c28565b614c9d8185614c33565b9350614ca883614c44565b8060005b83811015614cd9578151614cc08882614c63565b9750614ccb83614c7b565b925050600181019050614cac565b5085935050505092915050565b6000606082019050614cfb6000830186613d0a565b8181036020830152614d0d8185614bef565b90508181036040830152614d218184614c88565b9050949350505050565b7f4e487b7100000000000000000000000000000000000000000000000000000000600052601160045260246000fd5b6000614d65826133c9565b91507fffffffffffffffffffffffffffffffffffffffffffffffffffffffffffffffff8203614d9757614d96614d2b565b5b600182019050919050565b6000606082019050614db76000830186613d0a565b614dc460208301856140d9565b8181036040830152614dd68184614c88565b9050949350505050565b600082825260208201905092915050565b6000614dfc82614ba9565b614e068185614de0565b9350614e16818560208601614bc5565b614e1f81613338565b840191505092915050565b6000606083016000830151614e426000860182614c54565b5060208301518482036020860152614e5a8282614df1565b91505060408301518482036040860152614e748282614df1565b9150508091505092915050565b6000606082019050614e966000830186613d0a565b8181036020830152614ea88185614e2a565b90508181036040830152614ebc8184614c88565b9050949350505050565b600081519050614ed5816139b7565b92915050565b600060208284031215614ef157614ef061326e565b5b6000614eff84828501614ec6565b91505092915050565b6000606082019050614f1d60008301866140d9565b614f2a60208301856140d9565b614f376040830184613d0a565b949350505050565b7f504b5048656c7065723a206f6e6c792061636365707473207472616e7366657260008201527f732066726f6d2074686520504b504e465420636f6e7472616374000000000000602082015250565b6000614f9b603a8361466e565b9150614fa682614f3f565b604082019050919050565b60006020820190508181036000830152614fca81614f8e565b9050919050565b600081519050614fe081613409565b92915050565b600060208284031215614ffc57614ffb61326e565b5b600061500a84828501614fd1565b91505092915050565b60006040820190506150286000830185614042565b61503560208301846143c3565b9392505050565b7f504b5048656c7065723a206f6e6c792074686520446f6d61696e2057616c6c6560008201527f7420726567697374727920697320616c6c6f77656420746f206d696e7420646f60208201527f6d61696e2077616c6c6574732c2077686f2061726520796f753f000000000000604082015250565b60006150be605a8361466e565b91506150c98261503c565b606082019050919050565b600060208201905081810360008301526150ed816150b1565b9050919050565b7f416363657373436f6e74726f6c3a2063616e206f6e6c792072656e6f756e636560008201527f20726f6c657320666f722073656c660000000000000000000000000000000000602082015250565b6000615150602f8361466e565b915061515b826150f4565b604082019050919050565b6000602082019050818103600083015261517f81615143565b9050919050565b600081519050919050565b600061519c82615186565b6151a6818561466e565b93506151b6818560208601614bc5565b6151bf81613338565b840191505092915050565b60006040820190506151df6000830185613d0a565b81810360208301526151f18184615191565b90509392505050565b7f4f776e61626c653a206e6577206f776e657220697320746865207a65726f206160008201527f6464726573730000000000000000000000000000000000000000000000000000602082015250565b600061525660268361466e565b9150615261826151fa565b604082019050919050565b6000602082019050818103600083015261528581615249565b9050919050565b7f4f776e61626c653a2063616c6c6572206973206e6f7420746865206f776e6572600082015250565b60006152c260208361466e565b91506152cd8261528c565b602082019050919050565b600060208201905081810360008301526152f1816152b5565b9050919050565b600081905092915050565b7f416363657373436f6e74726f6c3a206163636f756e7420000000000000000000600082015250565b60006153396017836152f8565b915061534482615303565b601782019050919050565b600061535a82615186565b61536481856152f8565b9350615374818560208601614bc5565b80840191505092915050565b7f206973206d697373696e6720726f6c6520000000000000000000000000000000600082015250565b60006153b66011836152f8565b91506153c182615380565b601182019050919050565b60006153d78261532c565b91506153e3828561534f565b91506153ee826153a9565b91506153fa828461534f565b91508190509392505050565b600060208201905081810360008301526154208184615191565b905092915050565b6000615433826133c9565b915061543e836133c9565b925082820261544c816133c9565b9150828204841483151761546357615462614d2b565b5b5092915050565b6000615475826133c9565b9150615480836133c9565b925082820190508082111561549857615497614d2b565b5b92915050565b60006154a9826133c9565b9150600082036154bc576154bb614d2b565b5b600182039050919050565b7f537472696e67733a20686578206c656e67746820696e73756666696369656e74600082015250565b60006154fd60208361466e565b9150615508826154c7565b602082019050919050565b6000602082019050818103600083015261552c816154f0565b905091905056fea26469706673582212200c762ec79e0a104a2002b1aa20c9d0b4acdd3ba97862ccf0b77683151e94786c64736f6c63430008110033",
  "linkReferences": {},
  "deployedLinkReferences": {}
}