{
  "_format": "hh-sol-artifact-1",
  "contractName": "PKPHelperV2",
  "sourceName": "contracts/lit-node/PKPHelperV2.sol",
  "abi": [
    {
      "inputs": [
        {
          "internalType": "address",
          "name": "_resolver",
          "type": "address"
        },
        {
          "internalType": "enum ContractResolver.Env",
          "name": "_env",
          "type": "uint8"
        }
      ],
      "stateMutability": "nonpayable",
      "type": "constructor"
    },
    {
      "anonymous": false,
      "inputs": [
        {
          "indexed": false,
          "internalType": "address",
          "name": "newResolverAddress",
          "type": "address"
        }
      ],
      "name": "ContractResolverAddressSet",
      "type": "event"
    },
    {
      "anonymous": false,
      "inputs": [
        {
          "indexed": true,
          "internalType": "address",
          "name": "previousOwner",
          "type": "address"
        },
        {
          "indexed": true,
          "internalType": "address",
          "name": "newOwner",
          "type": "address"
        }
      ],
      "name": "OwnershipTransferred",
      "type": "event"
    },
    {
      "inputs": [],
      "name": "contractResolver",
      "outputs": [
        {
          "internalType": "contract ContractResolver",
          "name": "",
          "type": "address"
        }
      ],
      "stateMutability": "view",
      "type": "function"
    },
    {
      "inputs": [],
      "name": "env",
      "outputs": [
        {
          "internalType": "enum ContractResolver.Env",
          "name": "",
          "type": "uint8"
        }
      ],
      "stateMutability": "view",
      "type": "function"
    },
    {
      "inputs": [],
      "name": "getDomainWalletRegistry",
      "outputs": [
        {
          "internalType": "address",
          "name": "",
          "type": "address"
        }
      ],
      "stateMutability": "view",
      "type": "function"
    },
    {
      "inputs": [],
      "name": "getPKPNftMetdataAddress",
      "outputs": [
        {
          "internalType": "address",
          "name": "",
          "type": "address"
        }
      ],
      "stateMutability": "view",
      "type": "function"
    },
    {
      "inputs": [],
      "name": "getPkpNftAddress",
      "outputs": [
        {
          "internalType": "address",
          "name": "",
          "type": "address"
        }
      ],
      "stateMutability": "view",
      "type": "function"
    },
    {
      "inputs": [],
      "name": "getPkpPermissionsAddress",
      "outputs": [
        {
          "internalType": "address",
          "name": "",
          "type": "address"
        }
      ],
      "stateMutability": "view",
      "type": "function"
    },
    {
      "inputs": [
        {
          "components": [
            {
              "internalType": "uint256",
              "name": "keyType",
              "type": "uint256"
            },
            {
              "internalType": "uint256[]",
              "name": "permittedAuthMethodTypes",
              "type": "uint256[]"
            },
            {
              "internalType": "bytes[]",
              "name": "permittedAuthMethodIds",
              "type": "bytes[]"
            },
            {
              "internalType": "bytes[]",
              "name": "permittedAuthMethodPubkeys",
              "type": "bytes[]"
            },
            {
              "internalType": "uint256[][]",
              "name": "permittedAuthMethodScopes",
              "type": "uint256[][]"
            },
            {
              "internalType": "bool",
              "name": "addPkpEthAddressAsPermittedAddress",
              "type": "bool"
            },
            {
              "internalType": "uint256[]",
              "name": "pkpEthAddressScopes",
              "type": "uint256[]"
            },
            {
              "internalType": "bool",
              "name": "sendPkpToItself",
              "type": "bool"
            },
            {
              "internalType": "bool",
              "name": "burnPkp",
              "type": "bool"
            },
            {
              "internalType": "address",
              "name": "sendToAddressAfterMinting",
              "type": "address"
            }
          ],
          "internalType": "struct PKPHelperV2.NewPKPParams",
          "name": "params",
          "type": "tuple"
        }
      ],
      "name": "mintNextAndAddAuthMethods",
      "outputs": [
        {
          "internalType": "uint256",
          "name": "",
          "type": "uint256"
        }
      ],
      "stateMutability": "payable",
      "type": "function"
    },
    {
      "inputs": [
        {
          "components": [
            {
              "internalType": "uint256",
              "name": "keyType",
              "type": "uint256"
            },
            {
              "internalType": "uint256[]",
              "name": "permittedAuthMethodTypes",
              "type": "uint256[]"
            },
            {
              "internalType": "bytes[]",
              "name": "permittedAuthMethodIds",
              "type": "bytes[]"
            },
            {
              "internalType": "bytes[]",
              "name": "permittedAuthMethodPubkeys",
              "type": "bytes[]"
            },
            {
              "internalType": "uint256[][]",
              "name": "permittedAuthMethodScopes",
              "type": "uint256[][]"
            },
            {
              "internalType": "bool",
              "name": "addPkpEthAddressAsPermittedAddress",
              "type": "bool"
            },
            {
              "internalType": "uint256[]",
              "name": "pkpEthAddressScopes",
              "type": "uint256[]"
            },
            {
              "internalType": "bool",
              "name": "sendPkpToItself",
              "type": "bool"
            },
            {
              "internalType": "bool",
              "name": "burnPkp",
              "type": "bool"
            },
            {
              "internalType": "address",
              "name": "sendToAddressAfterMinting",
              "type": "address"
            }
          ],
          "internalType": "struct PKPHelperV2.NewPKPParams",
          "name": "params",
          "type": "tuple"
        }
      ],
      "name": "mintNextAndAddAuthMethodsWithTypes",
      "outputs": [
        {
          "internalType": "uint256",
          "name": "",
          "type": "uint256"
        }
      ],
      "stateMutability": "payable",
      "type": "function"
    },
    {
      "inputs": [
        {
          "internalType": "address",
          "name": "",
          "type": "address"
        },
        {
          "internalType": "address",
          "name": "",
          "type": "address"
        },
        {
          "internalType": "uint256",
          "name": "",
          "type": "uint256"
        },
        {
          "internalType": "bytes",
          "name": "",
          "type": "bytes"
        }
      ],
      "name": "onERC721Received",
      "outputs": [
        {
          "internalType": "bytes4",
          "name": "",
          "type": "bytes4"
        }
      ],
      "stateMutability": "view",
      "type": "function"
    },
    {
      "inputs": [],
      "name": "owner",
      "outputs": [
        {
          "internalType": "address",
          "name": "",
          "type": "address"
        }
      ],
      "stateMutability": "view",
      "type": "function"
    },
    {
      "inputs": [],
      "name": "renounceOwnership",
      "outputs": [],
      "stateMutability": "nonpayable",
      "type": "function"
    },
    {
      "inputs": [
        {
          "internalType": "address",
          "name": "newResolverAddress",
          "type": "address"
        }
      ],
      "name": "setContractResolver",
      "outputs": [],
      "stateMutability": "nonpayable",
      "type": "function"
    },
    {
      "inputs": [
        {
          "internalType": "address",
          "name": "newOwner",
          "type": "address"
        }
      ],
      "name": "transferOwnership",
      "outputs": [],
      "stateMutability": "nonpayable",
      "type": "function"
    }
  ],
  "bytecode": "0x60806040523480156200001157600080fd5b50604051620025003803806200250083398181016040528101906200003791906200022b565b620000576200004b620000cd60201b60201c565b620000d560201b60201c565b81600160006101000a81548173ffffffffffffffffffffffffffffffffffffffff021916908373ffffffffffffffffffffffffffffffffffffffff16021790555080600160146101000a81548160ff02191690836002811115620000c057620000bf62000272565b5b02179055505050620002a1565b600033905090565b60008060009054906101000a900473ffffffffffffffffffffffffffffffffffffffff169050816000806101000a81548173ffffffffffffffffffffffffffffffffffffffff021916908373ffffffffffffffffffffffffffffffffffffffff1602179055508173ffffffffffffffffffffffffffffffffffffffff168173ffffffffffffffffffffffffffffffffffffffff167f8be0079c531659141344cd1fd0a4f28419497f9722a3daafe3b4186f6b6457e060405160405180910390a35050565b600080fd5b600073ffffffffffffffffffffffffffffffffffffffff82169050919050565b6000620001cb826200019e565b9050919050565b620001dd81620001be565b8114620001e957600080fd5b50565b600081519050620001fd81620001d2565b92915050565b600381106200021157600080fd5b50565b600081519050620002258162000203565b92915050565b6000806040838503121562000245576200024462000199565b5b60006200025585828601620001ec565b9250506020620002688582860162000214565b9150509250929050565b7f4e487b7100000000000000000000000000000000000000000000000000000000600052602160045260246000fd5b61224f80620002b16000396000f3fe6080604052600436106100c25760003560e01c806373cc41111161007f578063b32597b811610059578063b32597b81461024d578063caead0c71461027d578063f2fde38b146102a8578063f95d71b1146102d1576100c2565b806373cc4111146101cc5780638da5cb5b146101f75780639dca003214610222576100c2565b8063150b7a02146100c75780633276558c1461010457806335fdbc401461012f5780635043026c1461015f57806350d17b5e1461018a578063715018a6146101b5575b600080fd5b3480156100d357600080fd5b506100ee60048036038101906100e99190611271565b6102fa565b6040516100fb9190611334565b60405180910390f35b34801561011057600080fd5b50610119610384565b604051610126919061135e565b60405180910390f35b61014960048036038101906101449190611903565b6104c8565b604051610156919061195b565b60405180910390f35b34801561016b57600080fd5b50610174610ac0565b604051610181919061135e565b60405180910390f35b34801561019657600080fd5b5061019f610c04565b6040516101ac91906119d5565b60405180910390f35b3480156101c157600080fd5b506101ca610c2a565b005b3480156101d857600080fd5b506101e1610c3e565b6040516101ee919061135e565b60405180910390f35b34801561020357600080fd5b5061020c610d82565b604051610219919061135e565b60405180910390f35b34801561022e57600080fd5b50610237610dab565b6040516102449190611a67565b60405180910390f35b61026760048036038101906102629190611903565b610dbe565b604051610274919061195b565b60405180910390f35b34801561028957600080fd5b50610292610dd0565b60405161029f919061135e565b60405180910390f35b3480156102b457600080fd5b506102cf60048036038101906102ca9190611a82565b610f14565b005b3480156102dd57600080fd5b506102f860048036038101906102f39190611a82565b610f97565b005b6000610304610dd0565b73ffffffffffffffffffffffffffffffffffffffff163373ffffffffffffffffffffffffffffffffffffffff1614610371576040517f08c379a000000000000000000000000000000000000000000000000000000000815260040161036890611b32565b60405180910390fd5b63150b7a0260e01b905095945050505050565b6000600160009054906101000a900473ffffffffffffffffffffffffffffffffffffffff1673ffffffffffffffffffffffffffffffffffffffff16638e8dfd16600160009054906101000a900473ffffffffffffffffffffffffffffffffffffffff1673ffffffffffffffffffffffffffffffffffffffff16639072f8386040518163ffffffff1660e01b8152600401602060405180830381865afa158015610431573d6000803e3d6000fd5b505050506040513d601f19601f820116820180604052508101906104559190611b88565b600160149054906101000a900460ff166040518363ffffffff1660e01b8152600401610482929190611bc4565b602060405180830381865afa15801561049f573d6000803e3d6000fd5b505050506040513d601f19601f820116820180604052508101906104c39190611c02565b905090565b6000806104d3610dd0565b73ffffffffffffffffffffffffffffffffffffffff16635d228b163485600001516040518363ffffffff1660e01b8152600401610510919061195b565b60206040518083038185885af115801561052e573d6000803e3d6000fd5b50505050506040513d601f19601f820116820180604052508101906105539190611c44565b9050826040015151836020015151146105a1576040517f08c379a000000000000000000000000000000000000000000000000000000000815260040161059890611ce3565b60405180910390fd5b826060015151836020015151146105ed576040517f08c379a00000000000000000000000000000000000000000000000000000000081526004016105e490611d75565b60405180910390fd5b82608001515183602001515114610639576040517f08c379a000000000000000000000000000000000000000000000000000000000815260040161063090611e07565b60405180910390fd5b6000836020015151146107735760005b8360200151518110156107715761065e610384565b73ffffffffffffffffffffffffffffffffffffffff16639dd4349b8360405180606001604052808860200151868151811061069c5761069b611e27565b5b60200260200101518152602001886040015186815181106106c0576106bf611e27565b5b60200260200101518152602001886060015186815181106106e4576106e3611e27565b5b60200260200101518152508760800151858151811061070657610705611e27565b5b60200260200101516040518463ffffffff1660e01b815260040161072c93929190611fea565b600060405180830381600087803b15801561074657600080fd5b505af115801561075a573d6000803e3d6000fd5b5050505080806107699061205e565b915050610649565b505b600061077d610384565b73ffffffffffffffffffffffffffffffffffffffff1663bd4986a0836040518263ffffffff1660e01b81526004016107b5919061195b565b602060405180830381865afa1580156107d2573d6000803e3d6000fd5b505050506040513d601f19601f820116820180604052508101906107f69190611c02565b90508360a001511561087d5761080a610384565b73ffffffffffffffffffffffffffffffffffffffff16631663c12183838760c001516040518463ffffffff1660e01b815260040161084a939291906120a6565b600060405180830381600087803b15801561086457600080fd5b505af1158015610878573d6000803e3d6000fd5b505050505b8360e00151156109025761088f610dd0565b73ffffffffffffffffffffffffffffffffffffffff166342842e0e3083856040518463ffffffff1660e01b81526004016108cb939291906120e4565b600060405180830381600087803b1580156108e557600080fd5b505af11580156108f9573d6000803e3d6000fd5b50505050610ab6565b8361010001511561098457610915610dd0565b73ffffffffffffffffffffffffffffffffffffffff166342966c68836040518263ffffffff1660e01b815260040161094d919061195b565b600060405180830381600087803b15801561096757600080fd5b505af115801561097b573d6000803e3d6000fd5b50505050610ab5565b600073ffffffffffffffffffffffffffffffffffffffff1684610120015173ffffffffffffffffffffffffffffffffffffffff1614610a3d576109c5610dd0565b73ffffffffffffffffffffffffffffffffffffffff166342842e0e30866101200151856040518463ffffffff1660e01b8152600401610a06939291906120e4565b600060405180830381600087803b158015610a2057600080fd5b505af1158015610a34573d6000803e3d6000fd5b50505050610ab4565b610a45610dd0565b73ffffffffffffffffffffffffffffffffffffffff166342842e0e3033856040518463ffffffff1660e01b8152600401610a81939291906120e4565b600060405180830381600087803b158015610a9b57600080fd5b505af1158015610aaf573d6000803e3d6000fd5b505050505b5b5b8192505050919050565b6000600160009054906101000a900473ffffffffffffffffffffffffffffffffffffffff1673ffffffffffffffffffffffffffffffffffffffff16638e8dfd16600160009054906101000a900473ffffffffffffffffffffffffffffffffffffffff1673ffffffffffffffffffffffffffffffffffffffff166316f76bbf6040518163ffffffff1660e01b8152600401602060405180830381865afa158015610b6d573d6000803e3d6000fd5b505050506040513d601f19601f82011682018060405250810190610b919190611b88565b600160149054906101000a900460ff166040518363ffffffff1660e01b8152600401610bbe929190611bc4565b602060405180830381865afa158015610bdb573d6000803e3d6000fd5b505050506040513d601f19601f82011682018060405250810190610bff9190611c02565b905090565b600160009054906101000a900473ffffffffffffffffffffffffffffffffffffffff1681565b610c3261101a565b610c3c6000611098565b565b6000600160009054906101000a900473ffffffffffffffffffffffffffffffffffffffff1673ffffffffffffffffffffffffffffffffffffffff16638e8dfd16600160009054906101000a900473ffffffffffffffffffffffffffffffffffffffff1673ffffffffffffffffffffffffffffffffffffffff16634216e73a6040518163ffffffff1660e01b8152600401602060405180830381865afa158015610ceb573d6000803e3d6000fd5b505050506040513d601f19601f82011682018060405250810190610d0f9190611b88565b600160149054906101000a900460ff166040518363ffffffff1660e01b8152600401610d3c929190611bc4565b602060405180830381865afa158015610d59573d6000803e3d6000fd5b505050506040513d601f19601f82011682018060405250810190610d7d9190611c02565b905090565b60008060009054906101000a900473ffffffffffffffffffffffffffffffffffffffff16905090565b600160149054906101000a900460ff1681565b6000610dc9826104c8565b9050919050565b6000600160009054906101000a900473ffffffffffffffffffffffffffffffffffffffff1673ffffffffffffffffffffffffffffffffffffffff16638e8dfd16600160009054906101000a900473ffffffffffffffffffffffffffffffffffffffff1673ffffffffffffffffffffffffffffffffffffffff16632c0b8bf76040518163ffffffff1660e01b8152600401602060405180830381865afa158015610e7d573d6000803e3d6000fd5b505050506040513d601f19601f82011682018060405250810190610ea19190611b88565b600160149054906101000a900460ff166040518363ffffffff1660e01b8152600401610ece929190611bc4565b602060405180830381865afa158015610eeb573d6000803e3d6000fd5b505050506040513d601f19601f82011682018060405250810190610f0f9190611c02565b905090565b610f1c61101a565b600073ffffffffffffffffffffffffffffffffffffffff168173ffffffffffffffffffffffffffffffffffffffff1603610f8b576040517f08c379a0000000000000000000000000000000000000000000000000000000008152600401610f829061218d565b60405180910390fd5b610f9481611098565b50565b610f9f61101a565b80600160006101000a81548173ffffffffffffffffffffffffffffffffffffffff021916908373ffffffffffffffffffffffffffffffffffffffff1602179055507f2760073c7cd8cac531d7f643becbfbb74d8b8156443eacf879622532dbbb3cd58160405161100f919061135e565b60405180910390a150565b61102261115c565b73ffffffffffffffffffffffffffffffffffffffff16611040610d82565b73ffffffffffffffffffffffffffffffffffffffff1614611096576040517f08c379a000000000000000000000000000000000000000000000000000000000815260040161108d906121f9565b60405180910390fd5b565b60008060009054906101000a900473ffffffffffffffffffffffffffffffffffffffff169050816000806101000a81548173ffffffffffffffffffffffffffffffffffffffff021916908373ffffffffffffffffffffffffffffffffffffffff1602179055508173ffffffffffffffffffffffffffffffffffffffff168173ffffffffffffffffffffffffffffffffffffffff167f8be0079c531659141344cd1fd0a4f28419497f9722a3daafe3b4186f6b6457e060405160405180910390a35050565b600033905090565b6000604051905090565b600080fd5b600080fd5b600073ffffffffffffffffffffffffffffffffffffffff82169050919050565b60006111a382611178565b9050919050565b6111b381611198565b81146111be57600080fd5b50565b6000813590506111d0816111aa565b92915050565b6000819050919050565b6111e9816111d6565b81146111f457600080fd5b50565b600081359050611206816111e0565b92915050565b600080fd5b600080fd5b600080fd5b60008083601f8401126112315761123061120c565b5b8235905067ffffffffffffffff81111561124e5761124d611211565b5b60208301915083600182028301111561126a57611269611216565b5b9250929050565b60008060008060006080868803121561128d5761128c61116e565b5b600061129b888289016111c1565b95505060206112ac888289016111c1565b94505060406112bd888289016111f7565b935050606086013567ffffffffffffffff8111156112de576112dd611173565b5b6112ea8882890161121b565b92509250509295509295909350565b60007fffffffff0000000000000000000000000000000000000000000000000000000082169050919050565b61132e816112f9565b82525050565b60006020820190506113496000830184611325565b92915050565b61135881611198565b82525050565b6000602082019050611373600083018461134f565b92915050565b600080fd5b6000601f19601f8301169050919050565b7f4e487b7100000000000000000000000000000000000000000000000000000000600052604160045260246000fd5b6113c78261137e565b810181811067ffffffffffffffff821117156113e6576113e561138f565b5b80604052505050565b60006113f9611164565b905061140582826113be565b919050565b600080fd5b600067ffffffffffffffff82111561142a5761142961138f565b5b602082029050602081019050919050565b600061144e6114498461140f565b6113ef565b9050808382526020820190506020840283018581111561147157611470611216565b5b835b8181101561149a578061148688826111f7565b845260208401935050602081019050611473565b5050509392505050565b600082601f8301126114b9576114b861120c565b5b81356114c984826020860161143b565b91505092915050565b600067ffffffffffffffff8211156114ed576114ec61138f565b5b602082029050602081019050919050565b600080fd5b600067ffffffffffffffff82111561151e5761151d61138f565b5b6115278261137e565b9050602081019050919050565b82818337600083830152505050565b600061155661155184611503565b6113ef565b905082815260208101848484011115611572576115716114fe565b5b61157d848285611534565b509392505050565b600082601f83011261159a5761159961120c565b5b81356115aa848260208601611543565b91505092915050565b60006115c66115c1846114d2565b6113ef565b905080838252602082019050602084028301858111156115e9576115e8611216565b5b835b8181101561163057803567ffffffffffffffff81111561160e5761160d61120c565b5b80860161161b8982611585565b855260208501945050506020810190506115eb565b5050509392505050565b600082601f83011261164f5761164e61120c565b5b813561165f8482602086016115b3565b91505092915050565b600067ffffffffffffffff8211156116835761168261138f565b5b602082029050602081019050919050565b60006116a76116a284611668565b6113ef565b905080838252602082019050602084028301858111156116ca576116c9611216565b5b835b8181101561171157803567ffffffffffffffff8111156116ef576116ee61120c565b5b8086016116fc89826114a4565b855260208501945050506020810190506116cc565b5050509392505050565b600082601f8301126117305761172f61120c565b5b8135611740848260208601611694565b91505092915050565b60008115159050919050565b61175e81611749565b811461176957600080fd5b50565b60008135905061177b81611755565b92915050565b6000610140828403121561179857611797611379565b5b6117a36101406113ef565b905060006117b3848285016111f7565b600083015250602082013567ffffffffffffffff8111156117d7576117d661140a565b5b6117e3848285016114a4565b602083015250604082013567ffffffffffffffff8111156118075761180661140a565b5b6118138482850161163a565b604083015250606082013567ffffffffffffffff8111156118375761183661140a565b5b6118438482850161163a565b606083015250608082013567ffffffffffffffff8111156118675761186661140a565b5b6118738482850161171b565b60808301525060a06118878482850161176c565b60a08301525060c082013567ffffffffffffffff8111156118ab576118aa61140a565b5b6118b7848285016114a4565b60c08301525060e06118cb8482850161176c565b60e0830152506101006118e08482850161176c565b610100830152506101206118f6848285016111c1565b6101208301525092915050565b6000602082840312156119195761191861116e565b5b600082013567ffffffffffffffff81111561193757611936611173565b5b61194384828501611781565b91505092915050565b611955816111d6565b82525050565b6000602082019050611970600083018461194c565b92915050565b6000819050919050565b600061199b61199661199184611178565b611976565b611178565b9050919050565b60006119ad82611980565b9050919050565b60006119bf826119a2565b9050919050565b6119cf816119b4565b82525050565b60006020820190506119ea60008301846119c6565b92915050565b7f4e487b7100000000000000000000000000000000000000000000000000000000600052602160045260246000fd5b60038110611a3057611a2f6119f0565b5b50565b6000819050611a4182611a1f565b919050565b6000611a5182611a33565b9050919050565b611a6181611a46565b82525050565b6000602082019050611a7c6000830184611a58565b92915050565b600060208284031215611a9857611a9761116e565b5b6000611aa6848285016111c1565b91505092915050565b600082825260208201905092915050565b7f504b5048656c7065723a206f6e6c792061636365707473207472616e7366657260008201527f732066726f6d2074686520504b504e465420636f6e7472616374000000000000602082015250565b6000611b1c603a83611aaf565b9150611b2782611ac0565b604082019050919050565b60006020820190508181036000830152611b4b81611b0f565b9050919050565b6000819050919050565b611b6581611b52565b8114611b7057600080fd5b50565b600081519050611b8281611b5c565b92915050565b600060208284031215611b9e57611b9d61116e565b5b6000611bac84828501611b73565b91505092915050565b611bbe81611b52565b82525050565b6000604082019050611bd96000830185611bb5565b611be66020830184611a58565b9392505050565b600081519050611bfc816111aa565b92915050565b600060208284031215611c1857611c1761116e565b5b6000611c2684828501611bed565b91505092915050565b600081519050611c3e816111e0565b92915050565b600060208284031215611c5a57611c5961116e565b5b6000611c6884828501611c2f565b91505092915050565b7f504b5048656c7065723a2061757468206d6574686f64207479706520616e642060008201527f6964206172726179206c656e67746873206d757374206d617463680000000000602082015250565b6000611ccd603b83611aaf565b9150611cd882611c71565b604082019050919050565b60006020820190508181036000830152611cfc81611cc0565b9050919050565b7f504b5048656c7065723a2061757468206d6574686f64207479706520616e642060008201527f7075626b6579206172726179206c656e67746873206d757374206d6174636800602082015250565b6000611d5f603f83611aaf565b9150611d6a82611d03565b604082019050919050565b60006020820190508181036000830152611d8e81611d52565b9050919050565b7f504b5048656c7065723a2061757468206d6574686f64207479706520616e642060008201527f73636f706573206172726179206c656e67746873206d757374206d6174636800602082015250565b6000611df1603f83611aaf565b9150611dfc82611d95565b604082019050919050565b60006020820190508181036000830152611e2081611de4565b9050919050565b7f4e487b7100000000000000000000000000000000000000000000000000000000600052603260045260246000fd5b611e5f816111d6565b82525050565b600081519050919050565b600082825260208201905092915050565b60005b83811015611e9f578082015181840152602081019050611e84565b60008484015250505050565b6000611eb682611e65565b611ec08185611e70565b9350611ed0818560208601611e81565b611ed98161137e565b840191505092915050565b6000606083016000830151611efc6000860182611e56565b5060208301518482036020860152611f148282611eab565b91505060408301518482036040860152611f2e8282611eab565b9150508091505092915050565b600081519050919050565b600082825260208201905092915050565b6000819050602082019050919050565b6000611f738383611e56565b60208301905092915050565b6000602082019050919050565b6000611f9782611f3b565b611fa18185611f46565b9350611fac83611f57565b8060005b83811015611fdd578151611fc48882611f67565b9750611fcf83611f7f565b925050600181019050611fb0565b5085935050505092915050565b6000606082019050611fff600083018661194c565b81810360208301526120118185611ee4565b905081810360408301526120258184611f8c565b9050949350505050565b7f4e487b7100000000000000000000000000000000000000000000000000000000600052601160045260246000fd5b6000612069826111d6565b91507fffffffffffffffffffffffffffffffffffffffffffffffffffffffffffffffff820361209b5761209a61202f565b5b600182019050919050565b60006060820190506120bb600083018661194c565b6120c8602083018561134f565b81810360408301526120da8184611f8c565b9050949350505050565b60006060820190506120f9600083018661134f565b612106602083018561134f565b612113604083018461194c565b949350505050565b7f4f776e61626c653a206e6577206f776e657220697320746865207a65726f206160008201527f6464726573730000000000000000000000000000000000000000000000000000602082015250565b6000612177602683611aaf565b91506121828261211b565b604082019050919050565b600060208201905081810360008301526121a68161216a565b9050919050565b7f4f776e61626c653a2063616c6c6572206973206e6f7420746865206f776e6572600082015250565b60006121e3602083611aaf565b91506121ee826121ad565b602082019050919050565b60006020820190508181036000830152612212816121d6565b905091905056fea26469706673582212203f3f0dc9e6e7298c9ce525b0ba51c6946478a5026a48f941f5eb132b868b233c64736f6c63430008110033",
  "linkReferences": {},
  "deployedLinkReferences": {}
}