{
  "_format": "hh-sol-artifact-1",
  "contractName": "PKPHelper",
  "sourceName": "contracts/lit-node/PKPHelper.sol",
  "abi": [
    {
      "inputs": [
        {
          "internalType": "address",
          "name": "_resolver",
          "type": "address"
        },
        {
          "internalType": "enum ContractResolver.Env",
          "name": "_env",
          "type": "uint8"
        }
      ],
      "stateMutability": "nonpayable",
      "type": "constructor"
    },
    {
      "anonymous": false,
      "inputs": [
        {
          "indexed": false,
          "internalType": "address",
          "name": "newResolverAddress",
          "type": "address"
        }
      ],
      "name": "ContractResolverAddressSet",
      "type": "event"
    },
    {
      "anonymous": false,
      "inputs": [
        {
          "indexed": true,
          "internalType": "address",
          "name": "previousOwner",
          "type": "address"
        },
        {
          "indexed": true,
          "internalType": "address",
          "name": "newOwner",
          "type": "address"
        }
      ],
      "name": "OwnershipTransferred",
      "type": "event"
    },
    {
      "anonymous": false,
      "inputs": [
        {
          "indexed": true,
          "internalType": "bytes32",
          "name": "role",
          "type": "bytes32"
        },
        {
          "indexed": true,
          "internalType": "bytes32",
          "name": "previousAdminRole",
          "type": "bytes32"
        },
        {
          "indexed": true,
          "internalType": "bytes32",
          "name": "newAdminRole",
          "type": "bytes32"
        }
      ],
      "name": "RoleAdminChanged",
      "type": "event"
    },
    {
      "anonymous": false,
      "inputs": [
        {
          "indexed": true,
          "internalType": "bytes32",
          "name": "role",
          "type": "bytes32"
        },
        {
          "indexed": true,
          "internalType": "address",
          "name": "account",
          "type": "address"
        },
        {
          "indexed": true,
          "internalType": "address",
          "name": "sender",
          "type": "address"
        }
      ],
      "name": "RoleGranted",
      "type": "event"
    },
    {
      "anonymous": false,
      "inputs": [
        {
          "indexed": true,
          "internalType": "bytes32",
          "name": "role",
          "type": "bytes32"
        },
        {
          "indexed": true,
          "internalType": "address",
          "name": "account",
          "type": "address"
        },
        {
          "indexed": true,
          "internalType": "address",
          "name": "sender",
          "type": "address"
        }
      ],
      "name": "RoleRevoked",
      "type": "event"
    },
    {
      "inputs": [],
      "name": "DEFAULT_ADMIN_ROLE",
      "outputs": [
        {
          "internalType": "bytes32",
          "name": "",
          "type": "bytes32"
        }
      ],
      "stateMutability": "view",
      "type": "function"
    },
    {
      "inputs": [
        {
          "components": [
            {
              "internalType": "uint256",
              "name": "keyType",
              "type": "uint256"
            },
            {
              "internalType": "bytes32",
              "name": "derivedKeyId",
              "type": "bytes32"
            },
            {
              "components": [
                {
                  "internalType": "bytes32",
                  "name": "r",
                  "type": "bytes32"
                },
                {
                  "internalType": "bytes32",
                  "name": "s",
                  "type": "bytes32"
                },
                {
                  "internalType": "uint8",
                  "name": "v",
                  "type": "uint8"
                }
              ],
              "internalType": "struct IPubkeyRouter.Signature[]",
              "name": "signatures",
              "type": "tuple[]"
            }
          ],
          "internalType": "struct LibPKPNFTStorage.ClaimMaterial",
          "name": "claimMaterial",
          "type": "tuple"
        },
        {
          "components": [
            {
              "internalType": "uint256",
              "name": "keyType",
              "type": "uint256"
            },
            {
              "internalType": "bytes[]",
              "name": "permittedIpfsCIDs",
              "type": "bytes[]"
            },
            {
              "internalType": "uint256[][]",
              "name": "permittedIpfsCIDScopes",
              "type": "uint256[][]"
            },
            {
              "internalType": "address[]",
              "name": "permittedAddresses",
              "type": "address[]"
            },
            {
              "internalType": "uint256[][]",
              "name": "permittedAddressScopes",
              "type": "uint256[][]"
            },
            {
              "internalType": "uint256[]",
              "name": "permittedAuthMethodTypes",
              "type": "uint256[]"
            },
            {
              "internalType": "bytes[]",
              "name": "permittedAuthMethodIds",
              "type": "bytes[]"
            },
            {
              "internalType": "bytes[]",
              "name": "permittedAuthMethodPubkeys",
              "type": "bytes[]"
            },
            {
              "internalType": "uint256[][]",
              "name": "permittedAuthMethodScopes",
              "type": "uint256[][]"
            },
            {
              "internalType": "bool",
              "name": "addPkpEthAddressAsPermittedAddress",
              "type": "bool"
            },
            {
              "internalType": "bool",
              "name": "sendPkpToItself",
              "type": "bool"
            }
          ],
          "internalType": "struct PKPHelper.AuthMethodData",
          "name": "authMethodData",
          "type": "tuple"
        }
      ],
      "name": "claimAndMintNextAndAddAuthMethods",
      "outputs": [
        {
          "internalType": "uint256",
          "name": "",
          "type": "uint256"
        }
      ],
      "stateMutability": "payable",
      "type": "function"
    },
    {
      "inputs": [
        {
          "components": [
            {
              "internalType": "uint256",
              "name": "keyType",
              "type": "uint256"
            },
            {
              "internalType": "bytes32",
              "name": "derivedKeyId",
              "type": "bytes32"
            },
            {
              "components": [
                {
                  "internalType": "bytes32",
                  "name": "r",
                  "type": "bytes32"
                },
                {
                  "internalType": "bytes32",
                  "name": "s",
                  "type": "bytes32"
                },
                {
                  "internalType": "uint8",
                  "name": "v",
                  "type": "uint8"
                }
              ],
              "internalType": "struct IPubkeyRouter.Signature[]",
              "name": "signatures",
              "type": "tuple[]"
            }
          ],
          "internalType": "struct LibPKPNFTStorage.ClaimMaterial",
          "name": "claimMaterial",
          "type": "tuple"
        },
        {
          "components": [
            {
              "internalType": "uint256",
              "name": "keyType",
              "type": "uint256"
            },
            {
              "internalType": "bytes[]",
              "name": "permittedIpfsCIDs",
              "type": "bytes[]"
            },
            {
              "internalType": "uint256[][]",
              "name": "permittedIpfsCIDScopes",
              "type": "uint256[][]"
            },
            {
              "internalType": "address[]",
              "name": "permittedAddresses",
              "type": "address[]"
            },
            {
              "internalType": "uint256[][]",
              "name": "permittedAddressScopes",
              "type": "uint256[][]"
            },
            {
              "internalType": "uint256[]",
              "name": "permittedAuthMethodTypes",
              "type": "uint256[]"
            },
            {
              "internalType": "bytes[]",
              "name": "permittedAuthMethodIds",
              "type": "bytes[]"
            },
            {
              "internalType": "bytes[]",
              "name": "permittedAuthMethodPubkeys",
              "type": "bytes[]"
            },
            {
              "internalType": "uint256[][]",
              "name": "permittedAuthMethodScopes",
              "type": "uint256[][]"
            },
            {
              "internalType": "bool",
              "name": "addPkpEthAddressAsPermittedAddress",
              "type": "bool"
            },
            {
              "internalType": "bool",
              "name": "sendPkpToItself",
              "type": "bool"
            }
          ],
          "internalType": "struct PKPHelper.AuthMethodData",
          "name": "authMethodData",
          "type": "tuple"
        }
      ],
      "name": "claimAndMintNextAndAddAuthMethodsWithTypes",
      "outputs": [
        {
          "internalType": "uint256",
          "name": "",
          "type": "uint256"
        }
      ],
      "stateMutability": "payable",
      "type": "function"
    },
    {
      "inputs": [
        {
          "components": [
            {
              "internalType": "uint256",
              "name": "keyType",
              "type": "uint256"
            },
            {
              "internalType": "bytes32",
              "name": "derivedKeyId",
              "type": "bytes32"
            },
            {
              "components": [
                {
                  "internalType": "bytes32",
                  "name": "r",
                  "type": "bytes32"
                },
                {
                  "internalType": "bytes32",
                  "name": "s",
                  "type": "bytes32"
                },
                {
                  "internalType": "uint8",
                  "name": "v",
                  "type": "uint8"
                }
              ],
              "internalType": "struct IPubkeyRouter.Signature[]",
              "name": "signatures",
              "type": "tuple[]"
            },
            {
              "internalType": "address",
              "name": "stakingContractAddress",
              "type": "address"
            }
          ],
          "internalType": "struct LibPKPNFTStorage.ClaimMaterialV2",
          "name": "claimMaterial",
          "type": "tuple"
        },
        {
          "components": [
            {
              "internalType": "uint256",
              "name": "keyType",
              "type": "uint256"
            },
            {
              "internalType": "bytes[]",
              "name": "permittedIpfsCIDs",
              "type": "bytes[]"
            },
            {
              "internalType": "uint256[][]",
              "name": "permittedIpfsCIDScopes",
              "type": "uint256[][]"
            },
            {
              "internalType": "address[]",
              "name": "permittedAddresses",
              "type": "address[]"
            },
            {
              "internalType": "uint256[][]",
              "name": "permittedAddressScopes",
              "type": "uint256[][]"
            },
            {
              "internalType": "uint256[]",
              "name": "permittedAuthMethodTypes",
              "type": "uint256[]"
            },
            {
              "internalType": "bytes[]",
              "name": "permittedAuthMethodIds",
              "type": "bytes[]"
            },
            {
              "internalType": "bytes[]",
              "name": "permittedAuthMethodPubkeys",
              "type": "bytes[]"
            },
            {
              "internalType": "uint256[][]",
              "name": "permittedAuthMethodScopes",
              "type": "uint256[][]"
            },
            {
              "internalType": "bool",
              "name": "addPkpEthAddressAsPermittedAddress",
              "type": "bool"
            },
            {
              "internalType": "bool",
              "name": "sendPkpToItself",
              "type": "bool"
            }
          ],
          "internalType": "struct PKPHelper.AuthMethodData",
          "name": "authMethodData",
          "type": "tuple"
        }
      ],
      "name": "claimAndMintNextAndAddAuthMethodsWithTypesV2",
      "outputs": [
        {
          "internalType": "uint256",
          "name": "",
          "type": "uint256"
        }
      ],
      "stateMutability": "payable",
      "type": "function"
    },
    {
      "inputs": [],
      "name": "contractResolver",
      "outputs": [
        {
          "internalType": "contract ContractResolver",
          "name": "",
          "type": "address"
        }
      ],
      "stateMutability": "view",
      "type": "function"
    },
    {
      "inputs": [],
      "name": "env",
      "outputs": [
        {
          "internalType": "enum ContractResolver.Env",
          "name": "",
          "type": "uint8"
        }
      ],
      "stateMutability": "view",
      "type": "function"
    },
    {
      "inputs": [],
      "name": "getDomainWalletRegistry",
      "outputs": [
        {
          "internalType": "address",
          "name": "",
          "type": "address"
        }
      ],
      "stateMutability": "view",
      "type": "function"
    },
    {
      "inputs": [],
      "name": "getPKPNftMetdataAddress",
      "outputs": [
        {
          "internalType": "address",
          "name": "",
          "type": "address"
        }
      ],
      "stateMutability": "view",
      "type": "function"
    },
    {
      "inputs": [],
      "name": "getPkpNftAddress",
      "outputs": [
        {
          "internalType": "address",
          "name": "",
          "type": "address"
        }
      ],
      "stateMutability": "view",
      "type": "function"
    },
    {
      "inputs": [],
      "name": "getPkpPermissionsAddress",
      "outputs": [
        {
          "internalType": "address",
          "name": "",
          "type": "address"
        }
      ],
      "stateMutability": "view",
      "type": "function"
    },
    {
      "inputs": [
        {
          "internalType": "bytes32",
          "name": "role",
          "type": "bytes32"
        }
      ],
      "name": "getRoleAdmin",
      "outputs": [
        {
          "internalType": "bytes32",
          "name": "",
          "type": "bytes32"
        }
      ],
      "stateMutability": "view",
      "type": "function"
    },
    {
      "inputs": [],
      "name": "getStakingAddress",
      "outputs": [
        {
          "internalType": "address",
          "name": "",
          "type": "address"
        }
      ],
      "stateMutability": "view",
      "type": "function"
    },
    {
      "inputs": [
        {
          "internalType": "bytes32",
          "name": "role",
          "type": "bytes32"
        },
        {
          "internalType": "address",
          "name": "account",
          "type": "address"
        }
      ],
      "name": "grantRole",
      "outputs": [],
      "stateMutability": "nonpayable",
      "type": "function"
    },
    {
      "inputs": [
        {
          "internalType": "bytes32",
          "name": "role",
          "type": "bytes32"
        },
        {
          "internalType": "address",
          "name": "account",
          "type": "address"
        }
      ],
      "name": "hasRole",
      "outputs": [
        {
          "internalType": "bool",
          "name": "",
          "type": "bool"
        }
      ],
      "stateMutability": "view",
      "type": "function"
    },
    {
      "inputs": [
        {
          "internalType": "uint256",
          "name": "keyType",
          "type": "uint256"
        },
        {
          "internalType": "uint256[]",
          "name": "permittedAuthMethodTypes",
          "type": "uint256[]"
        },
        {
          "internalType": "bytes[]",
          "name": "permittedAuthMethodIds",
          "type": "bytes[]"
        },
        {
          "internalType": "bytes[]",
          "name": "permittedAuthMethodPubkeys",
          "type": "bytes[]"
        },
        {
          "internalType": "uint256[][]",
          "name": "permittedAuthMethodScopes",
          "type": "uint256[][]"
        },
        {
          "internalType": "bool",
          "name": "addPkpEthAddressAsPermittedAddress",
          "type": "bool"
        },
        {
          "internalType": "bool",
          "name": "sendPkpToItself",
          "type": "bool"
        }
      ],
      "name": "mintNextAndAddAuthMethods",
      "outputs": [
        {
          "internalType": "uint256",
          "name": "",
          "type": "uint256"
        }
      ],
      "stateMutability": "payable",
      "type": "function"
    },
    {
      "inputs": [
        {
          "internalType": "uint256",
          "name": "keyType",
          "type": "uint256"
        },
        {
          "internalType": "bytes[]",
          "name": "permittedIpfsCIDs",
          "type": "bytes[]"
        },
        {
          "internalType": "uint256[][]",
          "name": "permittedIpfsCIDScopes",
          "type": "uint256[][]"
        },
        {
          "internalType": "address[]",
          "name": "permittedAddresses",
          "type": "address[]"
        },
        {
          "internalType": "uint256[][]",
          "name": "permittedAddressScopes",
          "type": "uint256[][]"
        },
        {
          "internalType": "uint256[]",
          "name": "permittedAuthMethodTypes",
          "type": "uint256[]"
        },
        {
          "internalType": "bytes[]",
          "name": "permittedAuthMethodIds",
          "type": "bytes[]"
        },
        {
          "internalType": "bytes[]",
          "name": "permittedAuthMethodPubkeys",
          "type": "bytes[]"
        },
        {
          "internalType": "uint256[][]",
          "name": "permittedAuthMethodScopes",
          "type": "uint256[][]"
        },
        {
          "internalType": "bool",
          "name": "addPkpEthAddressAsPermittedAddress",
          "type": "bool"
        },
        {
          "internalType": "bool",
          "name": "sendPkpToItself",
          "type": "bool"
        }
      ],
      "name": "mintNextAndAddAuthMethodsWithTypes",
      "outputs": [
        {
          "internalType": "uint256",
          "name": "",
          "type": "uint256"
        }
      ],
      "stateMutability": "payable",
      "type": "function"
    },
    {
      "inputs": [
        {
          "internalType": "uint256",
          "name": "keyType",
          "type": "uint256"
        },
        {
          "internalType": "uint256[]",
          "name": "permittedAuthMethodTypes",
          "type": "uint256[]"
        },
        {
          "internalType": "bytes[]",
          "name": "permittedAuthMethodIds",
          "type": "bytes[]"
        },
        {
          "internalType": "bytes[]",
          "name": "permittedAuthMethodPubkeys",
          "type": "bytes[]"
        },
        {
          "internalType": "uint256[][]",
          "name": "permittedAuthMethodScopes",
          "type": "uint256[][]"
        },
        {
          "internalType": "string[]",
          "name": "nftMetadata",
          "type": "string[]"
        },
        {
          "internalType": "bool",
          "name": "addPkpEthAddressAsPermittedAddress",
          "type": "bool"
        },
        {
          "internalType": "bool",
          "name": "sendPkpToItself",
          "type": "bool"
        }
      ],
      "name": "mintNextAndAddDomainWalletMetadata",
      "outputs": [
        {
          "internalType": "uint256",
          "name": "",
          "type": "uint256"
        }
      ],
      "stateMutability": "payable",
      "type": "function"
    },
    {
      "inputs": [
        {
          "internalType": "address",
          "name": "",
          "type": "address"
        },
        {
          "internalType": "address",
          "name": "",
          "type": "address"
        },
        {
          "internalType": "uint256",
          "name": "",
          "type": "uint256"
        },
        {
          "internalType": "bytes",
          "name": "",
          "type": "bytes"
        }
      ],
      "name": "onERC721Received",
      "outputs": [
        {
          "internalType": "bytes4",
          "name": "",
          "type": "bytes4"
        }
      ],
      "stateMutability": "view",
      "type": "function"
    },
    {
      "inputs": [],
      "name": "owner",
      "outputs": [
        {
          "internalType": "address",
          "name": "",
          "type": "address"
        }
      ],
      "stateMutability": "view",
      "type": "function"
    },
    {
      "inputs": [
        {
          "internalType": "uint256",
          "name": "tokenId",
          "type": "uint256"
        }
      ],
      "name": "removePkpMetadata",
      "outputs": [],
      "stateMutability": "nonpayable",
      "type": "function"
    },
    {
      "inputs": [],
      "name": "renounceOwnership",
      "outputs": [],
      "stateMutability": "nonpayable",
      "type": "function"
    },
    {
      "inputs": [
        {
          "internalType": "bytes32",
          "name": "role",
          "type": "bytes32"
        },
        {
          "internalType": "address",
          "name": "account",
          "type": "address"
        }
      ],
      "name": "renounceRole",
      "outputs": [],
      "stateMutability": "nonpayable",
      "type": "function"
    },
    {
      "inputs": [
        {
          "internalType": "bytes32",
          "name": "role",
          "type": "bytes32"
        },
        {
          "internalType": "address",
          "name": "account",
          "type": "address"
        }
      ],
      "name": "revokeRole",
      "outputs": [],
      "stateMutability": "nonpayable",
      "type": "function"
    },
    {
      "inputs": [
        {
          "internalType": "address",
          "name": "newResolverAddress",
          "type": "address"
        }
      ],
      "name": "setContractResolver",
      "outputs": [],
      "stateMutability": "nonpayable",
      "type": "function"
    },
    {
      "inputs": [
        {
          "internalType": "uint256",
          "name": "tokenId",
          "type": "uint256"
        },
        {
          "internalType": "string[]",
          "name": "nftMetadata",
          "type": "string[]"
        }
      ],
      "name": "setPkpMetadata",
      "outputs": [],
      "stateMutability": "nonpayable",
      "type": "function"
    },
    {
      "inputs": [
        {
          "internalType": "bytes4",
          "name": "interfaceId",
          "type": "bytes4"
        }
      ],
      "name": "supportsInterface",
      "outputs": [
        {
          "internalType": "bool",
          "name": "",
          "type": "bool"
        }
      ],
      "stateMutability": "view",
      "type": "function"
    },
    {
      "inputs": [
        {
          "internalType": "address",
          "name": "newOwner",
          "type": "address"
        }
      ],
      "name": "transferOwnership",
      "outputs": [],
      "stateMutability": "nonpayable",
      "type": "function"
    }
  ],
  "bytecode": "0x60806040523480156200001157600080fd5b5060405162005b7138038062005b7183398181016040528101906200003791906200022b565b620000576200004b620000cd60201b60201c565b620000d560201b60201c565b81600260006101000a81548173ffffffffffffffffffffffffffffffffffffffff021916908373ffffffffffffffffffffffffffffffffffffffff16021790555080600260146101000a81548160ff02191690836002811115620000c057620000bf62000272565b5b02179055505050620002a1565b600033905090565b60008060009054906101000a900473ffffffffffffffffffffffffffffffffffffffff169050816000806101000a81548173ffffffffffffffffffffffffffffffffffffffff021916908373ffffffffffffffffffffffffffffffffffffffff1602179055508173ffffffffffffffffffffffffffffffffffffffff168173ffffffffffffffffffffffffffffffffffffffff167f8be0079c531659141344cd1fd0a4f28419497f9722a3daafe3b4186f6b6457e060405160405180910390a35050565b600080fd5b600073ffffffffffffffffffffffffffffffffffffffff82169050919050565b6000620001cb826200019e565b9050919050565b620001dd81620001be565b8114620001e957600080fd5b50565b600081519050620001fd81620001d2565b92915050565b600381106200021157600080fd5b50565b600081519050620002258162000203565b92915050565b6000806040838503121562000245576200024462000199565b5b60006200025585828601620001ec565b9250506020620002688582860162000214565b9150509250929050565b7f4e487b7100000000000000000000000000000000000000000000000000000000600052602160045260246000fd5b6158c080620002b16000396000f3fe60806040526004361061019c5760003560e01c8063715018a6116100ec578063a217fddf1161008a578063dcdcf49f11610064578063dcdcf49f146105bc578063f2fde38b146105ec578063f95d71b114610615578063ffc833251461063e5761019c565b8063a217fddf1461053d578063caead0c714610568578063d547741f146105935761019c565b80638da5cb5b116100c65780638da5cb5b1461047a57806391d14854146104a55780639dca0032146104e25780639fba176b1461050d5761019c565b8063715018a61461040f57806373cc411114610426578063782e2ea5146104515761019c565b8063248a9ca3116101595780633276558c116101335780633276558c1461036557806336568abe146103905780635043026c146103b957806350d17b5e146103e45761019c565b8063248a9ca3146102d65780632b553551146103135780632f2ff15d1461033c5761019c565b806301ffc9a7146101a15780630e9ed68b146101de57806313af411b14610209578063150b7a02146102395780631f71cb3114610276578063202f724f146102a6575b600080fd5b3480156101ad57600080fd5b506101c860048036038101906101c3919061350d565b61066e565b6040516101d59190613555565b60405180910390f35b3480156101ea57600080fd5b506101f36106e8565b60405161020091906135b1565b60405180910390f35b610223600480360381019061021e9190613ef9565b61082c565b6040516102309190613f80565b60405180910390f35b34801561024557600080fd5b50610260600480360381019061025b9190613ff6565b61088e565b60405161026d919061408d565b60405180910390f35b610290600480360381019061028b91906140a8565b610918565b60405161029d9190613f80565b60405180910390f35b6102c060048036038101906102bb9190613ef9565b611016565b6040516102cd9190613f80565b60405180910390f35b3480156102e257600080fd5b506102fd60048036038101906102f8919061427c565b61102a565b60405161030a91906142b8565b60405180910390f35b34801561031f57600080fd5b5061033a600480360381019061033591906142d3565b61104a565b005b34801561034857600080fd5b50610363600480360381019061035e9190614300565b6112da565b005b34801561037157600080fd5b5061037a6112fb565b60405161038791906135b1565b60405180910390f35b34801561039c57600080fd5b506103b760048036038101906103b29190614300565b61143f565b005b3480156103c557600080fd5b506103ce6114c2565b6040516103db91906135b1565b60405180910390f35b3480156103f057600080fd5b506103f9611606565b604051610406919061439f565b60405180910390f35b34801561041b57600080fd5b5061042461162c565b005b34801561043257600080fd5b5061043b611640565b60405161044891906135b1565b60405180910390f35b34801561045d57600080fd5b506104786004803603810190610473919061453c565b611784565b005b34801561048657600080fd5b5061048f611a5a565b60405161049c91906135b1565b60405180910390f35b3480156104b157600080fd5b506104cc60048036038101906104c79190614300565b611a83565b6040516104d99190613555565b60405180910390f35b3480156104ee57600080fd5b506104f7611aee565b604051610504919061460f565b60405180910390f35b6105276004803603810190610522919061462a565b611b01565b6040516105349190613f80565b60405180910390f35b34801561054957600080fd5b50610552611c56565b60405161055f91906142b8565b60405180910390f35b34801561057457600080fd5b5061057d611c5d565b60405161058a91906135b1565b60405180910390f35b34801561059f57600080fd5b506105ba60048036038101906105b59190614300565b611da1565b005b6105d660048036038101906105d191906147d0565b611dc2565b6040516105e39190613f80565b60405180910390f35b3480156105f857600080fd5b50610613600480360381019061060e9190614848565b612584565b005b34801561062157600080fd5b5061063c60048036038101906106379190614848565b612607565b005b61065860048036038101906106539190614875565b61268a565b6040516106659190613f80565b60405180910390f35b60007f7965db0b000000000000000000000000000000000000000000000000000000007bffffffffffffffffffffffffffffffffffffffffffffffffffffffff1916827bffffffffffffffffffffffffffffffffffffffffffffffffffffffff191614806106e157506106e082612e29565b5b9050919050565b6000600260009054906101000a900473ffffffffffffffffffffffffffffffffffffffff1673ffffffffffffffffffffffffffffffffffffffff16638e8dfd16600260009054906101000a900473ffffffffffffffffffffffffffffffffffffffff1673ffffffffffffffffffffffffffffffffffffffff1663da19ddfb6040518163ffffffff1660e01b8152600401602060405180830381865afa158015610795573d6000803e3d6000fd5b505050506040513d601f19601f820116820180604052508101906107b991906149cc565b600260149054906101000a900460ff166040518363ffffffff1660e01b81526004016107e69291906149f9565b602060405180830381865afa158015610803573d6000803e3d6000fd5b505050506040513d601f19601f820116820180604052508101906108279190614a37565b905090565b60008060405180608001604052808560000151815260200185602001518152602001856040015181526020016108606106e8565b73ffffffffffffffffffffffffffffffffffffffff1681525090506108858184611dc2565b91505092915050565b6000610898611c5d565b73ffffffffffffffffffffffffffffffffffffffff163373ffffffffffffffffffffffffffffffffffffffff1614610905576040517f08c379a00000000000000000000000000000000000000000000000000000000081526004016108fc90614ae7565b60405180910390fd5b63150b7a0260e01b905095945050505050565b600080610923611c5d565b73ffffffffffffffffffffffffffffffffffffffff16635d228b16348f6040518363ffffffff1660e01b815260040161095c9190613f80565b60206040518083038185885af115801561097a573d6000803e3d6000fd5b50505050506040513d601f19601f8201168201806040525081019061099f9190614b1c565b90508a518c51146109e5576040517f08c379a00000000000000000000000000000000000000000000000000000000081526004016109dc90614bbb565b60405180910390fd5b88518a5114610a29576040517f08c379a0000000000000000000000000000000000000000000000000000000008152600401610a2090614c4d565b60405180910390fd5b8651885114610a6d576040517f08c379a0000000000000000000000000000000000000000000000000000000008152600401610a6490614cdf565b60405180910390fd5b8551885114610ab1576040517f08c379a0000000000000000000000000000000000000000000000000000000008152600401610aa890614d71565b60405180910390fd5b8451885114610af5576040517f08c379a0000000000000000000000000000000000000000000000000000000008152600401610aec90614e03565b60405180910390fd5b60008c5114610bc95760005b8c51811015610bc757610b126112fb565b73ffffffffffffffffffffffffffffffffffffffff16638a431578838f8481518110610b4157610b40614e23565b5b60200260200101518f8581518110610b5c57610b5b614e23565b5b60200260200101516040518463ffffffff1660e01b8152600401610b8293929190614f8f565b600060405180830381600087803b158015610b9c57600080fd5b505af1158015610bb0573d6000803e3d6000fd5b505050508080610bbf90615003565b915050610b01565b505b60008a5114610c9d5760005b8a51811015610c9b57610be66112fb565b73ffffffffffffffffffffffffffffffffffffffff16631663c121838d8481518110610c1557610c14614e23565b5b60200260200101518d8581518110610c3057610c2f614e23565b5b60200260200101516040518463ffffffff1660e01b8152600401610c569392919061504b565b600060405180830381600087803b158015610c7057600080fd5b505af1158015610c84573d6000803e3d6000fd5b505050508080610c9390615003565b915050610bd5565b505b6000885114610dbf5760005b8851811015610dbd57610cba6112fb565b73ffffffffffffffffffffffffffffffffffffffff16639dd4349b8360405180606001604052808d8681518110610cf457610cf3614e23565b5b602002602001015181526020018c8681518110610d1457610d13614e23565b5b602002602001015181526020018b8681518110610d3457610d33614e23565b5b6020026020010151815250898581518110610d5257610d51614e23565b5b60200260200101516040518463ffffffff1660e01b8152600401610d789392919061512a565b600060405180830381600087803b158015610d9257600080fd5b505af1158015610da6573d6000803e3d6000fd5b505050508080610db590615003565b915050610ca9565b505b6000610dc96112fb565b73ffffffffffffffffffffffffffffffffffffffff1663bd4986a0836040518263ffffffff1660e01b8152600401610e019190613f80565b602060405180830381865afa158015610e1e573d6000803e3d6000fd5b505050506040513d601f19601f82011682018060405250810190610e429190614a37565b90508415610f0a57610e526112fb565b73ffffffffffffffffffffffffffffffffffffffff16631663c1218383600067ffffffffffffffff811115610e8a57610e896135e2565b5b604051908082528060200260200182016040528015610eb85781602001602082028036833780820191505090505b506040518463ffffffff1660e01b8152600401610ed79392919061504b565b600060405180830381600087803b158015610ef157600080fd5b505af1158015610f05573d6000803e3d6000fd5b505050505b8315610f8b57610f18611c5d565b73ffffffffffffffffffffffffffffffffffffffff166342842e0e3083856040518463ffffffff1660e01b8152600401610f549392919061516f565b600060405180830381600087803b158015610f6e57600080fd5b505af1158015610f82573d6000803e3d6000fd5b50505050611002565b610f93611c5d565b73ffffffffffffffffffffffffffffffffffffffff166342842e0e3033856040518463ffffffff1660e01b8152600401610fcf9392919061516f565b600060405180830381600087803b158015610fe957600080fd5b505af1158015610ffd573d6000803e3d6000fd5b505050505b81925050509b9a5050505050505050505050565b6000611022838361082c565b905092915050565b600060016000838152602001908152602001600020600101549050919050565b600260009054906101000a900473ffffffffffffffffffffffffffffffffffffffff1673ffffffffffffffffffffffffffffffffffffffff16638e8dfd16600260009054906101000a900473ffffffffffffffffffffffffffffffffffffffff1673ffffffffffffffffffffffffffffffffffffffff16634216e73a6040518163ffffffff1660e01b8152600401602060405180830381865afa1580156110f5573d6000803e3d6000fd5b505050506040513d601f19601f8201168201806040525081019061111991906149cc565b600260149054906101000a900460ff166040518363ffffffff1660e01b81526004016111469291906149f9565b602060405180830381865afa158015611163573d6000803e3d6000fd5b505050506040513d601f19601f820116820180604052508101906111879190614a37565b73ffffffffffffffffffffffffffffffffffffffff163373ffffffffffffffffffffffffffffffffffffffff16146111f4576040517f08c379a00000000000000000000000000000000000000000000000000000000081526004016111eb9061523e565b60405180910390fd5b60006111fe6114c2565b90508073ffffffffffffffffffffffffffffffffffffffff1663b63a7677836040518263ffffffff1660e01b81526004016112399190613f80565b600060405180830381600087803b15801561125357600080fd5b505af1158015611267573d6000803e3d6000fd5b505050508073ffffffffffffffffffffffffffffffffffffffff1663519a218e836040518263ffffffff1660e01b81526004016112a49190613f80565b600060405180830381600087803b1580156112be57600080fd5b505af11580156112d2573d6000803e3d6000fd5b505050505050565b6112e38261102a565b6112ec81612e93565b6112f68383612ea7565b505050565b6000600260009054906101000a900473ffffffffffffffffffffffffffffffffffffffff1673ffffffffffffffffffffffffffffffffffffffff16638e8dfd16600260009054906101000a900473ffffffffffffffffffffffffffffffffffffffff1673ffffffffffffffffffffffffffffffffffffffff16639072f8386040518163ffffffff1660e01b8152600401602060405180830381865afa1580156113a8573d6000803e3d6000fd5b505050506040513d601f19601f820116820180604052508101906113cc91906149cc565b600260149054906101000a900460ff166040518363ffffffff1660e01b81526004016113f99291906149f9565b602060405180830381865afa158015611416573d6000803e3d6000fd5b505050506040513d601f19601f8201168201806040525081019061143a9190614a37565b905090565b611447612f87565b73ffffffffffffffffffffffffffffffffffffffff168173ffffffffffffffffffffffffffffffffffffffff16146114b4576040517f08c379a00000000000000000000000000000000000000000000000000000000081526004016114ab906152d0565b60405180910390fd5b6114be8282612f8f565b5050565b6000600260009054906101000a900473ffffffffffffffffffffffffffffffffffffffff1673ffffffffffffffffffffffffffffffffffffffff16638e8dfd16600260009054906101000a900473ffffffffffffffffffffffffffffffffffffffff1673ffffffffffffffffffffffffffffffffffffffff166316f76bbf6040518163ffffffff1660e01b8152600401602060405180830381865afa15801561156f573d6000803e3d6000fd5b505050506040513d601f19601f8201168201806040525081019061159391906149cc565b600260149054906101000a900460ff166040518363ffffffff1660e01b81526004016115c09291906149f9565b602060405180830381865afa1580156115dd573d6000803e3d6000fd5b505050506040513d601f19601f820116820180604052508101906116019190614a37565b905090565b600260009054906101000a900473ffffffffffffffffffffffffffffffffffffffff1681565b611634613071565b61163e60006130ef565b565b6000600260009054906101000a900473ffffffffffffffffffffffffffffffffffffffff1673ffffffffffffffffffffffffffffffffffffffff16638e8dfd16600260009054906101000a900473ffffffffffffffffffffffffffffffffffffffff1673ffffffffffffffffffffffffffffffffffffffff16634216e73a6040518163ffffffff1660e01b8152600401602060405180830381865afa1580156116ed573d6000803e3d6000fd5b505050506040513d601f19601f8201168201806040525081019061171191906149cc565b600260149054906101000a900460ff166040518363ffffffff1660e01b815260040161173e9291906149f9565b602060405180830381865afa15801561175b573d6000803e3d6000fd5b505050506040513d601f19601f8201168201806040525081019061177f9190614a37565b905090565b600260009054906101000a900473ffffffffffffffffffffffffffffffffffffffff1673ffffffffffffffffffffffffffffffffffffffff16638e8dfd16600260009054906101000a900473ffffffffffffffffffffffffffffffffffffffff1673ffffffffffffffffffffffffffffffffffffffff16634216e73a6040518163ffffffff1660e01b8152600401602060405180830381865afa15801561182f573d6000803e3d6000fd5b505050506040513d601f19601f8201168201806040525081019061185391906149cc565b600260149054906101000a900460ff166040518363ffffffff1660e01b81526004016118809291906149f9565b602060405180830381865afa15801561189d573d6000803e3d6000fd5b505050506040513d601f19601f820116820180604052508101906118c19190614a37565b73ffffffffffffffffffffffffffffffffffffffff163373ffffffffffffffffffffffffffffffffffffffff161461192e576040517f08c379a00000000000000000000000000000000000000000000000000000000081526004016119259061523e565b60405180910390fd5b60006119386114c2565b9050600082511115611a55578073ffffffffffffffffffffffffffffffffffffffff1663855eec22848460008151811061197557611974614e23565b5b60200260200101516040518363ffffffff1660e01b815260040161199a929190615334565b600060405180830381600087803b1580156119b457600080fd5b505af11580156119c8573d6000803e3d6000fd5b505050508073ffffffffffffffffffffffffffffffffffffffff16639000fee184846001815181106119fd576119fc614e23565b5b60200260200101516040518363ffffffff1660e01b8152600401611a22929190615334565b600060405180830381600087803b158015611a3c57600080fd5b505af1158015611a50573d6000803e3d6000fd5b505050505b505050565b60008060009054906101000a900473ffffffffffffffffffffffffffffffffffffffff16905090565b60006001600084815260200190815260200160002060000160008373ffffffffffffffffffffffffffffffffffffffff1673ffffffffffffffffffffffffffffffffffffffff16815260200190815260200160002060009054906101000a900460ff16905092915050565b600260149054906101000a900460ff1681565b6000611c4988600067ffffffffffffffff811115611b2257611b216135e2565b5b604051908082528060200260200182016040528015611b5557816020015b6060815260200190600190039081611b405790505b50600067ffffffffffffffff811115611b7157611b706135e2565b5b604051908082528060200260200182016040528015611ba457816020015b6060815260200190600190039081611b8f5790505b50600067ffffffffffffffff811115611bc057611bbf6135e2565b5b604051908082528060200260200182016040528015611bee5781602001602082028036833780820191505090505b50600067ffffffffffffffff811115611c0a57611c096135e2565b5b604051908082528060200260200182016040528015611c3d57816020015b6060815260200190600190039081611c285790505b508c8c8c8c8c8c610918565b9050979650505050505050565b6000801b81565b6000600260009054906101000a900473ffffffffffffffffffffffffffffffffffffffff1673ffffffffffffffffffffffffffffffffffffffff16638e8dfd16600260009054906101000a900473ffffffffffffffffffffffffffffffffffffffff1673ffffffffffffffffffffffffffffffffffffffff16632c0b8bf76040518163ffffffff1660e01b8152600401602060405180830381865afa158015611d0a573d6000803e3d6000fd5b505050506040513d601f19601f82011682018060405250810190611d2e91906149cc565b600260149054906101000a900460ff166040518363ffffffff1660e01b8152600401611d5b9291906149f9565b602060405180830381865afa158015611d78573d6000803e3d6000fd5b505050506040513d601f19601f82011682018060405250810190611d9c9190614a37565b905090565b611daa8261102a565b611db381612e93565b611dbd8383612f8f565b505050565b60008160000151836000015114611e0e576040517f08c379a0000000000000000000000000000000000000000000000000000000008152600401611e05906153d6565b60405180910390fd5b6000611e18611c5d565b73ffffffffffffffffffffffffffffffffffffffff16636b3a89243486600001518760200151886040015189606001516040518663ffffffff1660e01b8152600401611e679493929190615505565b60206040518083038185885af1158015611e85573d6000803e3d6000fd5b50505050506040513d601f19601f82011682018060405250810190611eaa9190614b1c565b905082604001515183602001515114611ef8576040517f08c379a0000000000000000000000000000000000000000000000000000000008152600401611eef90614bbb565b60405180910390fd5b82608001515183606001515114611f44576040517f08c379a0000000000000000000000000000000000000000000000000000000008152600401611f3b90614c4d565b60405180910390fd5b8260c00151518360a001515114611f90576040517f08c379a0000000000000000000000000000000000000000000000000000000008152600401611f8790614cdf565b60405180910390fd5b8260e00151518360a001515114611fdc576040517f08c379a0000000000000000000000000000000000000000000000000000000008152600401611fd390614d71565b60405180910390fd5b826101000151518360a001515114612029576040517f08c379a000000000000000000000000000000000000000000000000000000000815260040161202090614e03565b60405180910390fd5b60008360200151511461210d5760005b83602001515181101561210b5761204e6112fb565b73ffffffffffffffffffffffffffffffffffffffff16638a431578838660200151848151811061208157612080614e23565b5b6020026020010151876040015185815181106120a05761209f614e23565b5b60200260200101516040518463ffffffff1660e01b81526004016120c693929190614f8f565b600060405180830381600087803b1580156120e057600080fd5b505af11580156120f4573d6000803e3d6000fd5b50505050808061210390615003565b915050612039565b505b6000836060015151146121f15760005b8360600151518110156121ef576121326112fb565b73ffffffffffffffffffffffffffffffffffffffff16631663c121838660600151848151811061216557612164614e23565b5b60200260200101518760800151858151811061218457612183614e23565b5b60200260200101516040518463ffffffff1660e01b81526004016121aa9392919061504b565b600060405180830381600087803b1580156121c457600080fd5b505af11580156121d8573d6000803e3d6000fd5b5050505080806121e790615003565b91505061211d565b505b60008360a00151511461232c5760005b8360a001515181101561232a576122166112fb565b73ffffffffffffffffffffffffffffffffffffffff16639dd4349b8360405180606001604052808860a00151868151811061225457612253614e23565b5b602002602001015181526020018860c00151868151811061227857612277614e23565b5b602002602001015181526020018860e00151868151811061229c5761229b614e23565b5b602002602001015181525087610100015185815181106122bf576122be614e23565b5b60200260200101516040518463ffffffff1660e01b81526004016122e59392919061512a565b600060405180830381600087803b1580156122ff57600080fd5b505af1158015612313573d6000803e3d6000fd5b50505050808061232290615003565b915050612201565b505b60006123366112fb565b73ffffffffffffffffffffffffffffffffffffffff1663bd4986a0836040518263ffffffff1660e01b815260040161236e9190613f80565b602060405180830381865afa15801561238b573d6000803e3d6000fd5b505050506040513d601f19601f820116820180604052508101906123af9190614a37565b90508361012001511561247c576123c46112fb565b73ffffffffffffffffffffffffffffffffffffffff16631663c1218383600067ffffffffffffffff8111156123fc576123fb6135e2565b5b60405190808252806020026020018201604052801561242a5781602001602082028036833780820191505090505b506040518463ffffffff1660e01b81526004016124499392919061504b565b600060405180830381600087803b15801561246357600080fd5b505af1158015612477573d6000803e3d6000fd5b505050505b836101400151156125025761248f611c5d565b73ffffffffffffffffffffffffffffffffffffffff166342842e0e3083856040518463ffffffff1660e01b81526004016124cb9392919061516f565b600060405180830381600087803b1580156124e557600080fd5b505af11580156124f9573d6000803e3d6000fd5b50505050612579565b61250a611c5d565b73ffffffffffffffffffffffffffffffffffffffff166342842e0e3033856040518463ffffffff1660e01b81526004016125469392919061516f565b600060405180830381600087803b15801561256057600080fd5b505af1158015612574573d6000803e3d6000fd5b505050505b819250505092915050565b61258c613071565b600073ffffffffffffffffffffffffffffffffffffffff168173ffffffffffffffffffffffffffffffffffffffff16036125fb576040517f08c379a00000000000000000000000000000000000000000000000000000000081526004016125f2906155c3565b60405180910390fd5b612604816130ef565b50565b61260f613071565b80600260006101000a81548173ffffffffffffffffffffffffffffffffffffffff021916908373ffffffffffffffffffffffffffffffffffffffff1602179055507f2760073c7cd8cac531d7f643becbfbb74d8b8156443eacf879622532dbbb3cd58160405161267f91906135b1565b60405180910390a150565b6000600260009054906101000a900473ffffffffffffffffffffffffffffffffffffffff1673ffffffffffffffffffffffffffffffffffffffff16638e8dfd16600260009054906101000a900473ffffffffffffffffffffffffffffffffffffffff1673ffffffffffffffffffffffffffffffffffffffff16634216e73a6040518163ffffffff1660e01b8152600401602060405180830381865afa158015612737573d6000803e3d6000fd5b505050506040513d601f19601f8201168201806040525081019061275b91906149cc565b600260149054906101000a900460ff166040518363ffffffff1660e01b81526004016127889291906149f9565b602060405180830381865afa1580156127a5573d6000803e3d6000fd5b505050506040513d601f19601f820116820180604052508101906127c99190614a37565b73ffffffffffffffffffffffffffffffffffffffff163373ffffffffffffffffffffffffffffffffffffffff1614612836576040517f08c379a000000000000000000000000000000000000000000000000000000000815260040161282d9061523e565b60405180910390fd5b6000612840611c5d565b73ffffffffffffffffffffffffffffffffffffffff16635d228b16348c6040518363ffffffff1660e01b81526004016128799190613f80565b60206040518083038185885af1158015612897573d6000803e3d6000fd5b50505050506040513d601f19601f820116820180604052508101906128bc9190614b1c565b90508751895114612902576040517f08c379a00000000000000000000000000000000000000000000000000000000081526004016128f990614cdf565b60405180910390fd5b8651895114612946576040517f08c379a000000000000000000000000000000000000000000000000000000000815260040161293d90614d71565b60405180910390fd5b855189511461298a576040517f08c379a000000000000000000000000000000000000000000000000000000000815260040161298190614e03565b60405180910390fd5b6000895114612aac5760005b8951811015612aaa576129a76112fb565b73ffffffffffffffffffffffffffffffffffffffff16639dd4349b8360405180606001604052808e86815181106129e1576129e0614e23565b5b602002602001015181526020018d8681518110612a0157612a00614e23565b5b602002602001015181526020018c8681518110612a2157612a20614e23565b5b60200260200101518152508a8581518110612a3f57612a3e614e23565b5b60200260200101516040518463ffffffff1660e01b8152600401612a659392919061512a565b600060405180830381600087803b158015612a7f57600080fd5b505af1158015612a93573d6000803e3d6000fd5b505050508080612aa290615003565b915050612996565b505b6000612ab66112fb565b73ffffffffffffffffffffffffffffffffffffffff1663bd4986a0836040518263ffffffff1660e01b8152600401612aee9190613f80565b602060405180830381865afa158015612b0b573d6000803e3d6000fd5b505050506040513d601f19601f82011682018060405250810190612b2f9190614a37565b90508415612bf757612b3f6112fb565b73ffffffffffffffffffffffffffffffffffffffff16631663c1218383600067ffffffffffffffff811115612b7757612b766135e2565b5b604051908082528060200260200182016040528015612ba55781602001602082028036833780820191505090505b506040518463ffffffff1660e01b8152600401612bc49392919061504b565b600060405180830381600087803b158015612bde57600080fd5b505af1158015612bf2573d6000803e3d6000fd5b505050505b8315612c7857612c05611c5d565b73ffffffffffffffffffffffffffffffffffffffff166342842e0e3083856040518463ffffffff1660e01b8152600401612c419392919061516f565b600060405180830381600087803b158015612c5b57600080fd5b505af1158015612c6f573d6000803e3d6000fd5b50505050612cef565b612c80611c5d565b73ffffffffffffffffffffffffffffffffffffffff166342842e0e3033856040518463ffffffff1660e01b8152600401612cbc9392919061516f565b600060405180830381600087803b158015612cd657600080fd5b505af1158015612cea573d6000803e3d6000fd5b505050505b600086511115612e1857612d016114c2565b73ffffffffffffffffffffffffffffffffffffffff1663855eec228388600081518110612d3157612d30614e23565b5b60200260200101516040518363ffffffff1660e01b8152600401612d56929190615334565b600060405180830381600087803b158015612d7057600080fd5b505af1158015612d84573d6000803e3d6000fd5b50505050612d906114c2565b73ffffffffffffffffffffffffffffffffffffffff16639000fee18388600181518110612dc057612dbf614e23565b5b60200260200101516040518363ffffffff1660e01b8152600401612de5929190615334565b600060405180830381600087803b158015612dff57600080fd5b505af1158015612e13573d6000803e3d6000fd5b505050505b819250505098975050505050505050565b60007f01ffc9a7000000000000000000000000000000000000000000000000000000007bffffffffffffffffffffffffffffffffffffffffffffffffffffffff1916827bffffffffffffffffffffffffffffffffffffffffffffffffffffffff1916149050919050565b612ea481612e9f612f87565b6131b3565b50565b612eb18282611a83565b612f8357600180600084815260200190815260200160002060000160008373ffffffffffffffffffffffffffffffffffffffff1673ffffffffffffffffffffffffffffffffffffffff16815260200190815260200160002060006101000a81548160ff021916908315150217905550612f28612f87565b73ffffffffffffffffffffffffffffffffffffffff168173ffffffffffffffffffffffffffffffffffffffff16837f2f8788117e7eff1d82e926ec794901d17c78024a50270940304540a733656f0d60405160405180910390a45b5050565b600033905090565b612f998282611a83565b1561306d5760006001600084815260200190815260200160002060000160008373ffffffffffffffffffffffffffffffffffffffff1673ffffffffffffffffffffffffffffffffffffffff16815260200190815260200160002060006101000a81548160ff021916908315150217905550613012612f87565b73ffffffffffffffffffffffffffffffffffffffff168173ffffffffffffffffffffffffffffffffffffffff16837ff6391f5c32d9c69d2a47ea670b442974b53935d1edc7fd64eb21e047a839171b60405160405180910390a45b5050565b613079612f87565b73ffffffffffffffffffffffffffffffffffffffff16613097611a5a565b73ffffffffffffffffffffffffffffffffffffffff16146130ed576040517f08c379a00000000000000000000000000000000000000000000000000000000081526004016130e49061562f565b60405180910390fd5b565b60008060009054906101000a900473ffffffffffffffffffffffffffffffffffffffff169050816000806101000a81548173ffffffffffffffffffffffffffffffffffffffff021916908373ffffffffffffffffffffffffffffffffffffffff1602179055508173ffffffffffffffffffffffffffffffffffffffff168173ffffffffffffffffffffffffffffffffffffffff167f8be0079c531659141344cd1fd0a4f28419497f9722a3daafe3b4186f6b6457e060405160405180910390a35050565b6131bd8282611a83565b613234576131ca81613238565b6131d88360001c6020613265565b6040516020016131e9929190615723565b6040516020818303038152906040526040517f08c379a000000000000000000000000000000000000000000000000000000000815260040161322b919061575d565b60405180910390fd5b5050565b606061325e8273ffffffffffffffffffffffffffffffffffffffff16601460ff16613265565b9050919050565b606060006002836002613278919061577f565b61328291906157c1565b67ffffffffffffffff81111561329b5761329a6135e2565b5b6040519080825280601f01601f1916602001820160405280156132cd5781602001600182028036833780820191505090505b5090507f30000000000000000000000000000000000000000000000000000000000000008160008151811061330557613304614e23565b5b60200101907effffffffffffffffffffffffffffffffffffffffffffffffffffffffffffff1916908160001a9053507f78000000000000000000000000000000000000000000000000000000000000008160018151811061336957613368614e23565b5b60200101907effffffffffffffffffffffffffffffffffffffffffffffffffffffffffffff1916908160001a905350600060018460026133a9919061577f565b6133b391906157c1565b90505b6001811115613453577f3031323334353637383961626364656600000000000000000000000000000000600f8616601081106133f5576133f4614e23565b5b1a60f81b82828151811061340c5761340b614e23565b5b60200101907effffffffffffffffffffffffffffffffffffffffffffffffffffffffffffff1916908160001a905350600485901c94508061344c906157f5565b90506133b6565b5060008414613497576040517f08c379a000000000000000000000000000000000000000000000000000000000815260040161348e9061586a565b60405180910390fd5b8091505092915050565b6000604051905090565b600080fd5b600080fd5b60007fffffffff0000000000000000000000000000000000000000000000000000000082169050919050565b6134ea816134b5565b81146134f557600080fd5b50565b600081359050613507816134e1565b92915050565b600060208284031215613523576135226134ab565b5b6000613531848285016134f8565b91505092915050565b60008115159050919050565b61354f8161353a565b82525050565b600060208201905061356a6000830184613546565b92915050565b600073ffffffffffffffffffffffffffffffffffffffff82169050919050565b600061359b82613570565b9050919050565b6135ab81613590565b82525050565b60006020820190506135c660008301846135a2565b92915050565b600080fd5b6000601f19601f8301169050919050565b7f4e487b7100000000000000000000000000000000000000000000000000000000600052604160045260246000fd5b61361a826135d1565b810181811067ffffffffffffffff82111715613639576136386135e2565b5b80604052505050565b600061364c6134a1565b90506136588282613611565b919050565b600080fd5b6000819050919050565b61367581613662565b811461368057600080fd5b50565b6000813590506136928161366c565b92915050565b6000819050919050565b6136ab81613698565b81146136b657600080fd5b50565b6000813590506136c8816136a2565b92915050565b600080fd5b600067ffffffffffffffff8211156136ee576136ed6135e2565b5b602082029050602081019050919050565b600080fd5b600060ff82169050919050565b61371a81613704565b811461372557600080fd5b50565b60008135905061373781613711565b92915050565b600060608284031215613753576137526135cc565b5b61375d6060613642565b9050600061376d848285016136b9565b6000830152506020613781848285016136b9565b602083015250604061379584828501613728565b60408301525092915050565b60006137b46137af846136d3565b613642565b905080838252602082019050606084028301858111156137d7576137d66136ff565b5b835b8181101561380057806137ec888261373d565b8452602084019350506060810190506137d9565b5050509392505050565b600082601f83011261381f5761381e6136ce565b5b813561382f8482602086016137a1565b91505092915050565b60006060828403121561384e5761384d6135cc565b5b6138586060613642565b9050600061386884828501613683565b600083015250602061387c848285016136b9565b602083015250604082013567ffffffffffffffff8111156138a05761389f61365d565b5b6138ac8482850161380a565b60408301525092915050565b600067ffffffffffffffff8211156138d3576138d26135e2565b5b602082029050602081019050919050565b600080fd5b600067ffffffffffffffff821115613904576139036135e2565b5b61390d826135d1565b9050602081019050919050565b82818337600083830152505050565b600061393c613937846138e9565b613642565b905082815260208101848484011115613958576139576138e4565b5b61396384828561391a565b509392505050565b600082601f8301126139805761397f6136ce565b5b8135613990848260208601613929565b91505092915050565b60006139ac6139a7846138b8565b613642565b905080838252602082019050602084028301858111156139cf576139ce6136ff565b5b835b81811015613a1657803567ffffffffffffffff8111156139f4576139f36136ce565b5b808601613a01898261396b565b855260208501945050506020810190506139d1565b5050509392505050565b600082601f830112613a3557613a346136ce565b5b8135613a45848260208601613999565b91505092915050565b600067ffffffffffffffff821115613a6957613a686135e2565b5b602082029050602081019050919050565b600067ffffffffffffffff821115613a9557613a946135e2565b5b602082029050602081019050919050565b6000613ab9613ab484613a7a565b613642565b90508083825260208201905060208402830185811115613adc57613adb6136ff565b5b835b81811015613b055780613af18882613683565b845260208401935050602081019050613ade565b5050509392505050565b600082601f830112613b2457613b236136ce565b5b8135613b34848260208601613aa6565b91505092915050565b6000613b50613b4b84613a4e565b613642565b90508083825260208201905060208402830185811115613b7357613b726136ff565b5b835b81811015613bba57803567ffffffffffffffff811115613b9857613b976136ce565b5b808601613ba58982613b0f565b85526020850194505050602081019050613b75565b5050509392505050565b600082601f830112613bd957613bd86136ce565b5b8135613be9848260208601613b3d565b91505092915050565b600067ffffffffffffffff821115613c0d57613c0c6135e2565b5b602082029050602081019050919050565b613c2781613590565b8114613c3257600080fd5b50565b600081359050613c4481613c1e565b92915050565b6000613c5d613c5884613bf2565b613642565b90508083825260208201905060208402830185811115613c8057613c7f6136ff565b5b835b81811015613ca95780613c958882613c35565b845260208401935050602081019050613c82565b5050509392505050565b600082601f830112613cc857613cc76136ce565b5b8135613cd8848260208601613c4a565b91505092915050565b613cea8161353a565b8114613cf557600080fd5b50565b600081359050613d0781613ce1565b92915050565b60006101608284031215613d2457613d236135cc565b5b613d2f610160613642565b90506000613d3f84828501613683565b600083015250602082013567ffffffffffffffff811115613d6357613d6261365d565b5b613d6f84828501613a20565b602083015250604082013567ffffffffffffffff811115613d9357613d9261365d565b5b613d9f84828501613bc4565b604083015250606082013567ffffffffffffffff811115613dc357613dc261365d565b5b613dcf84828501613cb3565b606083015250608082013567ffffffffffffffff811115613df357613df261365d565b5b613dff84828501613bc4565b60808301525060a082013567ffffffffffffffff811115613e2357613e2261365d565b5b613e2f84828501613b0f565b60a08301525060c082013567ffffffffffffffff811115613e5357613e5261365d565b5b613e5f84828501613a20565b60c08301525060e082013567ffffffffffffffff811115613e8357613e8261365d565b5b613e8f84828501613a20565b60e08301525061010082013567ffffffffffffffff811115613eb457613eb361365d565b5b613ec084828501613bc4565b61010083015250610120613ed684828501613cf8565b61012083015250610140613eec84828501613cf8565b6101408301525092915050565b60008060408385031215613f1057613f0f6134ab565b5b600083013567ffffffffffffffff811115613f2e57613f2d6134b0565b5b613f3a85828601613838565b925050602083013567ffffffffffffffff811115613f5b57613f5a6134b0565b5b613f6785828601613d0d565b9150509250929050565b613f7a81613662565b82525050565b6000602082019050613f956000830184613f71565b92915050565b600080fd5b60008083601f840112613fb657613fb56136ce565b5b8235905067ffffffffffffffff811115613fd357613fd2613f9b565b5b602083019150836001820283011115613fef57613fee6136ff565b5b9250929050565b600080600080600060808688031215614012576140116134ab565b5b600061402088828901613c35565b955050602061403188828901613c35565b945050604061404288828901613683565b935050606086013567ffffffffffffffff811115614063576140626134b0565b5b61406f88828901613fa0565b92509250509295509295909350565b614087816134b5565b82525050565b60006020820190506140a2600083018461407e565b92915050565b60008060008060008060008060008060006101608c8e0312156140ce576140cd6134ab565b5b60006140dc8e828f01613683565b9b505060208c013567ffffffffffffffff8111156140fd576140fc6134b0565b5b6141098e828f01613a20565b9a505060408c013567ffffffffffffffff81111561412a576141296134b0565b5b6141368e828f01613bc4565b99505060608c013567ffffffffffffffff811115614157576141566134b0565b5b6141638e828f01613cb3565b98505060808c013567ffffffffffffffff811115614184576141836134b0565b5b6141908e828f01613bc4565b97505060a08c013567ffffffffffffffff8111156141b1576141b06134b0565b5b6141bd8e828f01613b0f565b96505060c08c013567ffffffffffffffff8111156141de576141dd6134b0565b5b6141ea8e828f01613a20565b95505060e08c013567ffffffffffffffff81111561420b5761420a6134b0565b5b6142178e828f01613a20565b9450506101008c013567ffffffffffffffff811115614239576142386134b0565b5b6142458e828f01613bc4565b9350506101206142578e828f01613cf8565b9250506101406142698e828f01613cf8565b9150509295989b509295989b9093969950565b600060208284031215614292576142916134ab565b5b60006142a0848285016136b9565b91505092915050565b6142b281613698565b82525050565b60006020820190506142cd60008301846142a9565b92915050565b6000602082840312156142e9576142e86134ab565b5b60006142f784828501613683565b91505092915050565b60008060408385031215614317576143166134ab565b5b6000614325858286016136b9565b925050602061433685828601613c35565b9150509250929050565b6000819050919050565b600061436561436061435b84613570565b614340565b613570565b9050919050565b60006143778261434a565b9050919050565b60006143898261436c565b9050919050565b6143998161437e565b82525050565b60006020820190506143b46000830184614390565b92915050565b600067ffffffffffffffff8211156143d5576143d46135e2565b5b602082029050602081019050919050565b600067ffffffffffffffff821115614401576144006135e2565b5b61440a826135d1565b9050602081019050919050565b600061442a614425846143e6565b613642565b905082815260208101848484011115614446576144456138e4565b5b61445184828561391a565b509392505050565b600082601f83011261446e5761446d6136ce565b5b813561447e848260208601614417565b91505092915050565b600061449a614495846143ba565b613642565b905080838252602082019050602084028301858111156144bd576144bc6136ff565b5b835b8181101561450457803567ffffffffffffffff8111156144e2576144e16136ce565b5b8086016144ef8982614459565b855260208501945050506020810190506144bf565b5050509392505050565b600082601f830112614523576145226136ce565b5b8135614533848260208601614487565b91505092915050565b60008060408385031215614553576145526134ab565b5b600061456185828601613683565b925050602083013567ffffffffffffffff811115614582576145816134b0565b5b61458e8582860161450e565b9150509250929050565b7f4e487b7100000000000000000000000000000000000000000000000000000000600052602160045260246000fd5b600381106145d8576145d7614598565b5b50565b60008190506145e9826145c7565b919050565b60006145f9826145db565b9050919050565b614609816145ee565b82525050565b60006020820190506146246000830184614600565b92915050565b600080600080600080600060e0888a031215614649576146486134ab565b5b60006146578a828b01613683565b975050602088013567ffffffffffffffff811115614678576146776134b0565b5b6146848a828b01613b0f565b965050604088013567ffffffffffffffff8111156146a5576146a46134b0565b5b6146b18a828b01613a20565b955050606088013567ffffffffffffffff8111156146d2576146d16134b0565b5b6146de8a828b01613a20565b945050608088013567ffffffffffffffff8111156146ff576146fe6134b0565b5b61470b8a828b01613bc4565b93505060a061471c8a828b01613cf8565b92505060c061472d8a828b01613cf8565b91505092959891949750929550565b600060808284031215614752576147516135cc565b5b61475c6080613642565b9050600061476c84828501613683565b6000830152506020614780848285016136b9565b602083015250604082013567ffffffffffffffff8111156147a4576147a361365d565b5b6147b08482850161380a565b60408301525060606147c484828501613c35565b60608301525092915050565b600080604083850312156147e7576147e66134ab565b5b600083013567ffffffffffffffff811115614805576148046134b0565b5b6148118582860161473c565b925050602083013567ffffffffffffffff811115614832576148316134b0565b5b61483e85828601613d0d565b9150509250929050565b60006020828403121561485e5761485d6134ab565b5b600061486c84828501613c35565b91505092915050565b600080600080600080600080610100898b031215614896576148956134ab565b5b60006148a48b828c01613683565b985050602089013567ffffffffffffffff8111156148c5576148c46134b0565b5b6148d18b828c01613b0f565b975050604089013567ffffffffffffffff8111156148f2576148f16134b0565b5b6148fe8b828c01613a20565b965050606089013567ffffffffffffffff81111561491f5761491e6134b0565b5b61492b8b828c01613a20565b955050608089013567ffffffffffffffff81111561494c5761494b6134b0565b5b6149588b828c01613bc4565b94505060a089013567ffffffffffffffff811115614979576149786134b0565b5b6149858b828c0161450e565b93505060c06149968b828c01613cf8565b92505060e06149a78b828c01613cf8565b9150509295985092959890939650565b6000815190506149c6816136a2565b92915050565b6000602082840312156149e2576149e16134ab565b5b60006149f0848285016149b7565b91505092915050565b6000604082019050614a0e60008301856142a9565b614a1b6020830184614600565b9392505050565b600081519050614a3181613c1e565b92915050565b600060208284031215614a4d57614a4c6134ab565b5b6000614a5b84828501614a22565b91505092915050565b600082825260208201905092915050565b7f504b5048656c7065723a206f6e6c792061636365707473207472616e7366657260008201527f732066726f6d2074686520504b504e465420636f6e7472616374000000000000602082015250565b6000614ad1603a83614a64565b9150614adc82614a75565b604082019050919050565b60006020820190508181036000830152614b0081614ac4565b9050919050565b600081519050614b168161366c565b92915050565b600060208284031215614b3257614b316134ab565b5b6000614b4084828501614b07565b91505092915050565b7f504b5048656c7065723a20697066732063696420616e642073636f706520617260008201527f726179206c656e67746873206d757374206d6174636800000000000000000000602082015250565b6000614ba5603683614a64565b9150614bb082614b49565b604082019050919050565b60006020820190508181036000830152614bd481614b98565b9050919050565b7f504b5048656c7065723a206164647265737320616e642073636f70652061727260008201527f6179206c656e67746873206d757374206d617463680000000000000000000000602082015250565b6000614c37603583614a64565b9150614c4282614bdb565b604082019050919050565b60006020820190508181036000830152614c6681614c2a565b9050919050565b7f504b5048656c7065723a2061757468206d6574686f64207479706520616e642060008201527f6964206172726179206c656e67746873206d757374206d617463680000000000602082015250565b6000614cc9603b83614a64565b9150614cd482614c6d565b604082019050919050565b60006020820190508181036000830152614cf881614cbc565b9050919050565b7f504b5048656c7065723a2061757468206d6574686f64207479706520616e642060008201527f7075626b6579206172726179206c656e67746873206d757374206d6174636800602082015250565b6000614d5b603f83614a64565b9150614d6682614cff565b604082019050919050565b60006020820190508181036000830152614d8a81614d4e565b9050919050565b7f504b5048656c7065723a2061757468206d6574686f64207479706520616e642060008201527f73636f706573206172726179206c656e67746873206d757374206d6174636800602082015250565b6000614ded603f83614a64565b9150614df882614d91565b604082019050919050565b60006020820190508181036000830152614e1c81614de0565b9050919050565b7f4e487b7100000000000000000000000000000000000000000000000000000000600052603260045260246000fd5b600081519050919050565b600082825260208201905092915050565b60005b83811015614e8c578082015181840152602081019050614e71565b60008484015250505050565b6000614ea382614e52565b614ead8185614e5d565b9350614ebd818560208601614e6e565b614ec6816135d1565b840191505092915050565b600081519050919050565b600082825260208201905092915050565b6000819050602082019050919050565b614f0681613662565b82525050565b6000614f188383614efd565b60208301905092915050565b6000602082019050919050565b6000614f3c82614ed1565b614f468185614edc565b9350614f5183614eed565b8060005b83811015614f82578151614f698882614f0c565b9750614f7483614f24565b925050600181019050614f55565b5085935050505092915050565b6000606082019050614fa46000830186613f71565b8181036020830152614fb68185614e98565b90508181036040830152614fca8184614f31565b9050949350505050565b7f4e487b7100000000000000000000000000000000000000000000000000000000600052601160045260246000fd5b600061500e82613662565b91507fffffffffffffffffffffffffffffffffffffffffffffffffffffffffffffffff82036150405761503f614fd4565b5b600182019050919050565b60006060820190506150606000830186613f71565b61506d60208301856135a2565b818103604083015261507f8184614f31565b9050949350505050565b600082825260208201905092915050565b60006150a582614e52565b6150af8185615089565b93506150bf818560208601614e6e565b6150c8816135d1565b840191505092915050565b60006060830160008301516150eb6000860182614efd565b5060208301518482036020860152615103828261509a565b9150506040830151848203604086015261511d828261509a565b9150508091505092915050565b600060608201905061513f6000830186613f71565b818103602083015261515181856150d3565b905081810360408301526151658184614f31565b9050949350505050565b600060608201905061518460008301866135a2565b61519160208301856135a2565b61519e6040830184613f71565b949350505050565b7f504b5048656c7065723a206f6e6c792074686520446f6d61696e2057616c6c6560008201527f7420726567697374727920697320616c6c6f77656420746f206d696e7420646f60208201527f6d61696e2077616c6c6574732c2077686f2061726520796f753f000000000000604082015250565b6000615228605a83614a64565b9150615233826151a6565b606082019050919050565b600060208201905081810360008301526152578161521b565b9050919050565b7f416363657373436f6e74726f6c3a2063616e206f6e6c792072656e6f756e636560008201527f20726f6c657320666f722073656c660000000000000000000000000000000000602082015250565b60006152ba602f83614a64565b91506152c58261525e565b604082019050919050565b600060208201905081810360008301526152e9816152ad565b9050919050565b600081519050919050565b6000615306826152f0565b6153108185614a64565b9350615320818560208601614e6e565b615329816135d1565b840191505092915050565b60006040820190506153496000830185613f71565b818103602083015261535b81846152fb565b90509392505050565b7f504b5048656c7065723a20436c61696d206b65792074797065206d757374206d60008201527f617463682041757468204d6574686f642064617461206b657920747970650000602082015250565b60006153c0603e83614a64565b91506153cb82615364565b604082019050919050565b600060208201905081810360008301526153ef816153b3565b9050919050565b600081519050919050565b600082825260208201905092915050565b6000819050602082019050919050565b61542b81613698565b82525050565b61543a81613704565b82525050565b6060820160008201516154566000850182615422565b5060208201516154696020850182615422565b50604082015161547c6040850182615431565b50505050565b600061548e8383615440565b60608301905092915050565b6000602082019050919050565b60006154b2826153f6565b6154bc8185615401565b93506154c783615412565b8060005b838110156154f85781516154df8882615482565b97506154ea8361549a565b9250506001810190506154cb565b5085935050505092915050565b600060808201905061551a6000830187613f71565b61552760208301866142a9565b818103604083015261553981856154a7565b905061554860608301846135a2565b95945050505050565b7f4f776e61626c653a206e6577206f776e657220697320746865207a65726f206160008201527f6464726573730000000000000000000000000000000000000000000000000000602082015250565b60006155ad602683614a64565b91506155b882615551565b604082019050919050565b600060208201905081810360008301526155dc816155a0565b9050919050565b7f4f776e61626c653a2063616c6c6572206973206e6f7420746865206f776e6572600082015250565b6000615619602083614a64565b9150615624826155e3565b602082019050919050565b600060208201905081810360008301526156488161560c565b9050919050565b600081905092915050565b7f416363657373436f6e74726f6c3a206163636f756e7420000000000000000000600082015250565b600061569060178361564f565b915061569b8261565a565b601782019050919050565b60006156b1826152f0565b6156bb818561564f565b93506156cb818560208601614e6e565b80840191505092915050565b7f206973206d697373696e6720726f6c6520000000000000000000000000000000600082015250565b600061570d60118361564f565b9150615718826156d7565b601182019050919050565b600061572e82615683565b915061573a82856156a6565b915061574582615700565b915061575182846156a6565b91508190509392505050565b6000602082019050818103600083015261577781846152fb565b905092915050565b600061578a82613662565b915061579583613662565b92508282026157a381613662565b915082820484148315176157ba576157b9614fd4565b5b5092915050565b60006157cc82613662565b91506157d783613662565b92508282019050808211156157ef576157ee614fd4565b5b92915050565b600061580082613662565b91506000820361581357615812614fd4565b5b600182039050919050565b7f537472696e67733a20686578206c656e67746820696e73756666696369656e74600082015250565b6000615854602083614a64565b915061585f8261581e565b602082019050919050565b6000602082019050818103600083015261588381615847565b905091905056fea2646970667358221220441c35700eca76648a065d1330e60ada846dc21a78e0cc41ae402f523b123ff964736f6c63430008110033",
  "linkReferences": {},
  "deployedLinkReferences": {}
}