{
  "_format": "hh-sol-artifact-1",
  "contractName": "PKPNFTMetadata",
  "sourceName": "contracts/lit-node/PKPNFTMetadata.sol",
  "abi": [
    {
      "inputs": [
        {
          "internalType": "address",
          "name": "_resolver",
          "type": "address"
        },
        {
          "internalType": "enum ContractResolver.Env",
          "name": "_env",
          "type": "uint8"
        }
      ],
      "stateMutability": "nonpayable",
      "type": "constructor"
    },
    {
      "anonymous": false,
      "inputs": [
        {
          "indexed": true,
          "internalType": "bytes32",
          "name": "role",
          "type": "bytes32"
        },
        {
          "indexed": true,
          "internalType": "bytes32",
          "name": "previousAdminRole",
          "type": "bytes32"
        },
        {
          "indexed": true,
          "internalType": "bytes32",
          "name": "newAdminRole",
          "type": "bytes32"
        }
      ],
      "name": "RoleAdminChanged",
      "type": "event"
    },
    {
      "anonymous": false,
      "inputs": [
        {
          "indexed": true,
          "internalType": "bytes32",
          "name": "role",
          "type": "bytes32"
        },
        {
          "indexed": true,
          "internalType": "address",
          "name": "account",
          "type": "address"
        },
        {
          "indexed": true,
          "internalType": "address",
          "name": "sender",
          "type": "address"
        }
      ],
      "name": "RoleGranted",
      "type": "event"
    },
    {
      "anonymous": false,
      "inputs": [
        {
          "indexed": true,
          "internalType": "bytes32",
          "name": "role",
          "type": "bytes32"
        },
        {
          "indexed": true,
          "internalType": "address",
          "name": "account",
          "type": "address"
        },
        {
          "indexed": true,
          "internalType": "address",
          "name": "sender",
          "type": "address"
        }
      ],
      "name": "RoleRevoked",
      "type": "event"
    },
    {
      "inputs": [],
      "name": "ADMIN_ROLE",
      "outputs": [
        {
          "internalType": "bytes32",
          "name": "",
          "type": "bytes32"
        }
      ],
      "stateMutability": "view",
      "type": "function"
    },
    {
      "inputs": [],
      "name": "DEFAULT_ADMIN_ROLE",
      "outputs": [
        {
          "internalType": "bytes32",
          "name": "",
          "type": "bytes32"
        }
      ],
      "stateMutability": "view",
      "type": "function"
    },
    {
      "inputs": [],
      "name": "WRITER_ROLE",
      "outputs": [
        {
          "internalType": "bytes32",
          "name": "",
          "type": "bytes32"
        }
      ],
      "stateMutability": "view",
      "type": "function"
    },
    {
      "inputs": [
        {
          "internalType": "bytes",
          "name": "buffer",
          "type": "bytes"
        }
      ],
      "name": "bytesToHex",
      "outputs": [
        {
          "internalType": "string",
          "name": "",
          "type": "string"
        }
      ],
      "stateMutability": "pure",
      "type": "function"
    },
    {
      "inputs": [],
      "name": "contractResolver",
      "outputs": [
        {
          "internalType": "contract ContractResolver",
          "name": "",
          "type": "address"
        }
      ],
      "stateMutability": "view",
      "type": "function"
    },
    {
      "inputs": [],
      "name": "env",
      "outputs": [
        {
          "internalType": "enum ContractResolver.Env",
          "name": "",
          "type": "uint8"
        }
      ],
      "stateMutability": "view",
      "type": "function"
    },
    {
      "inputs": [
        {
          "internalType": "bytes32",
          "name": "role",
          "type": "bytes32"
        }
      ],
      "name": "getRoleAdmin",
      "outputs": [
        {
          "internalType": "bytes32",
          "name": "",
          "type": "bytes32"
        }
      ],
      "stateMutability": "view",
      "type": "function"
    },
    {
      "inputs": [
        {
          "internalType": "bytes32",
          "name": "role",
          "type": "bytes32"
        },
        {
          "internalType": "address",
          "name": "account",
          "type": "address"
        }
      ],
      "name": "grantRole",
      "outputs": [],
      "stateMutability": "nonpayable",
      "type": "function"
    },
    {
      "inputs": [
        {
          "internalType": "bytes32",
          "name": "role",
          "type": "bytes32"
        },
        {
          "internalType": "address",
          "name": "account",
          "type": "address"
        }
      ],
      "name": "hasRole",
      "outputs": [
        {
          "internalType": "bool",
          "name": "",
          "type": "bool"
        }
      ],
      "stateMutability": "view",
      "type": "function"
    },
    {
      "inputs": [
        {
          "internalType": "uint256",
          "name": "tokenId",
          "type": "uint256"
        }
      ],
      "name": "removeProfileForPkp",
      "outputs": [],
      "stateMutability": "nonpayable",
      "type": "function"
    },
    {
      "inputs": [
        {
          "internalType": "uint256",
          "name": "tokenId",
          "type": "uint256"
        }
      ],
      "name": "removeUrlForPKP",
      "outputs": [],
      "stateMutability": "nonpayable",
      "type": "function"
    },
    {
      "inputs": [
        {
          "internalType": "bytes32",
          "name": "role",
          "type": "bytes32"
        },
        {
          "internalType": "address",
          "name": "account",
          "type": "address"
        }
      ],
      "name": "renounceRole",
      "outputs": [],
      "stateMutability": "nonpayable",
      "type": "function"
    },
    {
      "inputs": [
        {
          "internalType": "bytes32",
          "name": "role",
          "type": "bytes32"
        },
        {
          "internalType": "address",
          "name": "account",
          "type": "address"
        }
      ],
      "name": "revokeRole",
      "outputs": [],
      "stateMutability": "nonpayable",
      "type": "function"
    },
    {
      "inputs": [
        {
          "internalType": "address",
          "name": "pkpHelperWriterAddress",
          "type": "address"
        }
      ],
      "name": "setPKPHelperWriterAddress",
      "outputs": [],
      "stateMutability": "nonpayable",
      "type": "function"
    },
    {
      "inputs": [
        {
          "internalType": "uint256",
          "name": "tokenId",
          "type": "uint256"
        },
        {
          "internalType": "string",
          "name": "imgUrl",
          "type": "string"
        }
      ],
      "name": "setProfileForPKP",
      "outputs": [],
      "stateMutability": "nonpayable",
      "type": "function"
    },
    {
      "inputs": [
        {
          "internalType": "uint256",
          "name": "tokenId",
          "type": "uint256"
        },
        {
          "internalType": "string",
          "name": "url",
          "type": "string"
        }
      ],
      "name": "setUrlForPKP",
      "outputs": [],
      "stateMutability": "nonpayable",
      "type": "function"
    },
    {
      "inputs": [
        {
          "internalType": "bytes4",
          "name": "interfaceId",
          "type": "bytes4"
        }
      ],
      "name": "supportsInterface",
      "outputs": [
        {
          "internalType": "bool",
          "name": "",
          "type": "bool"
        }
      ],
      "stateMutability": "view",
      "type": "function"
    },
    {
      "inputs": [
        {
          "internalType": "uint256",
          "name": "tokenId",
          "type": "uint256"
        },
        {
          "internalType": "bytes",
          "name": "pubKey",
          "type": "bytes"
        },
        {
          "internalType": "address",
          "name": "ethAddress",
          "type": "address"
        }
      ],
      "name": "tokenURI",
      "outputs": [
        {
          "internalType": "string",
          "name": "",
          "type": "string"
        }
      ],
      "stateMutability": "view",
      "type": "function"
    }
  ],
  "bytecode": "0x60806040523480156200001157600080fd5b506040516200367c3803806200367c83398181016040528101906200003791906200013f565b81600260006101000a81548173ffffffffffffffffffffffffffffffffffffffff021916908373ffffffffffffffffffffffffffffffffffffffff16021790555080600260146101000a81548160ff02191690836002811115620000a0576200009f62000186565b5b02179055505050620001b5565b600080fd5b600073ffffffffffffffffffffffffffffffffffffffff82169050919050565b6000620000df82620000b2565b9050919050565b620000f181620000d2565b8114620000fd57600080fd5b50565b6000815190506200011181620000e6565b92915050565b600381106200012557600080fd5b50565b600081519050620001398162000117565b92915050565b60008060408385031215620001595762000158620000ad565b5b6000620001698582860162000100565b92505060206200017c8582860162000128565b9150509250929050565b7f4e487b7100000000000000000000000000000000000000000000000000000000600052602160045260246000fd5b6134b780620001c56000396000f3fe608060405234801561001057600080fd5b50600436106101165760003560e01c8063855eec22116100a25780639beaab7b116100715780639beaab7b146102ef5780639dca00321461030d578063a217fddf1461032b578063b63a767714610349578063d547741f1461036557610116565b8063855eec22146102575780639000fee11461027357806391d148541461028f578063950462ee146102bf57610116565b806336568abe116100e957806336568abe146101b3578063451d89fa146101cf57806350d17b5e146101ff578063519a218e1461021d57806375b238fc1461023957610116565b806301ffc9a71461011b5780630fa8ae2f1461014b578063248a9ca3146101675780632f2ff15d14610197575b600080fd5b61013560048036038101906101309190611baa565b610381565b6040516101429190611bf2565b60405180910390f35b61016560048036038101906101609190611c6b565b6103fb565b005b610181600480360381019061017c9190611cce565b610491565b60405161018e9190611d0a565b60405180910390f35b6101b160048036038101906101ac9190611d25565b6104b0565b005b6101cd60048036038101906101c89190611d25565b6104d1565b005b6101e960048036038101906101e49190611eab565b610554565b6040516101f69190611f73565b60405180910390f35b610207610779565b6040516102149190611ff4565b60405180910390f35b61023760048036038101906102329190612045565b61079f565b005b61024161097c565b60405161024e9190611d0a565b60405180910390f35b610271600480360381019061026c9190612113565b6109a0565b005b61028d60048036038101906102889190612113565b610b6f565b005b6102a960048036038101906102a49190611d25565b610d3e565b6040516102b69190611bf2565b60405180910390f35b6102d960048036038101906102d4919061216f565b610da8565b6040516102e69190611f73565b60405180910390f35b6102f7610de3565b6040516103049190611d0a565b60405180910390f35b610315610e07565b6040516103229190612255565b60405180910390f35b610333610e1a565b6040516103409190611d0a565b60405180910390f35b610363600480360381019061035e9190612045565b610e21565b005b61037f600480360381019061037a9190611d25565b610ffe565b005b60007f7965db0b000000000000000000000000000000000000000000000000000000007bffffffffffffffffffffffffffffffffffffffffffffffffffffffff1916827bffffffffffffffffffffffffffffffffffffffffffffffffffffffff191614806103f457506103f38261101f565b5b9050919050565b6104257fdf8b4c520ffe197c5343c6f5aec59570151ef9a492f2c624fd45ddde6135ec4233610d3e565b610464576040517f08c379a000000000000000000000000000000000000000000000000000000000815260040161045b906122e2565b60405180910390fd5b61048e7f73a9985316cd4cbfd13dadcaa0e6f773c85e933a0d88efbe60e4dc49da9176a082611089565b50565b6000806000838152602001908152602001600020600101549050919050565b6104b982610491565b6104c281611169565b6104cc8383611089565b505050565b6104d961117d565b73ffffffffffffffffffffffffffffffffffffffff168173ffffffffffffffffffffffffffffffffffffffff1614610546576040517f08c379a000000000000000000000000000000000000000000000000000000000815260040161053d90612374565b60405180910390fd5b6105508282611185565b5050565b606060006002835161056691906123c3565b67ffffffffffffffff81111561057f5761057e611d80565b5b6040519080825280601f01601f1916602001820160405280156105b15781602001600182028036833780820191505090505b50905060006040518060400160405280601081526020017f3031323334353637383961626364656600000000000000000000000000000000815250905060005b845181101561074f578182518683815181106106105761060f612405565b5b602001015160f81c60f81b60f81c60ff1661062b9190612463565b8151811061063c5761063b612405565b5b602001015160f81c60f81b8360028361065591906123c3565b8151811061066657610665612405565b5b60200101907effffffffffffffffffffffffffffffffffffffffffffffffffffffffffffff1916908160001a9053508182518683815181106106ab576106aa612405565b5b602001015160f81c60f81b60f81c60ff166106c69190612494565b815181106106d7576106d6612405565b5b602001015160f81c60f81b8360016002846106f291906123c3565b6106fc91906124c5565b8151811061070d5761070c612405565b5b60200101907effffffffffffffffffffffffffffffffffffffffffffffffffffffffffffff1916908160001a9053508080610747906124f9565b9150506105f1565b508160405160200161076191906125df565b60405160208183030381529060405292505050919050565b600260009054906101000a900473ffffffffffffffffffffffffffffffffffffffff1681565b600260009054906101000a900473ffffffffffffffffffffffffffffffffffffffff1673ffffffffffffffffffffffffffffffffffffffff16638e8dfd16600260009054906101000a900473ffffffffffffffffffffffffffffffffffffffff1673ffffffffffffffffffffffffffffffffffffffff1663977a80706040518163ffffffff1660e01b8152600401602060405180830381865afa15801561084a573d6000803e3d6000fd5b505050506040513d601f19601f8201168201806040525081019061086e9190612616565b600260149054906101000a900460ff166040518363ffffffff1660e01b815260040161089b929190612643565b602060405180830381865afa1580156108b8573d6000803e3d6000fd5b505050506040513d601f19601f820116820180604052508101906108dc9190612681565b73ffffffffffffffffffffffffffffffffffffffff163373ffffffffffffffffffffffffffffffffffffffff1614610949576040517f08c379a000000000000000000000000000000000000000000000000000000000815260040161094090612746565b60405180910390fd5b604051806020016040528060008152506003600083815260200190815260200160002090816109789190612968565b5050565b7fdf8b4c520ffe197c5343c6f5aec59570151ef9a492f2c624fd45ddde6135ec4281565b600260009054906101000a900473ffffffffffffffffffffffffffffffffffffffff1673ffffffffffffffffffffffffffffffffffffffff16638e8dfd16600260009054906101000a900473ffffffffffffffffffffffffffffffffffffffff1673ffffffffffffffffffffffffffffffffffffffff1663977a80706040518163ffffffff1660e01b8152600401602060405180830381865afa158015610a4b573d6000803e3d6000fd5b505050506040513d601f19601f82011682018060405250810190610a6f9190612616565b600260149054906101000a900460ff166040518363ffffffff1660e01b8152600401610a9c929190612643565b602060405180830381865afa158015610ab9573d6000803e3d6000fd5b505050506040513d601f19601f82011682018060405250810190610add9190612681565b73ffffffffffffffffffffffffffffffffffffffff163373ffffffffffffffffffffffffffffffffffffffff1614610b4a576040517f08c379a0000000000000000000000000000000000000000000000000000000008152600401610b4190612746565b60405180910390fd5b80600360008481526020019081526020016000209081610b6a9190612968565b505050565b600260009054906101000a900473ffffffffffffffffffffffffffffffffffffffff1673ffffffffffffffffffffffffffffffffffffffff16638e8dfd16600260009054906101000a900473ffffffffffffffffffffffffffffffffffffffff1673ffffffffffffffffffffffffffffffffffffffff1663977a80706040518163ffffffff1660e01b8152600401602060405180830381865afa158015610c1a573d6000803e3d6000fd5b505050506040513d601f19601f82011682018060405250810190610c3e9190612616565b600260149054906101000a900460ff166040518363ffffffff1660e01b8152600401610c6b929190612643565b602060405180830381865afa158015610c88573d6000803e3d6000fd5b505050506040513d601f19601f82011682018060405250810190610cac9190612681565b73ffffffffffffffffffffffffffffffffffffffff163373ffffffffffffffffffffffffffffffffffffffff1614610d19576040517f08c379a0000000000000000000000000000000000000000000000000000000008152600401610d1090612746565b60405180910390fd5b80600460008481526020019081526020016000209081610d399190612968565b505050565b600080600084815260200190815260200160002060000160008373ffffffffffffffffffffffffffffffffffffffff1673ffffffffffffffffffffffffffffffffffffffff16815260200190815260200160002060009054906101000a900460ff16905092915050565b60606000610db7858585611266565b905080604051602001610dca9190612ab7565b6040516020818303038152906040529150509392505050565b7f73a9985316cd4cbfd13dadcaa0e6f773c85e933a0d88efbe60e4dc49da9176a081565b600260149054906101000a900460ff1681565b6000801b81565b600260009054906101000a900473ffffffffffffffffffffffffffffffffffffffff1673ffffffffffffffffffffffffffffffffffffffff16638e8dfd16600260009054906101000a900473ffffffffffffffffffffffffffffffffffffffff1673ffffffffffffffffffffffffffffffffffffffff1663977a80706040518163ffffffff1660e01b8152600401602060405180830381865afa158015610ecc573d6000803e3d6000fd5b505050506040513d601f19601f82011682018060405250810190610ef09190612616565b600260149054906101000a900460ff166040518363ffffffff1660e01b8152600401610f1d929190612643565b602060405180830381865afa158015610f3a573d6000803e3d6000fd5b505050506040513d601f19601f82011682018060405250810190610f5e9190612681565b73ffffffffffffffffffffffffffffffffffffffff163373ffffffffffffffffffffffffffffffffffffffff1614610fcb576040517f08c379a0000000000000000000000000000000000000000000000000000000008152600401610fc290612746565b60405180910390fd5b60405180602001604052806000815250600460008381526020019081526020016000209081610ffa9190612968565b5050565b61100782610491565b61101081611169565b61101a8383611185565b505050565b60007f01ffc9a7000000000000000000000000000000000000000000000000000000007bffffffffffffffffffffffffffffffffffffffffffffffffffffffff1916827bffffffffffffffffffffffffffffffffffffffffffffffffffffffff1916149050919050565b6110938282610d3e565b61116557600160008084815260200190815260200160002060000160008373ffffffffffffffffffffffffffffffffffffffff1673ffffffffffffffffffffffffffffffffffffffff16815260200190815260200160002060006101000a81548160ff02191690831515021790555061110a61117d565b73ffffffffffffffffffffffffffffffffffffffff168173ffffffffffffffffffffffffffffffffffffffff16837f2f8788117e7eff1d82e926ec794901d17c78024a50270940304540a733656f0d60405160405180910390a45b5050565b61117a8161117561117d565b6114cc565b50565b600033905090565b61118f8282610d3e565b1561126257600080600084815260200190815260200160002060000160008373ffffffffffffffffffffffffffffffffffffffff1673ffffffffffffffffffffffffffffffffffffffff16815260200190815260200160002060006101000a81548160ff02191690831515021790555061120761117d565b73ffffffffffffffffffffffffffffffffffffffff168173ffffffffffffffffffffffffffffffffffffffff16837ff6391f5c32d9c69d2a47ea670b442974b53935d1edc7fd64eb21e047a839171b60405160405180910390a45b5050565b606060006040518061048001604052806104568152602001612fec61045691399050600061129385610554565b905060006112a085611551565b905060006112ad8861157e565b90506000600360008a815260200190815260200160002080546112cf90612795565b80601f01602080910402602001604051908101604052809291908181526020018280546112fb90612795565b80156113485780601f1061131d57610100808354040283529160200191611348565b820191906000526020600020905b81548152906001019060200180831161132b57829003601f168201915b505050505090506000600460008b8152602001908152602001600020805461136f90612795565b80601f016020809104026020016040519081016040528092919081815260200182805461139b90612795565b80156113e85780601f106113bd576101008083540402835291602001916113e8565b820191906000526020600020905b8154815290600101906020018083116113cb57829003601f168201915b505050505090506000825114801561140257506000815114155b1561142e57826040516020016114189190612aff565b604051602081830303815290604052915061148d565b6000825114158015611441575060008151145b1561144e5785905061148c565b60008251148015611460575060008151145b1561148b57826040516020016114769190612aff565b60405160208183030381529060405291508590505b5b5b6114bd82828787876040516020016114a9959493929190612df7565b60405160208183030381529060405261164c565b96505050505050509392505050565b6114d68282610d3e565b61154d576114e381611551565b6114f18360001c60206117af565b604051602001611502929190612f1c565b6040516020818303038152906040526040517f08c379a00000000000000000000000000000000000000000000000000000000081526004016115449190611f73565b60405180910390fd5b5050565b60606115778273ffffffffffffffffffffffffffffffffffffffff16601460ff166117af565b9050919050565b60606000600161158d846119eb565b01905060008167ffffffffffffffff8111156115ac576115ab611d80565b5b6040519080825280601f01601f1916602001820160405280156115de5781602001600182028036833780820191505090505b509050600082602001820190505b600115611641578080600190039150507f3031323334353637383961626364656600000000000000000000000000000000600a86061a8153600a858161163557611634612434565b5b049450600085036115ec575b819350505050919050565b6060600082510361166e576040518060200160405280600081525090506117aa565b6000604051806060016040528060408152602001613442604091399050600060036002855161169d91906124c5565b6116a79190612463565b60046116b391906123c3565b67ffffffffffffffff8111156116cc576116cb611d80565b5b6040519080825280601f01601f1916602001820160405280156116fe5781602001600182028036833780820191505090505b509050600182016020820185865187015b8082101561176a576003820191508151603f8160121c168501518453600184019350603f81600c1c168501518453600184019350603f8160061c168501518453600184019350603f811685015184536001840193505061170f565b50506003865106600181146117865760028114611799576117a1565b603d6001830353603d60028303536117a1565b603d60018303535b50505080925050505b919050565b6060600060028360026117c291906123c3565b6117cc91906124c5565b67ffffffffffffffff8111156117e5576117e4611d80565b5b6040519080825280601f01601f1916602001820160405280156118175781602001600182028036833780820191505090505b5090507f30000000000000000000000000000000000000000000000000000000000000008160008151811061184f5761184e612405565b5b60200101907effffffffffffffffffffffffffffffffffffffffffffffffffffffffffffff1916908160001a9053507f7800000000000000000000000000000000000000000000000000000000000000816001815181106118b3576118b2612405565b5b60200101907effffffffffffffffffffffffffffffffffffffffffffffffffffffffffffff1916908160001a905350600060018460026118f391906123c3565b6118fd91906124c5565b90505b600181111561199d577f3031323334353637383961626364656600000000000000000000000000000000600f86166010811061193f5761193e612405565b5b1a60f81b82828151811061195657611955612405565b5b60200101907effffffffffffffffffffffffffffffffffffffffffffffffffffffffffffff1916908160001a905350600485901c94508061199690612f56565b9050611900565b50600084146119e1576040517f08c379a00000000000000000000000000000000000000000000000000000000081526004016119d890612fcb565b60405180910390fd5b8091505092915050565b600080600090507a184f03e93ff9f4daa797ed6e38ed64bf6a1f0100000000000000008310611a49577a184f03e93ff9f4daa797ed6e38ed64bf6a1f0100000000000000008381611a3f57611a3e612434565b5b0492506040810190505b6d04ee2d6d415b85acef81000000008310611a86576d04ee2d6d415b85acef81000000008381611a7c57611a7b612434565b5b0492506020810190505b662386f26fc100008310611ab557662386f26fc100008381611aab57611aaa612434565b5b0492506010810190505b6305f5e1008310611ade576305f5e1008381611ad457611ad3612434565b5b0492506008810190505b6127108310611b03576127108381611af957611af8612434565b5b0492506004810190505b60648310611b265760648381611b1c57611b1b612434565b5b0492506002810190505b600a8310611b35576001810190505b80915050919050565b6000604051905090565b600080fd5b600080fd5b60007fffffffff0000000000000000000000000000000000000000000000000000000082169050919050565b611b8781611b52565b8114611b9257600080fd5b50565b600081359050611ba481611b7e565b92915050565b600060208284031215611bc057611bbf611b48565b5b6000611bce84828501611b95565b91505092915050565b60008115159050919050565b611bec81611bd7565b82525050565b6000602082019050611c076000830184611be3565b92915050565b600073ffffffffffffffffffffffffffffffffffffffff82169050919050565b6000611c3882611c0d565b9050919050565b611c4881611c2d565b8114611c5357600080fd5b50565b600081359050611c6581611c3f565b92915050565b600060208284031215611c8157611c80611b48565b5b6000611c8f84828501611c56565b91505092915050565b6000819050919050565b611cab81611c98565b8114611cb657600080fd5b50565b600081359050611cc881611ca2565b92915050565b600060208284031215611ce457611ce3611b48565b5b6000611cf284828501611cb9565b91505092915050565b611d0481611c98565b82525050565b6000602082019050611d1f6000830184611cfb565b92915050565b60008060408385031215611d3c57611d3b611b48565b5b6000611d4a85828601611cb9565b9250506020611d5b85828601611c56565b9150509250929050565b600080fd5b600080fd5b6000601f19601f8301169050919050565b7f4e487b7100000000000000000000000000000000000000000000000000000000600052604160045260246000fd5b611db882611d6f565b810181811067ffffffffffffffff82111715611dd757611dd6611d80565b5b80604052505050565b6000611dea611b3e565b9050611df68282611daf565b919050565b600067ffffffffffffffff821115611e1657611e15611d80565b5b611e1f82611d6f565b9050602081019050919050565b82818337600083830152505050565b6000611e4e611e4984611dfb565b611de0565b905082815260208101848484011115611e6a57611e69611d6a565b5b611e75848285611e2c565b509392505050565b600082601f830112611e9257611e91611d65565b5b8135611ea2848260208601611e3b565b91505092915050565b600060208284031215611ec157611ec0611b48565b5b600082013567ffffffffffffffff811115611edf57611ede611b4d565b5b611eeb84828501611e7d565b91505092915050565b600081519050919050565b600082825260208201905092915050565b60005b83811015611f2e578082015181840152602081019050611f13565b60008484015250505050565b6000611f4582611ef4565b611f4f8185611eff565b9350611f5f818560208601611f10565b611f6881611d6f565b840191505092915050565b60006020820190508181036000830152611f8d8184611f3a565b905092915050565b6000819050919050565b6000611fba611fb5611fb084611c0d565b611f95565b611c0d565b9050919050565b6000611fcc82611f9f565b9050919050565b6000611fde82611fc1565b9050919050565b611fee81611fd3565b82525050565b60006020820190506120096000830184611fe5565b92915050565b6000819050919050565b6120228161200f565b811461202d57600080fd5b50565b60008135905061203f81612019565b92915050565b60006020828403121561205b5761205a611b48565b5b600061206984828501612030565b91505092915050565b600067ffffffffffffffff82111561208d5761208c611d80565b5b61209682611d6f565b9050602081019050919050565b60006120b66120b184612072565b611de0565b9050828152602081018484840111156120d2576120d1611d6a565b5b6120dd848285611e2c565b509392505050565b600082601f8301126120fa576120f9611d65565b5b813561210a8482602086016120a3565b91505092915050565b6000806040838503121561212a57612129611b48565b5b600061213885828601612030565b925050602083013567ffffffffffffffff81111561215957612158611b4d565b5b612165858286016120e5565b9150509250929050565b60008060006060848603121561218857612187611b48565b5b600061219686828701612030565b935050602084013567ffffffffffffffff8111156121b7576121b6611b4d565b5b6121c386828701611e7d565b92505060406121d486828701611c56565b9150509250925092565b7f4e487b7100000000000000000000000000000000000000000000000000000000600052602160045260246000fd5b6003811061221e5761221d6121de565b5b50565b600081905061222f8261220d565b919050565b600061223f82612221565b9050919050565b61224f81612234565b82525050565b600060208201905061226a6000830184612246565b92915050565b7f504b504e46544d657461646174613a206d757374206861642061646d696e207260008201527f6f6c650000000000000000000000000000000000000000000000000000000000602082015250565b60006122cc602383611eff565b91506122d782612270565b604082019050919050565b600060208201905081810360008301526122fb816122bf565b9050919050565b7f416363657373436f6e74726f6c3a2063616e206f6e6c792072656e6f756e636560008201527f20726f6c657320666f722073656c660000000000000000000000000000000000602082015250565b600061235e602f83611eff565b915061236982612302565b604082019050919050565b6000602082019050818103600083015261238d81612351565b9050919050565b7f4e487b7100000000000000000000000000000000000000000000000000000000600052601160045260246000fd5b60006123ce8261200f565b91506123d98361200f565b92508282026123e78161200f565b915082820484148315176123fe576123fd612394565b5b5092915050565b7f4e487b7100000000000000000000000000000000000000000000000000000000600052603260045260246000fd5b7f4e487b7100000000000000000000000000000000000000000000000000000000600052601260045260246000fd5b600061246e8261200f565b91506124798361200f565b92508261248957612488612434565b5b828204905092915050565b600061249f8261200f565b91506124aa8361200f565b9250826124ba576124b9612434565b5b828206905092915050565b60006124d08261200f565b91506124db8361200f565b92508282019050808211156124f3576124f2612394565b5b92915050565b60006125048261200f565b91507fffffffffffffffffffffffffffffffffffffffffffffffffffffffffffffffff820361253657612535612394565b5b600182019050919050565b600081905092915050565b7f3078000000000000000000000000000000000000000000000000000000000000600082015250565b6000612582600283612541565b915061258d8261254c565b600282019050919050565b600081519050919050565b600081905092915050565b60006125b982612598565b6125c381856125a3565b93506125d3818560208601611f10565b80840191505092915050565b60006125ea82612575565b91506125f682846125ae565b915081905092915050565b60008151905061261081611ca2565b92915050565b60006020828403121561262c5761262b611b48565b5b600061263a84828501612601565b91505092915050565b60006040820190506126586000830185611cfb565b6126656020830184612246565b9392505050565b60008151905061267b81611c3f565b92915050565b60006020828403121561269757612696611b48565b5b60006126a58482850161266c565b91505092915050565b7f504b5048656c7065723a206f6e6c792074686520446f6d61696e2057616c6c6560008201527f7420726567697374727920697320616c6c6f77656420746f206d696e7420646f60208201527f6d61696e2077616c6c6574732c2077686f2061726520796f753f000000000000604082015250565b6000612730605a83611eff565b915061273b826126ae565b606082019050919050565b6000602082019050818103600083015261275f81612723565b9050919050565b7f4e487b7100000000000000000000000000000000000000000000000000000000600052602260045260246000fd5b600060028204905060018216806127ad57607f821691505b6020821081036127c0576127bf612766565b5b50919050565b60008190508160005260206000209050919050565b60006020601f8301049050919050565b600082821b905092915050565b6000600883026128287fffffffffffffffffffffffffffffffffffffffffffffffffffffffffffffffff826127eb565b61283286836127eb565b95508019841693508086168417925050509392505050565b600061286561286061285b8461200f565b611f95565b61200f565b9050919050565b6000819050919050565b61287f8361284a565b61289361288b8261286c565b8484546127f8565b825550505050565b600090565b6128a861289b565b6128b3818484612876565b505050565b5b818110156128d7576128cc6000826128a0565b6001810190506128b9565b5050565b601f82111561291c576128ed816127c6565b6128f6846127db565b81016020851015612905578190505b612919612911856127db565b8301826128b8565b50505b505050565b600082821c905092915050565b600061293f60001984600802612921565b1980831691505092915050565b6000612958838361292e565b9150826002028217905092915050565b61297182611ef4565b67ffffffffffffffff81111561298a57612989611d80565b5b6129948254612795565b61299f8282856128db565b600060209050601f8311600181146129d257600084156129c0578287015190505b6129ca858261294c565b865550612a32565b601f1984166129e0866127c6565b60005b82811015612a08578489015182556001820191506020850194506020810190506129e3565b86831015612a255784890151612a21601f89168261292e565b8355505b6001600288020188555050505b505050505050565b7f646174613a6170706c69636174696f6e2f6a736f6e3b6261736536342c000000600082015250565b6000612a70601d83612541565b9150612a7b82612a3a565b601d82019050919050565b6000612a9182611ef4565b612a9b8185612541565b9350612aab818560208601611f10565b80840191505092915050565b6000612ac282612a63565b9150612ace8284612a86565b915081905092915050565b7f4c697420504b5020230000000000000000000000000000000000000000000000815250565b6000612b0a82612ad9565b600982019150612b1a8284612a86565b915081905092915050565b7f7b226e616d65223a220000000000000000000000000000000000000000000000600082015250565b6000612b5b600983612541565b9150612b6682612b25565b600982019050919050565b7f222c20226465736372697074696f6e223a202254686973204e465420656e746960008201527f746c65732074686520686f6c64657220746f207573652061204c69742050726f60208201527f746f636f6c20504b502c20616e6420746f206772616e7420616363657373207460408201527f6f206f7468657220757365727320616e64204c697420416374696f6e7320746f60608201527f20757365207468697320504b50222c22696d6167655f64617461223a20220000608082015250565b6000612c3f609e83612541565b9150612c4a82612b71565b609e82019050919050565b7f222c2261747472696275746573223a205b7b2274726169745f74797065223a2060008201527f225075626c6963204b6579222c202276616c7565223a20220000000000000000602082015250565b6000612cb1603883612541565b9150612cbc82612c55565b603882019050919050565b7f227d2c207b2274726169745f74797065223a20224554482057616c6c6574204160008201527f646472657373222c202276616c7565223a202200000000000000000000000000602082015250565b6000612d23603383612541565b9150612d2e82612cc7565b603382019050919050565b7f227d2c207b2274726169745f74797065223a2022546f6b656e204944222c202260008201527f76616c7565223a20220000000000000000000000000000000000000000000000602082015250565b6000612d95602983612541565b9150612da082612d39565b602982019050919050565b7f227d5d7d00000000000000000000000000000000000000000000000000000000600082015250565b6000612de1600483612541565b9150612dec82612dab565b600482019050919050565b6000612e0282612b4e565b9150612e0e8288612a86565b9150612e1982612c32565b9150612e2582876125ae565b9150612e3082612ca4565b9150612e3c8286612a86565b9150612e4782612d16565b9150612e538285612a86565b9150612e5e82612d88565b9150612e6a8284612a86565b9150612e7582612dd4565b91508190509695505050505050565b7f416363657373436f6e74726f6c3a206163636f756e7420000000000000000000600082015250565b6000612eba601783612541565b9150612ec582612e84565b601782019050919050565b7f206973206d697373696e6720726f6c6520000000000000000000000000000000600082015250565b6000612f06601183612541565b9150612f1182612ed0565b601182019050919050565b6000612f2782612ead565b9150612f338285612a86565b9150612f3e82612ef9565b9150612f4a8284612a86565b91508190509392505050565b6000612f618261200f565b915060008203612f7457612f73612394565b5b600182039050919050565b7f537472696e67733a20686578206c656e67746820696e73756666696369656e74600082015250565b6000612fb5602083611eff565b9150612fc082612f7f565b602082019050919050565b60006020820190508181036000830152612fe481612fa8565b905091905056fe3c73766720786d6c6e733d27687474703a2f2f7777772e77332e6f72672f323030302f737667272077696474683d273130383027206865696768743d2731303830272066696c6c3d276e6f6e652720786d6c6e733a763d2768747470733a2f2f76656374612e696f2f6e616e6f273e3c7061746820643d274d3336332e303736203339322e323237732d2e3937372031382e3532342d33362e3837342037382e393437632d34312e3537362037302e3031382d34352e343831203135312e3937382d332e303137203232302e342038392e353231203134342e323435203333322e343831203134312e3532203432322e3535362e3038392033342e3833322d35342e3730372034342e3831362d3131372e3437392033322e3932342d3138312e323438203020302d32382e3831392d3133332e3134342d3132372e3233372d3231372e30393920312e35353320312e33303820352e3336392031392e31323220362e3130312032362e37323220322e3234312032332e3335342e3034352034372e3833382d372e3738372037302e3036322d352e3734362031362e33332d31332e3731312033302e3436372d32372e3137382034312e33363820302d332e3831312d2e3935342d31302e3633352d2e3937362d31322e3931382d2e3634342d34362e3530382d31382e3635392d38392e3538322d34382e3031312d3132352e3734332d32352e3634372d33312e3535322d36302e3831322d35332e3038392d39372e38342d36382e3933322e39333120332e31393120322e3636322031362e34313920322e3930362031392e30333320312e3930382032312e39353820322e3236332035322e3731332d2e3632312037342e363439732d372e3833322033332e3837382d31342e3535342035342e343431632d31302e3138342033312e3137352d32342e30352035342e3238352d34312e3632312038322e3030342d332e323420352e3039362d31322e3931332031392e3037382d31382e3038322032362e313436203020302d382e3839372d35362e3139312d34302e3636372d38372e393231682d2e3032327a272066696c6c3d2723303030272f3e3c7061746820643d274d3536322e352032372e32386c3431302e323739203233362e3837346331332e39323320382e3033392032322e352032322e3839352032322e352033382e393731763437332e373563302031362e3037362d382e3537372033302e3933322d32322e352033382e3937314c3536322e3520313035322e3732632d31332e39323320382e30342d33312e30373720382e30342d343520304c3130372e323231203831352e383436632d31332e3932332d382e3033392d32322e352d32322e3839352d32322e352d33382e393731762d3437332e37356134352034352030203020312032322e352d33382e3937314c3531372e352032372e323861343520343520302030203120343520307a27207374726f6b653d272330303027207374726f6b652d77696474683d2732342e3735272f3e3c2f7376673e4142434445464748494a4b4c4d4e4f505152535455565758595a6162636465666768696a6b6c6d6e6f707172737475767778797a303132333435363738392b2fa26469706673582212200ceb2c1a7b797cd21ae5910167765146275a28fd28f17b5b4434608b0567470864736f6c63430008110033",
  "linkReferences": {},
  "deployedLinkReferences": {}
}