{
  "_format": "hh-sol-artifact-1",
  "contractName": "PKPNFTMetadata",
  "sourceName": "contracts/lit-node/PKPNFTMetadata.sol",
  "abi": [
    {
      "inputs": [
        {
          "internalType": "address",
          "name": "_resolver",
          "type": "address"
        },
        {
          "internalType": "enum ContractResolver.Env",
          "name": "_env",
          "type": "uint8"
        }
      ],
      "stateMutability": "nonpayable",
      "type": "constructor"
    },
    {
      "inputs": [
        {
          "internalType": "bytes",
          "name": "buffer",
          "type": "bytes"
        }
      ],
      "name": "bytesToHex",
      "outputs": [
        {
          "internalType": "string",
          "name": "",
          "type": "string"
        }
      ],
      "stateMutability": "pure",
      "type": "function"
    },
    {
      "inputs": [],
      "name": "contractResolver",
      "outputs": [
        {
          "internalType": "contract ContractResolver",
          "name": "",
          "type": "address"
        }
      ],
      "stateMutability": "view",
      "type": "function"
    },
    {
      "inputs": [],
      "name": "env",
      "outputs": [
        {
          "internalType": "enum ContractResolver.Env",
          "name": "",
          "type": "uint8"
        }
      ],
      "stateMutability": "view",
      "type": "function"
    },
    {
      "inputs": [
        {
          "internalType": "uint256",
          "name": "tokenId",
          "type": "uint256"
        }
      ],
      "name": "removeProfileForPkp",
      "outputs": [],
      "stateMutability": "nonpayable",
      "type": "function"
    },
    {
      "inputs": [
        {
          "internalType": "uint256",
          "name": "tokenId",
          "type": "uint256"
        }
      ],
      "name": "removeUrlForPKP",
      "outputs": [],
      "stateMutability": "nonpayable",
      "type": "function"
    },
    {
      "inputs": [
        {
          "internalType": "uint256",
          "name": "tokenId",
          "type": "uint256"
        },
        {
          "internalType": "string",
          "name": "imgUrl",
          "type": "string"
        }
      ],
      "name": "setProfileForPKP",
      "outputs": [],
      "stateMutability": "nonpayable",
      "type": "function"
    },
    {
      "inputs": [
        {
          "internalType": "uint256",
          "name": "tokenId",
          "type": "uint256"
        },
        {
          "internalType": "string",
          "name": "url",
          "type": "string"
        }
      ],
      "name": "setUrlForPKP",
      "outputs": [],
      "stateMutability": "nonpayable",
      "type": "function"
    },
    {
      "inputs": [
        {
          "internalType": "uint256",
          "name": "tokenId",
          "type": "uint256"
        },
        {
          "internalType": "bytes",
          "name": "pubKey",
          "type": "bytes"
        },
        {
          "internalType": "address",
          "name": "ethAddress",
          "type": "address"
        }
      ],
      "name": "tokenURI",
      "outputs": [
        {
          "internalType": "string",
          "name": "",
          "type": "string"
        }
      ],
      "stateMutability": "view",
      "type": "function"
    }
  ],
  "bytecode": "0x60806040523480156200001157600080fd5b5060405162002b9c38038062002b9c83398181016040528101906200003791906200013e565b816000806101000a81548173ffffffffffffffffffffffffffffffffffffffff021916908373ffffffffffffffffffffffffffffffffffffffff16021790555080600060146101000a81548160ff021916908360028111156200009f576200009e62000185565b5b02179055505050620001b4565b600080fd5b600073ffffffffffffffffffffffffffffffffffffffff82169050919050565b6000620000de82620000b1565b9050919050565b620000f081620000d1565b8114620000fc57600080fd5b50565b6000815190506200011081620000e5565b92915050565b600381106200012457600080fd5b50565b600081519050620001388162000116565b92915050565b60008060408385031215620001585762000157620000ac565b5b60006200016885828601620000ff565b92505060206200017b8582860162000127565b9150509250929050565b7f4e487b7100000000000000000000000000000000000000000000000000000000600052602160045260246000fd5b6129d880620001c46000396000f3fe608060405234801561001057600080fd5b50600436106100885760003560e01c80639000fee11161005b5780639000fee114610113578063950462ee1461012f5780639dca00321461015f578063b63a76771461017d57610088565b8063451d89fa1461008d57806350d17b5e146100bd578063519a218e146100db578063855eec22146100f7575b600080fd5b6100a760048036038101906100a29190611534565b610199565b6040516100b491906115fc565b60405180910390f35b6100c56103be565b6040516100d2919061169d565b60405180910390f35b6100f560048036038101906100f091906116ee565b6103e2565b005b610111600480360381019061010c91906117bc565b6105bb565b005b61012d600480360381019061012891906117bc565b610786565b005b61014960048036038101906101449190611856565b610951565b60405161015691906115fc565b60405180910390f35b61016761098c565b604051610174919061193c565b60405180910390f35b610197600480360381019061019291906116ee565b61099f565b005b60606000600283516101ab9190611986565b67ffffffffffffffff8111156101c4576101c3611409565b5b6040519080825280601f01601f1916602001820160405280156101f65781602001600182028036833780820191505090505b50905060006040518060400160405280601081526020017f3031323334353637383961626364656600000000000000000000000000000000815250905060005b845181101561039457818251868381518110610255576102546119c8565b5b602001015160f81c60f81b60f81c60ff166102709190611a26565b81518110610281576102806119c8565b5b602001015160f81c60f81b8360028361029a9190611986565b815181106102ab576102aa6119c8565b5b60200101907effffffffffffffffffffffffffffffffffffffffffffffffffffffffffffff1916908160001a9053508182518683815181106102f0576102ef6119c8565b5b602001015160f81c60f81b60f81c60ff1661030b9190611a57565b8151811061031c5761031b6119c8565b5b602001015160f81c60f81b8360016002846103379190611986565b6103419190611a88565b81518110610352576103516119c8565b5b60200101907effffffffffffffffffffffffffffffffffffffffffffffffffffffffffffff1916908160001a905350808061038c90611abc565b915050610236565b50816040516020016103a69190611ba2565b60405160208183030381529060405292505050919050565b60008054906101000a900473ffffffffffffffffffffffffffffffffffffffff1681565b60008054906101000a900473ffffffffffffffffffffffffffffffffffffffff1673ffffffffffffffffffffffffffffffffffffffff16638e8dfd1660008054906101000a900473ffffffffffffffffffffffffffffffffffffffff1673ffffffffffffffffffffffffffffffffffffffff1663977a80706040518163ffffffff1660e01b8152600401602060405180830381865afa158015610489573d6000803e3d6000fd5b505050506040513d601f19601f820116820180604052508101906104ad9190611bfa565b600060149054906101000a900460ff166040518363ffffffff1660e01b81526004016104da929190611c36565b602060405180830381865afa1580156104f7573d6000803e3d6000fd5b505050506040513d601f19601f8201168201806040525081019061051b9190611c74565b73ffffffffffffffffffffffffffffffffffffffff163373ffffffffffffffffffffffffffffffffffffffff1614610588576040517f08c379a000000000000000000000000000000000000000000000000000000000815260040161057f90611d39565b60405180910390fd5b604051806020016040528060008152506001600083815260200190815260200160002090816105b79190611f5b565b5050565b60008054906101000a900473ffffffffffffffffffffffffffffffffffffffff1673ffffffffffffffffffffffffffffffffffffffff16638e8dfd1660008054906101000a900473ffffffffffffffffffffffffffffffffffffffff1673ffffffffffffffffffffffffffffffffffffffff1663977a80706040518163ffffffff1660e01b8152600401602060405180830381865afa158015610662573d6000803e3d6000fd5b505050506040513d601f19601f820116820180604052508101906106869190611bfa565b600060149054906101000a900460ff166040518363ffffffff1660e01b81526004016106b3929190611c36565b602060405180830381865afa1580156106d0573d6000803e3d6000fd5b505050506040513d601f19601f820116820180604052508101906106f49190611c74565b73ffffffffffffffffffffffffffffffffffffffff163373ffffffffffffffffffffffffffffffffffffffff1614610761576040517f08c379a000000000000000000000000000000000000000000000000000000000815260040161075890611d39565b60405180910390fd5b806001600084815260200190815260200160002090816107819190611f5b565b505050565b60008054906101000a900473ffffffffffffffffffffffffffffffffffffffff1673ffffffffffffffffffffffffffffffffffffffff16638e8dfd1660008054906101000a900473ffffffffffffffffffffffffffffffffffffffff1673ffffffffffffffffffffffffffffffffffffffff1663977a80706040518163ffffffff1660e01b8152600401602060405180830381865afa15801561082d573d6000803e3d6000fd5b505050506040513d601f19601f820116820180604052508101906108519190611bfa565b600060149054906101000a900460ff166040518363ffffffff1660e01b815260040161087e929190611c36565b602060405180830381865afa15801561089b573d6000803e3d6000fd5b505050506040513d601f19601f820116820180604052508101906108bf9190611c74565b73ffffffffffffffffffffffffffffffffffffffff163373ffffffffffffffffffffffffffffffffffffffff161461092c576040517f08c379a000000000000000000000000000000000000000000000000000000000815260040161092390611d39565b60405180910390fd5b8060026000848152602001908152602001600020908161094c9190611f5b565b505050565b60606000610960858585610b78565b90508060405160200161097391906120aa565b6040516020818303038152906040529150509392505050565b600060149054906101000a900460ff1681565b60008054906101000a900473ffffffffffffffffffffffffffffffffffffffff1673ffffffffffffffffffffffffffffffffffffffff16638e8dfd1660008054906101000a900473ffffffffffffffffffffffffffffffffffffffff1673ffffffffffffffffffffffffffffffffffffffff1663977a80706040518163ffffffff1660e01b8152600401602060405180830381865afa158015610a46573d6000803e3d6000fd5b505050506040513d601f19601f82011682018060405250810190610a6a9190611bfa565b600060149054906101000a900460ff166040518363ffffffff1660e01b8152600401610a97929190611c36565b602060405180830381865afa158015610ab4573d6000803e3d6000fd5b505050506040513d601f19601f82011682018060405250810190610ad89190611c74565b73ffffffffffffffffffffffffffffffffffffffff163373ffffffffffffffffffffffffffffffffffffffff1614610b45576040517f08c379a0000000000000000000000000000000000000000000000000000000008152600401610b3c90611d39565b60405180910390fd5b60405180602001604052806000815250600260008381526020019081526020016000209081610b749190611f5b565b5050565b60606000604051806104800160405280610456815260200161250d610456913990506000610ba585610199565b90506000610bb285610dde565b90506000610bbf88610e0b565b90506000600160008a81526020019081526020016000208054610be190611d88565b80601f0160208091040260200160405190810160405280929190818152602001828054610c0d90611d88565b8015610c5a5780601f10610c2f57610100808354040283529160200191610c5a565b820191906000526020600020905b815481529060010190602001808311610c3d57829003601f168201915b505050505090506000600260008b81526020019081526020016000208054610c8190611d88565b80601f0160208091040260200160405190810160405280929190818152602001828054610cad90611d88565b8015610cfa5780601f10610ccf57610100808354040283529160200191610cfa565b820191906000526020600020905b815481529060010190602001808311610cdd57829003601f168201915b5050505050905060008251148015610d1457506000815114155b15610d405782604051602001610d2a91906120f2565b6040516020818303038152906040529150610d9f565b6000825114158015610d53575060008151145b15610d6057859050610d9e565b60008251148015610d72575060008151145b15610d9d5782604051602001610d8891906120f2565b60405160208183030381529060405291508590505b5b5b610dcf8282878787604051602001610dbb9594939291906123ea565b604051602081830303815290604052610ed9565b96505050505050509392505050565b6060610e048273ffffffffffffffffffffffffffffffffffffffff16601460ff1661104b565b9050919050565b606060006001610e1a84611287565b01905060008167ffffffffffffffff811115610e3957610e38611409565b5b6040519080825280601f01601f191660200182016040528015610e6b5781602001600182028036833780820191505090505b509050600082602001820190505b600115610ece578080600190039150507f3031323334353637383961626364656600000000000000000000000000000000600a86061a8153600a8581610ec257610ec16119f7565b5b04945060008503610e79575b819350505050919050565b60606000825103610efb57604051806020016040528060008152509050611046565b60006040518060600160405280604081526020016129636040913990506000600360028551610f2a9190611a88565b610f349190611a26565b6004610f409190611986565b67ffffffffffffffff811115610f5957610f58611409565b5b6040519080825280601f01601f191660200182016040528015610f8b5781602001600182028036833780820191505090505b50905060018201602082018586518701602081018051600082525b82841015611001576003840193508351603f8160121c168701518653600186019550603f81600c1c168701518653600186019550603f8160061c168701518653600186019550603f8116870151865360018601955050610fa6565b80825260038a51066001811461101e576002811461103157611039565b603d6001870353603d6002870353611039565b603d60018703535b5050505050505080925050505b919050565b60606000600283600261105e9190611986565b6110689190611a88565b67ffffffffffffffff81111561108157611080611409565b5b6040519080825280601f01601f1916602001820160405280156110b35781602001600182028036833780820191505090505b5090507f3000000000000000000000000000000000000000000000000000000000000000816000815181106110eb576110ea6119c8565b5b60200101907effffffffffffffffffffffffffffffffffffffffffffffffffffffffffffff1916908160001a9053507f78000000000000000000000000000000000000000000000000000000000000008160018151811061114f5761114e6119c8565b5b60200101907effffffffffffffffffffffffffffffffffffffffffffffffffffffffffffff1916908160001a9053506000600184600261118f9190611986565b6111999190611a88565b90505b6001811115611239577f3031323334353637383961626364656600000000000000000000000000000000600f8616601081106111db576111da6119c8565b5b1a60f81b8282815181106111f2576111f16119c8565b5b60200101907effffffffffffffffffffffffffffffffffffffffffffffffffffffffffffff1916908160001a905350600485901c94508061123290612477565b905061119c565b506000841461127d576040517f08c379a0000000000000000000000000000000000000000000000000000000008152600401611274906124ec565b60405180910390fd5b8091505092915050565b600080600090507a184f03e93ff9f4daa797ed6e38ed64bf6a1f01000000000000000083106112e5577a184f03e93ff9f4daa797ed6e38ed64bf6a1f01000000000000000083816112db576112da6119f7565b5b0492506040810190505b6d04ee2d6d415b85acef81000000008310611322576d04ee2d6d415b85acef81000000008381611318576113176119f7565b5b0492506020810190505b662386f26fc10000831061135157662386f26fc100008381611347576113466119f7565b5b0492506010810190505b6305f5e100831061137a576305f5e10083816113705761136f6119f7565b5b0492506008810190505b612710831061139f576127108381611395576113946119f7565b5b0492506004810190505b606483106113c257606483816113b8576113b76119f7565b5b0492506002810190505b600a83106113d1576001810190505b80915050919050565b6000604051905090565b600080fd5b600080fd5b600080fd5b600080fd5b6000601f19601f8301169050919050565b7f4e487b7100000000000000000000000000000000000000000000000000000000600052604160045260246000fd5b611441826113f8565b810181811067ffffffffffffffff821117156114605761145f611409565b5b80604052505050565b60006114736113da565b905061147f8282611438565b919050565b600067ffffffffffffffff82111561149f5761149e611409565b5b6114a8826113f8565b9050602081019050919050565b82818337600083830152505050565b60006114d76114d284611484565b611469565b9050828152602081018484840111156114f3576114f26113f3565b5b6114fe8482856114b5565b509392505050565b600082601f83011261151b5761151a6113ee565b5b813561152b8482602086016114c4565b91505092915050565b60006020828403121561154a576115496113e4565b5b600082013567ffffffffffffffff811115611568576115676113e9565b5b61157484828501611506565b91505092915050565b600081519050919050565b600082825260208201905092915050565b60005b838110156115b757808201518184015260208101905061159c565b60008484015250505050565b60006115ce8261157d565b6115d88185611588565b93506115e8818560208601611599565b6115f1816113f8565b840191505092915050565b6000602082019050818103600083015261161681846115c3565b905092915050565b600073ffffffffffffffffffffffffffffffffffffffff82169050919050565b6000819050919050565b600061166361165e6116598461161e565b61163e565b61161e565b9050919050565b600061167582611648565b9050919050565b60006116878261166a565b9050919050565b6116978161167c565b82525050565b60006020820190506116b2600083018461168e565b92915050565b6000819050919050565b6116cb816116b8565b81146116d657600080fd5b50565b6000813590506116e8816116c2565b92915050565b600060208284031215611704576117036113e4565b5b6000611712848285016116d9565b91505092915050565b600067ffffffffffffffff82111561173657611735611409565b5b61173f826113f8565b9050602081019050919050565b600061175f61175a8461171b565b611469565b90508281526020810184848401111561177b5761177a6113f3565b5b6117868482856114b5565b509392505050565b600082601f8301126117a3576117a26113ee565b5b81356117b384826020860161174c565b91505092915050565b600080604083850312156117d3576117d26113e4565b5b60006117e1858286016116d9565b925050602083013567ffffffffffffffff811115611802576118016113e9565b5b61180e8582860161178e565b9150509250929050565b60006118238261161e565b9050919050565b61183381611818565b811461183e57600080fd5b50565b6000813590506118508161182a565b92915050565b60008060006060848603121561186f5761186e6113e4565b5b600061187d868287016116d9565b935050602084013567ffffffffffffffff81111561189e5761189d6113e9565b5b6118aa86828701611506565b92505060406118bb86828701611841565b9150509250925092565b7f4e487b7100000000000000000000000000000000000000000000000000000000600052602160045260246000fd5b60038110611905576119046118c5565b5b50565b6000819050611916826118f4565b919050565b600061192682611908565b9050919050565b6119368161191b565b82525050565b6000602082019050611951600083018461192d565b92915050565b7f4e487b7100000000000000000000000000000000000000000000000000000000600052601160045260246000fd5b6000611991826116b8565b915061199c836116b8565b92508282026119aa816116b8565b915082820484148315176119c1576119c0611957565b5b5092915050565b7f4e487b7100000000000000000000000000000000000000000000000000000000600052603260045260246000fd5b7f4e487b7100000000000000000000000000000000000000000000000000000000600052601260045260246000fd5b6000611a31826116b8565b9150611a3c836116b8565b925082611a4c57611a4b6119f7565b5b828204905092915050565b6000611a62826116b8565b9150611a6d836116b8565b925082611a7d57611a7c6119f7565b5b828206905092915050565b6000611a93826116b8565b9150611a9e836116b8565b9250828201905080821115611ab657611ab5611957565b5b92915050565b6000611ac7826116b8565b91507fffffffffffffffffffffffffffffffffffffffffffffffffffffffffffffffff8203611af957611af8611957565b5b600182019050919050565b600081905092915050565b7f3078000000000000000000000000000000000000000000000000000000000000600082015250565b6000611b45600283611b04565b9150611b5082611b0f565b600282019050919050565b600081519050919050565b600081905092915050565b6000611b7c82611b5b565b611b868185611b66565b9350611b96818560208601611599565b80840191505092915050565b6000611bad82611b38565b9150611bb98284611b71565b915081905092915050565b6000819050919050565b611bd781611bc4565b8114611be257600080fd5b50565b600081519050611bf481611bce565b92915050565b600060208284031215611c1057611c0f6113e4565b5b6000611c1e84828501611be5565b91505092915050565b611c3081611bc4565b82525050565b6000604082019050611c4b6000830185611c27565b611c58602083018461192d565b9392505050565b600081519050611c6e8161182a565b92915050565b600060208284031215611c8a57611c896113e4565b5b6000611c9884828501611c5f565b91505092915050565b7f504b5048656c7065723a206f6e6c792074686520446f6d61696e2057616c6c6560008201527f7420726567697374727920697320616c6c6f77656420746f206d696e7420646f60208201527f6d61696e2077616c6c6574730000000000000000000000000000000000000000604082015250565b6000611d23604c83611588565b9150611d2e82611ca1565b606082019050919050565b60006020820190508181036000830152611d5281611d16565b9050919050565b7f4e487b7100000000000000000000000000000000000000000000000000000000600052602260045260246000fd5b60006002820490506001821680611da057607f821691505b602082108103611db357611db2611d59565b5b50919050565b60008190508160005260206000209050919050565b60006020601f8301049050919050565b600082821b905092915050565b600060088302611e1b7fffffffffffffffffffffffffffffffffffffffffffffffffffffffffffffffff82611dde565b611e258683611dde565b95508019841693508086168417925050509392505050565b6000611e58611e53611e4e846116b8565b61163e565b6116b8565b9050919050565b6000819050919050565b611e7283611e3d565b611e86611e7e82611e5f565b848454611deb565b825550505050565b600090565b611e9b611e8e565b611ea6818484611e69565b505050565b5b81811015611eca57611ebf600082611e93565b600181019050611eac565b5050565b601f821115611f0f57611ee081611db9565b611ee984611dce565b81016020851015611ef8578190505b611f0c611f0485611dce565b830182611eab565b50505b505050565b600082821c905092915050565b6000611f3260001984600802611f14565b1980831691505092915050565b6000611f4b8383611f21565b9150826002028217905092915050565b611f648261157d565b67ffffffffffffffff811115611f7d57611f7c611409565b5b611f878254611d88565b611f92828285611ece565b600060209050601f831160018114611fc55760008415611fb3578287015190505b611fbd8582611f3f565b865550612025565b601f198416611fd386611db9565b60005b82811015611ffb57848901518255600182019150602085019450602081019050611fd6565b868310156120185784890151612014601f891682611f21565b8355505b6001600288020188555050505b505050505050565b7f646174613a6170706c69636174696f6e2f6a736f6e3b6261736536342c000000600082015250565b6000612063601d83611b04565b915061206e8261202d565b601d82019050919050565b60006120848261157d565b61208e8185611b04565b935061209e818560208601611599565b80840191505092915050565b60006120b582612056565b91506120c18284612079565b915081905092915050565b7f4c697420504b5020230000000000000000000000000000000000000000000000815250565b60006120fd826120cc565b60098201915061210d8284612079565b915081905092915050565b7f7b226e616d65223a220000000000000000000000000000000000000000000000600082015250565b600061214e600983611b04565b915061215982612118565b600982019050919050565b7f222c20226465736372697074696f6e223a202254686973204e465420656e746960008201527f746c65732074686520686f6c64657220746f207573652061204c69742050726f60208201527f746f636f6c20504b502c20616e6420746f206772616e7420616363657373207460408201527f6f206f7468657220757365727320616e64204c697420416374696f6e7320746f60608201527f20757365207468697320504b50222c22696d6167655f64617461223a20220000608082015250565b6000612232609e83611b04565b915061223d82612164565b609e82019050919050565b7f222c2261747472696275746573223a205b7b2274726169745f74797065223a2060008201527f225075626c6963204b6579222c202276616c7565223a20220000000000000000602082015250565b60006122a4603883611b04565b91506122af82612248565b603882019050919050565b7f227d2c207b2274726169745f74797065223a20224554482057616c6c6574204160008201527f646472657373222c202276616c7565223a202200000000000000000000000000602082015250565b6000612316603383611b04565b9150612321826122ba565b603382019050919050565b7f227d2c207b2274726169745f74797065223a2022546f6b656e204944222c202260008201527f76616c7565223a20220000000000000000000000000000000000000000000000602082015250565b6000612388602983611b04565b91506123938261232c565b602982019050919050565b7f227d5d7d00000000000000000000000000000000000000000000000000000000600082015250565b60006123d4600483611b04565b91506123df8261239e565b600482019050919050565b60006123f582612141565b91506124018288612079565b915061240c82612225565b91506124188287611b71565b915061242382612297565b915061242f8286612079565b915061243a82612309565b91506124468285612079565b91506124518261237b565b915061245d8284612079565b9150612468826123c7565b91508190509695505050505050565b6000612482826116b8565b91506000820361249557612494611957565b5b600182039050919050565b7f537472696e67733a20686578206c656e67746820696e73756666696369656e74600082015250565b60006124d6602083611588565b91506124e1826124a0565b602082019050919050565b60006020820190508181036000830152612505816124c9565b905091905056fe3c73766720786d6c6e733d27687474703a2f2f7777772e77332e6f72672f323030302f737667272077696474683d273130383027206865696768743d2731303830272066696c6c3d276e6f6e652720786d6c6e733a763d2768747470733a2f2f76656374612e696f2f6e616e6f273e3c7061746820643d274d3336332e303736203339322e323237732d2e3937372031382e3532342d33362e3837342037382e393437632d34312e3537362037302e3031382d34352e343831203135312e3937382d332e303137203232302e342038392e353231203134342e323435203333322e343831203134312e3532203432322e3535362e3038392033342e3833322d35342e3730372034342e3831362d3131372e3437392033322e3932342d3138312e323438203020302d32382e3831392d3133332e3134342d3132372e3233372d3231372e30393920312e35353320312e33303820352e3336392031392e31323220362e3130312032362e37323220322e3234312032332e3335342e3034352034372e3833382d372e3738372037302e3036322d352e3734362031362e33332d31332e3731312033302e3436372d32372e3137382034312e33363820302d332e3831312d2e3935342d31302e3633352d2e3937362d31322e3931382d2e3634342d34362e3530382d31382e3635392d38392e3538322d34382e3031312d3132352e3734332d32352e3634372d33312e3535322d36302e3831322d35332e3038392d39372e38342d36382e3933322e39333120332e31393120322e3636322031362e34313920322e3930362031392e30333320312e3930382032312e39353820322e3236332035322e3731332d2e3632312037342e363439732d372e3833322033332e3837382d31342e3535342035342e343431632d31302e3138342033312e3137352d32342e30352035342e3238352d34312e3632312038322e3030342d332e323420352e3039362d31322e3931332031392e3037382d31382e3038322032362e313436203020302d382e3839372d35362e3139312d34302e3636372d38372e393231682d2e3032327a272066696c6c3d2723303030272f3e3c7061746820643d274d3536322e352032372e32386c3431302e323739203233362e3837346331332e39323320382e3033392032322e352032322e3839352032322e352033382e393731763437332e373563302031362e3037362d382e3537372033302e3933322d32322e352033382e3937314c3536322e3520313035322e3732632d31332e39323320382e30342d33312e30373720382e30342d343520304c3130372e323231203831352e383436632d31332e3932332d382e3033392d32322e352d32322e3839352d32322e352d33382e393731762d3437332e37356134352034352030203020312032322e352d33382e3937314c3531372e352032372e323861343520343520302030203120343520307a27207374726f6b653d272330303027207374726f6b652d77696474683d2732342e3735272f3e3c2f7376673e4142434445464748494a4b4c4d4e4f505152535455565758595a6162636465666768696a6b6c6d6e6f707172737475767778797a303132333435363738392b2fa264697066735822122007798acbb16d114df7c8122543aa3c81d625239143f0d1a2843b827dbc735e9e64736f6c63430008110033",
  "linkReferences": {},
  "deployedLinkReferences": {}
}