{
  "_format": "hh-sol-artifact-1",
  "contractName": "ReleaseRegister",
  "sourceName": "contracts/lit-core/ReleaseRegister.sol",
  "abi": [
    {
      "inputs": [
        {
          "internalType": "enum ReleaseRegister.Env",
          "name": "env",
          "type": "uint8"
        }
      ],
      "stateMutability": "nonpayable",
      "type": "constructor"
    },
    {
      "inputs": [],
      "name": "ActivatorRoleRequired",
      "type": "error"
    },
    {
      "inputs": [],
      "name": "AdminRoleRequired",
      "type": "error"
    },
    {
      "inputs": [],
      "name": "BurnerRoleRequired",
      "type": "error"
    },
    {
      "inputs": [],
      "name": "CreatorRoleRequired",
      "type": "error"
    },
    {
      "inputs": [],
      "name": "DeactivatorRoleRequired",
      "type": "error"
    },
    {
      "inputs": [],
      "name": "InvalidEnv",
      "type": "error"
    },
    {
      "inputs": [],
      "name": "InvalidStatus",
      "type": "error"
    },
    {
      "inputs": [],
      "name": "ReleaseNotFound",
      "type": "error"
    },
    {
      "anonymous": false,
      "inputs": [
        {
          "indexed": false,
          "internalType": "bytes",
          "name": "pubKey",
          "type": "bytes"
        }
      ],
      "name": "AllowedAdminSigningPublicKeyAdded",
      "type": "event"
    },
    {
      "anonymous": false,
      "inputs": [
        {
          "indexed": false,
          "internalType": "bytes",
          "name": "pubKey",
          "type": "bytes"
        }
      ],
      "name": "AllowedAdminSigningPublicKeyRemoved",
      "type": "event"
    },
    {
      "anonymous": false,
      "inputs": [
        {
          "indexed": false,
          "internalType": "bytes",
          "name": "digest",
          "type": "bytes"
        }
      ],
      "name": "AllowedAuthorKeyDigestAdded",
      "type": "event"
    },
    {
      "anonymous": false,
      "inputs": [
        {
          "indexed": false,
          "internalType": "bytes",
          "name": "digest",
          "type": "bytes"
        }
      ],
      "name": "AllowedAuthorKeyDigestRemoved",
      "type": "event"
    },
    {
      "anonymous": false,
      "inputs": [
        {
          "indexed": false,
          "internalType": "enum ReleaseRegister.Env",
          "name": "env",
          "type": "uint8"
        }
      ],
      "name": "AllowedEnvAdded",
      "type": "event"
    },
    {
      "anonymous": false,
      "inputs": [
        {
          "indexed": false,
          "internalType": "enum ReleaseRegister.Env",
          "name": "env",
          "type": "uint8"
        }
      ],
      "name": "AllowedEnvRemoved",
      "type": "event"
    },
    {
      "anonymous": false,
      "inputs": [
        {
          "indexed": false,
          "internalType": "address",
          "name": "subnet",
          "type": "address"
        }
      ],
      "name": "AllowedSubnetAdded",
      "type": "event"
    },
    {
      "anonymous": false,
      "inputs": [
        {
          "indexed": false,
          "internalType": "address",
          "name": "subnet",
          "type": "address"
        }
      ],
      "name": "AllowedSubnetRemoved",
      "type": "event"
    },
    {
      "anonymous": false,
      "inputs": [
        {
          "indexed": false,
          "internalType": "bytes",
          "name": "domain",
          "type": "bytes"
        },
        {
          "indexed": false,
          "internalType": "bytes",
          "name": "authorKeyDigest",
          "type": "bytes"
        }
      ],
      "name": "InitCreator",
      "type": "event"
    },
    {
      "anonymous": false,
      "inputs": [
        {
          "indexed": false,
          "internalType": "bytes32",
          "name": "releaseId",
          "type": "bytes32"
        }
      ],
      "name": "ReleaseBurned",
      "type": "event"
    },
    {
      "anonymous": false,
      "inputs": [
        {
          "indexed": false,
          "internalType": "bytes32",
          "name": "releaseId",
          "type": "bytes32"
        },
        {
          "indexed": false,
          "internalType": "enum ReleaseRegister.Status",
          "name": "status",
          "type": "uint8"
        },
        {
          "indexed": false,
          "internalType": "enum ReleaseRegister.Env",
          "name": "env",
          "type": "uint8"
        },
        {
          "indexed": false,
          "internalType": "enum ReleaseRegister.Type",
          "name": "typ",
          "type": "uint8"
        },
        {
          "indexed": false,
          "internalType": "bytes",
          "name": "kind",
          "type": "bytes"
        },
        {
          "indexed": false,
          "internalType": "uint256",
          "name": "date",
          "type": "uint256"
        },
        {
          "indexed": false,
          "internalType": "enum ReleaseRegister.Platform",
          "name": "platform",
          "type": "uint8"
        },
        {
          "indexed": false,
          "internalType": "uint256",
          "name": "options",
          "type": "uint256"
        },
        {
          "indexed": false,
          "internalType": "bytes",
          "name": "id_key_digest",
          "type": "bytes"
        },
        {
          "indexed": false,
          "internalType": "bytes",
          "name": "public_key",
          "type": "bytes"
        },
        {
          "indexed": false,
          "internalType": "bytes",
          "name": "cid",
          "type": "bytes"
        }
      ],
      "name": "ReleaseCreated",
      "type": "event"
    },
    {
      "anonymous": false,
      "inputs": [
        {
          "indexed": false,
          "internalType": "bytes32",
          "name": "releaseId",
          "type": "bytes32"
        },
        {
          "indexed": false,
          "internalType": "enum ReleaseRegister.Status",
          "name": "status",
          "type": "uint8"
        }
      ],
      "name": "ReleaseStatusChange",
      "type": "event"
    },
    {
      "anonymous": false,
      "inputs": [
        {
          "indexed": true,
          "internalType": "bytes32",
          "name": "role",
          "type": "bytes32"
        },
        {
          "indexed": true,
          "internalType": "bytes32",
          "name": "previousAdminRole",
          "type": "bytes32"
        },
        {
          "indexed": true,
          "internalType": "bytes32",
          "name": "newAdminRole",
          "type": "bytes32"
        }
      ],
      "name": "RoleAdminChanged",
      "type": "event"
    },
    {
      "anonymous": false,
      "inputs": [
        {
          "indexed": true,
          "internalType": "bytes32",
          "name": "role",
          "type": "bytes32"
        },
        {
          "indexed": true,
          "internalType": "address",
          "name": "account",
          "type": "address"
        },
        {
          "indexed": true,
          "internalType": "address",
          "name": "sender",
          "type": "address"
        }
      ],
      "name": "RoleGranted",
      "type": "event"
    },
    {
      "anonymous": false,
      "inputs": [
        {
          "indexed": true,
          "internalType": "bytes32",
          "name": "role",
          "type": "bytes32"
        },
        {
          "indexed": true,
          "internalType": "address",
          "name": "account",
          "type": "address"
        },
        {
          "indexed": true,
          "internalType": "address",
          "name": "sender",
          "type": "address"
        }
      ],
      "name": "RoleRevoked",
      "type": "event"
    },
    {
      "inputs": [],
      "name": "ACTIVATOR_ROLE",
      "outputs": [
        {
          "internalType": "bytes32",
          "name": "",
          "type": "bytes32"
        }
      ],
      "stateMutability": "view",
      "type": "function"
    },
    {
      "inputs": [],
      "name": "ADMIN_ROLE",
      "outputs": [
        {
          "internalType": "bytes32",
          "name": "",
          "type": "bytes32"
        }
      ],
      "stateMutability": "view",
      "type": "function"
    },
    {
      "inputs": [],
      "name": "BURNER_ROLE",
      "outputs": [
        {
          "internalType": "bytes32",
          "name": "",
          "type": "bytes32"
        }
      ],
      "stateMutability": "view",
      "type": "function"
    },
    {
      "inputs": [],
      "name": "CREATOR_ROLE",
      "outputs": [
        {
          "internalType": "bytes32",
          "name": "",
          "type": "bytes32"
        }
      ],
      "stateMutability": "view",
      "type": "function"
    },
    {
      "inputs": [],
      "name": "DEACTIVATOR_ROLE",
      "outputs": [
        {
          "internalType": "bytes32",
          "name": "",
          "type": "bytes32"
        }
      ],
      "stateMutability": "view",
      "type": "function"
    },
    {
      "inputs": [],
      "name": "DEFAULT_ADMIN_ROLE",
      "outputs": [
        {
          "internalType": "bytes32",
          "name": "",
          "type": "bytes32"
        }
      ],
      "stateMutability": "view",
      "type": "function"
    },
    {
      "inputs": [],
      "name": "RELEASE_OPTION_RO",
      "outputs": [
        {
          "internalType": "uint256",
          "name": "",
          "type": "uint256"
        }
      ],
      "stateMutability": "view",
      "type": "function"
    },
    {
      "inputs": [],
      "name": "RELEASE_OPTION_SSH",
      "outputs": [
        {
          "internalType": "uint256",
          "name": "",
          "type": "uint256"
        }
      ],
      "stateMutability": "view",
      "type": "function"
    },
    {
      "inputs": [],
      "name": "RELEASE_OPTION_USERS",
      "outputs": [
        {
          "internalType": "uint256",
          "name": "",
          "type": "uint256"
        }
      ],
      "stateMutability": "view",
      "type": "function"
    },
    {
      "inputs": [
        {
          "internalType": "bytes",
          "name": "pubKey",
          "type": "bytes"
        }
      ],
      "name": "addAllowedAdminSigningPublicKey",
      "outputs": [],
      "stateMutability": "nonpayable",
      "type": "function"
    },
    {
      "inputs": [
        {
          "internalType": "enum ReleaseRegister.Env",
          "name": "env",
          "type": "uint8"
        }
      ],
      "name": "addAllowedEnv",
      "outputs": [],
      "stateMutability": "nonpayable",
      "type": "function"
    },
    {
      "inputs": [
        {
          "internalType": "address",
          "name": "subnet",
          "type": "address"
        }
      ],
      "name": "addAllowedSubnet",
      "outputs": [],
      "stateMutability": "nonpayable",
      "type": "function"
    },
    {
      "inputs": [
        {
          "internalType": "bytes32",
          "name": "releaseId",
          "type": "bytes32"
        }
      ],
      "name": "burnRelease",
      "outputs": [],
      "stateMutability": "nonpayable",
      "type": "function"
    },
    {
      "inputs": [
        {
          "internalType": "bytes32",
          "name": "releaseId",
          "type": "bytes32"
        },
        {
          "internalType": "enum ReleaseRegister.Status",
          "name": "status",
          "type": "uint8"
        },
        {
          "internalType": "enum ReleaseRegister.Env",
          "name": "env",
          "type": "uint8"
        },
        {
          "internalType": "enum ReleaseRegister.Type",
          "name": "typ",
          "type": "uint8"
        },
        {
          "internalType": "bytes",
          "name": "kind",
          "type": "bytes"
        },
        {
          "internalType": "enum ReleaseRegister.Platform",
          "name": "platform",
          "type": "uint8"
        },
        {
          "internalType": "uint256",
          "name": "options",
          "type": "uint256"
        },
        {
          "internalType": "bytes",
          "name": "id_key_digest",
          "type": "bytes"
        },
        {
          "internalType": "bytes",
          "name": "public_key",
          "type": "bytes"
        },
        {
          "internalType": "bytes",
          "name": "cid",
          "type": "bytes"
        },
        {
          "internalType": "uint256",
          "name": "date",
          "type": "uint256"
        }
      ],
      "name": "createRelease",
      "outputs": [],
      "stateMutability": "nonpayable",
      "type": "function"
    },
    {
      "inputs": [
        {
          "internalType": "enum ReleaseRegister.Env",
          "name": "env",
          "type": "uint8"
        },
        {
          "internalType": "enum ReleaseRegister.Type",
          "name": "typ",
          "type": "uint8"
        },
        {
          "internalType": "bytes",
          "name": "kind",
          "type": "bytes"
        },
        {
          "internalType": "enum ReleaseRegister.Platform",
          "name": "platform",
          "type": "uint8"
        }
      ],
      "name": "getActiveRelease",
      "outputs": [
        {
          "internalType": "bytes32",
          "name": "",
          "type": "bytes32"
        }
      ],
      "stateMutability": "view",
      "type": "function"
    },
    {
      "inputs": [],
      "name": "getActiveReleases",
      "outputs": [
        {
          "internalType": "bytes32[]",
          "name": "",
          "type": "bytes32[]"
        }
      ],
      "stateMutability": "view",
      "type": "function"
    },
    {
      "inputs": [],
      "name": "getCreatorDomain",
      "outputs": [
        {
          "internalType": "bytes",
          "name": "",
          "type": "bytes"
        }
      ],
      "stateMutability": "view",
      "type": "function"
    },
    {
      "inputs": [
        {
          "internalType": "bytes32",
          "name": "releaseId",
          "type": "bytes32"
        }
      ],
      "name": "getRelease",
      "outputs": [
        {
          "components": [
            {
              "internalType": "enum ReleaseRegister.Status",
              "name": "status",
              "type": "uint8"
            },
            {
              "internalType": "enum ReleaseRegister.Env",
              "name": "env",
              "type": "uint8"
            },
            {
              "internalType": "enum ReleaseRegister.Type",
              "name": "typ",
              "type": "uint8"
            },
            {
              "internalType": "bytes",
              "name": "kind",
              "type": "bytes"
            },
            {
              "internalType": "uint256",
              "name": "date",
              "type": "uint256"
            },
            {
              "internalType": "enum ReleaseRegister.Platform",
              "name": "platform",
              "type": "uint8"
            },
            {
              "internalType": "uint256",
              "name": "options",
              "type": "uint256"
            },
            {
              "internalType": "bytes",
              "name": "id_key_digest",
              "type": "bytes"
            },
            {
              "internalType": "bytes",
              "name": "public_key",
              "type": "bytes"
            },
            {
              "internalType": "bytes",
              "name": "cid",
              "type": "bytes"
            }
          ],
          "internalType": "struct ReleaseRegister.Release",
          "name": "",
          "type": "tuple"
        }
      ],
      "stateMutability": "view",
      "type": "function"
    },
    {
      "inputs": [
        {
          "internalType": "bytes32",
          "name": "role",
          "type": "bytes32"
        }
      ],
      "name": "getRoleAdmin",
      "outputs": [
        {
          "internalType": "bytes32",
          "name": "",
          "type": "bytes32"
        }
      ],
      "stateMutability": "view",
      "type": "function"
    },
    {
      "inputs": [
        {
          "internalType": "bytes32",
          "name": "role",
          "type": "bytes32"
        },
        {
          "internalType": "address",
          "name": "account",
          "type": "address"
        }
      ],
      "name": "grantRole",
      "outputs": [],
      "stateMutability": "nonpayable",
      "type": "function"
    },
    {
      "inputs": [
        {
          "internalType": "bytes",
          "name": "pubKey",
          "type": "bytes"
        }
      ],
      "name": "hasAllowedAdminSigningPublicKey",
      "outputs": [
        {
          "internalType": "bool",
          "name": "",
          "type": "bool"
        }
      ],
      "stateMutability": "view",
      "type": "function"
    },
    {
      "inputs": [
        {
          "internalType": "bytes",
          "name": "digest",
          "type": "bytes"
        }
      ],
      "name": "hasAllowedAuthorKeyDigest",
      "outputs": [
        {
          "internalType": "bool",
          "name": "",
          "type": "bool"
        }
      ],
      "stateMutability": "view",
      "type": "function"
    },
    {
      "inputs": [
        {
          "internalType": "enum ReleaseRegister.Env",
          "name": "env",
          "type": "uint8"
        }
      ],
      "name": "hasAllowedEnv",
      "outputs": [
        {
          "internalType": "bool",
          "name": "",
          "type": "bool"
        }
      ],
      "stateMutability": "view",
      "type": "function"
    },
    {
      "inputs": [
        {
          "internalType": "address",
          "name": "subnet",
          "type": "address"
        }
      ],
      "name": "hasAllowedSubnet",
      "outputs": [
        {
          "internalType": "bool",
          "name": "",
          "type": "bool"
        }
      ],
      "stateMutability": "view",
      "type": "function"
    },
    {
      "inputs": [],
      "name": "hasCreatorInit",
      "outputs": [
        {
          "internalType": "bool",
          "name": "",
          "type": "bool"
        }
      ],
      "stateMutability": "view",
      "type": "function"
    },
    {
      "inputs": [
        {
          "internalType": "bytes32",
          "name": "role",
          "type": "bytes32"
        },
        {
          "internalType": "address",
          "name": "account",
          "type": "address"
        }
      ],
      "name": "hasRole",
      "outputs": [
        {
          "internalType": "bool",
          "name": "",
          "type": "bool"
        }
      ],
      "stateMutability": "view",
      "type": "function"
    },
    {
      "inputs": [
        {
          "internalType": "enum ReleaseRegister.Env",
          "name": "env",
          "type": "uint8"
        },
        {
          "internalType": "address",
          "name": "subnetId",
          "type": "address"
        },
        {
          "internalType": "bytes",
          "name": "domain",
          "type": "bytes"
        },
        {
          "internalType": "bytes",
          "name": "authorKeyDigest",
          "type": "bytes"
        }
      ],
      "name": "initCreator",
      "outputs": [],
      "stateMutability": "nonpayable",
      "type": "function"
    },
    {
      "inputs": [
        {
          "internalType": "bytes",
          "name": "pubKey",
          "type": "bytes"
        }
      ],
      "name": "removeAllowedAdminSigningPublicKey",
      "outputs": [],
      "stateMutability": "nonpayable",
      "type": "function"
    },
    {
      "inputs": [
        {
          "internalType": "enum ReleaseRegister.Env",
          "name": "env",
          "type": "uint8"
        }
      ],
      "name": "removeAllowedEnv",
      "outputs": [],
      "stateMutability": "nonpayable",
      "type": "function"
    },
    {
      "inputs": [
        {
          "internalType": "address",
          "name": "subnet",
          "type": "address"
        }
      ],
      "name": "removeAllowedSubnet",
      "outputs": [],
      "stateMutability": "nonpayable",
      "type": "function"
    },
    {
      "inputs": [
        {
          "internalType": "bytes32",
          "name": "role",
          "type": "bytes32"
        },
        {
          "internalType": "address",
          "name": "account",
          "type": "address"
        }
      ],
      "name": "renounceRole",
      "outputs": [],
      "stateMutability": "nonpayable",
      "type": "function"
    },
    {
      "inputs": [
        {
          "internalType": "bytes32",
          "name": "role",
          "type": "bytes32"
        },
        {
          "internalType": "address",
          "name": "account",
          "type": "address"
        }
      ],
      "name": "revokeRole",
      "outputs": [],
      "stateMutability": "nonpayable",
      "type": "function"
    },
    {
      "inputs": [
        {
          "internalType": "bytes32",
          "name": "releaseId",
          "type": "bytes32"
        },
        {
          "internalType": "enum ReleaseRegister.Status",
          "name": "status",
          "type": "uint8"
        }
      ],
      "name": "setReleaseStatus",
      "outputs": [],
      "stateMutability": "nonpayable",
      "type": "function"
    },
    {
      "inputs": [
        {
          "internalType": "bytes4",
          "name": "interfaceId",
          "type": "bytes4"
        }
      ],
      "name": "supportsInterface",
      "outputs": [
        {
          "internalType": "bool",
          "name": "",
          "type": "bool"
        }
      ],
      "stateMutability": "view",
      "type": "function"
    }
  ],
  "bytecode": "0x60806040523480156200001157600080fd5b5060405162005118380380620051188339818101604052810190620000379190620004a1565b620000697fdf8b4c520ffe197c5343c6f5aec59570151ef9a492f2c624fd45ddde6135ec42336200027960201b60201c565b6200009b7fdf8b4c520ffe197c5343c6f5aec59570151ef9a492f2c624fd45ddde6135ec42806200028f60201b60201c565b620000ed7f3c2519c4487d47714872f92cf90a50c25f5deaec2789dc2a497b1272df611db67fdf8b4c520ffe197c5343c6f5aec59570151ef9a492f2c624fd45ddde6135ec426200028f60201b60201c565b6200013f7fce1f15692823e8a9d77ca8c1b7a2cc145ffd008750ee9d3f8604f9c52eeea73c7fdf8b4c520ffe197c5343c6f5aec59570151ef9a492f2c624fd45ddde6135ec426200028f60201b60201c565b620001917f50a3dccc47363872dd46de62b59273989edb72901adea0b961d5232bf9a1febf7fdf8b4c520ffe197c5343c6f5aec59570151ef9a492f2c624fd45ddde6135ec426200028f60201b60201c565b620001e37f9667e80708b6eeeb0053fa0cca44e028ff548e2a9f029edfeac87c118b08b7c87fdf8b4c520ffe197c5343c6f5aec59570151ef9a492f2c624fd45ddde6135ec426200028f60201b60201c565b600160036000836002811115620001ff57620001fe620004d3565b5b6002811115620002145762000213620004d3565b5b815260200190815260200160002060006101000a81548160ff0219169083151502179055507f839ad2743d4062df579edf3818f642b71ee0688a35d6bc4438ef5314cece8015816040516200026a919062000553565b60405180910390a15062000570565b6200028b8282620002f260201b60201c565b5050565b6000620002a283620003e360201b60201c565b905081600080858152602001908152602001600020600101819055508181847fbd79b86ffe0ab8e8776151514217cd7cacd52c909f66475c3af44e129f0b00ff60405160405180910390a4505050565b6200030482826200040260201b60201c565b620003df57600160008084815260200190815260200160002060000160008373ffffffffffffffffffffffffffffffffffffffff1673ffffffffffffffffffffffffffffffffffffffff16815260200190815260200160002060006101000a81548160ff021916908315150217905550620003846200046c60201b60201c565b73ffffffffffffffffffffffffffffffffffffffff168173ffffffffffffffffffffffffffffffffffffffff16837f2f8788117e7eff1d82e926ec794901d17c78024a50270940304540a733656f0d60405160405180910390a45b5050565b6000806000838152602001908152602001600020600101549050919050565b600080600084815260200190815260200160002060000160008373ffffffffffffffffffffffffffffffffffffffff1673ffffffffffffffffffffffffffffffffffffffff16815260200190815260200160002060009054906101000a900460ff16905092915050565b600033905090565b600080fd5b600381106200048757600080fd5b50565b6000815190506200049b8162000479565b92915050565b600060208284031215620004ba57620004b962000474565b5b6000620004ca848285016200048a565b91505092915050565b7f4e487b7100000000000000000000000000000000000000000000000000000000600052602160045260246000fd5b60038110620005165762000515620004d3565b5b50565b6000819050620005298262000502565b919050565b60006200053b8262000519565b9050919050565b6200054d816200052e565b82525050565b60006020820190506200056a600083018462000542565b92915050565b614b9880620005806000396000f3fe608060405234801561001057600080fd5b50600436106102065760003560e01c806370e65a451161011a578063a0908300116100ad578063d547741f1161007c578063d547741f146105ef578063d6bc626d1461060b578063db2d303b1461063b578063e1c0af0814610657578063f2dc99161461067357610206565b8063a090830014610567578063a217fddf14610597578063ad769394146105b5578063bc7ca317146105d357610206565b80638aeda25a116100e95780638aeda25a146104df5780638deb3893146104fd57806391d14854146105195780639bb4e2f71461054957610206565b806370e65a451461045957806374bc81391461047557806375b238fc146104915780637f698e92146104af57610206565b80632609e5861161019d5780632f2ff15d1161016c5780632f2ff15d146103c757806336568abe146103e35780633acd1ea3146103ff5780633dc6c8581461041d578063458be7dc1461043b57610206565b80632609e5861461033f578063277dceaf1461035b578063282c51f3146103795780632ae79b6d1461039757610206565b80630e1e59dd116101d95780630e1e59dd146102a757806319724065146102c35780631bd564dc146102df578063248a9ca31461030f57610206565b806301ffc9a71461020b578063023e92881461023b57806308740a3b146102595780630e092b1814610277575b600080fd5b610225600480360381019061022091906133d7565b61068f565b604051610232919061341f565b60405180910390f35b610243610709565b6040516102509190613502565b60405180910390f35b61026161071a565b60405161026e9190613533565b60405180910390f35b610291600480360381019061028c9190613694565b61073e565b60405161029e919061341f565b60405180910390f35b6102c160048036038101906102bc919061372e565b610773565b005b6102dd60048036038101906102d89190613813565b610e09565b005b6102f960048036038101906102f49190613977565b6114ab565b604051610306919061341f565b60405180910390f35b610329600480360381019061032491906139a4565b6114f9565b6040516103369190613533565b60405180910390f35b610359600480360381019061035491906139a4565b611518565b005b6103636116fe565b60405161037091906139e0565b60405180910390f35b610381611703565b60405161038e9190613533565b60405180910390f35b6103b160048036038101906103ac91906139fb565b611727565b6040516103be9190613533565b60405180910390f35b6103e160048036038101906103dc9190613adc565b611778565b005b6103fd60048036038101906103f89190613adc565b611799565b005b61040761181c565b60405161041491906139e0565b60405180910390f35b610425611821565b604051610432919061341f565b60405180910390f35b610443611838565b6040516104509190613533565b60405180910390f35b610473600480360381019061046e9190613694565b61185c565b005b61048f600480360381019061048a9190613977565b61192d565b005b610499611a17565b6040516104a69190613533565b60405180910390f35b6104c960048036038101906104c491906139a4565b611a3b565b6040516104d69190613de8565b60405180910390f35b6104e7611db1565b6040516104f49190613533565b60405180910390f35b61051760048036038101906105129190613977565b611dd5565b005b610533600480360381019061052e9190613adc565b611eb6565b604051610540919061341f565b60405180910390f35b610551611f20565b60405161055e9190613e54565b60405180910390f35b610581600480360381019061057c9190613e76565b611fb2565b60405161058e919061341f565b60405180910390f35b61059f612008565b6040516105ac9190613533565b60405180910390f35b6105bd61200f565b6040516105ca91906139e0565b60405180910390f35b6105ed60048036038101906105e89190613ea3565b612014565b005b61060960048036038101906106049190613adc565b612242565b005b61062560048036038101906106209190613694565b612263565b604051610632919061341f565b60405180910390f35b61065560048036038101906106509190613e76565b612298565b005b610671600480360381019061066c9190613694565b612381565b005b61068d60048036038101906106889190613e76565b612449565b005b60007f7965db0b000000000000000000000000000000000000000000000000000000007bffffffffffffffffffffffffffffffffffffffffffffffffffffffff1916827bffffffffffffffffffffffffffffffffffffffffffffffffffffffff1916148061070257506107018261253b565b5b9050919050565b606061071560096125a5565b905090565b7fce1f15692823e8a9d77ca8c1b7a2cc145ffd008750ee9d3f8604f9c52eeea73c81565b60006005826040516107509190613f7e565b908152602001604051809103902060009054906101000a900460ff169050919050565b6002600381111561078757610786613b1c565b5b81600381111561079a57610799613b1c565b5b03610804576107c97fce1f15692823e8a9d77ca8c1b7a2cc145ffd008750ee9d3f8604f9c52eeea73c33611eb6565b6107ff576040517f5c21123e00000000000000000000000000000000000000000000000000000000815260040160405180910390fd5b6108c7565b60038081111561081757610816613b1c565b5b81600381111561082a57610829613b1c565b5b03610894576108597f50a3dccc47363872dd46de62b59273989edb72901adea0b961d5232bf9a1febf33611eb6565b61088f576040517f093efaf900000000000000000000000000000000000000000000000000000000815260040160405180910390fd5b6108c6565b6040517ff525e32000000000000000000000000000000000000000000000000000000000815260040160405180910390fd5b5b600060038111156108db576108da613b1c565b5b6007600084815260200190815260200160002060000160009054906101000a900460ff16600381111561091157610910613b1c565b5b03610948576040517f28663ff800000000000000000000000000000000000000000000000000000000815260040160405180910390fd5b600060076000848152602001908152602001600020604051806101400160405290816000820160009054906101000a900460ff16600381111561098e5761098d613b1c565b5b60038111156109a05761099f613b1c565b5b81526020016000820160019054906101000a900460ff1660028111156109c9576109c8613b1c565b5b60028111156109db576109da613b1c565b5b81526020016000820160029054906101000a900460ff166003811115610a0457610a03613b1c565b5b6003811115610a1657610a15613b1c565b5b8152602001600182018054610a2a90613fc4565b80601f0160208091040260200160405190810160405280929190818152602001828054610a5690613fc4565b8015610aa35780601f10610a7857610100808354040283529160200191610aa3565b820191906000526020600020905b815481529060010190602001808311610a8657829003601f168201915b50505050508152602001600282015481526020016003820160009054906101000a900460ff166000811115610adb57610ada613b1c565b5b6000811115610aed57610aec613b1c565b5b815260200160048201548152602001600582018054610b0b90613fc4565b80601f0160208091040260200160405190810160405280929190818152602001828054610b3790613fc4565b8015610b845780601f10610b5957610100808354040283529160200191610b84565b820191906000526020600020905b815481529060010190602001808311610b6757829003601f168201915b50505050508152602001600682018054610b9d90613fc4565b80601f0160208091040260200160405190810160405280929190818152602001828054610bc990613fc4565b8015610c165780601f10610beb57610100808354040283529160200191610c16565b820191906000526020600020905b815481529060010190602001808311610bf957829003601f168201915b50505050508152602001600782018054610c2f90613fc4565b80601f0160208091040260200160405190810160405280929190818152602001828054610c5b90613fc4565b8015610ca85780601f10610c7d57610100808354040283529160200191610ca8565b820191906000526020600020905b815481529060010190602001808311610c8b57829003601f168201915b505050505081525050905060026003811115610cc757610cc6613b1c565b5b826003811115610cda57610cd9613b1c565b5b14610d3d5782610cfc8260200151836040015184606001518560a00151611727565b03610d3c576040517f08c379a0000000000000000000000000000000000000000000000000000000008152600401610d3390614078565b60405180910390fd5b5b816007600085815260200190815260200160002060000160006101000a81548160ff02191690836003811115610d7657610d75613b1c565b5b02179055507f6ae24fa3345cd7488c35e11c5278059a0a545fd008c33d2d396d917b69bed5bf8383604051610dac9291906140a7565b60405180910390a160026003811115610dc857610dc7613b1c565b5b826003811115610ddb57610dda613b1c565b5b03610dee57610de9836125c6565b610e04565b610e02836009612aeb90919063ffffffff16565b505b505050565b610e337f3c2519c4487d47714872f92cf90a50c25f5deaec2789dc2a497b1272df611db633611eb6565b610e69576040517f80510fe100000000000000000000000000000000000000000000000000000000815260040160405180910390fd5b60026003811115610e7d57610e7c613b1c565b5b8a6003811115610e9057610e8f613b1c565b5b03610efa57610ebf7fce1f15692823e8a9d77ca8c1b7a2cc145ffd008750ee9d3f8604f9c52eeea73c33611eb6565b610ef5576040517f5c21123e00000000000000000000000000000000000000000000000000000000815260040160405180910390fd5b610f8b565b60016003811115610f0e57610f0d613b1c565b5b8a6003811115610f2157610f20613b1c565b5b14158015610f535750600380811115610f3d57610f3c613b1c565b5b8a6003811115610f5057610f4f613b1c565b5b14155b15610f8a576040517ff525e32000000000000000000000000000000000000000000000000000000000815260040160405180910390fd5b5b60011515600360008b6002811115610fa657610fa5613b1c565b5b6002811115610fb857610fb7613b1c565b5b815260200190815260200160002060009054906101000a900460ff1615151461100d576040517fc8e7a97c00000000000000000000000000000000000000000000000000000000815260040160405180910390fd5b60011515600460006110208e6004612b02565b73ffffffffffffffffffffffffffffffffffffffff1673ffffffffffffffffffffffffffffffffffffffff16815260200190815260200160002060009054906101000a900460ff161515146110aa576040517f08c379a00000000000000000000000000000000000000000000000000000000081526004016110a190614168565b60405180910390fd5b600060028111156110be576110bd613b1c565b5b8960028111156110d1576110d0613b1c565b5b141580156111045750600160028111156110ee576110ed613b1c565b5b89600281111561110157611100613b1c565b5b14155b15611194576000600381111561111d5761111c613b1c565b5b600760008d815260200190815260200160002060000160009054906101000a900460ff16600381111561115357611152613b1c565b5b14611193576040517f08c379a000000000000000000000000000000000000000000000000000000000815260040161118a906141fa565b60405180910390fd5b5b6002808111156111a7576111a6613b1c565b5b8960028111156111ba576111b9613b1c565b5b036112065760006002861603611205576040517f08c379a00000000000000000000000000000000000000000000000000000000081526004016111fc9061428c565b60405180910390fd5b5b60008103611212574290505b6040518061014001604052808b600381111561123157611230613b1c565b5b81526020018a600281111561124957611248613b1c565b5b815260200189600381111561126157611260613b1c565b5b815260200188815260200182815260200187600081111561128557611284613b1c565b5b815260200186815260200185815260200184815260200183815250600760008d815260200190815260200160002060008201518160000160006101000a81548160ff021916908360038111156112de576112dd613b1c565b5b021790555060208201518160000160016101000a81548160ff0219169083600281111561130e5761130d613b1c565b5b021790555060408201518160000160026101000a81548160ff0219169083600381111561133e5761133d613b1c565b5b021790555060608201518160010190816113589190614458565b506080820151816002015560a08201518160030160006101000a81548160ff0219169083600081111561138e5761138d613b1c565b5b021790555060c0820151816004015560e08201518160050190816113b29190614458565b506101008201518160060190816113c99190614458565b506101208201518160070190816113e09190614458565b509050507f90a862cc16ebcb9b549c932013f77c422df117e24d48d7d26a7d90fbc43c3c8f8b8b8b8b8b868c8c8c8c8c6040516114279b9a99989796959493929190614557565b60405180910390a16002600381111561144357611442613b1c565b5b8a600381111561145657611455613b1c565b5b0361149e576114648b6125c6565b7f6ae24fa3345cd7488c35e11c5278059a0a545fd008c33d2d396d917b69bed5bf8b8b6040516114959291906140a7565b60405180910390a15b5050505050505050505050565b6000600360008360028111156114c4576114c3613b1c565b5b60028111156114d6576114d5613b1c565b5b815260200190815260200160002060009054906101000a900460ff169050919050565b6000806000838152602001908152602001600020600101549050919050565b6115427f9667e80708b6eeeb0053fa0cca44e028ff548e2a9f029edfeac87c118b08b7c833611eb6565b611578576040517ff4ecad6400000000000000000000000000000000000000000000000000000000815260040160405180910390fd5b6000600381111561158c5761158b613b1c565b5b6007600083815260200190815260200160002060000160009054906101000a900460ff1660038111156115c2576115c1613b1c565b5b036115f9576040517f28663ff800000000000000000000000000000000000000000000000000000000815260040160405180910390fd5b60076000828152602001908152602001600020600080820160006101000a81549060ff02191690556000820160016101000a81549060ff02191690556000820160026101000a81549060ff02191690556001820160006116599190613274565b60028201600090556003820160006101000a81549060ff0219169055600482016000905560058201600061168d9190613274565b60068201600061169d9190613274565b6007820160006116ad9190613274565b50506116c3816009612aeb90919063ffffffff16565b507fe4a7f7b48251ad70e63f800758a445b00386e2fa98d5afce96a546e8fce2114e816040516116f39190613533565b60405180910390a150565b600481565b7f9667e80708b6eeeb0053fa0cca44e028ff548e2a9f029edfeac87c118b08b7c881565b600080858585856040516020016117419493929190614682565b6040516020818303038152906040528051906020012090506008600082815260200190815260200160002054915050949350505050565b611781826114f9565b61178a81612b8f565b6117948383612ba3565b505050565b6117a1612c83565b73ffffffffffffffffffffffffffffffffffffffff168173ffffffffffffffffffffffffffffffffffffffff161461180e576040517f08c379a00000000000000000000000000000000000000000000000000000000081526004016118059061473e565b60405180910390fd5b6118188282612c8b565b5050565b600881565b6000600160009054906101000a900460ff16905090565b7f50a3dccc47363872dd46de62b59273989edb72901adea0b961d5232bf9a1febf81565b6118867fdf8b4c520ffe197c5343c6f5aec59570151ef9a492f2c624fd45ddde6135ec4233611eb6565b6118bc576040517fc890f84a00000000000000000000000000000000000000000000000000000000815260040160405180910390fd5b60016005826040516118ce9190613f7e565b908152602001604051809103902060006101000a81548160ff0219169083151502179055507fe7735e9f569fe61671662a8829db77de38ef614c77b1b136c958aff781df7c75816040516119229190613e54565b60405180910390a150565b6119577fdf8b4c520ffe197c5343c6f5aec59570151ef9a492f2c624fd45ddde6135ec4233611eb6565b61198d576040517fc890f84a00000000000000000000000000000000000000000000000000000000815260040160405180910390fd5b6001600360008360028111156119a6576119a5613b1c565b5b60028111156119b8576119b7613b1c565b5b815260200190815260200160002060006101000a81548160ff0219169083151502179055507f839ad2743d4062df579edf3818f642b71ee0688a35d6bc4438ef5314cece801581604051611a0c919061475e565b60405180910390a150565b7fdf8b4c520ffe197c5343c6f5aec59570151ef9a492f2c624fd45ddde6135ec4281565b611a436132b4565b60076000838152602001908152602001600020604051806101400160405290816000820160009054906101000a900460ff166003811115611a8757611a86613b1c565b5b6003811115611a9957611a98613b1c565b5b81526020016000820160019054906101000a900460ff166002811115611ac257611ac1613b1c565b5b6002811115611ad457611ad3613b1c565b5b81526020016000820160029054906101000a900460ff166003811115611afd57611afc613b1c565b5b6003811115611b0f57611b0e613b1c565b5b8152602001600182018054611b2390613fc4565b80601f0160208091040260200160405190810160405280929190818152602001828054611b4f90613fc4565b8015611b9c5780601f10611b7157610100808354040283529160200191611b9c565b820191906000526020600020905b815481529060010190602001808311611b7f57829003601f168201915b50505050508152602001600282015481526020016003820160009054906101000a900460ff166000811115611bd457611bd3613b1c565b5b6000811115611be657611be5613b1c565b5b815260200160048201548152602001600582018054611c0490613fc4565b80601f0160208091040260200160405190810160405280929190818152602001828054611c3090613fc4565b8015611c7d5780601f10611c5257610100808354040283529160200191611c7d565b820191906000526020600020905b815481529060010190602001808311611c6057829003601f168201915b50505050508152602001600682018054611c9690613fc4565b80601f0160208091040260200160405190810160405280929190818152602001828054611cc290613fc4565b8015611d0f5780601f10611ce457610100808354040283529160200191611d0f565b820191906000526020600020905b815481529060010190602001808311611cf257829003601f168201915b50505050508152602001600782018054611d2890613fc4565b80601f0160208091040260200160405190810160405280929190818152602001828054611d5490613fc4565b8015611da15780601f10611d7657610100808354040283529160200191611da1565b820191906000526020600020905b815481529060010190602001808311611d8457829003601f168201915b5050505050815250509050919050565b7f3c2519c4487d47714872f92cf90a50c25f5deaec2789dc2a497b1272df611db681565b611dff7fdf8b4c520ffe197c5343c6f5aec59570151ef9a492f2c624fd45ddde6135ec4233611eb6565b611e35576040517fc890f84a00000000000000000000000000000000000000000000000000000000815260040160405180910390fd5b60036000826002811115611e4c57611e4b613b1c565b5b6002811115611e5e57611e5d613b1c565b5b815260200190815260200160002060006101000a81549060ff02191690557f3f178f17dae6caf8ca09c4857502baf7744e8597de42d6596476fe9e06b8ad4781604051611eab919061475e565b60405180910390a150565b600080600084815260200190815260200160002060000160008373ffffffffffffffffffffffffffffffffffffffff1673ffffffffffffffffffffffffffffffffffffffff16815260200190815260200160002060009054906101000a900460ff16905092915050565b606060028054611f2f90613fc4565b80601f0160208091040260200160405190810160405280929190818152602001828054611f5b90613fc4565b8015611fa85780601f10611f7d57610100808354040283529160200191611fa8565b820191906000526020600020905b815481529060010190602001808311611f8b57829003601f168201915b5050505050905090565b6000600460008373ffffffffffffffffffffffffffffffffffffffff1673ffffffffffffffffffffffffffffffffffffffff16815260200190815260200160002060009054906101000a900460ff169050919050565b6000801b81565b600281565b61203e7f3c2519c4487d47714872f92cf90a50c25f5deaec2789dc2a497b1272df611db633611eb6565b612074576040517f80510fe100000000000000000000000000000000000000000000000000000000815260040160405180910390fd5b600115156003600086600281111561208f5761208e613b1c565b5b60028111156120a1576120a0613b1c565b5b815260200190815260200160002060009054906101000a900460ff161515146120f6576040517fc8e7a97c00000000000000000000000000000000000000000000000000000000815260040160405180910390fd5b81600290816121059190614458565b506001600460008573ffffffffffffffffffffffffffffffffffffffff1673ffffffffffffffffffffffffffffffffffffffff16815260200190815260200160002060006101000a81548160ff02191690831515021790555060016006826040516121709190613f7e565b908152602001604051809103902060006101000a81548160ff0219169083151502179055507f18f0396c6d01876d7610d96877b44f017ab4ca2265b13079b10e0be6b6af30d4816040516121c49190613e54565b60405180910390a17f1a7b784416b53672844a12947a59696e835a6d8dffbb0c4630a4d04812bd6278836040516121fb9190614788565b60405180910390a17f5b590cceabbeb28cd16e41a811ba46df5bb82c98920d5e7ff77e4fa9db709b3382826040516122349291906147a3565b60405180910390a150505050565b61224b826114f9565b61225481612b8f565b61225e8383612c8b565b505050565b60006006826040516122759190613f7e565b908152602001604051809103902060009054906101000a900460ff169050919050565b6122c27fdf8b4c520ffe197c5343c6f5aec59570151ef9a492f2c624fd45ddde6135ec4233611eb6565b6122f8576040517fc890f84a00000000000000000000000000000000000000000000000000000000815260040160405180910390fd5b600460008273ffffffffffffffffffffffffffffffffffffffff1673ffffffffffffffffffffffffffffffffffffffff16815260200190815260200160002060006101000a81549060ff02191690557ff580a1ea01c0ed3ec5e4797c560ee7046c3591588c0feb814f5f2d4eca50272c816040516123769190614788565b60405180910390a150565b6123ab7fdf8b4c520ffe197c5343c6f5aec59570151ef9a492f2c624fd45ddde6135ec4233611eb6565b6123e1576040517fc890f84a00000000000000000000000000000000000000000000000000000000815260040160405180910390fd5b6005816040516123f19190613f7e565b908152602001604051809103902060006101000a81549060ff02191690557ff13042255d0b58f7acc82c201a0cd4d834b0783dd7b3c29cca9b96840d633f748160405161243e9190613e54565b60405180910390a150565b6124737fdf8b4c520ffe197c5343c6f5aec59570151ef9a492f2c624fd45ddde6135ec4233611eb6565b6124a9576040517fc890f84a00000000000000000000000000000000000000000000000000000000815260040160405180910390fd5b6001600460008373ffffffffffffffffffffffffffffffffffffffff1673ffffffffffffffffffffffffffffffffffffffff16815260200190815260200160002060006101000a81548160ff0219169083151502179055507f1a7b784416b53672844a12947a59696e835a6d8dffbb0c4630a4d04812bd6278816040516125309190614788565b60405180910390a150565b60007f01ffc9a7000000000000000000000000000000000000000000000000000000007bffffffffffffffffffffffffffffffffffffffffffffffffffffffff1916827bffffffffffffffffffffffffffffffffffffffffffffffffffffffff1916149050919050565b606060006125b583600001612d6c565b905060608190508092505050919050565b600060038111156125da576125d9613b1c565b5b6007600083815260200190815260200160002060000160009054906101000a900460ff1660038111156126105761260f613b1c565b5b03612647576040517f28663ff800000000000000000000000000000000000000000000000000000000815260040160405180910390fd5b600060076000838152602001908152602001600020604051806101400160405290816000820160009054906101000a900460ff16600381111561268d5761268c613b1c565b5b600381111561269f5761269e613b1c565b5b81526020016000820160019054906101000a900460ff1660028111156126c8576126c7613b1c565b5b60028111156126da576126d9613b1c565b5b81526020016000820160029054906101000a900460ff16600381111561270357612702613b1c565b5b600381111561271557612714613b1c565b5b815260200160018201805461272990613fc4565b80601f016020809104026020016040519081016040528092919081815260200182805461275590613fc4565b80156127a25780601f10612777576101008083540402835291602001916127a2565b820191906000526020600020905b81548152906001019060200180831161278557829003601f168201915b50505050508152602001600282015481526020016003820160009054906101000a900460ff1660008111156127da576127d9613b1c565b5b60008111156127ec576127eb613b1c565b5b81526020016004820154815260200160058201805461280a90613fc4565b80601f016020809104026020016040519081016040528092919081815260200182805461283690613fc4565b80156128835780601f1061285857610100808354040283529160200191612883565b820191906000526020600020905b81548152906001019060200180831161286657829003601f168201915b5050505050815260200160068201805461289c90613fc4565b80601f01602080910402602001604051908101604052809291908181526020018280546128c890613fc4565b80156129155780601f106128ea57610100808354040283529160200191612915565b820191906000526020600020905b8154815290600101906020018083116128f857829003601f168201915b5050505050815260200160078201805461292e90613fc4565b80601f016020809104026020016040519081016040528092919081815260200182805461295a90613fc4565b80156129a75780601f1061297c576101008083540402835291602001916129a7565b820191906000526020600020905b81548152906001019060200180831161298a57829003601f168201915b5050505050815250509050600260038111156129c6576129c5613b1c565b5b816000015160038111156129dd576129dc613b1c565b5b14612a14576040517ff525e32000000000000000000000000000000000000000000000000000000000815260040160405180910390fd5b60008160200151826040015183606001518460a00151604051602001612a3d9493929190614682565b6040516020818303038152906040528051906020012090506000600860008381526020019081526020016000205490506000801b8114612ab757600760008281526020019081526020016000206002015483608001511115612ab2578360086000848152602001908152602001600020819055505b612ad0565b8360086000848152602001908152602001600020819055505b612ae4846009612dc890919063ffffffff16565b5050505050565b6000612afa8360000183612ddf565b905092915050565b60008060005b6014811015612b8157600881612b1e9190614809565b60ff60f81b868387612b30919061484b565b60208110612b4157612b4061487f565b5b1a60f81b167effffffffffffffffffffffffffffffffffffffffffffffffffffffffffffff1916901c821791508080612b79906148ae565b915050612b08565b508060601c91505092915050565b612ba081612b9b612c83565b612ef3565b50565b612bad8282611eb6565b612c7f57600160008084815260200190815260200160002060000160008373ffffffffffffffffffffffffffffffffffffffff1673ffffffffffffffffffffffffffffffffffffffff16815260200190815260200160002060006101000a81548160ff021916908315150217905550612c24612c83565b73ffffffffffffffffffffffffffffffffffffffff168173ffffffffffffffffffffffffffffffffffffffff16837f2f8788117e7eff1d82e926ec794901d17c78024a50270940304540a733656f0d60405160405180910390a45b5050565b600033905090565b612c958282611eb6565b15612d6857600080600084815260200190815260200160002060000160008373ffffffffffffffffffffffffffffffffffffffff1673ffffffffffffffffffffffffffffffffffffffff16815260200190815260200160002060006101000a81548160ff021916908315150217905550612d0d612c83565b73ffffffffffffffffffffffffffffffffffffffff168173ffffffffffffffffffffffffffffffffffffffff16837ff6391f5c32d9c69d2a47ea670b442974b53935d1edc7fd64eb21e047a839171b60405160405180910390a45b5050565b606081600001805480602002602001604051908101604052809291908181526020018280548015612dbc57602002820191906000526020600020905b815481526020019060010190808311612da8575b50505050509050919050565b6000612dd78360000183612f78565b905092915050565b60008083600101600084815260200190815260200160002054905060008114612ee7576000600182612e1191906148f6565b9050600060018660000180549050612e2991906148f6565b9050818114612e98576000866000018281548110612e4a57612e4961487f565b5b9060005260206000200154905080876000018481548110612e6e57612e6d61487f565b5b90600052602060002001819055508387600101600083815260200190815260200160002081905550505b85600001805480612eac57612eab61492a565b5b600190038181906000526020600020016000905590558560010160008681526020019081526020016000206000905560019350505050612eed565b60009150505b92915050565b612efd8282611eb6565b612f7457612f0a81612fe8565b612f188360001c6020613015565b604051602001612f29929190614a38565b6040516020818303038152906040526040517f08c379a0000000000000000000000000000000000000000000000000000000008152600401612f6b9190614aab565b60405180910390fd5b5050565b6000612f848383613251565b612fdd578260000182908060018154018082558091505060019003906000526020600020016000909190919091505582600001805490508360010160008481526020019081526020016000208190555060019050612fe2565b600090505b92915050565b606061300e8273ffffffffffffffffffffffffffffffffffffffff16601460ff16613015565b9050919050565b6060600060028360026130289190614809565b613032919061484b565b67ffffffffffffffff81111561304b5761304a613569565b5b6040519080825280601f01601f19166020018201604052801561307d5781602001600182028036833780820191505090505b5090507f3000000000000000000000000000000000000000000000000000000000000000816000815181106130b5576130b461487f565b5b60200101907effffffffffffffffffffffffffffffffffffffffffffffffffffffffffffff1916908160001a9053507f7800000000000000000000000000000000000000000000000000000000000000816001815181106131195761311861487f565b5b60200101907effffffffffffffffffffffffffffffffffffffffffffffffffffffffffffff1916908160001a905350600060018460026131599190614809565b613163919061484b565b90505b6001811115613203577f3031323334353637383961626364656600000000000000000000000000000000600f8616601081106131a5576131a461487f565b5b1a60f81b8282815181106131bc576131bb61487f565b5b60200101907effffffffffffffffffffffffffffffffffffffffffffffffffffffffffffff1916908160001a905350600485901c9450806131fc90614acd565b9050613166565b5060008414613247576040517f08c379a000000000000000000000000000000000000000000000000000000000815260040161323e90614b42565b60405180910390fd5b8091505092915050565b600080836001016000848152602001908152602001600020541415905092915050565b50805461328090613fc4565b6000825580601f1061329257506132b1565b601f0160209004906000526020600020908101906132b0919061334e565b5b50565b604051806101400160405280600060038111156132d4576132d3613b1c565b5b8152602001600060028111156132ed576132ec613b1c565b5b81526020016000600381111561330657613305613b1c565b5b8152602001606081526020016000815260200160008081111561332c5761332b613b1c565b5b8152602001600081526020016060815260200160608152602001606081525090565b5b8082111561336757600081600090555060010161334f565b5090565b6000604051905090565b600080fd5b600080fd5b60007fffffffff0000000000000000000000000000000000000000000000000000000082169050919050565b6133b48161337f565b81146133bf57600080fd5b50565b6000813590506133d1816133ab565b92915050565b6000602082840312156133ed576133ec613375565b5b60006133fb848285016133c2565b91505092915050565b60008115159050919050565b61341981613404565b82525050565b60006020820190506134346000830184613410565b92915050565b600081519050919050565b600082825260208201905092915050565b6000819050602082019050919050565b6000819050919050565b61347981613466565b82525050565b600061348b8383613470565b60208301905092915050565b6000602082019050919050565b60006134af8261343a565b6134b98185613445565b93506134c483613456565b8060005b838110156134f55781516134dc888261347f565b97506134e783613497565b9250506001810190506134c8565b5085935050505092915050565b6000602082019050818103600083015261351c81846134a4565b905092915050565b61352d81613466565b82525050565b60006020820190506135486000830184613524565b92915050565b600080fd5b600080fd5b6000601f19601f8301169050919050565b7f4e487b7100000000000000000000000000000000000000000000000000000000600052604160045260246000fd5b6135a182613558565b810181811067ffffffffffffffff821117156135c0576135bf613569565b5b80604052505050565b60006135d361336b565b90506135df8282613598565b919050565b600067ffffffffffffffff8211156135ff576135fe613569565b5b61360882613558565b9050602081019050919050565b82818337600083830152505050565b6000613637613632846135e4565b6135c9565b90508281526020810184848401111561365357613652613553565b5b61365e848285613615565b509392505050565b600082601f83011261367b5761367a61354e565b5b813561368b848260208601613624565b91505092915050565b6000602082840312156136aa576136a9613375565b5b600082013567ffffffffffffffff8111156136c8576136c761337a565b5b6136d484828501613666565b91505092915050565b6136e681613466565b81146136f157600080fd5b50565b600081359050613703816136dd565b92915050565b6004811061371657600080fd5b50565b60008135905061372881613709565b92915050565b6000806040838503121561374557613744613375565b5b6000613753858286016136f4565b925050602061376485828601613719565b9150509250929050565b6003811061377b57600080fd5b50565b60008135905061378d8161376e565b92915050565b600481106137a057600080fd5b50565b6000813590506137b281613793565b92915050565b600181106137c557600080fd5b50565b6000813590506137d7816137b8565b92915050565b6000819050919050565b6137f0816137dd565b81146137fb57600080fd5b50565b60008135905061380d816137e7565b92915050565b60008060008060008060008060008060006101608c8e03121561383957613838613375565b5b60006138478e828f016136f4565b9b505060206138588e828f01613719565b9a505060406138698e828f0161377e565b995050606061387a8e828f016137a3565b98505060808c013567ffffffffffffffff81111561389b5761389a61337a565b5b6138a78e828f01613666565b97505060a06138b88e828f016137c8565b96505060c06138c98e828f016137fe565b95505060e08c013567ffffffffffffffff8111156138ea576138e961337a565b5b6138f68e828f01613666565b9450506101008c013567ffffffffffffffff8111156139185761391761337a565b5b6139248e828f01613666565b9350506101208c013567ffffffffffffffff8111156139465761394561337a565b5b6139528e828f01613666565b9250506101406139648e828f016137fe565b9150509295989b509295989b9093969950565b60006020828403121561398d5761398c613375565b5b600061399b8482850161377e565b91505092915050565b6000602082840312156139ba576139b9613375565b5b60006139c8848285016136f4565b91505092915050565b6139da816137dd565b82525050565b60006020820190506139f560008301846139d1565b92915050565b60008060008060808587031215613a1557613a14613375565b5b6000613a238782880161377e565b9450506020613a34878288016137a3565b935050604085013567ffffffffffffffff811115613a5557613a5461337a565b5b613a6187828801613666565b9250506060613a72878288016137c8565b91505092959194509250565b600073ffffffffffffffffffffffffffffffffffffffff82169050919050565b6000613aa982613a7e565b9050919050565b613ab981613a9e565b8114613ac457600080fd5b50565b600081359050613ad681613ab0565b92915050565b60008060408385031215613af357613af2613375565b5b6000613b01858286016136f4565b9250506020613b1285828601613ac7565b9150509250929050565b7f4e487b7100000000000000000000000000000000000000000000000000000000600052602160045260246000fd5b60048110613b5c57613b5b613b1c565b5b50565b6000819050613b6d82613b4b565b919050565b6000613b7d82613b5f565b9050919050565b613b8d81613b72565b82525050565b60038110613ba457613ba3613b1c565b5b50565b6000819050613bb582613b93565b919050565b6000613bc582613ba7565b9050919050565b613bd581613bba565b82525050565b60048110613bec57613beb613b1c565b5b50565b6000819050613bfd82613bdb565b919050565b6000613c0d82613bef565b9050919050565b613c1d81613c02565b82525050565b600081519050919050565b600082825260208201905092915050565b60005b83811015613c5d578082015181840152602081019050613c42565b60008484015250505050565b6000613c7482613c23565b613c7e8185613c2e565b9350613c8e818560208601613c3f565b613c9781613558565b840191505092915050565b613cab816137dd565b82525050565b60018110613cc257613cc1613b1c565b5b50565b6000819050613cd382613cb1565b919050565b6000613ce382613cc5565b9050919050565b613cf381613cd8565b82525050565b600061014083016000830151613d126000860182613b84565b506020830151613d256020860182613bcc565b506040830151613d386040860182613c14565b5060608301518482036060860152613d508282613c69565b9150506080830151613d656080860182613ca2565b5060a0830151613d7860a0860182613cea565b5060c0830151613d8b60c0860182613ca2565b5060e083015184820360e0860152613da38282613c69565b915050610100830151848203610100860152613dbf8282613c69565b915050610120830151848203610120860152613ddb8282613c69565b9150508091505092915050565b60006020820190508181036000830152613e028184613cf9565b905092915050565b600082825260208201905092915050565b6000613e2682613c23565b613e308185613e0a565b9350613e40818560208601613c3f565b613e4981613558565b840191505092915050565b60006020820190508181036000830152613e6e8184613e1b565b905092915050565b600060208284031215613e8c57613e8b613375565b5b6000613e9a84828501613ac7565b91505092915050565b60008060008060808587031215613ebd57613ebc613375565b5b6000613ecb8782880161377e565b9450506020613edc87828801613ac7565b935050604085013567ffffffffffffffff811115613efd57613efc61337a565b5b613f0987828801613666565b925050606085013567ffffffffffffffff811115613f2a57613f2961337a565b5b613f3687828801613666565b91505092959194509250565b600081905092915050565b6000613f5882613c23565b613f628185613f42565b9350613f72818560208601613c3f565b80840191505092915050565b6000613f8a8284613f4d565b915081905092915050565b7f4e487b7100000000000000000000000000000000000000000000000000000000600052602260045260246000fd5b60006002820490506001821680613fdc57607f821691505b602082108103613fef57613fee613f95565b5b50919050565b600082825260208201905092915050565b7f4d757374207265706c616365206163746976652072656c65617365206265666f60008201527f7265206368616e67696e67207374617475732066726f6d204163746976650000602082015250565b6000614062603e83613ff5565b915061406d82614006565b604082019050919050565b6000602082019050818103600083015261409181614055565b9050919050565b6140a181613b72565b82525050565b60006040820190506140bc6000830185613524565b6140c96020830184614098565b9392505050565b7f5468652070726f7669646564207375626e6574202877697468696e207468652060008201527f72656c6561736520696429206973206e6f742076616c696420666f722074686960208201527f7320636f6e747261637400000000000000000000000000000000000000000000604082015250565b6000614152604a83613ff5565b915061415d826140d0565b606082019050919050565b6000602082019050818103600083015261418181614145565b9050919050565b7f412072656c656173652077697468207468697320494420616c7265616479206560008201527f7869737473000000000000000000000000000000000000000000000000000000602082015250565b60006141e4602583613ff5565b91506141ef82614188565b604082019050919050565b60006020820190508181036000830152614213816141d7565b9050919050565b7f54686520524f206f7074696f6e20697320726571756972656420666f7220707260008201527f6f642072656c6561736573000000000000000000000000000000000000000000602082015250565b6000614276602b83613ff5565b91506142818261421a565b604082019050919050565b600060208201905081810360008301526142a581614269565b9050919050565b60008190508160005260206000209050919050565b60006020601f8301049050919050565b600082821b905092915050565b60006008830261430e7fffffffffffffffffffffffffffffffffffffffffffffffffffffffffffffffff826142d1565b61431886836142d1565b95508019841693508086168417925050509392505050565b6000819050919050565b600061435561435061434b846137dd565b614330565b6137dd565b9050919050565b6000819050919050565b61436f8361433a565b61438361437b8261435c565b8484546142de565b825550505050565b600090565b61439861438b565b6143a3818484614366565b505050565b5b818110156143c7576143bc600082614390565b6001810190506143a9565b5050565b601f82111561440c576143dd816142ac565b6143e6846142c1565b810160208510156143f5578190505b614409614401856142c1565b8301826143a8565b50505b505050565b600082821c905092915050565b600061442f60001984600802614411565b1980831691505092915050565b6000614448838361441e565b9150826002028217905092915050565b61446182613c23565b67ffffffffffffffff81111561447a57614479613569565b5b6144848254613fc4565b61448f8282856143cb565b600060209050601f8311600181146144c257600084156144b0578287015190505b6144ba858261443c565b865550614522565b601f1984166144d0866142ac565b60005b828110156144f8578489015182556001820191506020850194506020810190506144d3565b868310156145155784890151614511601f89168261441e565b8355505b6001600288020188555050505b505050505050565b61453381613bba565b82525050565b61454281613c02565b82525050565b61455181613cd8565b82525050565b60006101608201905061456d600083018e613524565b61457a602083018d614098565b614587604083018c61452a565b614594606083018b614539565b81810360808301526145a6818a613e1b565b90506145b560a08301896139d1565b6145c260c0830188614548565b6145cf60e08301876139d1565b8181036101008301526145e28186613e1b565b90508181036101208301526145f78185613e1b565b905081810361014083015261460c8184613e1b565b90509c9b505050505050505050505050565b60008160f81b9050919050565b60006146368261461e565b9050919050565b61464e61464982613bba565b61462b565b82525050565b61466561466082613c02565b61462b565b82525050565b61467c61467782613cd8565b61462b565b82525050565b600061468e828761463d565b60018201915061469e8286614654565b6001820191506146ae8285613f4d565b91506146ba828461466b565b60018201915081905095945050505050565b7f416363657373436f6e74726f6c3a2063616e206f6e6c792072656e6f756e636560008201527f20726f6c657320666f722073656c660000000000000000000000000000000000602082015250565b6000614728602f83613ff5565b9150614733826146cc565b604082019050919050565b600060208201905081810360008301526147578161471b565b9050919050565b6000602082019050614773600083018461452a565b92915050565b61478281613a9e565b82525050565b600060208201905061479d6000830184614779565b92915050565b600060408201905081810360008301526147bd8185613e1b565b905081810360208301526147d18184613e1b565b90509392505050565b7f4e487b7100000000000000000000000000000000000000000000000000000000600052601160045260246000fd5b6000614814826137dd565b915061481f836137dd565b925082820261482d816137dd565b91508282048414831517614844576148436147da565b5b5092915050565b6000614856826137dd565b9150614861836137dd565b9250828201905080821115614879576148786147da565b5b92915050565b7f4e487b7100000000000000000000000000000000000000000000000000000000600052603260045260246000fd5b60006148b9826137dd565b91507fffffffffffffffffffffffffffffffffffffffffffffffffffffffffffffffff82036148eb576148ea6147da565b5b600182019050919050565b6000614901826137dd565b915061490c836137dd565b9250828203905081811115614924576149236147da565b5b92915050565b7f4e487b7100000000000000000000000000000000000000000000000000000000600052603160045260246000fd5b600081905092915050565b7f416363657373436f6e74726f6c3a206163636f756e7420000000000000000000600082015250565b600061499a601783614959565b91506149a582614964565b601782019050919050565b600081519050919050565b60006149c6826149b0565b6149d08185614959565b93506149e0818560208601613c3f565b80840191505092915050565b7f206973206d697373696e6720726f6c6520000000000000000000000000000000600082015250565b6000614a22601183614959565b9150614a2d826149ec565b601182019050919050565b6000614a438261498d565b9150614a4f82856149bb565b9150614a5a82614a15565b9150614a6682846149bb565b91508190509392505050565b6000614a7d826149b0565b614a878185613ff5565b9350614a97818560208601613c3f565b614aa081613558565b840191505092915050565b60006020820190508181036000830152614ac58184614a72565b905092915050565b6000614ad8826137dd565b915060008203614aeb57614aea6147da565b5b600182039050919050565b7f537472696e67733a20686578206c656e67746820696e73756666696369656e74600082015250565b6000614b2c602083613ff5565b9150614b3782614af6565b602082019050919050565b60006020820190508181036000830152614b5b81614b1f565b905091905056fea2646970667358221220ba24249f67b60ad04ba010b93bddf89694295bcb1abddc043f706bfac27aa53864736f6c63430008110033",
  "linkReferences": {},
  "deployedLinkReferences": {}
}